:1000000086C100000C94C94D0C94F44D0C941F4E05
:100010000C944A4E0C94754E0C94A04E0C94CB4EFE
:100020000C94F64EA5C10000A3C10000A1C10000C0
:100030009FC100009DC100009BC1000099C100004C
:1000400097C1000095C1000093C1000091C100005C
:100050008FC100008DC100008BC100000C94214FA6
:1000600087C100000C944D530C94835381C1000050
:100070007FC100007DC100007BC1000079C100008C
:1000800077C1000075C1000073C1000071C100009C
:100090000C94D9530C940F546BC100000C945F3432
:1000A00067C1000065C1000063C1000061C10000BC
:1000B0005FC100005DC100005BC1000059C10000CC
:1000C00057C1000055C100000C94183D0C946554B4
:1000D0000C949B544DC100000C94F1540C94275582
:1000E00047C10000001D3A2774694E53E8F5D2CF8E
:1000F0009C81A6BBCDD0F7EAB9A4839E25381F0208
:10010000514C6B76879ABDA0F3EEC9D46F725548F7
:100110001B06213C4A57706D3E230419A2BF9885E7
:10012000D6CBECF1130E2934677A5D40FBE6C1DCD7
:100130008F92B5A8DEC3E4F9AAB7908D362B0C11C7
:10014000425F78659489AEB3E0FDDAC77C61465BB7
:100150000815322F5944637E2D30170AB1AC8B96A7
:10016000C5D8FFE2263B1C01524F6875CED3F4E997
:10017000BAA7809DEBF6D1CC9F82A5B8031E392487
:10018000776A4D50A1BC9B86D5C8EFF24954736E77
:100190003D20071A6C71564B1805223F8499BEA367
:1001A000F0EDCAD735280F12415C7B66DDC0E7FA57
:1001B000A9B4938EF8E5C2DF8C91B6AB100D2A3747
:1001C00064795E43B2AF8895C6DBFCE15A47607D37
:1001D0002E3314097F6245580B16312C978AADB027
:1001E000E3FED9C400000A0B02090C0D0E08070338
:1001F00004010000000000000000000000000000FA
:1002000000000000000000000000000000000000EE
:1002100012111000000000000000000000000000AB
:100220000000000000000000000001021020200873
:100230000810204010204080020102010804020141
:1002400001020408102040808040201008040201B0
:100250008004020180402010080402010804020109
:100260000102040810204080010204081020408090
:1002700005050505070508080808020202020A0A22
:100280000808040404040101010101010101030340
:10029000030303030303040707070C0C0C0C0C0CEB
:1002A0000C0C0202020206060606060606060B0BE8
:1002B0000B0B0B0B0B0B000020002300260029006A
:1002C0002C002F003200000100000301060109018B
:1002D00000002200250028002B002E0031003400F1
:1002E00002010000050108010B01000021002400AB
:1002F00027002A002D003000330001010000040116
:1003000007010A01D53CAC533854C454505511244C
:100310001FBECFEFD1E2DEBFCDBF00E00CBF16E0C5
:10032000A0E0B2E0EEEDF3EB00E00BBF02C00790FF
:100330000D92AA3EB107D9F72DE0AAEEB6E001C0B2
:100340001D92AD37B207E1F711E0C7E8D1E000E058
:1003500006C021970109802FFE010E946358C23810
:10036000D10780E00807A9F70E94C0490C94ED5915
:1003700047CE611102C00C9492516130E1F362E00A
:10038000FACF662319F061E00C94CE5160E0FCCF07
:10039000AB01BC0186E399E00C94E257AB01BC01D0
:1003A00083ED99E00C94E257AB01BC0180E79AE041
:1003B0000C94E257AB01BC018DE09BE00C94E2573A
:1003C0008F929F92AF92BF92CF92DF92EF92FF9265
:1003D0000F931F93CF93DF93CDB7DEB77B014A0115
:1003E0005901CDB6DEB69B01220F331F4DB75EB764
:1003F000421B530B0FB6F8945EBF0FBE4DBF0DB737
:100400001EB70F5F1F4FE82FF0E0EE0FFF1FE25FF8
:10041000FD4F0190F081E02DC8011995F801D4013C
:10042000E00EF11EEE15FF0519F081918D93FACFC4
:1004300081E0F50180830FB6F894DEBE0FBECDBE1D
:10044000DF91CF911F910F91FF90EF90DF90CF90B0
:10045000BF90AF909F908F9008959F92AF92BF9260
:10046000CF92DF92EF92FF920F931F93CF93DF9380
:10047000CDB7DEB7C054D1090FB6F894DEBF0FBEBA
:10048000CDBFB82E8B01942EA52E6901E82EF12C3C
:10049000EE0CFF1CF701EA5FFD4F0190F081E02DAB
:1004A000199580179107C9F49601492D5A2DBC0161
:1004B0008B2D86DFC05CDF4F0FB6F894DEBF0FBE1A
:1004C000CDBFDF91CF911F910F91FF90EF90DF9003
:1004D000CF90BF90AF909F9008958017910748F4F8
:1004E000E92DFA2D0E0F1F1FE017F10719F11192D8
:1004F000FBCF9801220F331F2817390728F09601E8
:10050000492D5A2DB801D4CFB8010E941A58CB01F9
:100510000197809FB001819F700D909F700D1124F5
:10052000F701E25FFD4F0190F081E02DCE010196D1
:100530001995E5CFF6011082BDCF86E399E00C94C2
:10054000235283ED99E00C94235280E79AE00C94B7
:1005500023528DE09BE00C9423528823E1F08230FB
:1005600061F0833089F08130B1F440E855E260E019
:1005700070E081E090E00C94FA3C40E855E260E0E5
:1005800070E082E090E0F7CF40E052EC61E070E094
:1005900083E090E0F0CF08954F925F926F927F9248
:1005A0008F929F92AF92BF92CF92EF92FF920F9352
:1005B0001F93CF93DF93CDB7DEB72B013A01F02E17
:1005C000B40130E02830310511F424E030E00AE0D5
:1005D00010E0CC2061F091E000E110E0C91639F0A4
:1005E000E2E008E010E0CE1611F002E010E0813009
:1005F00009F4E8C0B0F0823009F4C5C1833009F4D1
:10060000A3C2DF91CF911F910F91FF90EF90CF90F8
:10061000BF90AF909F908F907F906F905F904F9022
:100620000895F1101BC0269DA001279D500D369DF9
:10063000500D1124B20186E399E0DF91CF911F9113
:100640000F91FF90EF90CF90BF90AF909F908F90C1
:100650007F906F905F904F900C947D5586E399E06A
:100660000E94B955E11014C0640C751C6414750423
:1006700041F2F20161912F01F1E0A80186E399E0D6
:10068000FF1203C00E948B56F1CF0E949156EECF0D
:1006900081E0E81215C091E0691A710808F4B1CF41
:1006A000F201619171912F01F1E0A80186E399E0D7
:1006B000FF1203C00E94A156EECF0E94A656EBCFB8
:1006C00082E0E81217C091E0691A710808F499CF26
:1006D000F20141915191619171912F01F1E09801E5
:1006E00086E399E0FF1203C00E947F56ECCF0E9480
:1006F000B656E9CF83E0E81218C0640C751C641488
:10070000750409F47ECFF20161912F01062E000CD1
:10071000770BF1E0A80186E399E0FF1203C00E9485
:100720005956EDCF0E945F56EACF84E0E81215C01B
:1007300091E0691A710808F464CFF2016191719136
:100740002F01F1E0A80186E399E0FF1203C00E94A7
:100750005956EECF0E945F56EBCF85E0E81217C0E6
:1007600091E0691A710808F44CCFF201419151915E
:10077000619171912F01F1E0980186E399E0FF12F8
:1007800003C00E941456ECCF0E946F56E9CF86E05A
:10079000E81237CFB12C91E0691A710808F431CF13
:1007A000F20141915191619171912F01F1E0950117
:1007B00086E399E0FF1203C00E94A357ECCF0E948A
:1007C000A457E9CFF1100BC0269DA001279D500D25
:1007D000369D500D1124B20183ED99E02ECF83EDAB
:1007E00099E00E94B955E11015C0640C751C4614BF
:1007F000570409F406CFF20161912F01F1E0A8013D
:1008000083ED99E0FF1203C00E948B56F0CF0E9447
:100810009156EDCF81E0E81215C091E0691A710898
:1008200008F4EFCEF201619171912F01F1E0A8017E
:1008300083ED99E0FF1203C00E94A156EECF0E9403
:10084000A656EBCF82E0E81217C091E0691A710852
:1008500008F4D7CEF20141915191619171912F012C
:10086000F1E0980183ED99E0FF1203C00E947F56EA
:10087000ECCF0E94B656E9CF83E0E81218C0640CB2
:10088000751C6414750409F4BCCEF20161912F014A
:10089000062E000C770BF1E0A80183ED99E0FF1222
:1008A00003C00E945956EDCF0E945F56EACF84E004
:1008B000E81215C091E0691A710808F4A2CEF2019D
:1008C000619171912F01F1E0A80183ED99E0FF1290
:1008D00003C00E945956EECF0E945F56EBCF85E0D1
:1008E000E81217C091E0691A710808F48ACEF20183
:1008F00041915191619171912F01F1E0980183ED46
:1009000099E0FF1203C00E941456ECCF0E946F566C
:10091000E9CF86E0E81275CEB12C91E0691A710832
:1009200008F46FCEF20141915191619171912F01C3
:10093000F1E0FF1214C0C11006C0950183ED99E0EB
:100940000E94A357EACFCB01BA010E942D4BAB0105
:10095000BC01980183ED99E00E941456DECFC110CE
:1009600006C0950183ED99E00E94A457D6CFCB0134
:10097000BA010E942D4BAB01BC01980183ED99E0B7
:100980000E946F56CACFF1100BC0269DA001279D73
:10099000500D369D500D1124B20180E79AE04DCEE6
:1009A00080E79AE00E94B955E11015C0640C751CEF
:1009B0004614570409F425CEF20161912F01F1E0AC
:1009C000A80180E79AE0FF1203C00E948B56F0CF87
:1009D0000E949156EDCF81E0E81215C091E0691AAE
:1009E000710808F40ECEF201619171912F01F1E0CE
:1009F000A80180E79AE0FF1203C00E94A156EECF43
:100A00000E94A656EBCF82E0E81217C091E0691A67
:100A1000710808F4F6CDF201419151916191719103
:100A20002F01F1E0980180E79AE0FF1203C00E94D5
:100A30007F56ECCF0E94B656E9CF83E0E81218C08B
:100A4000640C751C6414750409F4DBCDF20161912A
:100A50002F01062E000C770BF1E0A80180E79AE049
:100A6000FF1203C00E945956EDCF0E945F56EACF95
:100A700084E0E81215C091E0691A710808F4C1CD4C
:100A8000F201619171912F01F1E0A80180E79AE0F4
:100A9000FF1203C00E945956EECF0E945F56EBCF63
:100AA00085E0E81217C091E0691A710808F4A9CD31
:100AB000F20141915191619171912F01F1E0980101
:100AC00080E79AE0FF1203C00E941456ECCF0E9408
:100AD0006F56E9CF86E0E81294CDB12C91E0691A07
:100AE000710808F48ECDF20141915191619171919B
:100AF0002F01F1E0FF1214C0C11006C0950180E77C
:100B00009AE00E94A357EACFCB01BA010E942D4B75
:100B1000AB01BC01980180E79AE00E941456DECF39
:100B2000C11006C0950180E79AE00E94A457D6CF75
:100B3000CB01BA010E942D4BAB01BC01980180E7AB
:100B40009AE00E946F56CACFF1100BC0269DA001FB
:100B5000279D500D369D500D1124B2018DE09BE074
:100B60006CCD8DE09BE00E94B955E11015C0640C7E
:100B7000751C6414750409F444CDF20161912F01D0
:100B8000F1E0A8018DE09BE0FF1203C00E948B56AC
:100B9000F0CF0E949156EDCF81E0E81215C091E0B0
:100BA000691A710808F42DCDF201619171912F013C
:100BB000F1E0A8018DE09BE0FF1203C00E94A15666
:100BC000EECF0E94A656EBCF82E0E81217C091E06C
:100BD000691A710808F415CDF201419151916191A2
:100BE00071912F01F1E098018DE09BE0FF1203C0AD
:100BF0000E947F56ECCF0E94B656E9CF83E0E81200
:100C000018C0640C751C6414750409F4FACCF20164
:100C100061912F01062E000C770BF1E0A8018DE009
:100C20009BE0FF1203C00E945956EDCF0E945F5611
:100C3000EACF84E0E81215C091E0691A710808F45F
:100C4000E0CCF201619171912F01F1E0A8018DE0FA
:100C50009BE0FF1203C00E945956EECF0E945F56E0
:100C6000EBCF85E0E81217C091E0691A710808F42B
:100C7000C8CCF20141915191619171912F01F1E044
:100C800098018DE09BE0FF1203C00E941456ECCF48
:100C90000E946F56E9CF86E0E812B3CCB12C91E008
:100CA000691A710808F4ADCCF2014191519161913A
:100CB00071912F01F1E0FF1214C0C11006C095011F
:100CC0008DE09BE00E94A357EACFCB01BA010E94BE
:100CD0002D4BAB01BC0198018DE09BE00E941456A6
:100CE000DECFC11006C095018DE09BE00E94A457A5
:100CF000D6CFCB01BA010E942D4BAB01BC019801AC
:100D00008DE09BE00E946F56CACF0895CF92DF928C
:100D1000EF92FF92CF93882351F16A017B01CFEFCD
:100D2000C80F20E030E0A901CB01B6010E94C14A02
:100D300087FF11C0C701B60190580E94324B9B013A
:100D4000AC016C2F70E090E080E0CF91FF90EF90CD
:100D5000DF90CF90B2C0C701B6010E942D4B8C2FFF
:100D6000CF91FF90EF90DF90CF900C945850CF919F
:100D7000FF90EF90DF90CF9008950F931F938B011A
:100D80009C0183E036952795179507958A95D1F7AD
:100D90000651194F462F477021E030E0F90102C09B
:100DA000EE0FFF1F4A95E2F7AF01F80120812423DF
:100DB000CB010196211102C090E080E01F910F91BC
:100DC00008950F931F938B019C0183E0369527951F
:100DD000179507958A95D1F7677081E090E001C07B
:100DE000880F6A95EAF7F801E651F94F2081452B03
:100DF00031F48095822380831F910F910895822B77
:100E0000FACF2F923F924F925F926F927F928F9282
:100E10009F92AF92BF92CF92DF92EF92FF920F9389
:100E20001F93CF93DF93D62EC72E782E692E4901BC
:100E30005A01280161E08D2D0E949251CD2DDC2DAB
:100E40008E010F5F1F4FA8016D2D7C2D872D962DD4
:100E5000B8DF20E030E0A901C201B7010E94B14C27
:100E6000181664F4C201B7010E94324B2B01C50170
:100E7000B4010E94324BA201CE0123D0C801DF9100
:100E8000CF911F910F91FF90EF90DF90CF90BF9087
:100E9000AF909F908F907F906F905F904F903F901A
:100EA0002F900895882341F08150682F70E090E0E2
:100EB00080E050E040E085CF0895862FB9010C9482
:100EC00058509C01FC01EC51FE4FE491E150E2319D
:100ED000E0F4F0E08827E059F84F8F4F0C94635806
:100EE000820789078C07A307B8078507CD07D907AD
:100EF000DD07F40709081E0835084A0885075F085A
:100F000076088B0884B5806884BD60E0822F0C94DD
:100F1000CE5184B58062F8CF809180008C7F826052
:100F20008093800080918100807E8061682B609337
:100F300081005093870040938600809180008068F4
:100F400080938000E2CF809180008C7F82608093CC
:100F5000800080918100807E8061682B6093810099
:100F60005093870040938600809180008062E8CF94
:100F7000809180008C7F82608093800080918100CE
:100F8000807E8061682B609381005093870040933E
:100F90008600809180008860D3CF8091B000806807
:100FA0008093B0008091B100887F682B6093B1007E
:100FB000ACCF8091B0008062F3CF809190008C7FA5
:100FC00082608093900080919100807E8061682B88
:100FD0006093910050939700409396008091900009
:100FE00080688093900091CF809190008C7F826088
:100FF0008093900080919100807E8061682B609347
:1010000091005093970040939600809190008062E9
:10101000E8CF809190008C7F8260809390008091D7
:101020009100807E8061682B6093910050939700BF
:1010300040939600809190008860D3CF8091A0006B
:101040008C7F82608093A0008091A100807E80616F
:10105000682B6093A1005093A7004093A600809155
:10106000A00080688093A00050CF8091A0008C7F6A
:1010700082608093A0008091A100807E8061682BB7
:101080006093A1005093A7004093A6008091A00018
:101090008062E8CF8091A0008C7F82608093A00066
:1010A0008091A100807E8061682B6093A1005093A5
:1010B000A7004093A6008091A0008860D3CF8091C4
:1010C00020018C7F82608093200180912101807EAD
:1010D0008061682B60932101509327014093260182
:1010E000809120018068809320010FCF80912001A2
:1010F0008C7F82608093200180912101807E8061BD
:10110000682B609321015093270140932601809121
:1011100020018062E8CF809120018C7F82608093E3
:10112000200180912101807E8061682B60932101E4
:101130005093270140932601809120018860D3CFEE
:10114000CF93DF93882349F0EB0181500E94355003
:1011500099838883DF91CF910895FB0111821082DA
:10116000F9CF0F931F938B019C0183E03695279550
:10117000179507958A95D1F70D50194F462F47704F
:1011800021E030E0F90102C0EE0FFF1F4A95E2F7BF
:10119000AF01F80120812423CB010196211102C067
:1011A00090E080E01F910F9108950F931F938B01A2
:1011B0009C0183E036952795179507958A95D1F779
:1011C000677081E090E001C0880F6A95EAF7F80146
:1011D000ED50F94F2081452B31F480958223808397
:1011E0001F910F910895822BFACFCF92DF92EF9249
:1011F000FF92CF93DF936B017C0160E086E3C8161A
:10120000D104E104F10490F486E38C0D0E94925124
:10121000E6012196AE01C701B601C7DFCE01DF911D
:10122000CF91FF90EF90DF90CF9008958C2DEECF6F
:10123000882341F08150682F70E090E080E050E01A
:1012400040E0B3CF08952F923F924F925F926F92FA
:101250007F928F929F92AF92BF92CF92DF92EF9246
:10126000FF920F931F93CF93DF9300D01F92CDB7C0
:10127000DEB78B015C834B83FB01E150F04CEE0F3A
:10128000FF1FEE0FFF1FE80FF91F408151816281A0
:10129000738177FD27C04C01B12CA12CC12CD12C1E
:1012A0007601A016B10664F5F40161917191819106
:1012B00091914F010E945E4B4B815C810E94B74C23
:1012C0009B01AC01C701B6010E944A4A6B017C0137
:1012D0002B813C81205E3F4F3C832B833FEFA31A41
:1012E000B30ADFCF9A838983312C212C81E090E0EF
:1012F000A0E0B0E0C12CD12C760120163106CCF054
:10130000C701B6010F900F900F900F90DF91CF9112
:101310001F910F91FF90EF90DF90CF90BF90AF9013
:101320009F908F907F906F905F904F903F902F9005
:101330000895E981FA814190519061907190FA830A
:10134000E983409450946094709453014201880E54
:10135000991EAA1EBB1EC501B4010E945E4B4B81A3
:101360005C810E94B74C9B01AC01C701B6010E9491
:10137000494A6B017C0181E084149504A604B704FA
:1013800008F080E090E0B0E0A0E02B813C81205E9E
:101390003F4F3C832B833FEF231A330AAECF2F926C
:1013A0003F924F925F926F927F928F929F92AF92F5
:1013B000BF92CF92DF92EF92FF920F931F93CF9342
:1013C000DF93CDB7DEB7CB54D1090FB6F894DEBFAB
:1013D0000FBECDBF26967FAF6EAF269728965FAF24
:1013E0004EAF28973E8B2D8B2C96FFAEEEAE2C97F2
:1013F000FB01E150F04CEE0FFF1FEE0FFF1FE80F57
:10140000F91F80809180A280B3808F8A988EA98EE8
:10141000BA8EB501A401442777FD43955527662769
:10142000772729964FAF2997F901E150F04CEE0F3D
:10143000FF1FEE0FFF1F2896AEACBFAC2897EA0D3A
:10144000FB1DC080D180E280F380CB8EDC8EED8EE0
:10145000FE8EB701A601442777FD439555276627E1
:1014600077272A964FAF2A97188B0F87F80130E01D
:1014700020E02C96EEACFFAC2C972E153F050CF41B
:101480003FC022969FAF8EAF22971A8B098B312CCB
:10149000212C812C912C540183948D829E82AF82C9
:1014A000B88626968EAC9FAC2697281439047CF11A
:1014B00029969FAC29972A96AFAC2A9730E020E076
:1014C00041E050E060E070E09A10F5C1C55BDF4F8D
:1014D0000FB6F894DEBF0FBECDBFDF91CF911F9145
:1014E0000F91FF90EF90DF90CF90BF90AF909F90C3
:1014F0008F907F906F905F904F903F902F900895C6
:1015000011921192119211922F5F3F4FB2CF2296FA
:10151000EEADFFAD229781919191A191B19122966B
:10152000FFAFEEAF22978F88988CA98CBA8CB7FE4C
:1015300023C04D815E816F817885415051096109D9
:1015400071095A016B01A81AB90ACA0ADB0AD60145
:10155000C50121E0CD80DE80EF80F8848C159D05EB
:10156000AE05BF0508F020E0822E912CB12CA12CF5
:101570008D829E82AF82B8865D01CC24DD24A8A234
:10158000B9A2CAA2DBA29C01AD01442755272CA316
:101590003DA34EA35FA32C96EEADFFAD2C97E219B1
:1015A000F3098D889E888E169F060CF4F401289608
:1015B000AEACBFAC28972496BFAEAEAE2497C98818
:1015C000DA88DC8ACB8A1E861D86812C912C5401F8
:1015D000839489869A86AB86BC86812C912C540193
:1015E000CD84DE84CE16DF0604F1F7FF02C0F0E002
:1015F000E0E0E20DF31D2C96EEACFFAC2C97EE155F
:10160000FF0554F4EE0FFF1FEE0FFF1FE00FF11F59
:1016100080829182A282B3822FEF221A320AE98954
:10162000FA893496FA8BE98B3CCF2496AEADBFADE8
:101630002497CD90DD90ED90FD902496BFAFAEAF96
:1016400024972B8D3C8D4D8D5E8D57FF22C0898553
:101650009A85AB85BC850197A109B109AC01BD0193
:101660004C195D096E097F096A017B0181E02985BA
:101670003A854B855C85C216D306E406F50608F06C
:1016800080E0482F50E070E060E049875A876B8720
:101690007C87B7018827992768A779A78AA79BA77E
:1016A000EE24FF2428A139A14AA15BA1C701B601FC
:1016B0000E940B582B013C012CA13DA14EA15FA122
:1016C00068A579A58AA59BA50E940B586CA77DA744
:1016D0008EA79FA7AB89BC894D915D916D917D913E
:1016E000BC8BAB8BDB01CA01880D991DAA1DBB1DEC
:1016F00089839A83AB83BC8391E09F8F29813A8150
:101700004B815C81281539054A055B0508F01F8E61
:101710002CA13DA14EA15FA1C701B6010E940B58AB
:101720006B017C0189809A80AB80BC808C0C9D1CF5
:10173000AE1CBF1C89829A82AB82BC825201992462
:10174000882488AA99AAAAAABBAA29813A814B818E
:101750005C81280D391D4A1D5B1D2CAB3DAB4EAB8A
:101760005FAB8CA49DA4AEA4BFA45401992488248B
:1017700088AE99AEAAAEBBAE280D391D4A1D5B1DC1
:101780002CAF3DAF4EAF5FAFAB89BC8914972D93A3
:101790003D934D935C93139728A139A14AA15BA176
:1017A00068A579A58AA59BA50E940B589F8C690DF9
:1017B000711D811D911D230166247724460E571E3D
:1017C000681E791E2CA53DA54EA55FA54A01AA2439
:1017D000BB24840C951CA61CB71C81E090E0A0E003
:1017E000B0E049815A816B817C814C155D056E05A5
:1017F0007F0518F080E090E0DC01880D991DAA1D9E
:10180000BB1D41E050E060E070E088A899A8AAA85C
:10181000BBA8CCA8DDA8EEA8FFA8C814D904EA0488
:10182000FB0418F040E050E0BA01840F951FA61F9A
:10183000B71F812C912C54018394C8ACD9ACEAAC6D
:10184000FBAC2CAD3DAD4EAD5FAD2C153D054E0551
:101850005F0518F0812C912C5401880E991EAA1E48
:10186000BB1E4D855E854F5F5F4F5E874D87B8CE4F
:10187000EF85F889C190D190E190F190F88BEF87D6
:10188000DB01CA010197A109B1098C199D09AE09B3
:10189000BF09349780839183A283B383E1E08417E7
:1018A0009507A607B70708F0E0E04E2F50E070E07C
:1018B00060E02F5F3F4F2C968EAC9FAC2C97281585
:1018C0003905B4F203CE4F925F926F927F928F925E
:1018D0009F92AF92BF92CF92DF92EF92FF92CF93FF
:1018E000DF939A012150304C220F331F220F331FF8
:1018F000FC01E20FF31F80809180A280B380FB0186
:10190000E20FF31FC080D180E280F380CC24DD247D
:10191000EE24E0E8FE222401350144245524662407
:10192000E0E87E22C414D504E604F70499F52C5FA0
:101930003F4FFC01E20FF31FEB01C20FD31F141640
:1019400015068CF090E080E0DF91CF91FF90EF9052
:10195000DF90CF90BF90AF909F908F907F906F90CF
:101960005F904F90089541505109F290E290D290CB
:10197000C290BA91AA919A918A91C816D906EA069C
:10198000FB06E9F28C159D05AE05BF0528F481E044
:1019900090E0DACFB7FEFBCF8FEF9FEFD5CF93DF8D
:1019A00021E0181619060CF020E0822F08958BDF35
:1019B000892F881F8827881F08958F929F92AF9242
:1019C000BF92CF92DF92EF92FF920F931F93690124
:1019D0007A010E944158F0E0E0E0E017F107A9F435
:1019E000672B682B692B21F02F5F3F4F4F4F5F4FC5
:1019F000CA01B9011F910F91FF90EF90DF90CF9036
:101A0000BF90AF909F908F9008954B015C01660F3F
:101A1000771F881F991F220F331F441F551FB7FCC4
:101A200005C06C157D058E059F0540F02F5F3F4F6B
:101A30004F4F5F4F6C197D098E099F093196CDCFAD
:101A40008F929F92AF92BF92CF92DF92EF92FF92CE
:101A50000F931F9369017A010E944158F0E0E0E082
:101A6000E017F10769F4CA01B9011F910F91FF90C6
:101A7000EF90DF90CF90BF90AF909F908F900895A0
:101A80004B015C01660F771F881F991F220F331FC0
:101A9000441F551FB7FC05C06C157D058E059F05BD
:101AA00040F02F5F3F4F4F4F5F4F6C197D098E09FC
:101AB0009F093196D5CF8F929F92AF92BF92CF92CE
:101AC000DF92EF92FF920F931F936B017C01DA017B
:101AD000C9010097A105B10559F46FEF7FEF8FEFB2
:101AE0009FE7F7FE33C060E070E080E090E82EC032
:101AF0004B015701F7FE07C08824992454018C1824
:101B00009D08AE08BF089C01AD01B7FF07C02227A2
:101B10003327A901281B390B4A0B5B0BCC24F7FC9C
:101B2000C394DD24EE24FF248827B7FD83959927ED
:101B3000AA27BB27C816A9F0C501B4013EDF9095BE
:101B40008095709561957F4F8F4F9F4F1F910F919B
:101B5000FF90EF90DF90CF90BF90AF909F908F90CD
:101B60000895C501B4016CDFF1CFFC0181E09091D3
:101B70007D07911180E0818381E090917E07911132
:101B800080E0828381E090917F07911180E08383E0
:101B90000895CF92DF92EF92FF926B017C019F77C5
:101BA00020E030E040E859E50E94C14A87FF2BC0A1
:101BB00020E030E040E05FE3C701B6010E94B14C95
:101BC00087FD0EC020E030E040E05FE3C701B601D2
:101BD0000E944A4AFF90EF90DF90CF900C949B4B6D
:101BE00020E030E040E05FEBC701B6010E94B14C5D
:101BF000181684F420E030E0A901C701B6010E9464
:101C0000EB4C6B017C01C701B601FF90EF90DF90B8
:101C1000CF90089520E030E040E05FE3C701B601D7
:101C20000E94494AFF90EF90DF90CF900C94AE4A0B
:101C30002F923F924F925F926F927F928F929F92DC
:101C4000AF92BF92CF92DF92EF92FF920F931F93CA
:101C5000CF93DF93CDB7DEB7A8970FB6F894DEBF6A
:101C60000FBECDBF80917D0791E0811190E09093F0
:101C7000800790917F07811105C021E0911120E03C
:101C8000209381078F5F833008F081C080937D07A8
:101C900080917E078F5F843608F07CC080937E073A
:101CA0009F5F993608F079C090937F0780914B0D24
:101CB0008150823008F474C080E080934B0DC09056
:101CC0000204D0900304E0900404F0900504A701FE
:101CD000960160918B0C70918C0C80918D0C909181
:101CE0008E0C0E94C14A882341F0C0928B0CD09286
:101CF0008C0CE0928D0CF0928E0C60918F0C709198
:101D0000900C21E43CE040E45CE083E00E942D0282
:101D10008091410C882379F08091400C8093420C93
:101D200080914B0D882309F441C08330D9F581E0BF
:101D300090E080934B0D80915E0D81113AC081E05F
:101D400080935E0D8BE090E0A0E0B0E08093430DC7
:101D50009093440DA093450DB093460D1092F20B55
:101D60001092F30B1092F40B1092F50B1092EE0BF5
:101D70001092EF0B1092F00B1092F10B1092F60BE9
:101D80001092F70B1092F80B1092F90B92C0109270
:101D90007D077ECF10927E0783CF10927F0786CF7C
:101DA00083E08BCF082E000C990BC3CF82E090E02C
:101DB000C0CF8091430D9091440DA091450DB091FD
:101DC000460D0197A109B1098A309105A105B10518
:101DD00008F0F6C3FC018827EF50F14F8F4F0C94A9
:101DE0006358FB0EFB0EFB0E140FFB0EFB0E260FB3
:101DF000BA12D612140F89E090E0A0E0B0E0809310
:101E0000430D9093440DA093450DB093460D80E093
:101E100090E0A0E8BFE38093F60B9093F70BA093BC
:101E2000F80BB093F90B45C08091420C883509F04E
:101E300040C088E090E0A0E0B0E08093430D909334
:101E4000440DA093450DB093460D33C08091420CD4
:101E50008D3489F228F5813409F45AC2843409F4A6
:101E6000A8C2803231F586E090E0A0E0B0E0809337
:101E7000430D9093440DA093450DB093460D1092E1
:101E8000F20B1092F30B1092F40B1092F50B1092D0
:101E9000EE0B1092EF0B1092F00B1092F10B09C0A9
:101EA000833509F422C3873509F4D4C2823509F495
:101EB00049CF1F9281E08F932FEC34E03F932F9313
:101EC0001F928F932EEC34E03F932F931F928F93AA
:101ED0002DEC822E24E0922EAA24A394B12C4CEC5B
:101EE000C42E44E0D42EEE24E394F12C0BEC14E049
:101EF00021E030E04AEC54E069EF7CE08EE09CE0C9
:101F00000E9419316091210D7091220D8091230D55
:101F10009091240D6093CA0B7093CB0B8093CC0BE4
:101F20009093CD0B0E94324B698F7A8F8B8F9C8F51
:101F30009B01AC0163E056954795379527956A95C7
:101F4000D1F729A33AA34BA35CA380919E0490915F
:101F50009F04A091A004B091A1048D8B9E8BAF8BA8
:101F6000B88F80910E0C90910F0CA091100CB09135
:101F7000110C898B9A8BAB8BBC8B72E0E72EF12C0A
:101F80008E01075F1F4F21E030E0AE014F5E5F4FD3
:101F900061E070E0CE01459602DA50E040E062E098
:101FA00070E08AE794E04FD920E030E040E850E468
:101FB0000E94EB4C6B017C01C0920A0CD0920B0C7E
:101FC000E0920C0CF0920D0C50E040E062E070E00A
:101FD000C80139D920E030E040E05AE20E94EB4CE1
:101FE000A70196010E94EB4C6D8F7E8F8F8F98A377
:101FF0006093060C7093070C8093080C9093090C67
:102000002091FD0C3091FE0C4091FF0C5091000D81
:102010000E94494A6093CE0B7093CF0B8093D00BF4
:102020009093D10B80919E0490919F04A091A00465
:10203000B091A1048D8B9E8BAF8BB88F8091120CC9
:102040009091130CA091140CB091150C898B9A8B64
:10205000AB8BBC8BE2E0EE2EF12C0850110921E095
:1020600030E0AE014F5E5F4F61E070E0CE0145961B
:1020700096D950E040E062E070E0C801E4D820E08A
:1020800030E040E05AE20E94EB4C20910A0C309183
:102090000B0C40910C0C50910D0C0E94EB4C60937A
:1020A000060C7093070C8093080C9093090C2091F8
:1020B000010D3091020D4091030D5091040D0E94CD
:1020C000494A6093D20B7093D30B8093D40B9093B7
:1020D000D50B0FB6F894DEBF0FBECDBF8091800741
:1020E000882391F088E0E9E2FDE0AAEABBE00190F4
:1020F0000D928A95E1F788E0E1E3FDE0A2EBBBE019
:1021000001900D928A95E1F7C090F60BD090F70BF5
:10211000E090F80BF090F90B2091320430913304E9
:102120004091340450913504C701B6010E94C14A60
:1021300081114BC288E0EAEAFBE0DE0119960190CA
:102140000D928A95E1F750E040E062E070E0CE0148
:10215000099679D820E030E040E850E30E94EB4C4B
:1021600060930A0C70930B0C80930C0C90930D0CE5
:1021700088E0E2EBFBE0DE01199601900D928A9572
:10218000E1F750E040E062E070E0CE0109965BD8F4
:1021900020E030E040E850E30E94EB4C4B015C0152
:1021A0002091190D30911A0D40911B0D50911C0D6D
:1021B00060910A0C70910B0C80910C0C90910D0C9D
:1021C0000E94494A6B017C01C0920A0CD0920B0C10
:1021D000E0920C0CF0920D0C20911D0D30911E0D13
:1021E00040911F0D5091200DC501B4010E94494A34
:1021F0002B013C012091B6033091B7034091B80305
:102200005091B903C701B6010E94EB4C2091090D12
:1022100030910A0D40910B0D50910C0D0E94494ACE
:102220002091E2033091E3034091E4035091E503F0
:102230000E94EB4C4B015C018092FE0B9092FF0BD5
:10224000A092000CB092010C2091BA033091BB0314
:102250004091BC035091BD03C301B2010E94EB4CFD
:102260002091110D3091120D4091130D5091140DCC
:102270000E94494A2091E6033091E7034091E80328
:102280005091E9030E94EB4C6093FA0B7093FB0BA7
:102290008093FC0B9093FD0B2091EA033091EB03AC
:1022A0004091EC035091ED03C701B6010E94EB4C45
:1022B0002091050D3091060D4091070D5091080DAC
:1022C0000E944A4AA50194010E944A4A6B017C017E
:1022D000C092020CD092030CE092040CF092050C18
:1022E0008090F2039090F303A090F403B090F50374
:1022F000A50194010E94B14C18160CF0A6C1809261
:10230000020C9092030CA092040CB092050CADC18B
:1023100085E090E0A0E0B0E08093430D9093440D01
:10232000A093450DB093460DC090EE0BD090EF0BEF
:10233000E090F00BF090F10B2DEC3CEC4CEC5EE3FC
:10234000C701B6010E94C14A181684F02DEC3CEC7E
:102350004CE45DE3C701B6010E944A4A6093EE0B6C
:102360007093EF0B8093F00B9093F10BC090F20BF6
:10237000D090F30BE090F40BF090F50B2DEC3CECCF
:102380004CE45EEBC701B6010E94B14C2AE037ED88
:1023900043EA5CE387FD8DCDC701B6010E94494A3F
:1023A0006093F20B7093F30B8093F40B9093F50B07
:1023B00080CD83E090E0A0E0B0E08093430D909367
:1023C000440DA093450DB093460DC090F20BD090F4
:1023D000F30BE090F40BF090F50B2DEC3CEC4CEC97
:1023E0005EE3C701B6010E94C14A181684F02DECC5
:1023F0003CEC4CE45DE3C701B6010E944A4A60939D
:10240000F20B7093F30B8093F40B9093F50BC09049
:10241000EE0BD090EF0BE090F00BF090F10B2DEC69
:102420003CEC4CE45EEBC701B6010E94B14C87FD69
:1024300040CD2AE037ED43EA5CE3C701B6010E94D4
:10244000494A6093EE0B7093EF0B8093F00B9093DF
:10245000F10B2FCD81E090E0A0E0B0E08093430D40
:102460009093440DA093450DB093460D8090F20BD0
:102470009090F30BA090F40BB090F50B2DEC3CEC8E
:102480004CEC5EE3C501B4010E94C14A18160CF47D
:1024900010CDC090EE0BD090EF0BE090F00BF090D1
:1024A000F10B2DEC3CEC4CEC5EE3C701B6010E9455
:1024B000C14A18160CF4FDCC2DEC3CEC4CE45DE369
:1024C000C501B4010E944A4A6093F20B7093F30B6A
:1024D0008093F40B9093F50B2DEC3CEC4CE45DE316
:1024E000C701B6010E944A4AACCF82E090E0A0E06A
:1024F000B0E08093430D9093440DA093450DB093AD
:10250000460D8090EE0B9090EF0BA090F00BB090EA
:10251000F10B2DEC3CEC4CE45EEBC501B4010E94E8
:10252000B14C87FDC6CCC090F20BD090F30BE0907D
:10253000F40BF090F50B2DEC3CEC4CE45EEBC7019A
:10254000B6010E94B14C87FDB4CC2DEC3CEC4CE4C0
:102550005DE3C501B4010E94494A6093EE0B70939C
:10256000EF0B8093F00B9093F10B2DEC3CEC4CE4D3
:102570005DE312CF8091420C8D3409F43CCC82355E
:1025800009F4E0CB853409F094CC84E090E0A0E03D
:10259000B0E08093430D9093440DA093450DB0930C
:1025A000460D80E090E0A0E0B0E435CC8091420C94
:1025B000883509F07ECC87E090E0A0E0B0E03DCC2B
:1025C0008AE090E0A0E0B0E038CC20912A0430917D
:1025D0002B0440912C0450912D04C701B6010E9498
:1025E000C14A811119C08091F20B9091F30BA09117
:1025F000F40BB091F50B80930A0C90930B0CA09305
:102600000C0CB0930D0C8090EE0B9090EF0BA09003
:10261000F00BB090F10BC4CD809122049091230473
:10262000A0912404B091250480930A0C90930B0C84
:10263000A0930C0CB0930D0C80902604909027046E
:10264000A0902804B0902904ABCD8090DA0390903C
:10265000DB03A090DC03B090DD03A5019401C7016A
:10266000B6010E94C14A87FD4ACE6091020C70916A
:10267000030C8091040C9091050C0E949B4B60937D
:10268000020C7093030C8093040C9093050C0E9431
:102690000223882309F466C01092020C1092030CE6
:1026A0001092040C1092050CC090020CD090030CF8
:1026B000E090040CF090050C20E030E0A901C70187
:1026C000B6010E94C14A87FF70C0C701B601905889
:1026D0000E94324B7195619571097093290C60933A
:1026E000280C2091EE033091EF034091F0035091BC
:1026F000F103C301B2010E94EB4C20910D0D30910A
:102700000E0D40910F0D5091100D0E944A4A2091DC
:10271000FA0B3091FB0B4091FC0B5091FD0B0E948A
:102720004A4A6B017C01C092020CD092030CE092E9
:10273000040CF092050C8090F6039090F703A090A3
:10274000F803B090F903A50194010E94B14C18164A
:102750008CF58092020C9092030CA092040CB09223
:10276000050C38C06091020C7091030C8091040C30
:102770009091050C0E94BD2281118ECF6091020CB8
:102780007091030C8091040C9091050C20E030E0D6
:1027900040E857E40E94B54B6093020C7093030C21
:1027A0008093040C9093050C7FCFC701B6010E9463
:1027B000324B93CF8090DE039090DF03A090E00334
:1027C000B090E103A5019401C701B6010E94C14A7E
:1027D00087FDBFCF6091020C7091030C8091040CB7
:1027E0009091050C0E949B4B6093020C7093030C1C
:1027F0008093040C9093050C0E940223882309F413
:10280000CEC11092020C1092030C1092040C109284
:10281000050CC090020CD090030CE090040CF090DA
:10282000050C20E030E0A901C701B6010E94C14AB1
:1028300087FFD8C1C701B60190580E94324B2224AD
:102840003324261A370A8090B6049090B704092CD6
:10285000000CAA08BB08C090280CD090290C0D2CA5
:10286000000CEE08FF08AEE0CC0CDD1CEE1CFF1CDB
:10287000AA95D1F72091B8043091B904A091470DE1
:10288000B091480D0E946B58A7019601261B370B8B
:10289000480B590BCA01B9010EE010E0A5019401E3
:1028A0000AD94B015C01BEE0B594A7949794879434
:1028B000BA95D1F79092480D8092470DC090BA0416
:1028C000D090BB040D2C000CEE08FF08C101032CB6
:1028D000000CAA0BBB0B9C01AD018EE0220F331F35
:1028E000441F551F8A95D1F72DA33EA34FA358A788
:1028F0002091BC043091BD04A091490DB0914A0DC6
:102900000E946B582DA13EA14FA158A5261B370B45
:10291000480B590BCA01B901A7019601CCD86B012C
:102920007C019EE0F594E794D794C7949A95D1F7EB
:10293000D0924A0DC092490D8091C804882309F4B1
:1029400057C1A091C204B091C30494010E946B5876
:102950000E94604B20E030E040E852E30E94EB4CE4
:102960006093D60B7093D70B8093D80B9093D90BB1
:10297000A091C404B091C50496010E946B580E94B6
:10298000604B20E030E040E852E30E94EB4C609363
:10299000DA0B7093DB0B8093DC0B9093DD0B809153
:1029A000A6049091A704821593050CF042C1909360
:1029B000270C8093260C6091CD0C7091CE0C8091E9
:1029C000CF0C9091D00C0E94BD067C019093CC0C52
:1029D0008093CB0C6091260C7091270C072E000C75
:1029E000880B990B0E94604B4B015C0120E030E0AA
:1029F0004FE753E40E94C14A87FF28C18092020C2E
:102A00009092030CA092040CB092050C20E030E0F0
:102A1000A9016091020C7091030C8091040C9091BB
:102A2000050C0E94B14C181644F01092020C109242
:102A3000030C1092040C1092050C4091020C509162
:102A4000030C6091040C7091050CC7010E9486066E
:102A50002091AA043091AB042215330544F0209153
:102A6000AC043091AD04221533050CF49101A09112
:102A7000BE04B091BF040E946B58FFE09595879506
:102A800077956795FA95D1F760932A0C6091C10C00
:102A90007091C20C8091C30C9091C40C0E94BD0631
:102AA0007C019093C00C8093BF0C60912A0C70E065
:102AB00090E080E00E945E4BAB01BC01C7010E9428
:102AC000860661E08091FA039091FB0382159305DD
:102AD00009F460E06093430C86E00E94C10161E06C
:102AE0002091280C3091290C8091FC039091FD03DA
:102AF0002817390709F460E06093440C8BE00E94CA
:102B0000C1018091280C9091290C2091AE04309144
:102B1000AF042817390744F02091B0043091B10474
:102B2000281739070CF49C01A091C004B091C1048E
:102B30000E946B58EFE09595879577956795EA9594
:102B4000D1F760932B0C6091A90C7091AA0C809125
:102B5000AB0C9091AC0C0E94BD067C019093A80C2C
:102B60008093A70C60912B0C70E090E080E00E94B5
:102B70005E4BAB01BC01C7010E9486062091280C68
:102B80003091290C8091B2049091B304821793077D
:102B90000CF069C09093290C8093280C6CC0609154
:102BA000020C7091030C8091040C9091050C0E9412
:102BB000BD22811126CE6091020C7091030C809190
:102BC000040C9091050C20E030E040E857E40E94AE
:102BD000B54B6093020C7093030C8093040C90939C
:102BE000050C17CEC701B6010E94324B1B012BCE3C
:102BF0008091CE0B9091CF0BA091D00BB091D10BC7
:102C00008093D60B9093D70BA093D80BB093D90B8E
:102C10008091D20B9091D30BA091D40BB091D50B96
:102C20008093DA0B9093DB0BA093DC0BB093DD0B5E
:102C3000B6CE8091A8049091A904281639060CF408
:102C4000B6CE3092270C2092260CB5CE80E090E0D4
:102C5000AFE7B3E48093020C9093030CA093040CB1
:102C6000B093050CD3CE8091B4049091B50428178D
:102C700039070CF48FCF6091B50C7091B60C809130
:102C8000B70C9091B80C0E94BD067C019093B40CD7
:102C90008093B30C6091280C7091290C072E000CC6
:102CA000880B990B0E94604B4B015C0120E030E0E7
:102CB0004FE753E40E94C14A87FF95C28092020CFD
:102CC0009092030CA092040CB092050C20E030E02E
:102CD000A9016091020C7091030C8091040C9091F9
:102CE000050C0E94B14C181644F01092020C109280
:102CF000030C1092040C1092050C4091020C5091A0
:102D0000030C6091040C7091050CC7010E948606AB
:102D1000C0903F0DD090400DE090410DF090420DDD
:102D2000C701B6010E94604B4B015C012091520427
:102D30003091530440915404509155040E94C14A6B
:102D400087FF5EC2F7FC5CC280914A0490914B04FD
:102D5000A0914C04B0914D048093020C9093030C0D
:102D6000A093040CB093050C20E030E040E85FE352
:102D700060914E0470914F048091500490915104E1
:102D80000E94494A9B01AC01C501B4010E94B14CAB
:102D900087FD3AC210923F0D1092400D1092410DE6
:102DA0001092420D69A17AA161707727072E000C5D
:102DB000880B990B0E94604B20915A0430915B0460
:102DC00040915C0450915D040E94B14C181684F04F
:102DD0008091FE039091FF03A0910004B091010443
:102DE0008093020C9093030CA093040CB093050CF9
:102DF00020E030E0A9016091020C7091030C8091F9
:102E0000040C9091050C0E94C14A60E0882361F097
:102E10006091CA0B7091CB0B8091CC0B9091CD0B34
:102E20000E94324B6170772781E30E94C10120E04C
:102E300030E0A9016091020C7091030C8091040CA8
:102E40009091050C0E94C14A60E0882371F0898D41
:102E50009A8DAB8DBC8D52E0B695A79597958795C9
:102E60005A95D1F781709927682F85E30E94C10197
:102E700020E030E0A9016091020C7091030C809178
:102E8000040C9091050C0E94C14A60E0882359F01F
:102E9000898D9A8DAB8DBC8DB695A79597958795A5
:102EA00081709927682F83E30E94C1011F9281E0FE
:102EB0008F932FEC34E03F932F931F928F932EEC40
:102EC00034E03F932F931F928F938DEC882E84E0F4
:102ED000982EAA24A394B12C2CECC22E24E0D22E3E
:102EE000EE24E394F12C0BEC14E021E030E04AEC0A
:102EF00054E069EF7CE08EE09CE00E945D318D8DB6
:102F00009E8DAF8DB8A18093FD0C9093FE0CA09385
:102F1000FF0CB093000D8091D60B9091D70BA09130
:102F2000D80BB091D90B8093190D90931A0DA093E3
:102F30001B0DB0931C0D8091060C9091070CA09175
:102F4000080CB091090C8093010D9093020DA09391
:102F5000030DB093040D8091DA0B9091DB0BA091DF
:102F6000DC0BB091DD0B80931D0D90931E0DA09393
:102F70001F0DB093200D20910A0C30910B0C409145
:102F80000C0C50910D0C6091C2037091C3038091A1
:102F9000C4039091C5030E94EB4C20913A043091F8
:102FA0003B0440913C0450913D040E94EB4C209125
:102FB000050D3091060D4091070D5091080D0E94AE
:102FC0004A4A6093050D7093060D8093070D909308
:102FD000080D2091FE0B3091FF0B4091000C509199
:102FE000010C60913E0470913F04809140049091E7
:102FF00041040E94EB4C2091090D30910A0D409143
:103000000B0D50910C0D0E944A4A6093090D70936C
:103010000A0D80930B0D90930C0D2091BE033091FF
:10302000BF034091C0035091C103C301B2010E948C
:10303000EB4C209142043091430440914404509160
:1030400045040E94EB4C20910D0D30910E0D4091E6
:103050000F0D5091100D0E944A4A60930D0D709310
:103060000E0D80930F0D9093100D2091FA0B30915F
:10307000FB0B4091FC0B5091FD0B6091460470914D
:10308000470480914804909149040E94EB4C2091A0
:10309000110D3091120D4091130D5091140D0E949D
:1030A0004A4A6093110D7093120D8093130D909303
:1030B000140D84E090E00E94DB2F40916407509152
:1030C0006507609166077091670790E080E00E9455
:1030D000D72F8090820790908307A0908407B090AC
:1030E00085070FB6F894DEBF0FBECDBF20E030E0FD
:1030F00040E85FEBC501B4010E94C14A882331F169
:10310000C0906407D0906507E0906607F09067076D
:10311000A7019601C501B4010E94494A4B015C0117
:1031200020E030E040E054E3C701B6010E94EB4CE0
:103130009B01AC01C501B4010E94B14C181634F0DA
:103140008CEE94E090934F0780934E078091860712
:10315000882331F08CEE94E090934F0780934E07D4
:10316000609168077091690780916A0790916B0779
:103170006F5F7F4F8F4F9F4F609368077093690712
:1031800080936A0790936B070E945E4B9B01AC0192
:1031900060916C0770916D0780916E0790916F0739
:1031A0000E94EB4C609364077093650780936607F9
:1031B00090936707A8960FB6F894DEBF0FBECDBFF9
:1031C000DF91CF911F910F91FF90EF90DF90CF9003
:1031D000BF90AF909F908F907F906F905F904F9037
:1031E0003F902F90089580E090E0AFE7B3E48093A4
:1031F000020C9093030CA093040CB093050C66CDC5
:1032000080E090E0DC01A8CD3FEFC31AD30AE30AC7
:10321000F30AC0923F0DD092400DE092410DF09222
:10322000420DC0CD4F925F926F927F928F929F928C
:10323000AF92BF92CF92DF92EF92FF920F931F93C4
:10324000CF93DF93CDB7DEB760970FB6F894DEBFAC
:103250000FBECDBF45E15DE06AE17CE086E19CE028
:103260000E945B3C6091160C7091170C8091180CB9
:103270009091190C0E94604B6B017C01C092DE0B97
:10328000D092DF0BE092E00BF092E10B60911A0C10
:1032900070911B0C80911C0C90911D0C0E94604B36
:1032A00069877A878B879C876093E20B7093E30B27
:1032B0008093E40B9093E50B40906204509063047C
:1032C0006090640470906504A3019201C701B60187
:1032D0000E94C54A6B017C0180906604909067044F
:1032E000A0906804B0906904AC019B01C501B401D1
:1032F0000E94C14A87FFFBC18092E60B9092E70BC8
:10330000A092E80BB092E90BA301920169857A853E
:103310008B859C850E94C54A6B017C01AC019B0199
:10332000C501B4010E94C14A87FF0BC28092EA0B1B
:103330009092EB0BA092EC0BB092ED0B6091E60B30
:103340007091E70B8091E80B9091E90B0E949B4BE9
:103350006B017C010E94022381110DC2C701B601DD
:103360000E94BD22811107C220E030E040E853E412
:10337000C701B6010E94B54B6B017C0120E030E033
:10338000A9010E94C14A87FFF9C1C701B60190583F
:103390000E94324B619560932C0C6091EA0B709106
:1033A000EB0B8091EC0B9091ED0B0E949B4B6B0112
:1033B0007C010E9402238111E6C1C701B6010E946F
:1033C000BD228111E0C120E030E040E853E4C701B4
:1033D000B6010E94B54B6B017C0120E030E0A901F1
:1033E0000E94C14A87FFD2C1C701B60190580E940E
:1033F000324B619560932D0C809181078823A1F158
:103400008091D50480934C0D80934D0D80934E0D8B
:1034100080934F0D8093500D8093510D8093520DEA
:103420008093530D8091D0048093540D80912C0C87
:103430008093550D8091D1048093560D6093570D64
:103440008091D2048093580D8091D6048093590DB9
:103450009091D30490935A0D80935B0D9091D40476
:1034600090935C0D80935D0D80911A0C90911B0CD4
:10347000A0911C0CB0911D0C80931E0C90931F0CFE
:10348000A093200CB093210C4091160C5091170C76
:103490006091180C7091190C4093220C5093230CDE
:1034A0006093240C7093250C40919A0450919B04D6
:1034B00060919C0470919D044D835E836F83788737
:1034C00089839A83AB83BC8392E0E92EF12C0AEBCB
:1034D0001BE021E030E0AE014F5F5F4F61E070E044
:1034E000CE0105960E94CF0942E050E06AE874E000
:1034F000C8010E94CF0CEAE8F4E081110CC042E060
:1035000050E062E974E0C8010E94D70CF8018823FA
:1035100011F0E2E9F4E088E0A9E2BDE001900D924B
:103520008A95E1F780919A0490919B04A0919C0464
:10353000B0919D048D839E83AF83B8878091220CC8
:103540009091230CA091240CB091250C89839A832F
:10355000AB83BC8382E0E82EF12C02EC1BE021E07F
:1035600030E0AE014F5F5F4F61E070E0CE01059645
:103570000E94CF0942E050E06AE874E0C8010E946E
:10358000CF0CEAE8F4E081110CC042E050E062E9BF
:1035900074E0C8010E94D70CF801882311F0E2E919
:1035A000F4E088E0A1E3BDE001900D928A95E1F797
:1035B0002091720430917304409174045091750409
:1035C0006091250D7091260D8091270D9091280D09
:1035D0000E94B14C18160CF0FFC0C090E20BD090C6
:1035E000E30BE090E40BF090E50B8090DE0B909005
:1035F000DF0BA090E00BB090E10BA5019401C70197
:10360000B6010E94494A20911A0430911B0440914E
:103610001C0450911D040E94B14C18160CF0C4C03B
:1036200020910E0430910F04409110045091110428
:10363000C501B4010E94B14C18160CF0ACC08091C9
:103640006E0490916F04A0917004B0917104809306
:10365000210D9093220DA093230DB093240D45E1ED
:103660005DE06AE17CE086E19CE00E94863C60913E
:1036700070077091710780917207909173070E9493
:103680005E4B2FE832EC45EF5CE30E94EB4CAB0164
:10369000BC0181E090E00E94D72F8091700790914B
:1036A0007107A0917207B09173070196A11DB11D1A
:1036B0008093700790937107A0937207B09373077C
:1036C00060960FB6F894DEBF0FBECDBFDF91CF91ED
:1036D0001F910F91FF90EF90DF90CF90BF90AF9030
:1036E0009F908F907F906F905F904F900895809102
:1036F0006A0490916B04A0916C04B0916D048D8765
:103700009E87AF87B88BA7019601BC01CD010E94AF
:10371000B14C18166CF48D859E85AF85B889809361
:10372000E60B9093E70BA093E80BB093E90BECCD7D
:10373000C092E60BD092E70BE092E80BF092E90B17
:10374000E3CD80906A0490906B04A0906C04B090DC
:103750006D04A7019601C501B4010E94B14C181671
:103760000CF4E4CDC092EA0BD092EB0BE092EC0BA0
:10377000F092ED0BE3CDC12CD12C7601C701B6013F
:103780000E94324B08CEC12CD12C7601C701B60164
:103790000E94324B2FCE80910A0490910B04A0918D
:1037A0000C04B0910D0453CF2091160430911704EE
:1037B0004091180450911904C701B6010E94B14C00
:1037C00018160CF43CCF8091120490911304A09130
:1037D0001404B09115043BCF80911E0490911F04F6
:1037E000A0912004B091210432CFCF92DF92EF92CA
:1037F000FF92CF93DF931F921F92CDB7DEB7C09099
:103800002E04D0902F04E0903004F0903104A701F2
:10381000960160919D0C70919E0C80919F0C9091EF
:10382000A00C0E94C14A882341F0C0929D0CD09206
:103830009E0CE0929F0CF092A00C66E370E080E09A
:1038400090E00E94B10890939C0C80939B0C43E005
:1038500050E0BE016F5F7F4F0E94A0086091C604D8
:103860007091C70490E080E00E945E4B20E030E061
:1038700040E055E30E94EB4C6B017C0169817A8149
:1038800090E080E00E945E4B9B01AC01C701B60155
:103890000E94EB4C6093250D7093260D8093270DAD
:1038A0009093280D60917407709175078091760749
:1038B000909177070E945E4BAB01BC0182E090E0E3
:1038C0000E94D72F8091740790917507A091760779
:1038D000B09177070196A11DB11D80937407909355
:1038E0007507A0937607B09377070F900F90DF913D
:1038F000CF91FF90EF90DF90CF9008958F929F929D
:10390000AF92BF92CF92EF92FF920F931F93CF93FC
:10391000DF93CDB7DEB76B970FB6F894DEBF0FBE5F
:10392000CDBFECE4FDE00EE21CE08EE59DE0D801A9
:1039300021912D938E179F07D9F7809006049090C0
:103940000704A0900804B0900904A50194016091B7
:103950006B0C70916C0C80916D0C90916E0C0E94B0
:10396000C14A882341F080926B0C90926C0CA0921B
:103970006D0CB0926E0CCE0101964C014296F82C63
:10398000B92CF80121918F01F40121934F01E8171F
:10399000F907B9F783E78B8B95E69C8B2EE62D8B89
:1039A0008E8B2FE62F8B22E7288F998F8A8F1B8E85
:1039B00060917F0C7091800C8091810C9091820CB1
:1039C0000E94324BC62E6091770C7091780C8091DA
:1039D000790C90917A0C0E94324BE62E60917B0C10
:1039E00070917C0C80917D0C90917E0C0E94324BEA
:1039F000062F6091730C7091740C8091750C9091EE
:103A0000760C0E94324B162F60916F0C7091700CE7
:103A10008091710C9091720C0E94324B862F92E033
:103A2000A92E212F42E150E06F2D7B2D0E94CC0268
:103A3000609178077091790780917A0790917B0760
:103A40000E945E4B26E636E646E85FE30E94EB4CBA
:103A5000AB01BC0183E090E00E94D72F80917807F2
:103A600090917907A0917A07B0917B070196A11DEB
:103A7000B11D8093780790937907A0937A07B0934C
:103A80007B076B960FB6F894DEBF0FBECDBFDF91FC
:103A9000CF911F910F91FF90EF90CF90BF90AF907B
:103AA0009F908F9008958F929F92AF92BF92EF92C6
:103AB000FF920F931F93CF9384E090E027D580E08F
:103AC00090E0A0E8BFEB8093820790938307A093D8
:103AD0008407B09385078AE097EDA3E2BCE3809367
:103AE0006C0790936D07A0936E07B0936F078CE5FA
:103AF0009CE7ABEBB6E18093520790935307A093FA
:103B00005407B09355078DE797ECA2E8B9EE809380
:103B1000560790935707A0935807B093590788EA20
:103B20009FEFA6E7B3EE80935A0790935B07A093AD
:103B30005C07B0935D078AE991E7AEE4B1E5809355
:103B40005E0790935F07A0936007B093610782E4DC
:103B500097E0909351078093500780E197E090930E
:103B600043078093420780E095E09093110780938C
:103B70001007909313078093120790931507809373
:103B80001407909317078093160790931907809353
:103B9000180790931B0780931A072BE43DE030939E
:103BA0001D0720931C0790931F0780931E07909377
:103BB00021078093200790932307809322079093F7
:103BC00025078093240790932707809326079093D7
:103BD00029078093280790932B0780932A079093B7
:103BE0002D0780932C0790932F0780932E07909397
:103BF0003107809330079093330780933207909377
:103C00003507809334079093370780933607909356
:103C100039078093380790933B0780933A07909336
:103C20003D0780933C0790933F0780933E07909316
:103C300041078093400782E697E09093470780937F
:103C4000460782E597E0909345078093440784E612
:103C500097E09093490780934807E6E0F7E08AE011
:103C6000DF011D928A95E9F78CEF96E09093630748
:103C7000809362078CE290E09093FD068093FC06AF
:103C80008EE593E09093FF068093FE0686E093E036
:103C900090930107809300078AE692E090930307D0
:103CA0008093020786E192E09093050780930407D2
:103CB00088E0E2E8F4E0AAEABBE001900D928A9580
:103CC000E1F788E0E2E8F4E0A2EBBBE001900D92BE
:103CD0008A95E1F780915E0490915F04A091600461
:103CE000B09161048093210D9093220DA093230D38
:103CF000B093240D8091760490917704A09178047C
:103D0000B09179048093250D9093260DA093270DF3
:103D1000B093280D1092F90C1092FA0C1092FB0C33
:103D20001092FC0C4091C6035091C7036091C803E8
:103D30007091C9034093FD0C5093FE0C6093FF0CEF
:103D40007093000D88E0E2E8F4E0A9E2BDE00190A4
:103D50000D928A95E1F74093010D5093020D609307
:103D6000030D7093040D88E0E2E8F4E0A1E3BDE008
:103D700001900D928A95E1F7809136049091370475
:103D8000A0913804B09139048093190D90931A0DC5
:103D9000A0931B0DB0931C0D80931D0D90931E0DD1
:103DA000A0931F0DB093200D8091D2039091D30367
:103DB000A091D403B091D5038093050D9093060D87
:103DC000A093070DB093080D8091CA039091CB0387
:103DD000A091CC03B091CD038093090D90930A0D6F
:103DE000A0930B0DB0930C0D8091D6039091D70347
:103DF000A091D803B091D90380930D0D90930E0D2F
:103E0000A0930F0DB093100D8091CE039091CF032E
:103E1000A091D003B091D1038093110D9093120D16
:103E2000A093130DB093140D8091A2049091A3045C
:103E30009093480D8093470D8091A4049091A50420
:103E400090934A0D8093490D1092150D1092160D06
:103E50001092170D1092180D8091C9048093420C96
:103E60001092850C8091020490910304A0910404A7
:103E7000B091050480938B0C90938C0CA0938D0CC7
:103E8000B0938E0C812C912C540183948092860CDB
:103E90009092870CA092880CB092890C81E090E0FF
:103EA0009093920C8093910C9093900C80938F0C34
:103EB00083E00E94AD02C1E0C0938A0C1092C50C51
:103EC00088E090E0A0E0B0E08093CD0C9093CE0C21
:103ED000A093CF0CB093D00C1092CA0C8092C60C59
:103EE0009092C70CA092C80CB092C90CE12CF12C96
:103EF0008701A801970168E070E080E090E00E94EF
:103F000001079093CC0C8093CB0C6091CD0C7091F9
:103F1000CE0C8091CF0C9091D00C0E94BD06909356
:103F2000CC0C8093CB0C0E948506C093CA0C1092D7
:103F3000B90C87E090E0A0E0B0E08093C10C9093D2
:103F4000C20CA093C30CB093C40C1092BE0C809210
:103F5000BA0C9092BB0CA092BC0CB092BD0CA80104
:103F6000970167E070E080E090E00E940107909385
:103F7000C00C8093BF0C6091C10C7091C20C8091F9
:103F8000C30C9091C40C0E94BD069093C00C80930A
:103F9000BF0C0E948506C093BE0C1092D90C809273
:103FA000DA0C9092DB0CA092DC0CB092DD0C61E09C
:103FB00086E00E94B901C093DE0C1092D10C809271
:103FC000D20C9092D30CA092D40CB092D50C61E09C
:103FD0008BE00E94B901C093D60C1092A10C8AE02C
:103FE00090E0A0E0B0E08093A90C9093AA0CA0937D
:103FF000AB0CB093AC0C1092A60C8092A20C9092D9
:10400000A30CA092A40CB092A50CA80197016AE0A1
:1040100070E080E090E00E9401079093A80C8093EC
:10402000A70C6091A90C7091AA0C8091AB0C909197
:10403000AC0C0E94BD069093A80C8093A70C0E9424
:104040008506C093A60C1092AD0C89E090E0A0E02C
:10405000B0E08093B50C9093B60CA093B70CB093DE
:10406000B80C1092B20C8092AE0C9092AF0CA09251
:10407000B00CB092B10CA801970169E070E080E04B
:1040800090E00E9401079093B40C8093B30C609170
:10409000B50C7091B60C8091B70C9091B80C0E9441
:1040A000BD069093B40C8093B30C0E948506C09318
:1040B000B20C1092F10C8092F20C9092F30CA09240
:1040C000F40CB092F50C61E081E30E94B901C09359
:1040D000F60C1092E90C8092EA0C9092EB0CA092F4
:1040E000EC0CB092ED0C61E085E30E94B901C09345
:1040F000EE0C1092E10C8092E20C9092E30CA092F4
:10410000E40CB092E50C61E083E30E94B901C09336
:10411000E60C1092950C80912E0490912F04A091A2
:104120003004B091310480939D0C90939E0CA09329
:104130009F0CB093A00C10929A0C8092960C9092C7
:10414000970CA092980CB092990C66E370E080E016
:1041500090E00E94F50890939C0C80939B0CC09378
:104160009A0C1092450C8091060490910704A0913E
:104170000804B091090480936B0C90936C0CA0938D
:104180006D0CB0936E0C8092460C9092470CA092EE
:10419000480CB092490C80E090E0A0E4B0E4809339
:1041A0006F0C9093700CA093710CB093720C80E024
:1041B00090E0A0E8BFE38093730C9093740CA093FD
:1041C000750CB093760CE092770CF092780C00931B
:1041D000790C10937A0CE0927B0CF0927C0C00939B
:1041E0007D0C10937E0CE0927F0CF092800C00937B
:1041F000810C1093820C60E070E080E490E40E94F7
:10420000C90D4B015C0120E030E040E853E40E941E
:10421000C14A87FF1CC0A8019701C501B4010E94D3
:10422000B14C87FD16C0C501B4010E94324B862FE8
:104230000E94AD0281E080934A0CCF911F910F91B3
:10424000FF90EF90BF90AF909F908F9008958FEF69
:10425000EFCF80E0EDCF8091850C811103C081E02C
:104260008093850C8091C50C811136C081E08093CC
:10427000C50C8091C60C9091C70CA091C80CB09150
:10428000C90C0197A105B10539F58091CA0C8823A5
:1042900019F16091CD0C7091CE0C8091CF0C909162
:1042A000D00C0E94BD069093CC0C8093CB0C40E0C8
:1042B00050E0BA010E9486066091CD0C7091CE0C40
:1042C0008091CF0C9091D00C0E94BD069093CC0CA5
:1042D0008093CB0C0E9452078091B90C811136C09B
:1042E00081E08093B90C8091BA0C9091BB0CA091A5
:1042F000BC0CB091BD0C0197A105B10539F58091B9
:10430000BE0C882319F16091C10C7091C20C809190
:10431000C30C9091C40C0E94BD069093C00C809376
:10432000BF0C40E050E0BA010E9486066091C10CCB
:104330007091C20C8091C30C9091C40C0E94BD0678
:104340009093C00C8093BF0C0E9452078091D90CAF
:10435000811103C081E08093D90C8091D10C81112F
:1043600003C081E08093D10C8091A10C811136C0F3
:1043700081E08093A10C8091A20C9091A30CA0915C
:10438000A40CB091A50C0197A105B10539F5809158
:10439000A60C882319F16091A90C7091AA0C809148
:1043A000AB0C9091AC0C0E94BD069093A80C80932E
:1043B000A70C40E050E0BA010E9486066091A90C6B
:1043C0007091AA0C8091AB0C9091AC0C0E94BD0630
:1043D0009093A80C8093A70C0E9452078091AD0C7B
:1043E000811136C081E08093AD0C8091AE0C90912C
:1043F000AF0CA091B00CB091B10C0197A105B10523
:1044000039F58091B20C882319F16091B50C709147
:10441000B60C8091B70C9091B80C0E94BD06909399
:10442000B40C8093B30C40E050E0BA010E948606C1
:104430006091B50C7091B60C8091B70C9091B80C4E
:104440000E94BD069093B40C8093B30C0E94520757
:104450008091F10C811103C081E08093F10C809177
:10446000E90C811103C081E08093E90C8091E10C9B
:10447000811103C081E08093E10C8091950C811142
:104480001FC081E08093950C8091960C9091970CC1
:10449000A091980CB091990C0197A105B10581F4F8
:1044A00080919A0C882361F066E370E080E090E0F0
:1044B0000E94B10890939C0C80939B0C0E94180959
:1044C0008091450C811103C081E08093450C0895D3
:1044D00060E070E080E89FE7089560E070E080E8C9
:1044E0009FE7089560E070E080E89FEF089560E046
:1044F00070E080E89FEF089560E070E080EC9FEF4F
:10450000089560E070E080EC9FEF0895F5DF609320
:104510006B0D70936C0D80936D0D90936E0DF1DFAC
:1045200060935F0D7093600D8093610D9093620DA9
:10453000CFDF6093670D7093680D8093690D909342
:104540006A0DCBDF6093630D7093640D8093650DEE
:104550009093660DC7DF60936F0D7093700D80931D
:10456000710D9093720DC3DF6093730D7093740D92
:104570008093750D9093760D0895CF92DF92EF9210
:10458000FF92CF936B017C01AC019B016091670DA1
:104590007091680D8091690D90916A0D0E94C14AD9
:1045A000C1E0882371F0A701960160916F0D7091B1
:1045B000700D8091710D9091720D0E94C14A811110
:1045C000C0E08C2FCF91FF90EF90DF90CF900895B7
:1045D0000F931F938B019C010027112720783F77B1
:1045E0000115110520483F4749F4AB01BC016F7725
:1045F000772781E0452B462B472B09F480E01F915C
:104600000F910895E5CFEF92FF920F931F93CF93F1
:10461000DF93EA01F901DC011496ED90FC90159707
:1046200012964D915C9113974E0D5F1D2881398133
:1046300018960D911C9119970217130730F00D91E0
:104640001C911197012B09F441C08A01021B130B25
:10465000DC0118968D919C918E199F09800F911FF6
:1046600086179707DCF1C901860F971F84179507F6
:1046700078F47183608333832283158214821782D6
:10468000168288819981680F791F7983688316C0A3
:104690001183008333832283601B710B75836483D2
:1046A00090E080E01616170614F49E2D8F2D968349
:1046B0008783D701A60FB71FB983A88380E0DF9156
:1046C000CF911F910F91FF90EF90089518968D91C3
:1046D0009C91821B930B861797075CF681E0EFCFC6
:1046E000CF92DF92EF92FF92CF93DF936B0184E43E
:1046F000869FE001879FD00D1124C957D84F8AA902
:104700009BA9009721F00E944B591BAA1AAA84E486
:104710008C9DF0018D9DF00D1124E957F84F86A96D
:1047200097A9009711F00E944B5984E48C9DF001E9
:104730008D9DF00D1124E957F84F138A128A168ABD
:10474000178A108E118E128E138E148E158E168E61
:10475000178E10A211A281E090E093A382A315A26C
:1047600014A216A217A210A611A613A612A615A689
:1047700014A616A617A610AA11AA13AA12AA15AA59
:1047800014AA17AA16AA11AE10AE12AE13AE14AE2A
:1047900015AEDF01DE961D921D921D921C9213979D
:1047A000EE5BFF4F11821082DF91CF91FF90EF906F
:1047B000DF90CF900895CF93DF93FB01DC016D91E3
:1047C0007C91DB011696CD91DC918081918123E073
:1047D000880F991F2A95E1F7AA81BB81A80FB91FFD
:1047E0008D919C91119724853585220F331FEB0104
:1047F0006A817B81EB01C20FD31F0990D881C02D44
:1048000014962D913C9161E070E0232B11F062E051
:1048100070E0C69F9001C79F300DD69F300D1124C8
:10482000A085B1852A9FB0012B9F700D3A9F700D16
:104830001124A481B5812A9FF0012B9FF00D3A9F8E
:10484000F00D11248E0F9F1FFA01918380837383D3
:104850006283DF91CF9108952F923F924F925F92A2
:104860006F927F928F929F92AF92BF92CF92DF9280
:10487000EF92FF920F931F93CF93DF9300D000D05E
:10488000CDB7DEB7DC011496ED91FC910190F0817B
:10489000E02D808591859A838983A281B381BC8331
:1048A000AB83FB0181909190A190B190C12CD12C50
:1048B0007601C814D904EA04FB04CCF026960FB69E
:1048C000F894DEBF0FBECDBFDF91CF911F910F9146
:1048D000FF90EF90DF90CF90BF90AF909F908F9020
:1048E0007F906F905F904F903F902F9008954480FD
:1048F0005580668077804085518562857385CF01BC
:1049000040969E838D83A081B1819D0183E0220F1B
:10491000331F8A95E1F7A981BA8112968D919C91F6
:10492000D901A80FB91F2D903C9011970484F585EB
:10493000E02DEE0FFF1F8B819C81E80FF91F019086
:10494000F081E02D14968D919C91892B41F581E0A9
:1049500090E0E89F9001E99F300DF89F300D112401
:10496000249F8001259F100D349F100D1124249D3C
:10497000C001259D900D349D900D1124A8016D81DD
:104980007E81820D931D0E94D459ED81FE81E00F3E
:10499000F11F9FEFC91AD90AE90AF90A8ACF82E002
:1049A00090E0D7CFCF93DF93DB01A952BB4F2C917F
:1049B000222369F024E4269FF001279FF00D1124A3
:1049C000E957F84FEF0119922A95E9F71C9224E470
:1049D000269FF001279FF00D1124E957F84F14820C
:1049E0001582168217821186108613861286118A06
:1049F000108A17861686DF91CF9172CE2F923F9242
:104A00004F925F926F927F928F929F92AF92BF92DE
:104A1000CF92DF92EF92FF920F931F93CF93DF938A
:104A200000D000D01F921F92CDB7DEB724E4269F9E
:104A3000F001279FF00D1124E957F84F04811581EB
:104A400026813781012B022B032B09F4B7C02A01E1
:104A50006B017C0110E000E0812C912C54013F019E
:104A60009F01285F3F4F3C832B83CF0104969E8399
:104A70008D83AB81BC818D919C91ED81FE814081C4
:104A800051816281738184169506A606B706E4F10A
:104A90000E944B59D3011A968D919C91892B09F054
:104AA0007EC084E48C9DD0018D9DB00D1124A9574A
:104AB000B84FBC83AB8350968D919C910E944B590B
:104AC000EB81FC81868597850E944B59C701B60111
:104AD00007DEC701B60128960FB6F894DEBF0FBEF9
:104AE000CDBFDF91CF911F910F91FF90EF90DF909D
:104AF000CF90BF90AF909F908F907F906F905F907E
:104B00004F903F902F904ECFFC01E00FF11F92810C
:104B10009983A381AA839F83A887312C212C2414F5
:104B2000350464F089819A810E944B59EFEF8E1A07
:104B30009E0AAE0ABE0A0C5F1F4F9BCFAF81B8859D
:104B4000ED91FD91B887AF83309759F084819581BD
:104B50000E944B59EF81F8853297808191810E94A4
:104B60004B59BFEF2B1A3B0ADACF800F911FFC0184
:104B7000848195810E944B592B813C812F5F3F4F4F
:104B80003C832B83025F1F4FF501808191812B8134
:104B90003C81241535054CF30E944B5982CF10E01F
:104BA00000E01C821B8224E42C9DC0012D9D900DF1
:104BB0001124DC01AF56B84F5D01E6CF28960FB641
:104BC000F894DEBF0FBECDBFDF91CF911F910F9143
:104BD000FF90EF90DF90CF90BF90AF909F908F901D
:104BE0007F906F905F904F903F902F90089524E4B6
:104BF000269FF001279FF00D1124E957F84F828975
:104C000093890497029758F485E090E0938B828B08
:104C10008FEF9FEFDC01828F938FA48FB58F089564
:104C20002F923F924F925F926F927F928F929F92BC
:104C3000AF92BF92CF92DF92EF92FF920F931F93AA
:104C4000CF93DF93CDB7DEB7AA970FB6F894DEBF48
:104C50000FBECDBF9AA389A37E8B6D8B1A01098BE2
:104C60001A8B2B8B3C8B84E429893A89829F6001C3
:104C7000839FD00C112486010957184F89899A897E
:104C8000AB89BC89F80180839183A283B383AB0194
:104C9000BC01CD01B3DED601A557B84F84E0F101C8
:104CA00001900D928A95E1F7F4E02F0E311C64E03B
:104CB00070E0D80114968D919C910E949558F8014E
:104CC00091878087892B09F0F5C04D895E896989B4
:104CD0007A898B899C8992DE81E0AA960FB6F89436
:104CE000DEBF0FBECDBFDF91CF911F910F91FF901F
:104CF000EF90DF90CF90BF90AF909F908F907F907C
:104D00006F905F904F903F902F900895A9A5BAA5FE
:104D10008D919C91E98DFA8DE80FF91FF88FEF8B3B
:104D2000D1018D919C91880F991FA9A1BAA1ED91F4
:104D3000FC91E80FF91F80819181EF89F88D9183B3
:104D40008083D10114962D913D914D915C911797DF
:104D50002BA33CA34DA35EA362E070E08D899E89E6
:104D60000E949558EF89F88D93838283892B09F4EB
:104D7000ACCFF8E02F0E311C412C512C32012BA16D
:104D80003CA14DA15EA142165306640675069CF037
:104D90002B8D3C8D4D8D5E8D2F5F3F4F4F4F5F4F65
:104DA0002B8F3C8F4D8F5E8F498D5A8D4C5F5F4F9F
:104DB0005A8F498F90C0610124E0C20ED11CD101ED
:104DC000ED90FC90EE0CFF1CEF89F88D82819381B1
:104DD000E80EF91E68E070E081E090E00E949558CE
:104DE0008C01D7018D939C93892B09F46ECF84E0BD
:104DF000F601D80101900D928A95E1F7B8E02B0EEB
:104E0000311CF80180819181A281B38118161906A5
:104E10001A061B06DCF464E070E00E949558D80185
:104E200015969C938E931497892B09F44ECFD12C11
:104E3000C12C812C912C5401F80180819181A28197
:104E4000B38188169906AA06BB0634F0FFEF4F1A05
:104E50005F0A6F0A7F0A93CFF801E480F580EC0CBB
:104E6000FD1C80E1F101DE01119601900D928A9501
:104E7000E1F7F0E12F0E311CA701BE016F5F7F4FFC
:104E8000A9A1BAA114968D919C9195DCF801868117
:104E90009781D70112962D913C91820F931F978392
:104EA0008683BFEF8B1A9B0AAB0ABB0AE4E0CE0EE7
:104EB000D11CC2CF1A8E198E1B8E1C8E1D8E1E8E7B
:104EC00018A30F8FA8014C5F5F4F58A74FA3C801CD
:104ED00008969AA789A7EFA1F8A580819181A28160
:104EE000B3812B8D3C8D4D8D5E8D281739074A0778
:104EF0005B070CF40BCF6EE070E08D899E890E94F9
:104F00009558AF8DB8A11B969C938E931A97B12C90
:104F1000A12CD12CC12CF12CE12C24E4E989FA89B3
:104F20002E9FC0012F9F900D11249C012F56384FAA
:104F3000388F2F8B88248394912C4D895E89C416D9
:104F4000D50654F184E4A989BA898A9F80018B9F90
:104F5000100D11240957184FF80115861486C70142
:104F600033E0880F991F3A95E1F70E94AF58D801B6
:104F700051969C938E935097892B09F4A6CEC70126
:104F8000880F991F0E94AF58F80197878687892B51
:104F900009F49BCE80E0A1CED1014D905D906D9043
:104FA0007D901D0177FC91CEEF89F88D00811181F4
:104FB0000A0D1B1DD80111969C928E92411451042A
:104FC0006104710429F1C2010E94AF58F801958370
:104FD0008483892B09F479CEF8015382428284813B
:104FE000958197838683918780871386128681E0D7
:104FF00090E045284628472811F490E080E0E80E2C
:10500000F91EFFEFCF1ADF0A2EE0A20EB11C95CFDA
:1050100015961C921E921497DFCF2F923F924F92BB
:105020005F926F927F928F929F92AF92BF92CF9238
:10503000DF92EF92FF920F931F93CF93DF93CDB741
:10504000DEB76A970FB6F894DEBF0FBECDBF9E8B5A
:105050008D8B49015A0184E4829F7001839FF00C7B
:10506000112497012957384F6901FB0180819181F3
:10507000F901958B848BD701A356B84FFB01349669
:1050800084E001900D928A95E1F7D701AF55B84FB2
:10509000FB01389684E001900D928A95E1F7D701E3
:1050A000AB55B84FFB013C9684E001900D928A9578
:1050B000E1F7D701AB54B84FFB01709684E0019043
:1050C0000D928A95E1F78B010C5E1F4FF90186A5C1
:1050D00097A5A0A9B1A918161906DCF5880F991F84
:1050E000880F991F0E94AF58F60193AB82AB892BB2
:1050F00009F4D3C0312C212C412C512C32019601C2
:10510000225D3F4F388F2F8BC601C2969A8F898FB1
:10511000F496FC8BEB8BB301A2012FEF421A520ADB
:10512000620A720AEF89F88D80819181A281B38130
:10513000481759076A077B070CF47BC0F60184A95E
:1051400095A90E94AF58F60197AB86AB892B09F45D
:10515000A4C0F80180819181A281B38124E4289DBB
:10516000F001299DF00D1124E957F84FAC01BD0164
:105170004D7F21E030E0452B462B472B11F030E0EE
:1051800020E033A322A324E4289DF001299DF00D03
:105190001124E957F84F0197A109B10921E030E046
:1051A0000297A105B10510F030E020E035A324A35B
:1051B000D701A355B84FF801349684E001900D92C1
:1051C0008A95E1F784E4889DF001899DF00D112412
:1051D000E957F84F868D978DA0A1B1A1B7FF58C0B0
:1051E000B095A095909581959F4FAF4FBF4F82AFDF
:1051F00093AFA4AFB5AF168E178E10A211A280E0A8
:105200006A960FB6F894DEBF0FBECDBFDF91CF9187
:105210001F910F91FF90EF90DF90CF90BF90AF90D4
:105220009F908F907F906F905F904F903F902F90C6
:105230000895E98DFA8D808191819C01220D331DA5
:105240003A8B298B80E1F801DE01119601900D92D5
:105250008A95E1F7005F1F4F49895A89BE016F5F48
:105260007F4FED89FE8984819581A5DAEB89FC89E0
:1052700080819181E989FA8922813381820F931F8C
:10528000EB89FC8991838083F4E02F0E311C43CF9E
:1052900012AE13AE14AE15AEB2CFC501B40120DA12
:1052A00081E0AECFCF92DF92EF92FF92CF93DF9368
:1052B00010920F0824E4269FF001279FF00D11247F
:1052C000E957F84F15A614A630E020E0D12CC12CE8
:1052D000DF011A96C1E0D0E0C416D506F4F024E44C
:1052E000269FF001279FF00D1124E957F84F13A6D0
:1052F00012A611AE10AEDF01DE961D921D921D9218
:105300001C92139782E090E0938B828BDF91CF9178
:10531000FF90EF90DF90CF900895ED91FC91119761
:10532000E20FF31FE280F3801E141F0454F4E480A4
:10533000F580F782E682F186E08613861286D183B5
:10534000C083EFEFCE1ADE0A225F3F4FC5CF24E4C1
:10535000269FF001279FF00D1124E957F84F138A7B
:10536000128A4CCB24E4269FF001279FF00D1124D4
:10537000E957F84F8289938981309105C8F08530CB
:10538000910518F0059769F008958FEF9FEFDC0104
:10539000828F938FA48FB58F85E090E0938B828B63
:1053A00008958FEF9FEFDC01828F938FA48FB58FCD
:1053B000089524E4249FD001259FB00D1124A957FE
:1053C000B84F2EE0AC01249FC001259F900D112401
:1053D0001A96ED91FC91E80FF91F81E080930F0878
:1053E0008285938591878087408551852681378185
:1053F00081E090E04217530711F090E080E0918344
:10540000808308952F923F924F925F926F927F9286
:105410008F929F92AF92BF92CF92DF92EF92FF92C4
:105420000F931F93CF93DF93CDB7DEB7C055D1094C
:105430000FB6F894DEBF0FBECDBF9EAF8DAF4BA7AA
:105440005CA76DA77EA76801790184E4809FF001C5
:10545000819FF00D1124E957F84F2285338523965B
:105460003FAF2EAF239782899389029761F486A577
:1054700097A5A0A9B1A9892B8A2B8B2BC9F584E00C
:1054800090E0938B828B84E48C9DF0018D9DF00DD8
:105490001124E957F84F828993898230910509F0E8
:1054A00037C282AD93ADA4ADB5AD22242394312C87
:1054B000181619061A061B060CF42FC2C05BDF4F24
:1054C0000FB6F894DEBF0FBECDBFDF91CF911F9115
:1054D0000F91FF90EF90DF90CF90BF90AF909F9093
:1054E0008F907F906F905F904F903F902F90089596
:1054F000848995894DAD5EAD8417950721F606A97F
:1055000017A918AE1FAA1BAA1CAA1DAA1EAA1F0112
:10551000CF018E9627969FAF8EAF2797DF01D29649
:105520002996BFAFAEAF2997F8962B96FFAFEEAF97
:105530002B9791012A5D3F4F2D963FAF2EAF2D97B0
:10554000A1014E5D5F4F2F965FAF4EAF2F970A9729
:1055500061969FAF8EAF61972796EEADFFAD27970F
:1055600080819181A281B3812BA93CA94DA95EA91B
:10557000281739074A075B0744F081E090E0D10122
:10558000D9969C938E93D8977ECF2996AEADBFAD1A
:105590002997ED91FC912FA938ADE20FF31F4281BD
:1055A00053815AAF49AF50815FAF818121968FAF50
:1055B00021972B96AEADBFAD2B978D919C91892BEA
:1055C00021F12D96EEADFFAD2D9780809180A280C8
:1055D000B3801AAB09AB5FA72196FFAD2197F8AB5B
:1055E00029AD3AAD369527953695279525963FAF47
:1055F0002EAF25971CAE1BAE2596AEADBFAD259741
:10560000EBADFCADEA17FB070CF149AD5AAD6FAD40
:1056100021967FAD2197C8010E94D45989AD9AADDA
:105620008C7F080F191F2BA93CA94DA95EA92F5FDC
:105630003F4F4F4F5F4F2BAB3CAB4DAB5EAB4FA9DA
:1056400058AD4C5F5F4F58AF4FAB86CF2F96AEAD86
:10565000BFAD2F978D919C91892B71F1EFA5F8A982
:105660004080518062807380A3019201C501B40122
:105670000E94C14A181664F0A9A9BAA92D913D91BA
:105680004D915C91C501B4010E94B14C1816BCF15A
:10569000A3019201C501B4010E94C14A87FF0CC059
:1056A000E9A9FAA92081318142815381C501B40160
:1056B0000E94C14A882319F16196AEADBFAD6197D2
:1056C0008D919C91892B09F445C0EFA5F8A94080E4
:1056D000518062807380A3019201C501B4010E94D0
:1056E000B14C18161CF5A9A9BAA92D913D914D915F
:1056F0005C91C501B4010E94C14A18165CF184E4B2
:105700008C9DF0018D9DF00D1124E957F84F868D89
:10571000978DA0A1B1A1892B8A2B8B2B69F183E0F6
:1057200090E0938B828B81E090E02CC0A3019201EA
:10573000C501B4010E94C14A81110CC0E9A9FAA9AE
:105740002081318142815381C501B4010E94C14A47
:1057500087FDD5CF2BAD3CAD2F5F3F4F3CAF2BAF7F
:1057600049A95AA94C5F5F4F5AAB49AB8FA598A97D
:10577000049698AB8FA740CF84E090E0938B828B08
:1057800086AD97AD93A782A77ECEEBADFCAD8081B1
:105790009181F401EE0FFF1FEE0FFF1FE80FF91FBD
:1057A000A081B1818C9181110AC0FFEF8F1A9F0AED
:1057B000AF0ABF0A8DA29EA2AFA2B8A68FC1833046
:1057C000A1F30280F381E02D2FA938ADE20FF31F82
:1057D000808191819AAB89AB892B39F34F5F5F4F01
:1057E0006F4F7F4F49875A876B877C879E01235E67
:1057F0003F4FAE01475D5F4F64E070E0C8010E941B
:1058000003238111D0C18D819E81AF81B88504961B
:10581000A11DB11D8D839E83AF83B8874D8D5E8D95
:10582000BE016B5D7F4F8F8D98A10E94D4598BA1D3
:105830009CA1009761F06D8D7E8DA5E2B0E0AC0F6C
:10584000BD1F6A0F7B1F49A15AA10E94D4591CAAEF
:105850001BAA412C512C3201E9A9FAA9808191811E
:10586000A281B381481659066A067B060CF09DCFCB
:10587000E9A9FAA9848195812BA93CA9280F391F90
:1058800038AB2FA7D90112966D917C919E01235EB2
:105890003F4FAE01475D5F4FC8010E940323811156
:1058A00082C1EFA5F8A982819381092E000CAA0B71
:1058B000BB0B4D815E816F817885840F951FA61F7C
:1058C000B71F8D839E83AF83B887608171814D8DB3
:1058D0005E8D8F8D98A10E94D4598BA19CA10097B9
:1058E00061F0AFA5B8A96D917C912D8D3E8D620FB1
:1058F000731F49A15AA10E94D459BFEF4B1A5B0AEA
:105900006B0A7B0AEBA9FCA93496FCABEBABA4CFEA
:10591000312C212C049709F0D1CD8EE0EDADFEADF8
:105920008E9F80018F9F100D112423962EAD3FADC9
:105930002397020F131FD80112964D915C91139774
:105940004115510509F4BACD16968D919C919AA7EF
:1059500089A780E1FE013196DF011D928A95E9F762
:10596000C98ADA8AEB8AFC8A2114310409F458C006
:1059700084E48C9DF0018D9DF00D1124E957F84FC2
:10598000DF01DE968D909D90AD90BC9082AD93AD81
:10599000A4ADB5AD88169906AA06BB0609F040C0AD
:1059A000F801848195810084F185E02D349624E00E
:1059B000DE01559601900D922A95E1F72D893E89D9
:1059C000285F3F4F3E8B2D8BD80118966D917C91AF
:1059D0001997260F371F19963C932E9318971896F0
:1059E0002D913C911997480F591F241B350B37FDFA
:1059F00006C0820F931F19969C938E93189784E488
:105A00008C9DF0018D9DF00D1124EB53F84FB1E00A
:105A10008B1A9108A108B10880829182A282B38278
:105A20009E012B5E3F4FAE01475D5F4F64E170E02A
:105A3000C8010E9403238111B6C08CE090E0A0E071
:105A4000B0E08D839E83AF83B8879E01235E3F4F76
:105A5000AE01475D5F4F64E070E0C8010E94032320
:105A60008111A1C080E190E0A0E0B0E08D839E8331
:105A7000AF83B8874D8D5E8DBE01655D7F4F8F8D85
:105A800098A10E94D4598BA19CA1009761F06D8DC3
:105A90007E8DEBE2F0E0EC0FFD1F6E0F7F1F49A142
:105AA0005AA10E94D4591DA21EA21FA218A62DAD54
:105AB0003EAD220F331F38AF2FAB24E42C9DC00125
:105AC0002D9D900D11248957984FAC014C5F5F4F6D
:105AD0005AAF49AFDC011896BCAFABAF8DA09EA00A
