:1000000086C100000C945F470C948A470C94B54756
:100010000C94E0470C940B480C9436480C946148BF
:100020000C948C48A5C10000A3C10000A1C1000030
:100030009FC100009DC100009BC1000099C100004C
:1000400097C1000095C1000093C1000091C100005C
:100050008FC100008DC100008BC100000C94B74817
:1000600087C100000C94C04C0C94F64C81C1000078
:100070007FC100007DC100007BC1000079C100008C
:1000800077C1000075C1000073C1000071C100009C
:100090000C944C4D0C94824D6BC100000C94D42EEA
:1000A00067C1000065C1000063C1000061C10000BC
:1000B0005FC100005DC100005BC1000059C10000CC
:1000C00057C1000055C1000053C100000C94D84D29
:1000D0000C940E4E4DC100000C94644E0C949A4E3C
:1000E00047C10000001D3A2774694E53E8F5D2CF8E
:1000F0009C81A6BBCDD0F7EAB9A4839E25381F0208
:10010000514C6B76879ABDA0F3EEC9D46F725548F7
:100110001B06213C4A57706D3E230419A2BF9885E7
:10012000D6CBECF1130E2934677A5D40FBE6C1DCD7
:100130008F92B5A8DEC3E4F9AAB7908D362B0C11C7
:10014000425F78659489AEB3E0FDDAC77C61465BB7
:100150000815322F5944637E2D30170AB1AC8B96A7
:10016000C5D8FFE2263B1C01524F6875CED3F4E997
:10017000BAA7809DEBF6D1CC9F82A5B8031E392487
:10018000776A4D50A1BC9B86D5C8EFF24954736E77
:100190003D20071A6C71564B1805223F8499BEA367
:1001A000F0EDCAD735280F12415C7B66DDC0E7FA57
:1001B000A9B4938EF8E5C2DF8C91B6AB100D2A3747
:1001C00064795E43B2AF8895C6DBFCE15A47607D37
:1001D0002E3314097F6245580B16312C978AADB027
:1001E000E3FED9C400000A0B02090C0D0E08070338
:1001F00004010000000000000000000000000000FA
:1002000000000000000000000000000000000000EE
:1002100012111000000000000000000000000000AB
:100220000000000000000000000001021020200873
:100230000810204010204080020102010804020141
:1002400001020408102040808040201008040201B0
:100250008004020180402010080402010804020109
:100260000102040810204080010204081020408090
:1002700005050505070508080808020202020A0A22
:100280000808040404040101010101010101030340
:10029000030303030303040707070C0C0C0C0C0CEB
:1002A0000C0C0202020206060606060606060B0BE8
:1002B0000B0B0B0B0B0B000020002300260029006A
:1002C0002C002F003200000100000301060109018B
:1002D00000002200250028002B002E0031003400F1
:1002E00002010000050108010B01000021002400AB
:1002F00027002A002D003000330001010000040116
:1003000007010A014A371F4DAB4D374EC34E11242A
:100310001FBECFEFD1E2DEBFCDBF00E00CBF15E0C6
:10032000A0E0B2E0E4EAF7EA00E00BBF02C0079009
:100330000D92A23FB107D9F72CE0A2EFB5E001C0C2
:100340001D92A831B207E1F711E0C7E8D1E000E063
:1003500006C021970109802FFE010E94D551C238A5
:10036000D10780E00807A9F70E94BF430C94D0533F
:1003700047CEAB01BC0186E198E00C945451AB012F
:10038000BC0183EB98E00C945451AB01BC0180E5B7
:1003900099E00C945451AB01BC018DEE99E00C94A2
:1003A00054518F929F92AF92BF92CF92DF92EF9271
:1003B000FF920F931F93CF93DF93CDB7DEB77B01EF
:1003C0004A015901CDB6DEB69B01220F331F4DB74E
:1003D0005EB7421B530B0FB6F8945EBF0FBE4DBF06
:1003E0000DB71EB70F5F1F4FE82FF0E0EE0FFF1F96
:1003F000E25FFD4F0190F081E02DC8011995F801F1
:10040000D401E00EF11EEE15FF0519F081918D93D8
:10041000FACF81E0F50180830FB6F894DEBE0FBEFF
:10042000CDBEDF91CF911F910F91FF90EF90DF90A4
:10043000CF90BF90AF909F908F9008959F92AF9272
:10044000BF92CF92DF92EF92FF920F931F93CF93C1
:10045000DF93CDB7DEB7C054D1090FB6F894DEBF35
:100460000FBECDBFB82E8B01942EA52E6901E82EAC
:10047000F12CEE0CFF1CF701EA5FFD4F0190F081BB
:10048000E02D199580179107C9F49601492D5A2D31
:10049000BC018B2D86DFC05CDF4F0FB6F894DEBF4A
:1004A0000FBECDBFDF91CF911F910F91FF90EF90C5
:1004B000DF90CF90BF90AF909F90089580179107E5
:1004C00048F4E92DFA2D0E0F1F1FE017F10719F15F
:1004D0001192FBCF9801220F331F2817390728F0FC
:1004E0009601492D5A2DB801D4CFB8010E948C51E4
:1004F000CB010197809FB001819F700D909F700D7F
:100500001124F701E25FFD4F0190F081E02DCE0153
:1005100001961995E5CFF6011082BDCF86E198E0EE
:100520000C94964B83EB98E00C94964B80E599E005
:100530000C94964B8DEE99E00C94964B8823E1F049
:10054000823061F0833089F08130B1F440E052ECC8
:1005500061E070E081E090E00C946F3740E052EC95
:1005600061E070E082E090E0F7CF40E052EC61E0C3
:1005700070E083E090E0F0CF08954F925F926F9229
:100580007F928F929F92AF92BF92CF92EF92FF9203
:100590000F931F93CF93DF93CDB7DEB72B013A01B3
:1005A000F02EB40130E02830310511F424E030E0C1
:1005B0000AE010E0CC2061F091E000E110E0C91603
:1005C00039F0E2E008E010E0CE1611F002E010E0B1
:1005D000813009F4E8C0B0F0823009F4C5C183303D
:1005E00009F4A3C2DF91CF911F910F91FF90EF907B
:1005F000CF90BF90AF909F908F907F906F905F90C3
:100600004F900895F1101BC0269DA001279D500D0D
:10061000369D500D1124B20186E198E0DF91CF9113
:100620001F910F91FF90EF90CF90BF90AF909F9050
:100630008F907F906F905F904F900C94F04E86E17A
:1006400098E00E942C4FE11014C0640C751C6414D7
:10065000750441F2F20161912F01F1E0A80186E1F8
:1006600098E0FF1203C00E94FE4FF1CF0E94045099
:10067000EECF81E0E81215C091E0691A710808F424
:10068000B1CFF201619171912F01F1E0A80186E1F2
:1006900098E0FF1203C00E941450EECF0E94195040
:1006A000EBCF82E0E81217C091E0691A710808F4F4
:1006B00099CFF20141915191619171912F01F1E036
:1006C000980186E198E0FF1203C00E94F24FECCF40
:1006D0000E942950E9CF83E0E81218C0640C751C11
:1006E0006414750409F47ECFF20161912F01062E86
:1006F000000C770BF1E0A80186E198E0FF1203C03F
:100700000E94CC4FEDCF0E94D24FEACF84E0E81296
:1007100015C091E0691A710808F464CFF201619183
:1007200071912F01F1E0A80186E198E0FF1203C06A
:100730000E94CC4FEECF0E94D24FEBCF85E0E81263
:1007400017C091E0691A710808F44CCFF201419189
:100750005191619171912F01F1E0980186E198E04A
:10076000FF1203C00E94874FECCF0E94E24FE9CFF7
:1007700086E0E81237CFB12C91E0691A710808F4CD
:1007800031CFF20141915191619171912F01F1E0CD
:10079000950186E198E0FF1203C00E941551ECCF4D
:1007A0000E941651E9CFF1100BC0269DA001279D94
:1007B000500D369D500D1124B20183EB98E02ECFE1
:1007C00083EB98E00E942C4FE11015C0640C751C5F
:1007D0004614570409F406CFF20161912F01F1E0AC
:1007E000A80183EB98E0FF1203C00E94FE4FF0CFF8
:1007F0000E940450EDCF81E0E81215C091E0691A23
:10080000710808F4EFCEF201619171912F01F1E0CE
:10081000A80183EB98E0FF1203C00E941450EECFB2
:100820000E941950EBCF82E0E81217C091E0691ADC
:10083000710808F4D7CEF201419151916191719103
:100840002F01F1E0980183EB98E0FF1203C00E94B2
:10085000F24FECCF0E942950E9CF83E0E81218C094
:10086000640C751C6414750409F4BCCEF20161912A
:100870002F01062E000C770BF1E0A80183EB98E026
:10088000FF1203C00E94CC4FEDCF0E94D24FEACF9F
:1008900084E0E81215C091E0691A710808F4A2CE4C
:1008A000F201619171912F01F1E0A80183EB98E0D1
:1008B000FF1203C00E94CC4FEECF0E94D24FEBCF6D
:1008C00085E0E81217C091E0691A710808F48ACE31
:1008D000F20141915191619171912F01F1E09801E3
:1008E00083EB98E0FF1203C00E94874FECCF0E9479
:1008F000E24FE9CF86E0E81275CEB12C91E0691A9B
:10090000710808F46FCEF20141915191619171919A
:100910002F01F1E0FF1214C0C11006C0950183EB56
:1009200098E00E941551EACFCB01BA010E94C3445E
:10093000AB01BC01980183EB98E00E94874FDECFAA
:10094000C11006C0950183EB98E00E941651D6CFE6
:10095000CB01BA010E94C344AB01BC01980183EBF7
:1009600098E00E94E24FCACFF1100BC0269DA00173
:10097000279D500D369D500D1124B20180E599E060
:100980004DCE80E599E00E942C4FE11015C0640C1B
:10099000751C4614570409F425CEF20161912F010C
:1009A000F1E0A80180E599E0FF1203C00E94FE4F2C
:1009B000F0CF0E940450EDCF81E0E81215C091E025
:1009C000691A710808F40ECEF201619171912F013C
:1009D000F1E0A80180E599E0FF1203C00E941450E5
:1009E000EECF0E941950EBCF82E0E81217C091E0E1
:1009F000691A710808F4F6CDF201419151916191A3
:100A000071912F01F1E0980180E599E0FF1203C098
:100A10000E94F24FECCF0E942950E9CF83E0E81208
:100A200018C0640C751C6414750409F4DBCDF20164
:100A300061912F01062E000C770BF1E0A80180E5F3
:100A400099E0FF1203C00E94CC4FEDCF0E94D24F1D
:100A5000EACF84E0E81215C091E0691A710808F441
:100A6000C1CDF201619171912F01F1E0A80180E502
:100A700099E0FF1203C00E94CC4FEECF0E94D24FEC
:100A8000EBCF85E0E81217C091E0691A710808F40D
:100A9000A9CDF20141915191619171912F01F1E044
:100AA000980180E599E0FF1203C00E94874FECCFC8
:100AB0000E94E24FE9CF86E0E81294CDB12C91E09C
:100AC000691A710808F48ECDF2014191519161913A
:100AD00071912F01F1E0FF1214C0C11006C0950101
:100AE00080E599E00E941551EACFCB01BA010E943E
:100AF000C344AB01BC01980180E599E00E94874F97
:100B0000DECFC11006C0950180E599E00E94165124
:100B1000D6CFCB01BA010E94C344AB01BC019801FE
:100B200080E599E00E94E24FCACFF1100BC0269DEC
:100B3000A001279D500D369D500D1124B2018DEE60
:100B400099E06CCD8DEE99E00E942C4FE11015C01C
:100B5000640C751C6414750409F444CDF2016191B0
:100B60002F01F1E0A8018DEE99E0FF1203C00E9471
:100B7000FE4FF0CF0E940450EDCF81E0E81215C087
:100B800091E0691A710808F42DCDF201619171911B
:100B90002F01F1E0A8018DEE99E0FF1203C00E9441
:100BA0001450EECF0E941950EBCF82E0E81217C02C
:100BB00091E0691A710808F415CDF2014191519143
:100BC000619171912F01F1E098018DEE99E0FF1292
:100BD00003C00E94F24FECCF0E942950E9CF83E07E
:100BE000E81218C0640C751C6414750409F4FACC7E
:100BF000F20161912F01062E000C770BF1E0A801A4
:100C00008DEE99E0FF1203C00E94CC4FEDCF0E9401
:100C1000D24FEACF84E0E81215C091E0691A71085A
:100C200008F4E0CCF201619171912F01F1E0A8018B
:100C30008DEE99E0FF1203C00E94CC4FEECF0E94D0
:100C4000D24FEBCF85E0E81217C091E0691A710826
:100C500008F4C8CCF20141915191619171912F0139
:100C6000F1E098018DEE99E0FF1203C00E94874FDA
:100C7000ECCF0E94E24FE9CF86E0E812B3CCB12C72
:100C800091E0691A710808F4ADCCF20141915191DB
:100C9000619171912F01F1E0FF1214C0C11006C0E3
:100CA00095018DEE99E00E941551EACFCB01BA0172
:100CB0000E94C344AB01BC0198018DEE99E00E94F3
:100CC000874FDECFC11006C095018DEE99E00E94DE
:100CD0001651D6CFCB01BA010E94C344AB01BC016F
:100CE00098018DEE99E00E94E24FCACF0895CF920D
:100CF000DF92EF92FF92CF93882351F16A017B013B
:100D0000CFEFC80F20E030E0A901CB01B6010E946F
:100D1000BF4487FF11C0C701B60190580E94C84464
:100D20009B01AC016C2F70E090E080E0CF91FF90D0
:100D3000EF90DF90CF90B2C0C701B6010E94C344CC
:100D40008C2FCF91FF90EF90DF90CF900C94CB49F8
:100D5000CF91FF90EF90DF90CF9008950F931F9366
:100D60008B019C0183E036952795179507958A9509
:100D7000D1F70E501A4F462F477021E030E0F901AD
:100D800002C0EE0FFF1F4A95E2F7AF01F801208184
:100D90002423CB010196211102C090E080E01F9135
:100DA0000F9108950F931F938B019C0183E036955B
:100DB0002795179507958A95D1F7677081E090E0A0
:100DC00001C0880F6A95EAF7F801EE50FA4F2081CA
:100DD000452B31F48095822380831F910F910895D4
:100DE000822BFACF2F923F924F925F926F927F9217
:100DF0008F929F92AF92BF92CF92DF92EF92FF922B
:100E00000F931F93CF93DF93D62EC72E782E692E84
:100E100049015A01280161E08D2D0E94054BCD2D1D
:100E2000DC2D8E010F5F1F4FA8016D2D7C2D872DAE
:100E3000962DB8DF20E030E0A901C201B7010E9481
:100E40004746181664F4C201B7010E94C8442B013A
:100E5000C501B4010E94C844A201CE0123D0C8013B
:100E6000DF91CF911F910F91FF90EF90DF90CF9086
:100E7000BF90AF909F908F907F906F905F904F90BA
:100E80003F902F900895882341F08150682F70E0A3
:100E900090E080E050E040E085CF0895862FB901D2
:100EA0000C94CB499C01FC01EC51FE4FE491E150C4
:100EB000E231E0F4F0E08827EF59F84F8F4F0C94BF
:100EC000D55173077A077D079407A9077607BE07F0
:100ED000CA07CE07E507FA070F0826083B0876077A
:100EE000500867087C0884B5806884BD60E0822F64
:100EF0000C94414B84B58062F8CF809180008C7F48
:100F000082608093800080918100807E8061682B68
:100F10006093810050938700409386008091800009
:100F2000806880938000E2CF809180008C7F826017
:100F30008093800080918100807E8061682B609327
:100F400081005093870040938600809180008062EA
:100F5000E8CF809180008C7F8260809380008091B8
:100F60008100807E8061682B6093810050938700B0
:100F700040938600809180008860D3CF8091B0003C
:100F800080688093B0008091B100887F682B609367
:100F9000B100ACCF8091B0008062F3CF809190001F
:100FA0008C7F82608093900080919100807E806130
:100FB000682B609391005093970040939600809126
:100FC000900080688093900091CF809190008C7FFA
:100FD00082608093900080919100807E8061682B78
:100FE00060939100509397004093960080919000F9
:100FF0008062E8CF809190008C7F82608093900027
:1010000080919100807E8061682B60939100509365
:10101000970040939600809190008860D3CF809194
:10102000A0008C7F82608093A0008091A100807ED0
:101030008061682B6093A1005093A7004093A600A5
:101040008091A00080688093A00050CF8091A00084
:101050008C7F82608093A0008091A100807E80615F
:10106000682B6093A1005093A7004093A600809145
:10107000A0008062E8CF8091A0008C7F8260809386
:10108000A0008091A100807E8061682B6093A10008
:101090005093A7004093A6008091A0008860D3CF12
:1010A000809120018C7F82608093200180912101BA
:1010B000807E8061682B60932101509327014093CB
:1010C0002601809120018068809320010FCF8091BC
:1010D00020018C7F82608093200180912101807E9D
:1010E0008061682B60932101509327014093260172
:1010F000809120018062E8CF809120018C7F826006
:101100008093200180912101807E8061682B609313
:10111000210150932701409326018091200188608E
:10112000D3CF611102C00C94054B6130E1F362E052
:10113000FACF662319F061E00C94414B60E0FCCFDC
:101140002F923F924F925F926F927F928F929F92D7
:10115000AF92BF92CF92DF92EF92FF920F931F93C5
:10116000CF93DF9300D01F92CDB7DEB78B015C83A6
:101170004B83FB01E150F04CEE0FFF1FEE0FFF1F02
:10118000E80FF91F408151816281738177FD27C08B
:101190004C01B12CA12CC12CD12C7601A016B1068A
:1011A00064F5F40161917191819191914F010E94D7
:1011B000F4444B815C810E944D469B01AC01C70108
:1011C000B6010E9448446B017C012B813C81205E6A
:1011D0003F4F3C832B833FEFA31AB30ADFCF9A83A1
:1011E0008983312C212C81E090E0A0E0B0E0C12C7B
:1011F000D12C760120163106CCF0C701B6010F9034
:101200000F900F900F90DF91CF911F910F91FF9052
:10121000EF90DF90CF90BF90AF909F908F907F9096
:101220006F905F904F903F902F900895E981FA81E1
:101230004190519061907190FA83E9834094509469
:101240006094709453014201880E991EAA1EBB1E21
:10125000C501B4010E94F4444B815C810E944D465B
:101260009B01AC01C701B6010E9447446B017C01A0
:1012700081E084149504A604B70408F080E090E0AF
:10128000B0E0A0E02B813C81205E3F4F3C832B836C
:101290003FEF231A330AAECF2F923F924F925F92C5
:1012A0006F927F928F929F92AF92BF92CF92DF9276
:1012B000EF92FF920F931F93CF93DF93CDB7DEB7DB
:1012C000CB54D1090FB6F894DEBF0FBECDBF269622
:1012D0007FAF6EAF269728965FAF4EAF28973E8BB5
:1012E0002D8B2C96FFAEEEAE2C97FB01E150F04C0F
:1012F000EE0FFF1FEE0FFF1FE80FF91F8080918098
:10130000A280B3808F8A988EA98EBA8EB501A4016F
:10131000442777FD439555276627772729964FAFB2
:101320002997F901E150F04CEE0FFF1FEE0FFF1F60
:101330002896AEACBFAC2897EA0DFB1DC080D180CB
:10134000E280F380CB8EDC8EED8EFE8EB701A6019F
:10135000442777FD43955527662777272A964FAF71
:101360002A97188B0F87F80130E020E02C96EEAC1E
:10137000FFAC2C972E153F050CF43FC022969FAF73
:101380008EAF22971A8B098B312C212C812C912C1A
:10139000540183948D829E82AF82B88626968EAC4D
:1013A0009FAC2697281439047CF129969FAC299785
:1013B0002A96AFAC2A9730E020E041E050E060E0B0
:1013C00070E09A10F5C1C55BDF4F0FB6F894DEBF31
:1013D0000FBECDBFDF91CF911F910F91FF90EF9086
:1013E000DF90CF90BF90AF909F908F907F906F9045
:1013F0005F904F903F902F9008951192119211920B
:1014000011922F5F3F4FB2CF2296EEADFFAD2297E4
:1014100081919191A191B1912296FFAFEEAF229768
:101420008F88988CA98CBA8CB7FE23C04D815E81C1
:101430006F81788541505109610971095A016B0129
:10144000A81AB90ACA0ADB0AD601C50121E0CD8073
:10145000DE80EF80F8848C159D05AE05BF0508F091
:1014600020E0822E912CB12CA12C8D829E82AF8205
:10147000B8865D01CC24DD24A8A2B9A2CAA2DBA251
:101480009C01AD01442755272CA33DA34EA35FA388
:101490002C96EEADFFAD2C97E219F3098D889E884E
:1014A0008E169F060CF4F4012896AEACBFAC2897BC
:1014B0002496BFAEAEAE2497C988DA88DC8ACB8A80
:1014C0001E861D86812C912C5401839489869A86D0
:1014D000AB86BC86812C912C5401CD84DE84CE1643
:1014E000DF0604F1F7FF02C0F0E0E0E0E20DF31DDB
:1014F0002C96EEACFFAC2C97EE15FF0554F4EE0FD6
:10150000FF1FEE0FFF1FE00FF11F80829182A2826A
:10151000B3822FEF221A320AE989FA893496FA8BBC
:10152000E98B3CCF2496AEADBFAD2497CD90DD9036
:10153000ED90FD902496BFAFAEAF24972B8D3C8DE0
:101540004D8D5E8D57FF22C089859A85AB85BC8500
:101550000197A109B109AC01BD014C195D096E09E2
:101560007F096A017B0181E029853A854B855C858D
:10157000C216D306E406F50608F080E0482F50E0D6
:1015800070E060E049875A876B877C87B7018827BE
:10159000992768A779A78AA79BA7EE24FF2428A1EB
:1015A00039A14AA15BA1C701B6010E947D512B015F
:1015B0003C012CA13DA14EA15FA168A579A58AA5FA
:1015C0009BA50E947D516CA77DA78EA79FA7AB8985
:1015D000BC894D915D916D917D91BC8BAB8BDB0195
:1015E000CA01880D991DAA1DBB1D89839A83AB83EF
:1015F000BC8391E09F8F29813A814B815C812815C2
:1016000039054A055B0508F01F8E2CA13DA14EA1AE
:101610005FA1C701B6010E947D516B017C018980E9
:101620009A80AB80BC808C0C9D1CAE1CBF1C898238
:101630009A82AB82BC8252019924882488AA99AAF2
:10164000AAAABBAA29813A814B815C81280D391D48
:101650004A1D5B1D2CAB3DAB4EAB5FAB8CA49DA478
:10166000AEA4BFA454019924882488AE99AEAAAE32
:10167000BBAE280D391D4A1D5B1D2CAF3DAF4EAFD3
:101680005FAFAB89BC8914972D933D934D935C93C9
:10169000139728A139A14AA15BA168A579A58AA5BC
:1016A0009BA50E947D519F8C690D711D811D911D0F
:1016B000230166247724460E571E681E791E2CA52A
:1016C0003DA54EA55FA54A01AA24BB24840C951C08
:1016D000A61CB71C81E090E0A0E0B0E049815A81EF
:1016E0006B817C814C155D056E057F0518F080E0EF
:1016F00090E0DC01880D991DAA1DBB1D41E050E062
:1017000060E070E088A899A8AAA8BBA8CCA8DDA82A
:10171000EEA8FFA8C814D904EA04FB0418F040E0BE
:1017200050E0BA01840F951FA61FB71F812C912C82
:1017300054018394C8ACD9ACEAACFBAC2CAD3DAD44
:101740004EAD5FAD2C153D054E055F0518F0812CA3
:10175000912C5401880E991EAA1EBB1E4D855E85D4
:101760004F5F5F4F5E874D87B8CEEF85F889C19098
:10177000D190E190F190F88BEF87DB01CA010197DE
:10178000A109B1098C199D09AE09BF09349780835D
:101790009183A283B383E1E084179507A607B70777
:1017A00008F0E0E04E2F50E070E060E02F5F3F4F28
:1017B0002C968EAC9FAC2C9728153905B4F203CE2D
:1017C0002F923F924F925F926F927F928F929F9251
:1017D000AF92BF92CF92DF92EF92FF920F931F933F
:1017E000CF93DF93CDB7DEB72E970FB6F894DEBF59
:1017F0000FBECDBF9E878D873C872B871801FA01CE
:1018000025E0F695E7952A95E1F7DB01A150B04C6C
:10181000AA0FBB1FAA0FBB1FA80FB91FCD90DD9049
:10182000ED90FC90FF0CCC08DC2C7601E617F70756
:101830000CF0D5C0DF01A00FB11F9B01A617B707A1
:101840000CF49D018A010F711127DF01AA0FBB1F44
:10185000AA0FBB1F01151105F1F40D851E850A0F96
:101860001B1F8B859C8550E040E0BA016E0F7F1FE7
:10187000621773070CF05DC0D8018D909D90AD90FC
:10188000BD908D01DC018D929D92AD92BD92CD01F6
:101890004F5F5F4FEACF6D847E846A0E7B1E7C8231
:1018A0006B82D3014D905D906D907C90AB84BC8435
:1018B000BA82A98250E040E0A0E2B0E0CD01801BF6
:1018C000910B9E838D8353014201002E04C0B69478
:1018D000A794979487940A94D2F74F5F5F4FDF01E4
:1018E000A40FB51FA217B30784F1D701C6012617AD
:1018F00037076CF4220F331F220F331FED85FE854F
:101900002E0F3F1FF90180819181A281B3810D804B
:1019100004C0880F991FAA1FBB1F0A94D2F78829F9
:101920009929AA29BB29E981FA8180839183A2831D
:10193000B3839A01220F331F220F331F6B847C84E1
:10194000620E731E7A8269822EC0DA01AA0FBB1F53
:10195000AA0FBB1F6B807C80A60DB71D4D905D90BC
:101960006D907C90D301C2010D8004C0880F991F37
:10197000AA1FBB1F0A94D2F7882A992AAA2ABB2A2F
:10198000A981BA818D929D92AD92BD92BA83A983AD
:101990009ACFE981FA81C192D192E192F192FA83D0
:1019A000E9834F5F5F4F421553059CF32E960FB6A8
:1019B000F894DEBF0FBECDBFDF91CF911F910F9185
:1019C000FF90EF90DF90CF90BF90AF909F908F905F
:1019D0007F906F905F904F903F902F90089550E0D0
:1019E00040E0A7CF4F925F926F927F928F929F922B
:1019F000AF92BF92CF92DF92EF92FF92CF93DF939D
:101A00009A012150304C220F331F220F331FFC014B
:101A1000E20FF31F80809180A280B380FB01E20F70
:101A2000F31FC080D180E280F380CC24DD24EE243B
:101A3000E0E8FE2224013501442455246624E0E830
:101A40007E22C414D504E604F70499F52C5F3F4FB9
:101A5000FC01E20FF31FEB01C20FD31F1416150692
:101A60008CF090E080E0DF91CF91FF90EF90DF90DD
:101A7000CF90BF90AF909F908F907F906F905F902E
:101A80004F90089541505109F290E290D290C29047
:101A9000BA91AA919A918A91C816D906EA06FB06CC
:101AA000E9F28C159D05AE05BF0528F481E090E0B4
:101AB000DACFB7FEFBCF8FEF9FEFD5CF93DF21E0DB
:101AC000181619060CF020E0822F08958BDF892F5D
:101AD000881F8827881F08958F929F92AF92BF9288
:101AE000CF92DF92EF92FF920F931F9369017A01D9
:101AF0000E94B351F0E0E0E0E017F107A9F4672B92
:101B0000682B692B21F02F5F3F4F4F4F5F4FCA016A
:101B1000B9011F910F91FF90EF90DF90CF90BF9090
:101B2000AF909F908F9008954B015C01660F771FD7
:101B3000881F991F220F331F441F551FB7FC05C074
:101B40006C157D058E059F0540F02F5F3F4F4F4F71
:101B50005F4F6C197D098E099F093196CDCF8F9209
:101B60009F92AF92BF92CF92DF92EF92FF920F932C
:101B70001F9369017A010E94B351F0E0E0E0E017A1
:101B8000F10769F4CA01B9011F910F91FF90EF901D
:101B9000DF90CF90BF90AF909F908F9008954B01B2
:101BA0005C01660F771F881F991F220F331F441F88
:101BB000551FB7FC05C06C157D058E059F0540F0CF
:101BC0002F5F3F4F4F4F5F4F6C197D098E099F0963
:101BD0003196D5CF8F929F92AF92BF92CF92DF92E4
:101BE000EF92FF920F931F936B017C01DA01C90101
:101BF0000097A105B10559F46FEF7FEF8FEF9FE7D5
:101C0000F7FE33C060E070E080E090E82EC04B014A
:101C10005701F7FE07C08824992454018C189D08A9
:101C2000AE08BF089C01AD01B7FF07C022273327CC
:101C3000A901281B390B4A0B5B0BCC24F7FCC3947E
:101C4000DD24EE24FF248827B7FD83959927AA2752
:101C5000BB27C816A9F0C501B4013EDF9095809559
:101C6000709561957F4F8F4F9F4F1F910F91FF9000
:101C7000EF90DF90CF90BF90AF909F908F9008959E
:101C8000C501B4016CDFF1CFCF92DF92EF92FF92EA
:101C90006B017C019F7720E030E040E859E50E942D
:101CA000BF4487FF2BC020E030E040E05FE3C70186
:101CB000B6010E94474687FD0EC020E030E040E0BC
:101CC0005FE3C701B6010E944844FF90EF90DF90A8
:101CD000CF900C94314520E030E040E05FEBC7014D
:101CE000B6010E944746181684F420E030E0A901AE
:101CF000C701B6010E9481466B017C01C701B60194
:101D0000FF90EF90DF90CF90089520E030E040E02A
:101D10005FE3C701B6010E944744FF90EF90DF9058
:101D2000CF900C94AC442F923F924F925F926F925F
:101D30007F928F929F92AF92BF92CF92DF92EF925B
:101D4000FF920F931F93CF93DF93CDB7DEB7A49786
:101D50000FB6F894DEBF0FBECDBFC090E603D090A3
:101D6000E703E090E803F090E903A7019601609192
:101D7000D00A7091D10A8091D20A9091D30A0E9420
:101D8000BF44882341F0C092D00AD092D10AE09299
:101D9000D20AF092D30A6091D40A7091D50A27EF43
:101DA0003BE046EF5BE083E00E941E028FEF9FEF77
:101DB000DC018093400B9093410BA093420BB093B6
:101DC000430B8091580B811120C081E08093580B08
:101DD00088E090E0A0E0B0E08093440B9093450B46
:101DE000A093460BB093470B1092850B1092860B75
:101DF0001092870B1092880B1092810B1092820B1D
:101E00001092830B1092840BC8C08091440B909168
:101E1000450BA091460BB091470B86309105A1056B
:101E2000B10599F00797A105B10511F40C941A18A2
:101E300087E090E0A0E0B0E08093440B9093450BE6
:101E4000A093460BB093470BA8C08091F60B81344A
:101E500009F052C084E090E0A0E0B0E08093440B31
:101E60009093450BA093460BB093470BC090850B06
:101E7000D090860BE090870BF090880B2DEC3CEC1B
:101E80004CEC5EE3C701B6010E94BF4418160CF487
:101E900084C08090810B9090820BA090830BB090B7
:101EA000840B2DEC3CEC4CE45EEBC501B4010E94CC
:101EB000474687FD72C02DEC3CEC4CE45DE3C50168
:101EC000B4010E9448446093810B7093820B80930D
:101ED000830B9093840B2AE037ED43EA5CE3C70160
:101EE000B6010E9447446093850B7093860B8093E4
:101EF000870B9093880B51C0843409F0F6C783E0B8
:101F000090E0A0E0B0E08093440B9093450BA09349
:101F1000460BB093470BC090810BD090820BE090A2
:101F2000830BF090840B2DEC3CEC4CEC5EE3C70192
:101F3000B6010E94BF44181684F12DEC3CEC4CE431
:101F40005EEBC701B6010E94474687FD26C02DEC17
:101F50003CEC4CE45DE36091850B7091860B8091C5
:101F6000870B9091880B0E9448446093850B709377
:101F7000860B8093870B9093880B2AE037ED43EA1A
:101F80005CE3C701B6010E9447446093810B7093E4
:101F9000820B8093830B9093840B2091790B30916B
:101FA0007A0B40917B0B50917C0B6091850B70916B
:101FB000860B8091870B9091880B0E9447446B01A0
:101FC0007C01C092D20BD092D30BE092D40BF09252
:101FD000D50B20917D0B30917E0B40917F0B509162
:101FE000800B6091810B7091820B8091830B90919B
:101FF000840B0E9447442B013C014092D60B509227
:10200000D70B6092D80B7092D90B20919E03309120
:102010009F034091A0035091A103C701B6010E9404
:10202000814620911E0B30911F0B4091200B509147
:10203000210B0E9447442091CA033091CB03409169
:10204000CC035091CD030E9481464B015C018092EC
:10205000CE0B9092CF0BA092D00BB092D10B2091CF
:10206000A2033091A3034091A4035091A503C3019F
:10207000B2010E9481462091260B3091270B40919E
:10208000280B5091290B0E9447442091CE03309198
:10209000CF034091D0035091D1030E9481466093B9
:1020A000CA0B7093CB0B8093CC0B9093CD0B2091EC
:1020B000D2033091D3034091D4035091D503C7018B
:1020C000B6010E94814620911A0B30911B0B409162
:1020D0001C0B50911D0B0E944844A50194010E94C5
:1020E00048442B013C01C090DA03D090DB03E09020
:1020F000DC03F090DD039B01AC01B601C7010E9437
:10210000BF4487FD12C0C090C203D090C303E090CB
:10211000C403F090C5039201A301B601C7010E9458
:102120004746181614F062017301B601C7010E94F8
:1021300031456B017C010E94771D811187C7C70162
:10214000B6010E94321D811181C720E030E040E8D5
:1021500057E4C701B6010E944B452B013C0120E02A
:1021600030E0A9010E94BF4487FF73C7C301B201D9
:1021700090580E94C84422243324261A370A2091FA
:10218000D60B3091D70B4091D80B5091D90B609161
:10219000D6037091D7038091D8039091D9030E9400
:1021A00081462091220B3091230B4091240B5091BA
:1021B000250B0E9448442091CA0B3091CB0B4091D3
:1021C000CC0B5091CD0B0E9448442B013C01C09098
:1021D000DE03D090DF03E090E003F090E1039B0189
:1021E000AC01B601C7010E94BF4487FD12C0C09078
:1021F000C603D090C703E090C803F090C9039201D2
:10220000A301B601C7010E944746181614F06201E7
:102210007301B601C7010E9431456B017C010E9428
:10222000771D81111CC7C701B6010E94321D8111A3
:1022300016C720E030E040E857E4C701B6010E942D
:102240004B452B013C0120E030E0A9010E94BF4436
:1022500087FF08C7C301B20190580E94C844662492
:102260007724661A770A8090360490903704092CF8
:10227000000CAA08BB086101032C000CEE08FF0843
:102280001EE0CC0CDD1CEE1CFF1C1A95D1F7209132
:10229000380430913904A091480BB091490B0E9449
:1022A000DD51A7019601261B370B480B590BCA01BC
:1022B000B9010EE010E0A50194018CDC9B01AC019A
:1022C0008EE055954795379527958A95D1F72D8FAF
:1022D0003E8F4F8F58A380903A0490903B04092C76
:1022E000000CAA08BB086301072C000CEE08FF08CD
:1022F0009EE0CC0CDD1CEE1CFF1C9A95D1F72091C2
:102300003C0430913D04A0914A0BB0914B0B0E94CC
:10231000DD51A7019601261B370B480B590BCA014B
:10232000B901A501940156DC9B01AC016EE0559505
:102330004795379527956A95D1F729A33AA34BA3DB
:102340005CA31F9281E08F932CE434E03F932F93A2
:102350001F928F932BE434E03F932F931F928F9320
:102360007AE4872E74E0972EAA24A394B12CF9E482
:10237000CF2EF4E0DF2EEE24E394F12C08E414E0F9
:1023800021E030E047E454E06AE27BE089E89BE04A
:102390000E948E2B80911E0490911F04A091200416
:1023A000B09121048D8B9E8BAF8BB88F8091890B60
:1023B00090918A0BA0918B0BB0918C0B898B9A8B8F
:1023C000AB8BBC8BB2E0EB2EF12C0EED1BE021E0D1
:1023D00030E0AE014F5E5F4F61E070E0CE014596A8
:1023E0000E944C0950E040E062E070E082E094E03E
:1023F0000E94A00820E030E040E850E40E948146BE
:102400004B015C0150E040E062E070E0C8010E94D6
:10241000A00820E030E040E05AE20E948146A50199
:1024200094010E9481466B017C0120912E0B30911A
:102430002F0B4091300B5091310B0E944744609319
:10244000710B7093720B8093730B9093740BC0920B
:10245000DA0BD092DB0BE092DC0BF092DD0B80917B
:102460001E0490911F04A0912004B09121048D8B33
:102470009E8BAF8BB88F80918D0B90918E0BA0911E
:102480008F0BB091900B898B9A8BAB8BBC8B12E02E
:10249000E12EF12C06EE1BE021E030E0AE014F5EB4
:1024A0005F4F61E070E0CE0145960E944C0950E01C
:1024B00040E062E070E0C8010E94A00820E030E047
:1024C00040E05AE20E948146A50194010E948146A3
:1024D000698F7A8F8B8F9C8F2091320B3091330BC9
:1024E0004091340B5091350B0E9447446093750B1B
:1024F0007093760B8093770B9093780B0FB6F894CC
:10250000DEBF0FBECDBF20914604222309F4B0C523
:10251000A0914204B09143042D8D3E8D0E94DD5167
:102520000E94F64420E030E040E852E30E948146F9
:102530006093790B70937A0B80937B0B90937C0B59
:10254000A0914404B091450429A13AA10E94DD5113
:102550000E94F64420E030E040E852E30E948146C9
:1025600060937D0B70937E0B80937F0B9093800B19
:102570008091260490912704861597050CF089C553
:102580009093A20B8093A10B6091060B7091070BA7
:102590008091080B9091090B0E94AE068C019093DC
:1025A000050B8093040B6091A10B7091A20B072E79
:1025B000000C880B990B0E94F6446B017C0120E013
:1025C00030E04FE753E40E94BF4487FF6FC520E02F
:1025D00030E0A901C701B6010E94474618160CF069
:1025E0006CC5B701A601C8010E94770620912A0494
:1025F00030912B042615370544F020912C0430919E
:102600002D04261537050CF49301A0913E04B091DA
:102610003F040E94DD51AFE09595879577956795CA
:10262000AA95D1F76093A50B6091FA0A7091FB0A05
:102630008091FC0A9091FD0A0E94AE067C01909365
:10264000F90A8093F80A6091A50B70E090E080E0B1
:102650000E94F444AB01BC01C7010E94770661E00F
:102660008091E2039091E3038615970509F460E0F9
:102670006093F80B86E00E94990861E08091E40382
:102680009091E5038215930509F460E06093F90BDE
:102690008BE00E94990820912E0430912F0422157E
:1026A000330544F020913004309131042215330574
:1026B0000CF49101A0914004B09141040E94DD51BD
:1026C000FFE09595879577956795FA95D1F7609393
:1026D000A60B8091320490913304821593050CF07F
:1026E000F0C49093A40B8093A30B6091EE0A7091B9
:1026F000EF0A8091F00A9091F10A0E94AE063C0127
:102700009093ED0A8093EC0A6091A30B7091A40B57
:10271000072E000C880B990B0E94F6446B017C017C
:1027200020E030E04FE753E40E94BF4487FFD6C467
:1027300020E030E0A901C701B6010E944746181603
:102740000CF0D3C4B701A601C3010E9477066091C3
:10275000E20A7091E30A8091E40A9091E50A0E94EE
:10276000AE067C019093E10A8093E00A6091A60B8B
:1027700070E090E080E00E94F444AB01BC01C7012E
:102780000E94770646E35BE065E97BE081E99BE038
:102790000E94D0368091910B9091920BA091930B57
:1027A000B091940B8093990B90939A0BA0939B0BF1
:1027B000B0939C0B4091950B5091960B6091970BA9
:1027C0007091980B40939D0B50939E0B60939F0BC1
:1027D0007093A00B40911A0450911B0460911C044B
:1027E00070911D044D8B5E8B6F8B788F898B9A8BCC
:1027F000AB8BBC8B72E0E72EF12C0EEE1BE021E0E0
:1028000030E0AE014F5E5F4F61E070E0CE01459673
:102810000E944C0942E050E06AE074E0C8014ED9E1
:10282000882309F466C488E0EAE0F4E0A1E6BBE0AE
:1028300001900D928A95E1F788E0E1E6FBE0AEEDCC
:10284000BBE001900D928A95E1F702E010E09E0155
:10285000275F3F4F42E250E062E070E08EED9BE088
:102860000E94E00B89858093A70B80911A049091B8
:102870001B04A0911C04B0911D048D8B9E8BAF8B0B
:10288000B88F80919D0B90919E0BA0919F0BB09162
:10289000A00B898B9A8BAB8BBC8B62E0E62EF12C64
:1028A0000EED1BE021E030E0AE014F5E5F4F61E0D6
:1028B00070E0CE0145960E944C0942E050E06AE08B
:1028C00074E0C801FBD8882309F425C488E0EAE055
:1028D000F4E0A9E6BBE001900D928A95E1F788E06B
:1028E000E9E6FBE0AEEDBBE001900D928A95E1F7E1
:1028F00002E010E09E012F5F3F4F42E250E062E0B5
:1029000070E08EED9BE00E94E00B89818093A80B24
:10291000909160069111B8C090914D0490934C0B2A
:1029200090934D0B90914E0490934E0B9091A70B6A
:1029300090934F0B90914F049093500B8093510BB9
:10294000809150048093520B809151048093530BDB
:10295000909152049093540B8093550B9091530493
:102960009093560B8093570BECE4FBE009EA1BE0D5
:1029700088E59BE0D80121912D938E179F07D9F709
:10298000C090EA03D090EB03E090EC03F090ED03ED
:10299000A70196016091B00A7091B10A8091B20AC4
:1029A0009091B30A0E94BF44882341F0C092B00ABC
:1029B000D092B10AE092B20AF092B30A85EB9BE0A2
:1029C000D8012D918D011B962C931B978A179B077D
:1029D000B9F783E78093C10B95E69093C20B2EE67F
:1029E0002093C30B8093C40B2FE62093C50B22E7E3
:1029F0002093C60B9093C70B8093C80B1092C90B02
:102A00006091C40A7091C50A8091C60A9091C70A64
:102A10000E94C844C62E6091BC0A7091BD0A809184
:102A2000BE0A9091BF0A0E94C844E62E6091C00A77
:102A30007091C10A8091C20A9091C30A0E94C84451
:102A4000062F6091B80A7091B90A8091BA0A9091E4
:102A5000BB0A0E94C844162F6091B40A7091B50A4F
:102A60008091B60A9091B70A0E94C844862F41EC23
:102A7000842E4BE0942E52E0A52E212F4CE050E006
:102A800065EB7BE00E94BD022091D20B3091D30B0D
:102A90004091D40B5091D50B6091AA037091AB0378
:102AA0008091AC039091AD030E9481462091F20386
:102AB0003091F3034091F4035091F5030E94814655
:102AC00020911A0B30911B0B40911C0B50911D0B48
:102AD0000E94484460931A0B70931B0B80931C0B4D
:102AE00090931D0B2091CE0B3091CF0B4091D00BCA
:102AF0005091D10B6091F6037091F7038091F80328
:102B00009091F9030E94814620911E0B30911F0B7A
:102B10004091200B5091210B0E94484460931E0B62
:102B200070931F0B8093200B9093210B2091D60B59
:102B30003091D70B4091D80B5091D90B6091A603DF
:102B40007091A7038091A8039091A9030E948146E8
:102B50002091FA033091FB034091FC035091FD0357
:102B60000E9481462091220B3091230B4091240B2F
:102B70005091250B0E9448446093220B7093230BC5
:102B80008093240B9093250B2091CA0B3091CB0B93
:102B90004091CC0B5091CD0B6091FE037091FF03DF
:102BA00080910004909101040E9481462091260B9F
:102BB0003091270B4091280B5091290B0E944844DB
:102BC0006093260B7093270B8093280B9093290B0F
:102BD000ED8DFE8DF093490BE093480B29A13AA1AE
:102BE00030934B0B20934A0B1F9281E08F932CE480
:102BF00034E03F932F931F928F932BE434E03F9365
:102C00002F931F928F938AE4882E84E0982EAA2413
:102C1000A394B12C29E4C22E24E0D22EEE24E39416
:102C2000F12C08E414E021E030E047E454E06AE2EB
:102C30007BE089E89BE00E94D22B8091DA0B909197
:102C4000DB0BA091DC0BB091DD0B80932E0B9093EE
:102C50002F0BA093300BB093310B898D9A8DAB8DD8
:102C6000BC8D8093320B9093330BA093340BB093B5
:102C7000350B46E35BE065E97BE081E99BE00E9480
:102C8000FB3682E090E00E94502A40914706509126
:102C900048066091490670914A0690E080E00E94E3
:102CA0004C2A0FB6F894DEBF0FBECDBF80916006F0
:102CB000811128C060915B0670915C0680915D0671
:102CC00090915E060E94F44420E030E040E85FE42A
:102CD0000E9481466B017C016091570670915806F5
:102CE0008091590690915A060E94F4449B01AC01D0
:102CF000C701B6010E944844AB01BC0181E090E0ED
:102D00000E944C2A8090610690906206A090630613
:102D1000B090640620E030E040E85FEBC501B4010C
:102D20000E94BF44882331F1C0904706D0904806E6
:102D3000E0904906F0904A06A7019601C501B4014A
:102D40000E9447444B015C0120E030E040E054E346
:102D5000C701B6010E9481469B01AC01C501B401C7
:102D60000E944746181634F088E694E090933206A5
:102D70008093310680916506882331F088E694E0DF
:102D8000909332068093310640904B0650904C064B
:102D900060904D0670904E06BFEF4B1A5B0A6B0AAF
:102DA0007B0A40924B0650924C0660924D06709200
:102DB0004E06411451046104710499F480914F0648
:102DC00090915006A0915106B09152060196A11D16
:102DD000B11D80934F0690935006A0935106B09377
:102DE0005206C0905306D0905406E0905506F090DD
:102DF000560660914F067091500680915106909151
:102E000052060E94F444A70196010E94814620E0E8
:102E100030E040E85FE40E9481464B015C01C30161
:102E2000B2010E94F444A70196010E9481469B01D1
:102E3000AC01C501B4010E944844609347067093F9
:102E400048068093490690934A0680916006811156
:102E50002DC04091570650915806609159067091C7
:102E60005A064F5F5F4F6F4F7F4F40935706509307
:102E700058066093590670935A06452B462B472BEC
:102E800009F05BC140915B0650915C0660915D0664
:102E900070915E064F5F5F4F6F4F7F4F40935B06B1
:102EA00050935C0660935D0670935E068F5F843678
:102EB00008F045C180936006A4960FB6F894DEBF73
:102EC0000FBECDBFDF91CF911F910F91FF90EF907B
:102ED000DF90CF90BF90AF909F908F907F906F903A
:102EE0005F904F903F902F900895873509F04BC029
:102EF00081E090E0A0E0B0E08093440B9093450B1C
:102F0000A093460BB093470B8090850B9090860B57
:102F1000A090870BB090880B2DEC3CEC4CEC5EE362
:102F2000C501B4010E94BF4418160CF436C8C09005
:102F3000810BD090820BE090830BF090840B2DECF2
:102F40003CEC4CEC5EE3C701B6010E94BF4418168E
:102F50000CF423C82DEC3CEC4CE45DE3C501B4015A
:102F60000E9448446093850B7093860B8093870B77
:102F70009093880B2DEC3CEC4CE45DE3C701B6016B
:102F80000E94484402C8833509F04AC082E090E0BC
:102F9000A0E0B0E08093440B9093450BA093460BC8
:102FA000B093470B8090810B9090820BA090830B85
:102FB000B090840B2DEC3CEC4CE45EEBC501B4010D
:102FC0000E94474687FF02C00C94CD0FC090850B2E
:102FD000D090860BE090870BF090880B2DEC3CECAA
:102FE0004CE45EEBC701B6010E94474687FF02C072
:102FF0000C94CD0F2DEC3CEC4CE45DE3C501B40129
:103000000E9447446093810B7093820B8093830BE3
:103010009093840B2DEC3CEC4CE45DE30C946F0F2F
:10302000803211F00C94CD0F85E090E0A0E0B0E08C
:103030000C94EC0E8091F60B883511F00C94CD0FAA
:1030400086E090E0A0E0B0E00C941C0F412C512CE5
:103050003201C301B2010E94C8441B0190C8412C37
:10306000512C3201C301B2010E94C8443B01FBC88C
:103070000091710B1091720B2091730B3091740BB6
:103080000093790B10937A0B20937B0B30937C0B7E
:1030900067CA8091280490912904681679060CF477
:1030A0006FCA7092A20B6092A10B6ECAC12CD12C78
:1030B000BFE7EB2EB3E4FB2E94CAC12CD12C7601D2
:1030C00090CA8091340490913504281639060CF486
:1030D00008CB3092A40B2092A30B07CBC12CD12C90
:1030E000EFE7EE2EE3E4FE2E2DCBC12CD12C7601A2
:1030F00029CB42E050E062E174E08EEE9BE00E945A
:10310000660D882321F088E0E2E1F4E08FCB88E0CF
:10311000EEEEFBE08BCB42E050E062E174E08EED3E
:103120009BE00E94660D882321F088E0E2E1F4E054
:10313000D0CB88E0EEEDFBE0CCCB81E0BBCE1092B3
:103140006006BACE8F929F92AF92BF92EF92FF929B
:103150000F931F93CF9384E090E04DD4E1E3F6E02A
:1031600085E3DF011D928A95E9F780E090E0A0E811
:10317000BFEB8093610690936206A0936306B093C1
:1031800064068AE097EDA3E2BCE380935306909334
:103190005406A0935506B093560686EB9BE3AAEF20
:1031A000B6EE8093350690933606A0933706B0931B
:1031B00038068FE49FE9A5E4B5E58093390690933E
:1031C0003A06A0933B06B0933C0682E996E8ABE54D
:1031D000BDE280933D0690933E06A0933F06B093D8
:1031E00040068BEE9BE1A3ECB5E380934106909300
:1031F0004206A0934306B093440685E296E090937E
:103200003406809333068FE096E0909326068093F1
:1032100025068CE794E09093100680930F06909318
:1032200012068093110690931406809313069093D0
:1032300016068093150690931806809317069093B0
:103240001A068093190690931C0680931B06909390
:103250001E0680931D069093200680931F06909370
:10326000220680932106909324068093230685E40A
:1032700096E090932A068093290685E396E0909342
:1032800028068093270687E496E090932C06809387
:103290002B06E1E6FBE089E9DF011D928A95E9F75B
:1032A000EAE8FAE087EDDF011D928A95E9F7E5E0AB
:1032B000F6E08AE0DF011D928A95E9F78BEF95E051
:1032C00090934606809345068AE290E09093FC0531
:1032D0008093FB058AE493E09093FE058093FD05BF
:1032E00086EF92E0909300068093FF0582E692E0DD
:1032F000909302068093010686E192E09093040683
:1033000080930306C1E0C093600B8091E603909127
:10331000E703A091E803B091E9038093D00A90936A
:10332000D10AA093D20AB093D30A812C912C5401D4
:1033300083948092CB0A9092CC0AA092CD0AB0924C
:10334000CE0A81E090E09093D70A8093D60A9093BA
:10335000D50A8093D40A83E00E949E02C093CF0ACC
:103360001092FE0AC0935E0B88E090E0A0E0B0E00F
:103370008093060B9093070BA093080BB093090B57
:103380001092030B8092FF0A9092000BA092010B07
:10339000B092020BE12CF12C8701A801970168E0A3
:1033A00070E080E090E00E94F2069093050B80931D
:1033B000040B6091060B7091070B8091080B9091A4
:1033C000090B0E94AE069093050B8093040B0E949C
:1033D0007606C093030B1092F20AC0935D0B87E050
:1033E00090E0A0E0B0E08093FA0A9093FB0AA093EB
:1033F000FC0AB093FD0A1092F70A8092F30A9092A9
:10340000F40AA092F50AB092F60AA801970167E0C3
:1034100070E080E090E00E94F2069093F90A8093B9
:10342000F80A6091FA0A7091FB0A8091FC0A909167
:10343000FD0A0E94AE069093F90A8093F80A0E9452
:103440007606C093F70A1092120BC0935C0B809221
:10345000130B9092140BA092150BB092160B61E017
:1034600086E00E949108C093170B10920A0BC0933C
:103470005B0B80920B0B90920C0BA0920D0BB092F9
:103480000E0B61E08BE00E949108C0930F0B10922D
:10349000E60AC0935A0B89E090E0A0E0B0E0809388
:1034A000EE0A9093EF0AA093F00AB093F10A1092FB
:1034B000EB0A8092E70A9092E80AA092E90AB09299
:1034C000EA0AA801970169E070E080E090E00E94BC
:1034D000F2069093ED0A8093EC0A6091EE0A7091E7
:1034E000EF0A8091F00A9091F10A0E94AE06909343
:1034F000ED0A8093EC0A0E947606C093EB0A1092C4
:10350000DA0AC093590B8AE090E0A0E0B0E0809323
:10351000E20A9093E30AA093E40AB093E50A1092BA
:10352000DF0A8092DB0A9092DC0AA092DD0AB09258
:10353000DE0AA80197016AE070E080E090E00E9456
:10354000F2069093E10A8093E00A6091E20A70919A
:10355000E30A8091E40A9091E50A0E94AE069093F6
:10356000E10A8093E00A0E947606C093DF0A109277
:103570008A0AC0935F0B8091EA039091EB03A091BC
:10358000EC03B091ED038093B00A9093B10AA0933D
:10359000B20AB093B30A80928B0A90928C0AA092DE
:1035A0008D0AB0928E0A80E090E0A0E4B0E48093AF
:1035B000B40A9093B50AA093B60AB093B70A80E014
:1035C00090E0A0E8BFE38093B80A9093B90AA09373
:1035D000BA0AB093BB0AE092BC0AF092BD0A00930B
:1035E000BE0A1093BF0AE092C00AF092C10A00938B
:1035F000C20A1093C30AE092C40AF092C50A00936B
:10360000C60A1093C70A60E070E080E490E40E946C
:10361000440E4B015C0120E030E040E853E40E949E
:10362000BF4487FFC1C0A8019701C501B4010E9432
:10363000474687FDBBC0C501B4010E94C844862F20
:103640000E949E0281E080938F0A8091EE03909108
:10365000EF03A091F003B091F1038093790B909365
:103660007A0BA0937B0BB0937C0B80937D0B909394
:103670007E0BA0937F0BB093800B8091BA03909147
:10368000BB03A091BC03B091BD0380931A0B909330
:103690001B0BA0931C0BB0931D0B8091B203909158
:1036A000B303A091B403B091B50380931E0B909324
:1036B0001F0BA093200BB093210B8091BE03909120
:1036C000BF03A091C003B091C1038093220B9093DC
:1036D000230BA093240BB093250B8091B6039091FC
:1036E000B703A091B803B091B9038093260B9093D0
:1036F000270BA093280BB093290B80912204909163
:1037000023049093490B8093480B8091240490915B
:10371000250490934B0B80934A0B10922A0B109226
:103720002B0B10922C0B10922D0B8091AE039091CD
:10373000AF03A091B003B091B10380932E0B90938F
:103740002F0BA093300BB093310B8093320B9093DF
:10375000330BA093340BB093350B1092360B1092B1
:10376000370B1092380B1092390B8FEF9FEFDC0163
:103770008093400B9093410BA093420BB093430B6B
:103780001092580B1092440B1092450B1092460B5E
:103790001092470BCF911F910F91FF90EF90BF9028
:1037A000AF909F908F9008958FEF4ACF80E048CFE1
:1037B0008091CA0A811103C081E08093CA0A809176
:1037C000FE0A811136C081E08093FE0A8091FF0AD3
:1037D0009091000BA091010BB091020B0197A105F4
:1037E000B10539F58091030B882319F16091060B1F
:1037F0007091070B8091080B9091090B0E94AE0607
:103800009093050B8093040B40E050E0BA010E94B6
:1038100077066091060B7091070B8091080B9091D1
:10382000090B0E94AE069093050B8093040B0E9437
:1038300043078091F20A811136C081E08093F20A39
:103840008091F30A9091F40AA091F50AB091F60ADA
:103850000197A105B10539F58091F70A882319F17F
:103860006091FA0A7091FB0A8091FC0A9091FD0A1E
:103870000E94AE069093F90A8093F80A40E050E067
:10388000BA010E9477066091FA0A7091FB0A809152
:10389000FC0A9091FD0A0E94AE069093F90A80936B
:1038A000F80A0E9443078091120B811103C081E046
:1038B0008093120B80910A0B811103C081E08093E9
:1038C0000A0B8091E60A811136C081E08093E60AF6
:1038D0008091E70A9091E80AA091E90AB091EA0A7A
:1038E0000197A105B10539F58091EB0A882319F1FB
:1038F0006091EE0A7091EF0A8091F00A9091F10ABE
:103900000E94AE069093ED0A8093EC0A40E050E0EE
:10391000BA010E9477066091EE0A7091EF0A8091D9
:10392000F00A9091F10A0E94AE069093ED0A8093FE
:10393000EC0A0E9443078091DA0A811136C081E0C7
:103940008093DA0A8091DB0A9091DC0AA091DD0A6B
:10395000B091DE0A0197A105B10539F58091DF0A22
:10396000882319F16091E20A7091E30A8091E40AD8
:103970009091E50A0E94AE069093E10A8093E00AD6
:1039800040E050E0BA010E9477066091E20A70912F
:10399000E30A8091E40A9091E50A0E94AE069093B2
:1039A000E10A8093E00A0E94430780918A0A81110C
:1039B00003C081E080938A0A089560E070E080E8A7
:1039C0009FE7089560E070E080E89FE7089560E079
:1039D00070E080E89FEF089560E070E080E89FEF7E
:1039E000089560E070E080EC9FEF089560E070E083
:1039F00080EC9FEF0895F5DF6093060C7093070C41
:103A00008093080C9093090CF1DF6093FA0B70938C
:103A1000FB0B8093FC0B9093FD0BCFDF6093020CAC
:103A20007093030C8093040C9093050CCBDF609390
:103A3000FE0B7093FF0B8093000C9093010CC7DF7B
:103A400060930A0C70930B0C80930C0C90930D0CEC
:103A5000C3DF60930E0C70930F0C8093100C909347
:103A6000110C0895CF92DF92EF92FF92CF936B01EA
:103A70007C01AC019B016091020C7091030C809160
:103A8000040C9091050C0E94BF44C1E0882371F0A2
:103A9000A701960160910A0C70910B0C80910C0C9F
:103AA00090910D0C0E94BF448111C0E08C2FCF91EA
:103AB000FF90EF90DF90CF9008950F931F938B01AD
:103AC0009C010027112720783F7701151105204818
:103AD0003F4749F4AB01BC016F77772781E0452B65
:103AE000462B472B09F480E01F910F910895E5CFF5
:103AF000EF92FF920F931F93CF93DF93EA01F901A7
:103B0000DC011496ED90FC90159712964D915C9106
:103B100013974E0D5F1D2881398118960D911C91C8
:103B200019970217130730F00D911C911197012B73
:103B300009F441C08A01021B130BDC0118968D9118
:103B40009C918E199F09800F911F86179707DCF1B2
:103B5000C901860F971F8417950778F471836083D6
:103B60003383228315821482178216828881998179
:103B7000680F791F7983688316C0118300833383AC
:103B80002283601B710B7583648390E080E01616BE
:103B9000170614F49E2D8F2D96838783D701A60FC9
:103BA000B71FB983A88380E0DF91CF911F910F9158
:103BB000FF90EF90089518968D919C91821B930B26
:103BC000861797075CF681E0EFCFCF92DF92EF92F6
:103BD000FF92CF93DF936B0184E4869FE001879F80
:103BE000D00D1124CA59D94F8AA99BA9009721F059
:103BF0000E942E531BAA1AAA84E48C9DF0018D9D6D
:103C0000F00D1124EA59F94F86A997A9009711F0F0
:103C10000E942E5384E48C9DF0018D9DF00D1124A3
:103C2000EA59F94F138A128A168A178A108E118E52
:103C3000128E138E148E158E168E178E10A211A250
:103C400081E090E093A382A315A214A216A217A26A
:103C500010A611A613A612A615A614A616A617A698
:103C600010AA11AA13AA12AA15AA14AA17AA16AA68
:103C700011AE10AE12AE13AE14AE15AEDF01DE966D
:103C80001D921D921D921C921397EE5BFF4F1182A5
:103C90001082DF91CF91FF90EF90DF90CF90089549
:103CA000CF93DF93FB01DC016D917C91DB011696D4
:103CB000CD91DC918081918123E0880F991F2A9515
:103CC000E1F7AA81BB81A80FB91F8D919C91119733
:103CD00024853585220F331FEB016A817B81EB013F
:103CE000C20FD31F0990D881C02D14962D913C91FD
:103CF00061E070E0232B11F062E070E0C69F90015C
:103D0000C79F300DD69F300D1124A085B1852A9F05
:103D1000B0012B9F700D3A9F700D1124A481B581C5
:103D20002A9FF0012B9FF00D3A9FF00D11248E0F6A
:103D30009F1FFA019183808373836283DF91CF9108
:103D400008952F923F924F925F926F927F928F923F
:103D50009F92AF92BF92CF92DF92EF92FF920F931A
:103D60001F93CF93DF9300D000D0CDB7DEB7DC0137
:103D70001496ED91FC910190F081E02D8085918564
:103D80009A838983A281B381BC83AB83FB01819039
:103D90009190A190B190C12CD12C7601C814D90476
:103DA000EA04FB04CCF026960FB6F894DEBF0FBEF3
:103DB000CDBFDF91CF911F910F91FF90EF90DF90DA
:103DC000CF90BF90AF909F908F907F906F905F90BB
:103DD0004F903F902F900895448055806680778063
:103DE0004085518562857385CF0140969E838D8382
:103DF000A081B1819D0183E0220F331F8A95E1F7F5
:103E0000A981BA8112968D919C91D901A80FB91FF1
:103E10002D903C9011970484F585E02DEE0FFF1F47
:103E20008B819C81E80FF91F0190F081E02D1496A1
:103E30008D919C91892B41F581E090E0E89F900164
:103E4000E99F300DF89F300D1124249F8001259F9C
:103E5000100D349F100D1124249DC001259D900D3F
:103E6000349D900D1124A8016D817E81820D931DDA
:103E70000E94B753ED81FE81E00FF11F9FEFC91A39
:103E8000D90AE90AF90A8ACF82E090E0D7CFCF9326
:103E9000DF93DB01AC5ABB4F2C91222369F024E461
:103EA000269FF001279FF00D1124EA59F94FEF01E9
:103EB00019922A95E9F71C9224E4269FF001279F86
:103EC000F00D1124EA59F94F1482158216821782D7
:103ED0001186108613861286118A108A1786168616
:103EE000DF91CF9172CE2F923F924F925F926F925D
:103EF0007F928F929F92AF92BF92CF92DF92EF927A
:103F0000FF920F931F93CF93DF9300D000D01F92A7
:103F10001F92CDB7DEB724E4269FF001279FF00D56
:103F20001124EA59F94F0481158126813781012B2B
:103F3000022B032B09F4B7C02A016B017C0110E0AE
:103F400000E0812C912C54013F019F01285F3F4FDD
:103F50003C832B83CF0104969E838D83AB81BC81F0
:103F60008D919C91ED81FE814081518162817381AF
:103F700084169506A606B706E4F10E942E53D301D7
:103F80001A968D919C91892B09F07EC084E48C9DBA
:103F9000D0018D9DB00D1124AA59B94FBC83AB83BC
:103FA00050968D919C910E942E53EB81FC818685C9
:103FB00097850E942E53C701B60107DEC701B601DF
:103FC00028960FB6F894DEBF0FBECDBFDF91CF911C
:103FD0001F910F91FF90EF90DF90CF90BF90AF9027
:103FE0009F908F907F906F905F904F903F902F9019
:103FF0004ECFFC01E00FF11F92819983A381AA8328
:104000009F83A887312C212C2414350464F08981E6
:104010009A810E942E53EFEF8E1A9E0AAE0ABE0AB4
:104020000C5F1F4F9BCFAF81B885ED91FD91B88795
:10403000AF83309759F0848195810E942E53EF8190
:10404000F8853297808191810E942E53BFEF2B1A01
:104050003B0ADACF800F911FFC01848195810E9479
:104060002E532B813C812F5F3F4F3C832B83025F7C
:104070001F4FF501808191812B813C8124153505ED
:104080004CF30E942E5382CF10E000E01C821B8272
:1040900024E42C9DC0012D9D900D1124DC01A0591C
:1040A000B94F5D01E6CF28960FB6F894DEBF0FBE7C
:1040B000CDBFDF91CF911F910F91FF90EF90DF90D7
:1040C000CF90BF90AF909F908F907F906F905F90B8
:1040D0004F903F902F90089524E4269FF001279F52
:1040E000F00D1124EA59F94F8289938904970297B8
:1040F00058F485E090E0938B828B8FEF9FEFDC018B
:10410000828F938FA48FB58F08952F923F924F92F5
:104110005F926F927F928F929F92AF92BF92CF9257
:10412000DF92EF92FF920F931F93CF93DF93CDB760
:10413000DEB7AA970FB6F894DEBF0FBECDBF9AA325
:1041400089A37E8B6D8B1A01098B1A8B2B8B3C8B71
:1041500084E429893A89829F6001839FD00C1124CD
:1041600086010A59194F89899A89AB89BC89F80156
:1041700080839183A283B383AB01BC01CD01B3DE05
:10418000D601A659B94F84E0F10101900D928A95AC
:10419000E1F7F4E02F0E311C64E070E0D8011496D2
:1041A0008D919C910E947852F80191878087892B8C
:1041B00009F0F5C04D895E8969897A898B899C8966
:1041C00092DE81E0AA960FB6F894DEBF0FBECDBF97
:1041D000DF91CF911F910F91FF90EF90DF90CF90E3
:1041E000BF90AF909F908F907F906F905F904F9017
:1041F0003F902F900895A9A5BAA58D919C91E98D26
:10420000FA8DE80FF91FF88FEF8BD1018D919C91FA
:10421000880F991FA9A1BAA1ED91FC91E80FF91F90
:1042200080819181EF89F88D91838083D1011496EB
:104230002D913D914D915C9117972BA33CA34DA3DC
:104240005EA362E070E08D899E890E947852EF89BA
:10425000F88D93838283892B09F4ACCFF8E02F0E7D
:10426000311C412C512C32012BA13CA14DA15EA14E
:1042700042165306640675069CF02B8D3C8D4D8DC1
:104280005E8D2F5F3F4F4F4F5F4F2B8F3C8F4D8F7A
:104290005E8F498D5A8D4C5F5F4F5A8F498F90C00A
:1042A000610124E0C20ED11CD101ED90FC90EE0C16
:1042B000FF1CEF89F88D82819381E80EF91E68E07A
:1042C00070E081E090E00E9478528C01D7018D93DC
:1042D0009C93892B09F46ECF84E0F601D8010190FC
:1042E0000D928A95E1F7B8E02B0E311CF801808120
:1042F0009181A281B381181619061A061B06DCF4F7
:1043000064E070E00E947852D80115969C938E93D9
:104310001497892B09F44ECFD12CC12C812C912CD0
:104320005401F80180819181A281B3818816990698
:10433000AA06BB0634F0FFEF4F1A5F0A6F0A7F0A26
:1043400093CFF801E480F580EC0CFD1C80E1F101D5
:10435000DE01119601900D928A95E1F7F0E12F0EA2
:10436000311CA701BE016F5F7F4FA9A1BAA11496AE
:104370008D919C9195DCF80186819781D7011296E9
:104380002D913C91820F931F97838683BFEF8B1AE9
:104390009B0AAB0ABB0AE4E0CE0ED11CC2CF1A8E38
:1043A000198E1B8E1C8E1D8E1E8E18A30F8FA801BA
:1043B0004C5F5F4F58A74FA3C80108969AA789A7DB
:1043C000EFA1F8A580819181A281B3812B8D3C8DD5
:1043D0004D8D5E8D281739074A075B070CF40BCF0C
:1043E0006EE070E08D899E890E947852AF8DB8A1F1
:1043F0001B969C938E931A97B12CA12CD12CC12C77
:10440000F12CE12C24E4E989FA892E9FC0012F9F29
:10441000900D11249C012059394F388F2F8B8824FF
:104420008394912C4D895E89C416D50654F184E499
:10443000A989BA898A9F80018B9F100D11240A597E
:10444000194FF80115861486C70133E0880F991FAC
:104450003A95E1F70E949252D80151969C938E931F
:104460005097892B09F4A6CEC701880F991F0E9487
:104470009252F80197878687892B09F49BCE80E0BA
:10448000A1CED1014D905D906D907D901D0177FC86
:1044900091CEEF89F88D008111810A0D1B1DD80185
:1044A00011969C928E92411451046104710429F179
:1044B000C2010E949252F80195838483892B09F4EA
:1044C00079CEF801538242828481958197838683D5
:1044D000918780871386128681E090E045284628E0
:1044E000472811F490E080E0E80EF91EFFEFCF1AA4
:1044F000DF0A2EE0A20EB11C95CF15961C921E92DB
:104500001497DFCF2F923F924F925F926F927F92DC
:104510008F929F92AF92BF92CF92DF92EF92FF92D3
:104520000F931F93CF93DF93CDB7DEB76A970FB684
:10453000F894DEBF0FBECDBF9E8B8D8B49015A0113
:1045400084E4829F7001839FF00C112497012A5903
:10455000394F6901FB0180819181F901958B848B31
:10456000D701A458B94FFB01349684E001900D9215
:104570008A95E1F7D701A058B94FFB01389684E03E
:1045800001900D928A95E1F7D701AC57B94FFB0125
:104590003C9684E001900D928A95E1F7D701AC56E4
:1045A000B94FFB01709684E001900D928A95E1F776
:1045B0008B010C5E1F4FF90186A597A5A0A9B1A993
:1045C00018161906DCF5880F991F880F991F0E948D
:1045D0009252F60193AB82AB892B09F4D3C0312CF4
:1045E000212C412C512C32019601225D3F4F388FF6
:1045F0002F8BC601C2969A8F898FF496FC8BEB8B1A
:10460000B301A2012FEF421A520A620A720AEF891D
:10461000F88D80819181A281B381481759076A077B
:104620007B070CF47BC0F60184A995A90E949252E5
:10463000F60197AB86AB892B09F4A4C0F801808101
:104640009181A281B38124E4289DF001299DF00D80
:104650001124EA59F94FAC01BD014D7F21E030E052
:10466000452B462B472B11F030E020E033A322A34B
:1046700024E4289DF001299DF00D1124EA59F94FF9
:104680000197A109B10921E030E00297A105B10528
:1046900010F030E020E035A324A3D701A457B94F90
:1046A000F801349684E001900D928A95E1F784E454
:1046B000889DF001899DF00D1124EA59F94F868DEE
:1046C000978DA0A1B1A1B7FF58C0B095A0959095C6
:1046D00081959F4FAF4FBF4F82AF93AFA4AFB5AFA0
:1046E000168E178E10A211A280E06A960FB6F8946B
:1046F000DEBF0FBECDBFDF91CF911F910F91FF9015
:10470000EF90DF90CF90BF90AF909F908F907F9071
:104710006F905F904F903F902F900895E98DFA8DA4
:10472000808191819C01220D331D3A8B298B80E180
:10473000F801DE01119601900D928A95E1F7005F74
:104740001F4F49895A89BE016F5F7F4FED89FE89EE
:1047500084819581A5DAEB89FC8980819181E98941
:10476000FA8922813381820F931FEB89FC8991831F
:104770008083F4E02F0E311C43CF12AE13AE14AE83
:1047800015AEB2CFC501B40120DA81E0AECFCF9231
:10479000DF92EF92FF92CF93DF931092EE0624E424
:1047A000269FF001279FF00D1124EA59F94F15A615
:1047B00014A630E020E0D12CC12CDF011A96C1E014
:1047C000D0E0C416D506F4F024E4269FF001279F1C
:1047D000F00D1124EA59F94F13A612A611AE10AE2E
:1047E000DF01DE961D921D921D921C92139782E0AE
:1047F00090E0938B828BDF91CF91FF90EF90DF90D1
:10480000CF900895ED91FC911197E20FF31FE28094
:10481000F3801E141F0454F4E480F580F782E682CE
:10482000F186E08613861286D183C083EFEFCE1A1D
:10483000DE0A225F3F4FC5CF24E4269FF001279F69
:10484000F00D1124EA59F94F138A128A4CCB24E453
:10485000269FF001279FF00D1124EA59F94F828914
:10486000938981309105C8F08530910518F005973E
:1048700069F008958FEF9FEFDC01828F938FA48FF3
:10488000B58F85E090E0938B828B08958FEF9FEF3B
:10489000DC01828F938FA48FB58F089524E4249F29
:1048A000D001259FB00D1124AA59B94F2EE0AC01BB
:1048B000249FC001259F900D11241A96ED91FC9123
:1048C000E80FF91F81E08093EE068285938591873A
:1048D0008087408551852681378181E090E04217AD
:1048E000530711F090E080E09183808308952F9228
:1048F0003F924F925F926F927F928F929F92AF9270
:10490000BF92CF92DF92EF92FF920F931F93CF93BC
:10491000DF93CDB7DEB7C055D1090FB6F894DEBF2F
:104920000FBECDBF9EAF8DAF4BA75CA76DA77EA777
:104930006801790184E4809FF001819FF00D1124CA
:10494000EA59F94F2285338523963FAF2EAF23973F
:1049500082899389029761F486A597A5A0A9B1A938
:10496000892B8A2B8B2BC9F584E090E0938B828B6B
:1049700084E48C9DF0018D9DF00D1124EA59F94FCE
:10498000828993898230910509F037C282AD93AD57
:10499000A4ADB5AD22242394312C181619061A069D
:1049A0001B060CF42FC2C05BDF4F0FB6F894DEBFBE
:1049B0000FBECDBFDF91CF911F910F91FF90EF9070
:1049C000DF90CF90BF90AF909F908F907F906F902F
:1049D0005F904F903F902F900895848995894DADB9
:1049E0005EAD8417950721F606A917A918AE1FAA70
:1049F0001BAA1CAA1DAA1EAA1F01CF018E962796CC
:104A00009FAF8EAF2797DF01D2962996BFAFAEAF8B
:104A10002997F8962B96FFAFEEAF2B9791012A5D61
:104A20003F4F2D963FAF2EAF2D97A1014E5D5F4FAB
:104A30002F965FAF4EAF2F970A9761969FAF8EAFBD
:104A400061972796EEADFFAD279780819181A28176
:104A5000B3812BA93CA94DA95EA9281739074A079C
:104A60005B0744F081E090E0D101D9969C938E934E
:104A7000D8977ECF2996AEADBFAD2997ED91FC9129
:104A80002FA938ADE20FF31F428153815AAF49AFCE
:104A900050815FAF818121968FAF21972B96AEAD6C
:104AA000BFAD2B978D919C91892B21F12D96EEAD69
:104AB000FFAD2D9780809180A280B3801AAB09ABA7
:104AC0005FA72196FFAD2197F8AB29AD3AAD36959A
:104AD00027953695279525963FAF2EAF25971CAE87
:104AE0001BAE2596AEADBFAD2597EBADFCADEA177D
:104AF000FB070CF149AD5AAD6FAD21967FAD219703
:104B0000C8010E94B75389AD9AAD8C7F080F191F59
:104B10002BA93CA94DA95EA92F5F3F4F4F4F5F4F77
:104B20002BAB3CAB4DAB5EAB4FA958AD4C5F5F4F71
:104B300058AF4FAB86CF2F96AEADBFAD2F978D91AF
:104B40009C91892B71F1EFA5F8A94080518062807A
:104B50007380A3019201C501B4010E94BF441816DD
:104B600064F0A9A9BAA92D913D914D915C91C5011F
:104B7000B4010E9447461816BCF1A3019201C50179
:104B8000B4010E94BF4487FF0CC0E9A9FAA92081A3
:104B9000318142815381C501B4010E94BF44882301
:104BA00019F16196AEADBFAD61978D919C91892B46
:104BB00009F445C0EFA5F8A9408051806280738058
:104BC000A3019201C501B4010E94474618161CF5C5
:104BD000A9A9BAA92D913D914D915C91C501B4014E
:104BE0000E94BF4418165CF184E48C9DF0018D9DF9
:104BF000F00D1124EA59F94F868D978DA0A1B1A12E
:104C0000892B8A2B8B2B69F183E090E0938B828B2D
:104C100081E090E02CC0A3019201C501B4010E9483
:104C2000BF4481110CC0E9A9FAA9208131814281D8
:104C30005381C501B4010E94BF4487FDD5CF2BAD80
:104C40003CAD2F5F3F4F3CAF2BAF49A95AA94C5FFA
:104C50005F4F5AAB49AB8FA598A9049698AB8FA725
:104C600040CF84E090E0938B828B86AD97AD93A785
:104C700082A77ECEEBADFCAD80819181F401EE0F79
:104C8000FF1FEE0FFF1FE80FF91FA081B1818C916C
:104C900081110AC0FFEF8F1A9F0AAF0ABF0A8DA2C7
:104CA0009EA2AFA2B8A68FC18330A1F30280F38188
:104CB000E02D2FA938ADE20FF31F808191819AABCF
:104CC00089AB892B39F34F5F5F4F6F4F7F4F498718
:104CD0005A876B877C879E01235E3F4FAE01475DFD
:104CE0005F4F64E070E0C8010E94781D8111D0C15F
:104CF0008D819E81AF81B8850496A11DB11D8D83E4
:104D00009E83AF83B8874D8D5E8DBE016B5D7F4FF7
:104D10008F8D98A10E94B7538BA19CA1009761F041
:104D20006D8D7E8DA5E2B0E0AC0FBD1F6A0F7B1FBD
:104D300049A15AA10E94B7531CAA1BAA412C512C6D
:104D40003201E9A9FAA980819181A281B381481633
:104D500059066A067B060CF09DCFE9A9FAA9848161
:104D600095812BA93CA9280F391F38AB2FA7D90152
:104D700012966D917C919E01235E3F4FAE01475D7F
:104D80005F4FC8010E94781D811182C1EFA5F8A96B
:104D900082819381092E000CAA0BBB0B4D815E8191
:104DA0006F817885840F951FA61FB71F8D839E8303
:104DB000AF83B887608171814D8D5E8D8F8D98A195
:104DC0000E94B7538BA19CA1009761F0AFA5B8A931
:104DD0006D917C912D8D3E8D620F731F49A15AA15B
:104DE0000E94B753BFEF4B1A5B0A6B0A7B0AEBA911
:104DF000FCA93496FCABEBABA4CF312C212C04974F
:104E000009F0D1CD8EE0EDADFEAD8E9F80018F9F7C
:104E1000100D112423962EAD3FAD2397020F131FC3
:104E2000D80112964D915C9113974115510509F4E3
:104E3000BACD16968D919C919AA789A780E1FE0123
:104E40003196DF011D928A95E9F7C98ADA8AEB8AE1
:104E5000FC8A2114310409F458C084E48C9DF001CB
:104E60008D9DF00D1124EA59F94FDF01DE968D90EA
:104E70009D90AD90BC9082AD93ADA4ADB5AD8816BC
:104E80009906AA06BB0609F040C0F8018481958105
:104E90000084F185E02D349624E0DE0155960190E2
:104EA0000D922A95E1F72D893E89285F3F4F3E8B71
:104EB0002D8BD80118966D917C911997260F371F6D
:104EC00019963C932E93189718962D913C9119970B
:104ED000480F591F241B350B37FD06C0820F931F47
:104EE00019969C938E93189784E48C9DF0018D9D68
:104EF000F00D1124EC55F94FB1E08B1A9108A1087F
:104F0000B10880829182A282B3829E012B5E3F4FC4
:104F1000AE01475D5F4F64E170E0C8010E94781DFB
:104F20008111B6C08CE090E0A0E0B0E08D839E835C
:104F3000AF83B8879E01235E3F4FAE01475D5F4F51
:104F400064E070E0C8010E94781D8111A1C080E179
:104F500090E0A0E0B0E08D839E83AF83B8874D8D55
:104F60005E8DBE01655D7F4F8F8D98A10E94B75306
:104F70008BA19CA1009761F06D8D7E8DEBE2F0E03E
:104F8000EC0FFD1F6E0F7F1F49A15AA10E94B7535E
:104F90001DA21EA21FA218A62DAD3EAD220F331FCB
:104FA00038AF2FAB24E42C9DC0012D9D900D112412
:104FB0008A59994FAC014C5F5F4F5AAF49AFDC0142
:104FC0001896BCAFABAF8DA09EA0AFA0B8A449858A
:104FD0005A856B857C85E9ADFAAD80819181A2818E
:104FE000B38188169906AA06BB060CF443CE452B5E
:104FF000462B472B09F4D7CC8AE190E0A0E0B0E043
:1050000089839A83AB83BC832DAD3EADC901330F39
:10501000AA0BBB0B8D879E87AF87B88B4D895E89A6
:10502000BE016F5F7F4F8F89988D0E94B7538B8D24
:105030009C8D009761F06D897E8941E050E04C0FB6
:105040005D1F640F751F498D5A8D0E94B75389A546
:105050009AA5D80117969C938E93169711961C9239
:105060001E92232809F49FCC84E48C9DF0018D9D31
:10507000F00D1124EC55F94F80819181A281B3810B
:105080000196A11DB11D80839183A283B3838BCC34
:10509000232809F088CC84E48C9DF0018D9DF00DCF
:1050A0001124EA59F94F81E090E095A784A785E0A3
:1050B00090E0938B828B77CCCF92DF92EF92FF922E
:1050C0000F931F9324E4269FF001279FF00D1124D6
:1050D000EA59F94F228933892115310509F452C063
:1050E0006B017C0121303105B1F482A593A59C01AF
:1050F0002F5F3F4F33A722A7092E000CAA0BBB0B33
:10510000028D138D248D358D80179107A207B3076B
:10511000C9F5C7013CDB84E48C9DF0018D9DF00D49
:105120001124EA59F94F82899389039759F582A589
:1051300093A59C012F5F3F4F33A722A7092E000C98
:10514000AA0BBB0B468D578D60A171A184179507E3
:10515000A607B707BCF086AD97AD93A782A784E0FA
:1051600090E0938B828B82AD93ADA4ADB5AD181654
:1051700019061A061B0634F4EE5BFF4F81E090E03F
:10518000918380831F910F91FF90EF90DF90CF90DC
:10519000089524E4269FF001279FF00D1124EA5979
:1051A000F94F828993890497B1F482A593A501965A
:1051B00093A782A7092E000CAA0BBB0B468957891F
:1051C000608D718D84179507A607B70721F485E0D8
:1051D00090E0938B828B08952F923F924F925F9233
:1051E0006F927F928F929F92AF92BF92CF92DF92F7
:1051F000EF92FF920F931F93CF93DF93CDB7DEB75C
:105200002E970FB6F894DEBF0FBECDBFDC014983E9
:105210005A836B837C83290184E4849FF001859FFA
:10522000F00D1124EA59F94F22883388C1010497FF
:10523000029708F0D7C011961C921E9213961C92EA
:105240001E92129715861486912C812C90E080E096
:105250008F019F01205F3F4F38872F833F013CE044
:10526000630E711CBF01625F7F4F7A8769873A9630
:10527000FC87EB87EF81F88520813181F301408144
:105280005181E985FA85A080B180841595050CF4DB
:1052900046C011965C934E9313963C932E931297AF
:1052A0001596BC92AE921497452B01F5F5E02F169A
:1052B0003104E1F41092EE06F801828D938DA48DF5
:1052C000B58DAE014F5F5F4F64E070E08F3F9F4F41
:1052D000AF4FBF4F09F07AC080E290E00E943C3BA4
:1052E00069817A818B819C81A201A6DA2E960FB604
:1052F000F894DEBF0FBECDBFDF91CF911F910F910C
:10530000FF90EF90DF90CF90BF90AF909F908F90E5
:105310007F906F905F904F903F902F900895EB8516
:10532000FC8560817181FB01E80DF91DFE87ED8729
:1053300060817181672B89F5E084F18462817381DA
:105340007E836D83668177816A01E3E0CC0CDD1C8E
:10535000EA95E1F72C0D3D1D440F551F4A0D5B1DCD
:10536000FA0191838083F301408151814F5F5F4F48
:1053700051834083F901F382E282ED85FE857387D4
:105380006287E616F70670F46E197F09F9017183DA
:10539000608315821482178216820196FEE08F0EBA
:1053A000911C68CFED85FE85C480D5804D815E81DE
:1053B0004C0D5D1D4E195F09F901518340836C1935
:1053C0007D0975836483D782C682E7CF8FE190E041
:1053D0000E943C3BF80113A612A681E090E0938B5B
:1053E000828B84CF1586148611961C921E9213967A
:1053F0001C921E9212977ACFEF92FF920F931F93F7
:10540000CF93DF937C018B01EA010E94183C81114C
:105410001EC08091560490915704049711F5DF91B6
:10542000CF911F910F91FF90EF90089528ED38EBE9
:1054300045E050E060E070E0CB010E94D03EAE015C
:10544000B801C7010E94DE3EC8010E94A93E8091BA
:10545000EF069091F006892BE1F68881882331F3DD
:10546000D8CF83E090E09093570480935604D7CF31
:10547000CF93DF93209156043091570424303105A7
:1054800041F0EB010E94DE3ECE01DF91CF910C9402
:10549000A93EDF91CF9108950C94DC420C94D14247
:1054A0000C94BF420C94B93E0C946342089570E092
:1054B00060E090E080E00C94F33B0895AF92BF92DF
:1054C000CF92DF92EF92FF920F931F93CF93DF93D0
:1054D0001F921F92CDB7DEB75C018B0169017A0183
:1054E00090E080E0C114D104E104F10469F40F906C
:1054F0000F90DF91CF911F910F91FF90EF90DF9070
:10550000CF90BF90AF9008959C2D8D2DC114D104E4
:1055100021E0E206F10410F09FEF8FEF9E012F5F74
:105520003F4F492F582FB801C5010E946B438F3F51
:105530009807E9F229813A81C21AD30AE108F108F1
:10554000020F131FCFCFCF93DF938091F10690917D
:10555000F2060E946E4BEC018091F3069091F406E6
:105560000E946E4B0197C1F48091F5069091F6066A
:10557000A091F706B091F8062197C1F40196A11DFC
:10558000B11D8093F5069093F606A093F706B093AD
:10559000F806DF91CF9108958091F5069091F60677
:1055A000A091F706B091F806CD2B41F30197A10920
:1055B000B109E7CFCF93DF938091F9069091FA0676
:1055C0000E946E4BEC018091FB069091FC060E94BC
:1055D0006E4B0197C1F48091FD069091FE06A0915B
:1055E000FF06B09100072197C1F40196A11DB11DDE
:1055F0008093FD069093FE06A093FF06B0930007EC
:10560000DF91CF9108958091FD069091FE06A091C3
:10561000FF06B0910007CD2B41F30197A109B10915
:10562000E7CFCF93DF938091FB069091FC060E9419
:105630006E4BEC018091F9069091FA060E946E4B38
:105640000197C1F48091FD069091FE06A091FF069E
:10565000B0910007CD2BC1F40196A11DB11D80931F
:10566000FD069093FE06A093FF06B0930007DF911E
:10567000CF9108958091FD069091FE06A091FF06BE
:10568000B0910007219741F30197A109B109E7CF34
:10569000CF93DF938091F3069091F4060E946E4BB6
:1056A000EC018091F1069091F2060E946E4B0197F9
:1056B000C1F48091F5069091F606A091F706B0919D
:1056C000F806CD2BC1F40196A11DB11D8093F506FE
:1056D0009093F606A093F706B093F806DF91CF916A
:1056E00008958091F5069091F606A091F706B09185
:1056F000F806219741F30197A109B109E7CF029775
:105700008231910540F48E599A4FFC018081082E18
:10571000000C990B08958FEF9FEF08958F929F9241
:10572000EF92FF920F931F93CF93DF93CDB7DEB726
:105730008C017A0120E030E040E85FE3DB016D910D
:105740007D918D919C910E94BF44811122C0D7010F
:10575000EC91B8E0EB9FF0011124EF50F94F8481F8
:105760009581A681B781F80180839183A283B38359
:10577000D401EC91B8E0EB9FF0011124EF50F94F08
:1057800084819581A681B781F80184839583A6835E
:10579000B783DF91CF911F910F91FF90EF909F9072
:1057A0008F9008958F929F92AF92BF92CF92DF9287
:1057B000EF92FF920F931F93CF93DF93CDB7DEB796
:1057C0005B017A0120E030E040E85FE3DB016D91AE
:1057D0007D918D919C910E94BF44882309F4D3C090
:1057E000D701EC91D8018C9190E0B8E0EB9FF001EB
:1057F0001124EF50F94F91838083D701EC91D601AA
:105800008C9190E0B8E0EB9FF0011124EF50F94F3C
:1058100093838283D401EC91AA89BB898C9190E017
:10582000B8E0EB9FF0011124EF50F94F9183808392
:10583000D401EC91AE89BF898C9190E0B8E0EB9FE8
:10584000F0011124EF50F94F93838283D701EC913B
:10585000B8E0EB9FF0011124EF50F94F8081918166
:1058600060E00E94054BD701EC91B8E0EB9FF0019E
:105870001124EF50F94F8281938160E00E94054B23
:10588000D401EC91B8E0EB9FF0011124EF50F94FF7
:105890008081918160E00E94054BD401EC91B8E0D9
:1058A000EB9FF0011124EF50F94F8281938160E06A
:1058B0000E94054BD701EC91B8E0EB9FF001112459
:1058C000EF50F94F8081918161E00E94414BD701F7
:1058D000EC91B8E0EB9FF0011124EF50F94F828179
:1058E000938161E00E94414BD401EC91B8E0EB9FC1
:1058F000F0011124EF50F94F8081918161E00E9405
:10590000414BD401EC91B8E0EB9FF0011124EF5032
:10591000F94F8281938161E00E94414B8091F106B1
:105920009091F206ECDE41E050E068E47BE20E94F8
:10593000E5468091F3069091F406E1DE41E050E007
:1059400063EA7AE20E94E5468091F9069091FA06B0
:10595000D6DE41E050E061E17BE20E94E5468091C5
:10596000FB069091FC06CBDE41E050E06AED7AE266
:105970000E94E54680E090E0A0E8BFE3F501808367
:105980009183A283B383DF91CF911F910F91FF90F9
:10599000EF90DF90CF90BF90AF909F908F90089541
:1059A00090E080E008958091B7079091B807891B37
:1059B000990B08959091B8078091B7072FEF3FEFAB
:1059C000981748F4E92FF0E0E754F84F208130E0D1
:1059D0009F5F9093B807C9010895E091B80780913F
:1059E000B707E81730F4F0E0E754F84F808190E013
:1059F00008958FEF9FEF0895089591E09093930796
:105A00008093B6071092950710929407089510920C
:105A1000860781E0809384071092830761E084E128
:105A20000E94414B61E085E10E94414BE9EBF0E0CF
:105A300080818E7F808380818D7F808388E48093C6
:105A4000B80085E48093BC0008951092B8071092C6
:105A5000B7071092950710929407D9CF413208F0FA
:105A600041C0909186079111FCCF91E090938607F9
:105A7000209384072FEF2093190710925E07240FBD
:105A800020935D079093850790918507880F892B58
:105A90008093850780918307813011F510928307E9
:105AA000809185078093BB008091BC0083FDF8CF77
:105AB00085EC8093BC00809186078130E1F3809172
:105AC0005E07841710F440915E07AFE5B7E0962FAC
:105AD000FB018E2F891B841730F48D918193F9CFB0
