:1000000079C10000A8C10000A6C10000A4C1000081
:10001000A2C10000A0C100009EC100009CC1000060
:100020009AC1000098C1000096C1000094C1000070
:1000300092C1000090C100008EC100008CC1000080
:100040008AC1000088C1000086C1000084C1000090
:1000500082C1000080C100007EC100000C946E3699
:100060007AC100000C947A390C94B03974C1000044
:1000700072C1000070C100006EC100006CC10000C0
:100080006AC1000068C1000066C1000064C10000D0
:100090000C94063A0C943C3A5EC100000C94E81EA5
:1000A0005AC1000058C1000056C1000054C10000F0
:1000B00052C1000050C100004EC100004CC1000000
:1000C0004AC1000048C1000046C100000C94923AA9
:1000D0000C94C83A40C100000C941E3B0C94543B55
:1000E0003AC10000001D3A2774694E53E8F5D2CF9B
:1000F0009C81A6BBCDD0F7EAB9A4839E25381F0208
:10010000514C6B76879ABDA0F3EEC9D46F725548F7
:100110001B06213C4A57706D3E230419A2BF9885E7
:10012000D6CBECF1130E2934677A5D40FBE6C1DCD7
:100130008F92B5A8DEC3E4F9AAB7908D362B0C11C7
:10014000425F78659489AEB3E0FDDAC77C61465BB7
:100150000815322F5944637E2D30170AB1AC8B96A7
:10016000C5D8FFE2263B1C01524F6875CED3F4E997
:10017000BAA7809DEBF6D1CC9F82A5B8031E392487
:10018000776A4D50A1BC9B86D5C8EFF24954736E77
:100190003D20071A6C71564B1805223F8499BEA367
:1001A000F0EDCAD735280F12415C7B66DDC0E7FA57
:1001B000A9B4938EF8E5C2DF8C91B6AB100D2A3747
:1001C00064795E43B2AF8895C6DBFCE15A47607D37
:1001D0002E3314097F6245580B16312C978AADB027
:1001E000E3FED9C400000A0B02090C0D0E08070338
:1001F00004010000000000000000000000000000FA
:1002000000000000000000000000000000000000EE
:1002100012111000000000000000000000000000AB
:100220000000000000000000000001021020200873
:100230000810204010204080020102010804020141
:1002400001020408102040808040201008040201B0
:100250008004020180402010080402010804020109
:100260000102040810204080010204081020408090
:1002700005050505070508080808020202020A0A22
:100280000808040404040101010101010101030340
:10029000030303030303040707070C0C0C0C0C0CEB
:1002A0000C0C0202020206060606060606060B0BE8
:1002B0000B0B0B0B0B0B00002200250028002B0062
:1002C0002E003100340002010000050108010B017D
:1002D00000002100240027002A002D0030003300F8
:1002E00001010000040107010A015E27D939653ABE
:1002F000F13A7D3B11241FBECFEFD1E2DEBFCDBF6F
:1003000000E00CBF14E0A0E0B2E0E8EFF0E800E0AD
:100310000BBF02C007900D92AE38B107D9F729E0A4
:10032000AEE8B4E001C01D92A13AB207E1F711E0D6
:10033000CAE7D1E000E006C021970109802FFE0145
:100340000E948B3EC537D10780E00807A9F70E94BD
:10035000CD330C947A4054CEAB01BC0182E996E0D7
:100360000C940A3EAB01BC018FE297E00C940A3E6C
:10037000AB01BC018CEC97E00C940A3EAB01BC01D4
:1003800089E698E00C940A3E8F929F92AF92BF92BA
:10039000CF92DF92EF92FF920F931F93CF93DF9351
:1003A000CDB7DEB77B014A015901CDB6DEB69B0160
:1003B000220F331F4DB75EB7421B530B0FB6F89495
:1003C0005EBF0FBE4DBF0DB71EB70F5F1F4FE82FAB
:1003D000F0E0EE0FFF1FE25FFD4F0190F081E02D96
:1003E000C8011995F801D401E00EF11EEE15FF05C4
:1003F00019F081918D93FACF81E0F50180830FB6DA
:10040000F894DEBE0FBECDBEDF91CF911F910F914C
:10041000FF90EF90DF90CF90BF90AF909F908F9024
:1004200008959F92AF92BF92CF92DF92EF92FF9288
:100430000F931F93CF93DF93CDB7DEB7C054D1098D
:100440000FB6F894DEBF0FBECDBFB82E8B01942E31
:10045000A52E6901E82EF12CEE0CFF1CF701EA5FD6
:10046000FD4F0190F081E02D199580179107C9F497
:100470009601492D5A2DBC018B2D86DFC05CDF4FC4
:100480000FB6F894DEBF0FBECDBFDF91CF911F91A5
:100490000F91FF90EF90DF90CF90BF90AF909F9023
:1004A00008958017910748F4E92DFA2D0E0F1F1FAC
:1004B000E017F10719F11192FBCF9801220F331FBA
:1004C0002817390728F09601492D5A2DB801D4CFA5
:1004D000B8010E94423ECB010197809FB001819FED
:1004E000700D909F700D1124F701E25FFD4F019098
:1004F000F081E02DCE0101961995E5CFF60110822D
:10050000BDCF82E996E00C9450388FE297E00C94CE
:1005100050388CEC97E00C94503889E698E00C94B5
:1005200050388823E1F0823061F0833089F08130E7
:10053000B1F440E052EC61E070E081E090E00C94B6
:10054000832740E052EC61E070E082E090E0F7CF7A
:1005500040E052EC61E070E083E090E0F0CF08957D
:100560004F925F926F927F928F929F92AF92BF92C3
:10057000CF92EF92FF920F931F93CF93DF93CDB75C
:10058000DEB72B013A01F02EB40130E028303105FE
:1005900011F424E030E00AE010E0CC2061F091E0BA
:1005A00000E110E0C91639F0E2E008E010E0CE16F4
:1005B00011F002E010E0813009F4E8C0B0F08230C0
:1005C00009F4C5C1833009F4A3C2DF91CF911F9113
:1005D0000F91FF90EF90CF90BF90AF909F908F9032
:1005E0007F906F905F904F900895F1101BC0269DF3
:1005F000A001279D500D369D500D1124B20182E9B6
:1006000096E0DF91CF911F910F91FF90EF90CF90E7
:10061000BF90AF909F908F907F906F905F904F9022
:100620000C94AA3B82E996E00E94E63BE11014C0DC
:10063000640C751C6414750441F2F20161912F0180
:10064000F1E0A80182E996E0FF1203C00E94B83CE5
:10065000F1CF0E94BE3CEECF81E0E81215C091E0E0
:10066000691A710808F4B1CFF201619171912F01FB
:10067000F1E0A80182E996E0FF1203C00E94CE3C9F
:10068000EECF0E94D33CEBCF82E0E81217C091E09E
:10069000691A710808F499CFF20141915191619161
:1006A00071912F01F1E0980182E996E0FF1203C0F9
:1006B0000E94AC3CECCF0E94E33CE9CF83E0E8121F
:1006C00018C0640C751C6414750409F47ECFF20123
:1006D00061912F01062E000C770BF1E0A80182E951
:1006E00096E0FF1203C00E94863CEDCF0E948C3C36
:1006F000EACF84E0E81215C091E0691A710808F4A5
:1007000064CFF201619171912F01F1E0A80182E9BA
:1007100096E0FF1203C00E94863CEECF0E948C3C04
:10072000EBCF85E0E81217C091E0691A710808F470
:100730004CCFF20141915191619171912F01F1E002
:10074000980182E996E0FF1203C00E94413CECCF81
:100750000E949C3CE9CF86E0E81237CFB12C91E0B3
:10076000691A710808F431CFF201419151916191F8
:1007700071912F01F1E0950182E996E0FF1203C02B
:100780000E94CD3DECCF0E94CE3DE9CFF1100BC0D1
:10079000269DA001279D500D369D500D1124B201BC
:1007A0008FE297E02ECF8FE297E00E94E63BE110C8
:1007B00015C0640C751C4614570409F406CFF201E9
:1007C00061912F01F1E0A8018FE297E0FF1203C0D1
:1007D0000E94B83CF0CF0E94BE3CEDCF81E0E81211
:1007E00015C091E0691A710808F4EFCEF201619129
:1007F00071912F01F1E0A8018FE297E0FF1203C091
:100800000E94CE3CEECF0E94D33CEBCF82E0E812B8
:1008100017C091E0691A710808F4D7CEF20141912E
:100820005191619171912F01F1E098018FE297E070
:10083000FF1203C00E94AC3CECCF0E94E33CE9CF26
:1008400083E0E81218C0640C751C6414750409F484
:10085000BCCEF20161912F01062E000C770BF1E066
:10086000A8018FE297E0FF1203C00E94863CEDCF03
:100870000E948C3CEACF84E0E81215C091E0691A2E
:10088000710808F4A2CEF201619171912F01F1E09B
:10089000A8018FE297E0FF1203C00E94863CEECFD2
:1008A0000E948C3CEBCF85E0E81217C091E0691AFA
:1008B000710808F48ACEF2014191519161917191D0
:1008C0002F01F1E098018FE297E0FF1203C00E9430
:1008D000413CECCF0E949C3CE9CF86E0E81275CE0B
:1008E000B12C91E0691A710808F46FCEF2014191C0
:1008F0005191619171912F01F1E0FF1214C0C1106B
:1009000006C095018FE297E00E94CD3DEACFCB0172
:10091000BA010E94D134AB01BC0198018FE297E08B
:100920000E94413CDECFC11006C095018FE297E0E6
:100930000E94CE3DD6CFCB01BA010E94D134AB018B
:10094000BC0198018FE297E00E949C3CCACFF11055
:100950000BC0269DA001279D500D369D500D1124E2
:10096000B2018CEC97E04DCE8CEC97E00E94E63B18
:10097000E11015C0640C751C4614570409F425CE0B
:10098000F20161912F01F1E0A8018CEC97E0FF12D8
:1009900003C00E94B83CF0CF0E94BE3CEDCF81E086
:1009A000E81215C091E0691A710808F40ECEF20140
:1009B000619171912F01F1E0A8018CEC97E0FF1299
:1009C00003C00E94CE3CEECF0E94D33CEBCF82E02E
:1009D000E81217C091E0691A710808F4F6CDF20127
:1009E00041915191619171912F01F1E098018CEC4D
:1009F00097E0FF1203C00E94AC3CECCF0E94E33CA6
:100A0000E9CF83E0E81218C0640C751C6414750407
:100A100009F4DBCDF20161912F01062E000C770B5A
:100A2000F1E0A8018CEC97E0FF1203C00E94863C25
:100A3000EDCF0E948C3CEACF84E0E81215C091E033
:100A4000691A710808F4C1CDF201619171912F0109
:100A5000F1E0A8018CEC97E0FF1203C00E94863CF5
:100A6000EECF0E948C3CEBCF85E0E81217C091E0FE
:100A7000691A710808F4A9CDF2014191519161916F
:100A800071912F01F1E098018CEC97E0FF1203C007
:100A90000E94413CECCF0E949C3CE9CF86E0E812EA
:100AA00094CDB12C91E0691A710808F48ECDF20151
:100AB00041915191619171912F01F1E0FF1214C0A8
:100AC000C11006C095018CEC97E00E94CD3DEACFA5
:100AD000CB01BA010E94D134AB01BC0198018CEC6E
:100AE00097E00E94413CDECFC11006C095018CEC1E
:100AF00097E00E94CE3DD6CFCB01BA010E94D134FF
:100B0000AB01BC0198018CEC97E00E949C3CCACFE1
:100B1000F1100BC0269DA001279D500D369D500D54
:100B20001124B20189E698E06CCD89E698E00E9434
:100B3000E63BE11015C0640C751C6414750409F4DF
:100B400044CDF20161912F01F1E0A80189E698E01E
:100B5000FF1203C00E94B83CF0CF0E94BE3CEDCF14
:100B600081E0E81215C091E0691A710808F42DCDF2
:100B7000F201619171912F01F1E0A80189E698E0FD
:100B8000FF1203C00E94CE3CEECF0E94D33CEBCFBD
:100B900082E0E81217C091E0691A710808F415CDD7
:100BA000F20141915191619171912F01F1E0980110
:100BB00089E698E0FF1203C00E94AC3CECCF0E9493
:100BC000E33CE9CF83E0E81218C0640C751C6414A0
:100BD000750409F4FACCF20161912F01062E000C84
:100BE000770BF1E0A80189E698E0FF1203C00E94AC
:100BF000863CEDCF0E948C3CEACF84E0E81215C021
:100C000091E0691A710808F4E0CCF20161917191E8
:100C10002F01F1E0A80189E698E0FF1203C00E94CD
:100C2000863CEECF0E948C3CEBCF85E0E81217C0EB
:100C300091E0691A710808F4C8CCF2014191519110
:100C4000619171912F01F1E0980189E698E0FF121E
:100C500003C00E94413CECCF0E949C3CE9CF86E05F
:100C6000E812B3CCB12C91E0691A710808F4ADCC4C
:100C7000F20141915191619171912F01F1E0FF12C7
:100C800014C0C11006C0950189E698E00E94CD3DD0
:100C9000EACFCB01BA010E94D134AB01BC0198016B
:100CA00089E698E00E94413CDECFC11006C0950164
:100CB00089E698E00E94CE3DD6CFCB01BA010E94D2
:100CC000D134AB01BC01980189E698E00E949C3CBC
:100CD000CACF2F923F924F925F926F927F928F92E4
:100CE0009F92AF92BF92CF92DF92EF92FF920F93BB
:100CF0001F93CF93DF93CDB7DEB7CB54D1090FB697
:100D0000F894DEBF0FBECDBF26967FAF6EAF26979D
:100D100028965FAF4EAF28973E8B2D8B2C96FFAE5B
:100D2000EEAE2C97FB01E150F04CEE0FFF1FEE0FE3
:100D3000FF1FE80FF91F80809180A280B3808F8A07
:100D4000988EA98EBA8EB501A401442777FD4395EC
:100D500055276627772729964FAF2997F901E15044
:100D6000F04CEE0FFF1FEE0FFF1F2896AEACBFAC8E
:100D70002897EA0DFB1DC080D180E280F380CB8EE6
:100D8000DC8EED8EFE8EB701A601442777FD4395DC
:100D90005527662777272A964FAF2A97188B0F87F4
:100DA000F80130E020E02C96EEACFFAC2C972E152D
:100DB0003F050CF43FC022969FAF8EAF22971A8B4F
:100DC000098B312C212C812C912C540183948D8200
:100DD0009E82AF82B88626968EAC9FAC269728144A
:100DE00039047CF129969FAC29972A96AFAC2A97B3
:100DF00030E020E041E050E060E070E09A10F5C1A2
:100E0000C55BDF4F0FB6F894DEBF0FBECDBFDF91DD
:100E1000CF911F910F91FF90EF90DF90CF90BF90F7
:100E2000AF909F908F907F906F905F904F903F908A
:100E30002F90089511921192119211922F5F3F4FAE
:100E4000B2CF2296EEADFFAD229781919191A19103
:100E5000B1912296FFAFEEAF22978F88988CA98C24
:100E6000BA8CB7FE23C04D815E816F817885415079
:100E70005109610971095A016B01A81AB90ACA0A14
:100E8000DB0AD601C50121E0CD80DE80EF80F88449
:100E90008C159D05AE05BF0508F020E0822E912C33
:100EA000B12CA12C8D829E82AF82B8865D01CC24AC
:100EB000DD24A8A2B9A2CAA2DBA29C01AD014427ED
:100EC00055272CA33DA34EA35FA32C96EEADFFADFB
:100ED0002C97E219F3098D889E888E169F060CF4D4
:100EE000F4012896AEACBFAC28972496BFAEAEAE48
:100EF0002497C988DA88DC8ACB8A1E861D86812CD5
:100F0000912C5401839489869A86AB86BC86812C69
:100F1000912C5401CD84DE84CE16DF0604F1F7FF58
:100F200002C0F0E0E0E0E20DF31D2C96EEACFFAC69
:100F30002C97EE15FF0554F4EE0FFF1FEE0FFF1F69
:100F4000E00FF11F80829182A282B3822FEF221ADA
:100F5000320AE989FA893496FA8BE98B3CCF2496D8
:100F6000AEADBFAD2497CD90DD90ED90FD90249671
:100F7000BFAFAEAF24972B8D3C8D4D8D5E8D57FF4F
:100F800022C089859A85AB85BC850197A109B109E5
:100F9000AC01BD014C195D096E097F096A017B0135
:100FA00081E029853A854B855C85C216D306E40627
:100FB000F50608F080E0482F50E070E060E04987D7
:100FC0005A876B877C87B7018827992768A779A7F5
:100FD0008AA79BA7EE24FF2428A139A14AA15BA1DF
:100FE000C701B6010E94333E2B013C012CA13DA15B
:100FF0004EA15FA168A579A58AA59BA50E94333E55
:101000006CA77DA78EA79FA7AB89BC894D915D91E9
:101010006D917D91BC8BAB8BDB01CA01880D991D55
:10102000AA1DBB1D89839A83AB83BC8391E09F8FEC
:1010300029813A814B815C81281539054A055B0578
:1010400008F01F8E2CA13DA14EA15FA1C701B601E2
:101050000E94333E6B017C0189809A80AB80BC800A
:101060008C0C9D1CAE1CBF1C89829A82AB82BC82F8
:1010700052019924882488AA99AAAAAABBAA2981DC
:101080003A814B815C81280D391D4A1D5B1D2CABBB
:101090003DAB4EAB5FAB8CA49DA4AEA4BFA45401EA
:1010A0009924882488AE99AEAAAEBBAE280D391D0E
:1010B0004A1D5B1D2CAF3DAF4EAF5FAFAB89BC8906
:1010C00014972D933D934D935C93139728A139A1C9
:1010D0004AA15BA168A579A58AA59BA50E94333E7C
:1010E0009F8C690D711D811D911D2301662477243C
:1010F000460E571E681E791E2CA53DA54EA55FA560
:101100004A01AA24BB24840C951CA61CB71C81E0B0
:1011100090E0A0E0B0E049815A816B817C814C1560
:101120005D056E057F0518F080E090E0DC01880D1C
:10113000991DAA1DBB1D41E050E060E070E088A849
:1011400099A8AAA8BBA8CCA8DDA8EEA8FFA8C81497
:10115000D904EA04FB0418F040E050E0BA01840F1F
:10116000951FA61FB71F812C912C54018394C8ACE6
:10117000D9ACEAACFBAC2CAD3DAD4EAD5FAD2C15A2
:101180003D054E055F0518F0812C912C5401880E09
:10119000991EAA1EBB1E4D855E854F5F5F4F5E8701
:1011A0004D87B8CEEF85F889C190D190E190F1904C
:1011B000F88BEF87DB01CA010197A109B1098C19EE
:1011C0009D09AE09BF09349780839183A283B383BD
:1011D000E1E084179507A607B70708F0E0E04E2F77
:1011E00050E070E060E02F5F3F4F2C968EAC9FACDC
:1011F0002C9728153905B4F203CE2F923F924F92C7
:101200005F926F927F928F929F92AF92BF92CF9296
:10121000DF92EF92FF920F931F93CF93DF93CDB79F
:10122000DEB72E970FB6F894DEBF0FBECDBF9E87F8
:101230008D873C872B871801FA0125E0F695E79505
:101240002A95E1F7DB01A150B04CAA0FBB1FAA0FF2
:10125000BB1FA80FB91FCD90DD90ED90FC90FF0C47
:10126000CC08DC2C7601E617F7070CF0D5C0DF01BF
:10127000A00FB11F9B01A617B7070CF49D018A01AF
:101280000F711127DF01AA0FBB1FAA0FBB1F01158A
:101290001105F1F40D851E850A0F1B1F8B859C859A
:1012A00050E040E0BA016E0F7F1F621773070CF029
:1012B0005DC0D8018D909D90AD90BD908D01DC01F9
:1012C0008D929D92AD92BD92CD014F5F5F4FEACF5F
:1012D0006D847E846A0E7B1E7C826B82D3014D906E
:1012E0005D906D907C90AB84BC84BA82A98250E002
:1012F00040E0A0E2B0E0CD01801B910B9E838D8386
:1013000053014201002E04C0B694A7949794879489
:101310000A94D2F74F5F5F4FDF01A40FB51FA217EA
:10132000B30784F1D701C601261737076CF4220FE3
:10133000331F220F331FED85FE852E0F3F1FF9014E
:1013400080819181A281B3810D8004C0880F991F93
:10135000AA1FBB1F0A94D2F788299929AA29BB2959
:10136000E981FA8180839183A283B3839A01220F5A
:10137000331F220F331F6B847C84620E731E7A82AC
:1013800069822EC0DA01AA0FBB1FAA0FBB1F6B8098
:101390007C80A60DB71D4D905D906D907C90D30123
:1013A000C2010D8004C0880F991FAA1FBB1F0A9499
:1013B000D2F7882A992AAA2ABB2AA981BA818D92B2
:1013C0009D92AD92BD92BA83A9839ACFE981FA81A9
:1013D000C192D192E192F192FA83E9834F5F5F4F1C
:1013E000421553059CF32E960FB6F894DEBF0FBE40
:1013F000CDBFDF91CF911F910F91FF90EF90DF90C4
:10140000CF90BF90AF909F908F907F906F905F90A4
:101410004F903F902F90089550E040E0A7CF4F921B
:101420005F926F927F928F929F92AF92BF92CF9274
:10143000DF92EF92FF92CF93DF939A012150304CCD
:10144000220F331F220F331FFC01E20FF31F808096
:101450009180A280B380FB01E20FF31FC080D18096
:10146000E280F380CC24DD24EE24E0E8FE22240197
:101470003501442455246624E0E87E22C414D504B2
:10148000E604F70499F52C5F3F4FFC01E20FF31FD0
:10149000EB01C20FD31F141615068CF090E080E00C
:1014A000DF91CF91FF90EF90DF90CF90BF90AF9002
:1014B0009F908F907F906F905F904F9008954150D4
:1014C0005109F290E290D290C290BA91AA919A9169
:1014D0008A91C816D906EA06FB06E9F28C159D0525
:1014E000AE05BF0528F481E090E0DACFB7FEFBCF70
:1014F0008FEF9FEFD5CF93DF21E0181619060CF080
:1015000020E0822F08958BDF892F881F8827881F6E
:101510000895CF92DF92EF92FF926B017C019F774B
:1015200020E030E040E859E50E94CD3487FF2BC031
:1015300020E030E040E05FE3C701B6010E940736DB
:1015400087FD0EC020E030E040E05FE3C701B60158
:101550000E945634FF90EF90DF90CF900C943F356F
:1015600020E030E040E05FEBC701B6010E940736A3
:10157000181684F420E030E0A901C701B6010E94EA
:101580000B366B017C01C701B601FF90EF90DF9035
:10159000CF90089520E030E040E05FE3C701B6015E
:1015A0000E945534FF90EF90DF90CF900C94BA34A6
:1015B0004F925F926F927F928F929F92AF92BF9263
:1015C000CF92DF92EF92FF920F931F93CF93DF930F
:1015D000CDB7DEB7E5970FB6F894DEBF0FBECDBF2F
:1015E00046E559E06EE779E08AE799E00E94E42653
:1015F00080917A0990917B09A0917C09B0917D0935
:101600008093820990938309A0938409B0938509FC
:1016100040917E0950917F09609180097091810904
:1016200040938609509387096093880970938909CC
:1016300040911E0350911F0360912003709121037C
:101640004AAB5BAB6CAB7DAB8EA79FA7A8ABB9AB2E
:1016500032E0E32EF12C8E010A5D1F4F21E030E0D5
:10166000AE01425D5F4F61E070E0CE01C29631DBBA
:1016700042E050E06EE073E0C8013DDF882309F4EA
:10168000EEC288E0EEE0F3E0AAE6B9E001900D9248
:101690008A95E1F788E0EAE6F9E0DE0196960190A6
:1016A0000D928A95E1F702E010E09E01225E3F4F25
:1016B00042E250E062E070E0CE0186969EDD8E8DC3
:1016C00080938A0980911E0390911F03A0912003AB
:1016D000B09121038AAB9BABACABBDAB80918609CB
:1016E00090918709A0918809B09189098EA79FA739
:1016F000A8ABB9AB22E0E22EF12C8E010A5D1F4FA0
:1017000021E030E0AE01425D5F4F61E070E0CE016C
:10171000C296DFDA42E050E06EE073E0C801EBDE33
:10172000882309F4ADC288E0EEE0F3E0A2E7B9E077
:1017300001900D928A95E1F788E0E2E7F9E0DE0199
:10174000969601900D928A95E1F702E010E09E01D5
:101750002A5E3F4F42E250E062E070E0CE018696A2
:101760004CDD8E8980938B099091EC049111AEC071
:101770009091220390935C0990935D0990912303CB
:1017800090935E0990918A0990935F099091240348
:101790009093600980936109809125038093620989
:1017A00080912603809363099091270390936409A5
:1017B0008093650990912803909366098093670947
:1017C000ECE5F9E00CE819E0D80181918D9389E00E
:1017D000E836F807D1F7C0900A03D0900B03E090E9
:1017E0000C03F0900D03A701960160912C097091F4
:1017F0002D0980912E0990912F090E94CD348823C4
:1018000041F0C0922C09D0922D09E0922E09F0925D
:101810002F09FE0131964E01ADE08A0E911CDE2E9D
:10182000FF2ED8018D918D0181938E169F06C9F7E9
:1018300083E78D8795E69E872EE62F87888B2FE698
:10184000298B22E72A8B9B8B8C8B1D8A6091400908
:101850007091410980914209909143090E94D634C8
:10186000C62E609138097091390980913A0990919A
:101870003B090E94D634E62E60913C0970913D09E7
:1018800080913E0990913F090E94D634062F6091C5
:1018900034097091350980913609909137090E9479
:1018A000D634162F60913009709131098091320938
:1018B000909133090E94D634862F92E0A92E212FD1
:1018C0004CE050E06D2D7F2D0E94B0028091EB0422
:1018D000811129C0C0900603D0900703E09008034F
:1018E000F0900903A701960160914C0970914D0990
:1018F00080914E0990914F090E94CD34882341F088
:10190000C0924C09D0924D09E0924E09F0924F09D5
:1019100060915009709151092AE939E048E959E08C
:1019200083E00E94110246E559E06EE779E08AE71C
:1019300099E00E940F2783E090E00E94911C409163
:10194000CA045091CB046091CC047091CD0490E016
:1019500080E00E948D1C8091EB0481112EC060916B
:10196000DE047091DF048091E0049091E1040E9414
:10197000023520E030E040E85FE40E940B366B0166
:101980007C016091DA047091DB048091DC04909119
:10199000DD040E9402359B01AC01C701B6010E9423
:1019A00056342DEC3CEC4CEC5DE30E940B36AB0165
:1019B000BC0181E090E00E948D1C8091EC048111BB
:1019C00028C06091E6047091E7048091E80490914A
:1019D000E9040E94023520E030E040E85FE40E9424
:1019E0000B366B017C016091E2047091E3048091FD
:1019F000E4049091E5040E9402359B01AC01C7010B
:101A0000B6010E945634AB01BC0182E090E00E9416
:101A10008D1C8090ED049090EE04A090EF04B090A7
:101A2000F00420E030E040E85FEBC501B4010E9423
:101A3000CD34882331F1C090CA04D090CB04E0901B
:101A4000CC04F090CD04A7019601C501B4010E9419
:101A500055344B015C0120E030E040E054E3C70125
:101A6000B6010E940B369B01AC01C501B4010E9476
:101A70000736181634F08DE293E09093B504809306
:101A8000B4048091F104882331F08DE293E09093C7
:101A9000B5048093B404C090CE04D090CF04E090FD
:101AA000D004F090D104BFEFCB1ADB0AEB0AFB0A9B
:101AB000C092CE04D092CF04E092D004F092D10430
:101AC000C114D104E104F10499F48091D2049091FD
:101AD000D304A091D404B091D5040196A11DB11DE9
:101AE0008093D2049093D304A093D404B093D504EC
:101AF0008090D6049090D704A090D804B090D904D8
:101B00006091D2047091D3048091D4049091D50453
:101B10000E940235A50194010E940B3620E030E0BE
:101B200040E85FE40E940B362B013C01C701B6017F
:101B30000E940235A50194010E940B369B01AC0165
:101B4000C301B2010E9456346093CA047093CB045F
:101B50008093CC049093CD049091EB0491112CC010
:101B60004091DA045091DB046091DC047091DD0453
:101B70004F5F5F4F6F4F7F4F4093DA045093DB040A
:101B80006093DC047093DD04452B462B472BA1F4B6
:101B90004091DE045091DF046091E0047091E10413
:101BA0004F5F5F4F6F4F7F4F4093DE045093DF04D2
:101BB0006093E0047093E1048091EC0481112CC0E7
:101BC0004091E2045091E3046091E4047091E504D3
:101BD0004F5F5F4F6F4F7F4F4093E2045093E3049A
:101BE0006093E4047093E504452B462B472BA1F446
:101BF0004091E6045091E7046091E8047091E90493
:101C00004F5F5F4F6F4F7F4F4093E6045093E70461
:101C10006093E8047093E9049F5F9A3008F041C034
:101C20009093EB048F5F843608F03EC08093EC0401
:101C3000E5960FB6F894DEBF0FBECDBFDF91CF9112
:101C40001F910F91FF90EF90DF90CF90BF90AF90DA
:101C50009F908F907F906F905F904F90089542E09B
:101C600050E066E173E0CE0186964DDC882321F0DA
:101C700088E0E6E1F3E008CD88E0FE01B69604CD09
:101C800042E050E066E173E0CE0186963CDC8823BA
:101C900021F088E0E6E1F3E049CD88E0FE01B69668
:101CA00045CD1092EB04BECF1092EC04C1CFCF9281
:101CB000DF92EF92FF92CF93E4EBF4E08EE3DF014B
:101CC0001D928A95E9F780E090E0A0E8BFEB809351
:101CD000ED049093EE04A093EF04B093F0048AE037
:101CE00097EDA3E2BCE38093D6049093D704A0932E
:101CF000D804B093D9048AE792EFA7E1B7E18093C3
:101D0000B8049093B904A093BA04B093BB048AE9D1
:101D10009BE2A4E6B9E78093BC049093BD04A09332
:101D2000BE04B093BF048FE590E9A6E4BFE28093C0
:101D3000C0049093C104A093C204B093C30489E586
:101D40009CE4A7E9B0EA8093C4049093C504A093EF
:101D5000C604B093C70488EA94E09093B7048093D4
:101D6000B60482EA94E09093A9048093A80481E4E5
:101D700093E09093A3048093A2049093A50480938E
:101D8000A4049093A7048093A60488EC94E0909315
:101D9000AD048093AC0488EB94E09093AB04809303
:101DA000AA048AEC94E09093AF048093AE04EAE630
:101DB000F9E081E3DF011D928A95E9F7E6E0F9E0B9
:101DC00084E6DF011D928A95E9F7E8E9F4E08AE00C
:101DD000DF011D928A95E9F78EE894E09093C9049B
:101DE0008093C80480E290E090938F0480938E04E7
:101DF00086EC92E0909391048093900486E892E0C0
:101E000090939304809392048AE392E090939504D4
:101E10008093940486E192E09093970480939604D3
:101E200081E08093680980910A0390910B03A0914F
:101E30000C03B0910D0380932C0990932D09A0936E
:101E40002E09B0932F0981E090E0A0E0B0E08093EC
:101E5000070990930809A0930909B0930A0980E043
:101E600090E0A0E4B0E48093300990933109A0930E
:101E70003209B093330980E090E0A0E8BFE380939B
:101E8000340990933509A0933609B093370960E07F
:101E900070E080E490E43DDB6B017C0120E030E009
:101EA00040E853E40E94CD3487FF50C020E030E08A
:101EB000A901C701B6010E94073687FD49C0C701C5
:101EC000B6010E94D634862F0E949102C1E0C093D1
:101ED0000B0910924609C0936909809106039091FD
:101EE0000703A0910803B091090380934C099093D4
:101EF0004D09A0934E09B0934F0981E090E0A0E016
:101F0000B0E08093470990934809A0934909B093A2
:101F10004A09909353098093520982E090E090938C
:101F200051098093500983E00E949102C0934B09AC
:101F30001092560910925709109258091092590997
:101F4000CF91FF90EF90DF90CF9008958FEFBCCFAF
:101F500080E0BACF80910609811103C081E08093AF
:101F6000060980914609811103C081E080934609EA
:101F70000895EF92FF920F931F93CF93DF93EA019F
:101F8000F901DC011496ED90FC90159712964D9195
:101F90005C9113974E0D5F1D2881398118960D9124
:101FA0001C9119970217130730F00D911C9111978E
:101FB000012B09F441C08A01021B130BDC011896A6
:101FC0008D919C918E199F09800F911F86179707FD
:101FD000DCF1C901860F971F8417950778F4718388
:101FE000608333832283158214821782168288814C
:101FF0009981680F791F7983688316C011830083E4
:1020000033832283601B710B7583648390E080E0CF
:102010001616170614F49E2D8F2D96838783D701ED
:10202000A60FB71FB983A88380E0DF91CF911F91DE
:102030000F91FF90EF90089518968D919C91821BBF
:10204000930B861797075CF681E0EFCFCF92DF9274
:10205000EF92FF92CF93DF936B0184E4869FE001C0
:10206000879FD00D1124CE50DB4F8AA99BA90097E2
:1020700021F00E94D83F1BAA1AAA84E48C9DF0018B
:102080008D9DF00D1124EE50FB4F86A997A9009766
:1020900011F00E94D83F84E48C9DF0018D9DF00DDD
:1020A0001124EE50FB4F138A128A168A178A108E5B
:1020B000118E128E138E148E158E168E178E10A200
:1020C00011A281E090E093A382A315A214A216A20C
:1020D00017A210A611A613A612A615A614A616A638
:1020E00017A610AA11AA13AA12AA15AA14AA17AA07
:1020F00016AA11AE10AE12AE13AE14AE15AEDF01BD
:10210000DE961D921D921D921C921397EE5BFF4F5F
:1021100011821082DF91CF91FF90EF90DF90CF90EE
:102120000895CF93DF93FB01DC016D917C91DB017E
:102130001696CD91DC918081918123E0880F991FC3
:102140002A95E1F7AA81BB81A80FB91F8D919C91B7
:10215000119724853585220F331FEB016A817B811E
:10216000EB01C20FD31F0990D881C02D14962D9179
:102170003C9161E070E0232B11F062E070E0C69FBB
:102180009001C79F300DD69F300D1124A085B185D9
:102190002A9FB0012B9F700D3A9F700D1124A481CE
:1021A000B5812A9FF0012B9FF00D3A9FF00D11246D
:1021B0008E0F9F1FFA019183808373836283DF9167
:1021C000CF9108952F923F924F925F926F927F929C
:1021D0008F929F92AF92BF92CF92DF92EF92FF9237
:1021E0000F931F93CF93DF9300D000D0CDB7DEB70E
:1021F000DC011496ED91FC910190F081E02D808539
:1022000091859A838983A281B381BC83AB83FB01CF
:1022100081909190A190B190C12CD12C7601C814DD
:10222000D904EA04FB04CCF026960FB6F894DEBF7E
:102230000FBECDBFDF91CF911F910F91FF90EF9017
:10224000DF90CF90BF90AF909F908F907F906F90D6
:102250005F904F903F902F90089544805580668006
:1022600077804085518562857385CF0140969E8336
:102270008D83A081B1819D0183E0220F331F8A9558
:10228000E1F7A981BA8112968D919C91D901A80F8D
:10229000B91F2D903C9011970484F585E02DEE0F29
:1022A000FF1F8B819C81E80FF91F0190F081E02DC9
:1022B00014968D919C91892B41F581E090E0E89FE7
:1022C0009001E99F300DF89F300D1124249F80016B
:1022D000259F100D349F100D1124249DC001259DB4
:1022E000900D349D900D1124A8016D817E81820D89
:1022F000931D0E946140ED81FE81E00FF11F9FEF71
:10230000C91AD90AE90AF90A8ACF82E090E0D7CF40
:10231000CF93DF93DB01A75DBC4F2C91222369F0A3
:1023200024E4269FF001279FF00D1124EE50FB4F6F
:10233000EF0119922A95E9F71C9224E4269FF001F7
:10234000279FF00D1124EE50FB4F14821582168248
:1023500017821186108613861286118A108A1786B4
:102360001686DF91CF9172CE2F923F924F925F925D
:102370006F927F928F929F92AF92BF92CF92DF9295
:10238000EF92FF920F931F93CF93DF9300D000D073
:102390001F921F92CDB7DEB724E4269FF001279F3E
:1023A000F00D1124EE50FB4F0481158126813781F9
:1023B000012B022B032B09F4B7C02A016B017C010E
:1023C00010E000E0812C912C54013F019F01285F17
:1023D0003F4F3C832B83CF0104969E838D83AB813B
:1023E000BC818D919C91ED81FE8140815181628102
:1023F000738184169506A606B706E4F10E94D83FBD
:10240000D3011A968D919C91892B09F07EC084E4AA
:102410008C9DD0018D9DB00D1124AE50BB4FBC835F
:10242000AB8350968D919C910E94D83FEB81FC81AB
:10243000868597850E94D83FC701B60107DEC70190
:10244000B60128960FB6F894DEBF0FBECDBFDF9160
:10245000CF911F910F91FF90EF90DF90CF90BF90A1
:10246000AF909F908F907F906F905F904F903F9034
:102470002F904ECFFC01E00FF11F92819983A38131
:10248000AA839F83A887312C212C2414350464F05F
:1024900089819A810E94D83FEFEF8E1A9E0AAE0A78
:1024A000BE0A0C5F1F4F9BCFAF81B885ED91FD91A8
:1024B000B887AF83309759F0848195810E94D83FC7
:1024C000EF81F8853297808191810E94D83FBFEFDC
:1024D0002B1A3B0ADACF800F911FFC018481958172
:1024E0000E94D83F2B813C812F5F3F4F3C832B8341
:1024F000025F1F4FF501808191812B813C81241562
:1025000035054CF30E94D83F82CF10E000E01C82DA
:102510001B8224E42C9DC0012D9D900D1124DC0113
:10252000A450BB4F5D01E6CF28960FB6F894DEBFEE
:102530000FBECDBFDF91CF911F910F91FF90EF9014
:10254000DF90CF90BF90AF909F908F907F906F90D3
:102550005F904F903F902F90089524E4269FF001C4
:10256000279FF00D1124EE50FB4F82899389049729
:10257000029758F485E090E0938B828B8FEF9FEF6A
:10258000DC01828F938FA48FB58F08952F923F9295
:102590004F925F926F927F928F929F92AF92BF9273
:1025A000CF92DF92EF92FF920F931F93CF93DF931F
:1025B000CDB7DEB7AA970FB6F894DEBF0FBECDBF7A
:1025C0009AA389A37E8B6D8B1A01098B1A8B2B8B97
:1025D0003C8B84E429893A89829F6001839FD00CD7
:1025E000112486010E501B4F89899A89AB89BC89B9
:1025F000F80180839183A283B383AB01BC01CD0139
:10260000B3DED601AA50BB4F84E0F10101900D92D8
:102610008A95E1F7F4E02F0E311C64E070E0D801F8
:1026200014968D919C910E94223FF801918780879A
:10263000892B09F0F5C04D895E8969897A898B8972
:102640009C8992DE81E0AA960FB6F894DEBF0FBE99
:10265000CDBFDF91CF911F910F91FF90EF90DF9051
:10266000CF90BF90AF909F908F907F906F905F9032
:102670004F903F902F900895A9A5BAA58D919C9158
:10268000E98DFA8DE80FF91FF88FEF8BD1018D914D
:102690009C91880F991FA9A1BAA1ED91FC91E80F17
:1026A000F91F80819181EF89F88D91838083D10119
:1026B00014962D913D914D915C9117972BA33CA3BE
:1026C0004DA35EA362E070E08D899E890E94223F47
:1026D000EF89F88D93838283892B09F4ACCFF8E0DE
:1026E0002F0E311C412C512C32012BA13CA14DA1AC
:1026F0005EA142165306640675069CF02B8D3C8D38
:102700004D8D5E8D2F5F3F4F4F4F5F4F2B8F3C8F17
:102710004D8F5E8F498D5A8D4C5F5F4F5A8F498F19
:1027200090C0610124E0C20ED11CD101ED90FC905B
:10273000EE0CFF1CEF89F88D82819381E80EF91E63
:1027400068E070E081E090E00E94223F8C01D701B8
:102750008D939C93892B09F46ECF84E0F601D80108
:1027600001900D928A95E1F7B8E02B0E311CF8012B
:1027700080819181A281B381181619061A061B0661
:10278000DCF464E070E00E94223FD80115969C932F
:102790008E931497892B09F44ECFD12CC12C812C08
:1027A000912C5401F80180819181A281B381881616
:1027B0009906AA06BB0634F0FFEF4F1A5F0A6F0AAC
:1027C0007F0A93CFF801E480F580EC0CFD1C80E1DA
:1027D000F101DE01119601900D928A95E1F7F0E189
:1027E0002F0E311CA701BE016F5F7F4FA9A1BAA1B7
:1027F00014968D919C9195DCF80186819781D70183
:1028000012962D913C91820F931F97838683BFEF81
:102810008B1A9B0AAB0ABB0AE4E0CE0ED11CC2CFD6
:102820001A8E198E1B8E1C8E1D8E1E8E18A30F8F56
:10283000A8014C5F5F4F58A74FA3C80108969AA7FD
:1028400089A7EFA1F8A580819181A281B3812B8D09
:102850003C8D4D8D5E8D281739074A075B070CF4B8
:102860000BCF6EE070E08D899E890E94223FAF8D74
:10287000B8A11B969C938E931A97B12CA12CD12CA6
:10288000C12CF12CE12C24E4E989FA892E9FC001A6
:102890002F9F900D11249C0124503B4F388F2F8B7C
:1028A00088248394912C4D895E89C416D50654F1F1
:1028B00084E4A989BA898A9F80018B9F100D112415
:1028C0000E501B4FF80115861486C70133E0880FA0
:1028D000991F3A95E1F70E943C3FD80151969C938D
:1028E0008E935097892B09F4A6CEC701880F991FA4
:1028F0000E943C3FF80197878687892B09F49BCE7D
:1029000080E0A1CED1014D905D906D907D901D0134
:1029100077FC91CEEF89F88D008111810A0D1B1D86
:10292000D80111969C928E92411451046104710455
:1029300029F1C2010E943C3FF80195838483892BD1
:1029400009F479CEF801538242828481958197837C
:102950008683918780871386128681E090E04528E0
:102960004628472811F490E080E0E80EF91EFFEFBA
:10297000CF1ADF0A2EE0A20EB11C95CF15961C923D
:102980001E921497DFCF2F923F924F925F926F92D9
:102990007F928F929F92AF92BF92CF92DF92EF92EF
:1029A000FF920F931F93CF93DF93CDB7DEB76A9754
:1029B0000FB6F894DEBF0FBECDBF9E8B8D8B490145
:1029C0005A0184E4829F7001839FF00C11249701C7
:1029D0002E503B4F6901FB0180819181F901958B5C
:1029E000848BD701A85FBA4FFB01349684E0019035
:1029F0000D928A95E1F7D701A45FBA4FFB01389693
:102A000084E001900D928A95E1F7D701A05FBA4F5B
:102A1000FB013C9684E001900D928A95E1F7D70185
:102A2000A05EBA4FFB01709684E001900D928A95EA
:102A3000E1F78B010C5E1F4FF90186A597A5A0A9B0
:102A4000B1A918161906DCF5880F991F880F991F70
:102A50000E943C3FF60193AB82AB892B09F4D3C0B3
:102A6000312C212C412C512C32019601225D3F4FFB
:102A7000388F2F8BC601C2969A8F898FF496FC8B64
:102A8000EB8BB301A2012FEF421A520A620A720ABB
:102A9000EF89F88D80819181A281B3814817590710
:102AA0006A077B070CF47BC0F60184A995A90E94F4
:102AB0003C3FF60197AB86AB892B09F4A4C0F80123
:102AC00080819181A281B38124E4289DF001299D18
:102AD000F00D1124EE50FB4FAC01BD014D7F21E004
:102AE00030E0452B462B472B11F030E020E033A39C
:102AF00022A324E4289DF001299DF00D1124EE501D
:102B0000FB4F0197A109B10921E030E00297A1052F
:102B1000B10510F030E020E035A324A3D701A85E72
:102B2000BA4FF801349684E001900D928A95E1F74E
:102B300084E4889DF001899DF00D1124EE50FB4F37
:102B4000868D978DA0A1B1A1B7FF58C0B095A09573
:102B5000909581959F4FAF4FBF4F82AF93AFA4AF7A
:102B6000B5AF168E178E10A211A280E06A960FB62E
:102B7000F894DEBF0FBECDBFDF91CF911F910F91B3
:102B8000FF90EF90DF90CF90BF90AF909F908F908D
:102B90007F906F905F904F903F902F900895E98DB8
:102BA000FA8D808191819C01220D331D3A8B298BF6
:102BB00080E1F801DE01119601900D928A95E1F70E
:102BC000005F1F4F49895A89BE016F5F7F4FED89B2
:102BD000FE8984819581A5DAEB89FC8980819181C8
:102BE000E989FA8922813381820F931FEB89FC895D
:102BF00091838083F4E02F0E311C43CF12AE13AECD
:102C000014AE15AEB2CFC501B40120DA81E0AECF6B
:102C1000CF92DF92EF92FF92CF93DF9310927A05DB
:102C200024E4269FF001279FF00D1124EE50FB4F66
:102C300015A614A630E020E0D12CC12CDF011A9695
:102C4000C1E0D0E0C416D506F4F024E4269FF001DC
:102C5000279FF00D1124EE50FB4F13A612A611AEC4
:102C600010AEDF01DE961D921D921D921C921397ED
:102C700082E090E0938B828BDF91CF91FF90EF9079
:102C8000DF90CF900895ED91FC911197E20FF31F23
:102C9000E280F3801E141F0454F4E480F580F78270
:102CA000E682F186E08613861286D183C083EFEF39
:102CB000CE1ADE0A225F3F4FC5CF24E4269FF001E3
:102CC000279FF00D1124EE50FB4F138A128A4CCB34
:102CD00024E4269FF001279FF00D1124EE50FB4FB6
:102CE0008289938981309105C8F08530910518F06B
:102CF000059769F008958FEF9FEFDC01828F938F26
:102D0000A48FB58F85E090E0938B828B08958FEF31
:102D10009FEFDC01828F938FA48FB58F089524E4F9
:102D2000249FD001259FB00D1124AE50BB4F2EE043
:102D3000AC01249FC001259F900D11241A96ED919E
:102D4000FC91E80FF91F81E080937A0582859385D5
:102D500091878087408551852681378181E090E089
:102D60004217530711F090E080E09183808308952B
:102D70002F923F924F925F926F927F928F929F928B
:102D8000AF92BF92CF92DF92EF92FF920F931F9379
:102D9000CF93DF93CDB7DEB7C055D1090FB6F89406
:102DA000DEBF0FBECDBF9EAF8DAF4BA75CA76DA79B
:102DB0007EA76801790184E4809FF001819FF00D76
:102DC0001124EE50FB4F2285338523963FAF2EAF63
:102DD000239782899389029761F486A597A5A0A974
:102DE000B1A9892B8A2B8B2BC9F584E090E0938BBA
:102DF000828B84E48C9DF0018D9DF00D1124EE50AA
:102E0000FB4F828993898230910509F037C282ADE8
:102E100093ADA4ADB5AD22242394312C1816190618
:102E20001A061B060CF42FC2C05BDF4F0FB6F894D6
:102E3000DEBF0FBECDBFDF91CF911F910F91FF90ED
:102E4000EF90DF90CF90BF90AF909F908F907F904A
:102E50006F905F904F903F902F900895848995894F
:102E60004DAD5EAD8417950721F606A917A918AEDA
:102E70001FAA1BAA1CAA1DAA1EAA1F01CF018E965B
:102E800027969FAF8EAF2797DF01D2962996BFAFC7
:102E9000AEAF2997F8962B96FFAFEEAF2B97910127
:102EA0002A5D3F4F2D963FAF2EAF2D97A1014E5D6E
:102EB0005F4F2F965FAF4EAF2F970A9761969FAFE8
:102EC0008EAF61972796EEADFFAD279780819181F8
:102ED000A281B3812BA93CA94DA95EA92817390766
:102EE0004A075B0744F081E090E0D101D9969C93BA
:102EF0008E93D8977ECF2996AEADBFAD2997ED9131
:102F0000FC912FA938ADE20FF31F428153815AAFD4
:102F100049AF50815FAF818121968FAF21972B966A
:102F2000AEADBFAD2B978D919C91892B21F12D9644
:102F3000EEADFFAD2D9780809180A280B3801AAB5B
:102F400009AB5FA72196FFAD2197F8AB29AD3AAD4C
:102F5000369527953695279525963FAF2EAF259721
:102F60001CAE1BAE2596AEADBFAD2597EBADFCAD4F
:102F7000EA17FB070CF149AD5AAD6FAD21967FAD55
:102F80002197C8010E94614089AD9AAD8C7F080FDE
:102F9000191F2BA93CA94DA95EA92F5F3F4F4F4F89
:102FA0005F4F2BAB3CAB4DAB5EAB4FA958AD4C5F0D
:102FB0005F4F58AF4FAB86CF2F96AEADBFAD2F97BB
:102FC0008D919C91892B71F1EFA5F8A940805180DA
:102FD00062807380A3019201C501B4010E94CD34C7
:102FE000181664F0A9A9BAA92D913D914D915C9153
:102FF000C501B4010E9407361816BCF1A301920165
:10300000C501B4010E94CD3487FF0CC0E9A9FAA91B
:103010002081318142815381C501B4010E94CD34A8
:10302000882319F16196AEADBFAD61978D919C91EA
:10303000892B09F445C0EFA5F8A940805180628032
:103040007380A3019201C501B4010E9407361816CE
:103050001CF5A9A9BAA92D913D914D915C91C5018D
:10306000B4010E94CD3418165CF184E48C9DF0010B
:103070008D9DF00D1124EE50FB4F868D978DA0A1F4
:10308000B1A1892B8A2B8B2B69F183E090E0938B84
:10309000828B81E090E02CC0A3019201C501B401B4
:1030A0000E94CD3481110CC0E9A9FAA92081318197
:1030B00042815381C501B4010E94CD3487FDD5CF33
:1030C0002BAD3CAD2F5F3F4F3CAF2BAF49A95AA969
:1030D0004C5F5F4F5AAB49AB8FA598A9049698AB4C
:1030E0008FA740CF84E090E0938B828B86AD97AD25
:1030F00093A782A77ECEEBADFCAD80819181F401D8
:10310000EE0FFF1FEE0FFF1FE80FF91FA081B18127
:103110008C9181110AC0FFEF8F1A9F0AAF0ABF0A74
:103120008DA29EA2AFA2B8A68FC18330A1F3028068
:10313000F381E02D2FA938ADE20FF31F808191813B
:103140009AAB89AB892B39F34F5F5F4F6F4F7F4F3E
:1031500049875A876B877C879E01235E3F4FAE016C
:10316000475D5F4F64E070E0C8010E94B90F8111B4
:10317000D0C18D819E81AF81B8850496A11DB11DFE
:103180008D839E83AF83B8874D8D5E8DBE016B5D51
:103190007F4F8F8D98A10E9461408BA19CA10097C9
:1031A00061F06D8D7E8DA5E2B0E0AC0FBD1F6A0FA2
:1031B0007B1F49A15AA10E9461401CAA1BAA412C55
:1031C000512C3201E9A9FAA980819181A281B381B0
:1031D000481659066A067B060CF09DCFE9A9FAA9A4
:1031E000848195812BA93CA9280F391F38AB2FA7C3
:1031F000D90112966D917C919E01235E3F4FAE01E5
:10320000475D5F4FC8010E94B90F811182C1EFA5D0
:10321000F8A982819381092E000CAA0BBB0B4D816A
:103220005E816F817885840F951FA61FB71F8D83E0
:103230009E83AF83B887608171814D8D5E8D8F8D48
:1032400098A10E9461408BA19CA1009761F0AFA55D
:10325000B8A96D917C912D8D3E8D620F731F49A190
:103260005AA10E946140BFEF4B1A5B0A6B0A7B0AAE
:10327000EBA9FCA93496FCABEBABA4CF312C212CF1
:10328000049709F0D1CD8EE0EDADFEAD8E9F8001AB
:103290008F9F100D112423962EAD3FAD2397020F63
:1032A000131FD80112964D915C911397411551054A
:1032B00009F4BACD16968D919C919AA789A780E1C1
:1032C000FE013196DF011D928A95E9F7C98ADA8AF3
:1032D000EB8AFC8A2114310409F458C084E48C9DE3
:1032E000F0018D9DF00D1124EE50FB4FDF01DE96B5
:1032F0008D909D90AD90BC9082AD93ADA4ADB5ADD9
:1033000088169906AA06BB0609F040C0F801848118
:1033100095810084F185E02D349624E0DE015596F8
:1033200001900D922A95E1F72D893E89285F3F4F44
:103330003E8B2D8BD80118966D917C911997260F95
:10334000371F19963C932E93189718962D913C9100
:103350001997480F591F241B350B37FD06C0820FE4
:10336000931F19969C938E93189784E48C9DF0017B
:103370008D9DF00D1124E05DFA4FB1E08B1A91089C
:10338000A108B10880829182A282B3829E012B5E45
:103390003F4FAE01475D5F4F64E170E0C8010E949E
:1033A000B90F8111B6C08CE090E0A0E0B0E08D8351
:1033B0009E83AF83B8879E01235E3F4FAE01475D7A
:1033C0005F4F64E070E0C8010E94B90F8111A1C095
:1033D00080E190E0A0E0B0E08D839E83AF83B8876A
:1033E0004D8D5E8DBE01655D7F4F8F8D98A10E94D2
:1033F00061408BA19CA1009761F06D8D7E8DEBE209
:10340000F0E0EC0FFD1F6E0F7F1F49A15AA10E9433
:1034100061401DA21EA21FA218A62DAD3EAD220F17
:10342000331F38AF2FAB24E42C9DC0012D9D900D90
:1034300011248E509B4FAC014C5F5F4F5AAF49AF88
:10344000DC011896BCAFABAF8DA09EA0AFA0B8A416
:1034500049855A856B857C85E9ADFAAD808191817E
:10346000A281B38188169906AA06BB060CF443CE46
:10347000452B462B472B09F4D7CC8AE190E0A0E0FE
:10348000B0E089839A83AB83BC832DAD3EADC90187
:10349000330FAA0BBB0B8D879E87AF87B88B4D89E7
:1034A0005E89BE016F5F7F4F8F89988D0E9461405A
:1034B0008B8D9C8D009761F06D897E8941E050E095
:1034C0004C0F5D1F640F751F498D5A8D0E9461401E
:1034D00089A59AA5D80117969C938E931697119655
:1034E0001C921E92232809F49FCC84E48C9DF00149
:1034F0008D9DF00D1124E05DFA4F80819181A281B4
:10350000B3810196A11DB11D80839183A283B383F2
:103510008BCC232809F088CC84E48C9DF0018D9D10
:10352000F00D1124EE50FB4F81E090E095A784A7A9
:1035300085E090E0938B828B77CCCF92DF92EF92F5
:10354000FF920F931F9324E4269FF001279FF00D15
:103550001124EE50FB4F228933892115310509F4DE
:1035600052C06B017C0121303105B1F482A593A5D5
:103570009C012F5F3F4F33A722A7092E000CAA0BF7
:10358000BB0B028D138D248D358D80179107A207FB
:10359000B307C9F5C7013CDB84E48C9DF0018D9D28
:1035A000F00D1124EE50FB4F82899389039759F552
:1035B00082A593A59C012F5F3F4F33A722A7092E19
:1035C000000CAA0BBB0B468D578D60A171A184170F
:1035D0009507A607B707BCF086AD97AD93A782A75E
:1035E00084E090E0938B828B82AD93ADA4ADB5ADBA
:1035F000181619061A061B0634F4EE5BFF4F81E01D
:1036000090E0918380831F910F91FF90EF90DF9066
:10361000CF90089524E4269FF001279FF00D1124F8
:10362000EE50FB4F828993890497B1F482A593A54C
:10363000019693A782A7092E000CAA0BBB0B468903
:103640005789608D718D84179507A607B70721F4F8
:1036500085E090E0938B828B08952F923F924F925A
:103660005F926F927F928F929F92AF92BF92CF9212
:10367000DF92EF92FF920F931F93CF93DF93CDB71B
:10368000DEB72E970FB6F894DEBF0FBECDBFDC01BC
:1036900049835A836B837C83290184E4849FF001EE
:1036A000859FF00D1124EE50FB4F22883388C10115
:1036B0000497029708F0D7C011961C921E92139699
:1036C0001C921E92129715861486912C812C90E0E4
:1036D00080E08F019F01205F3F4F38872F833F019C
:1036E0003CE0630E711CBF01625F7F4F7A87698780
:1036F0003A96FC87EB87EF81F88520813181F301D1
:1037000040815181E985FA85A080B18084159505B5
:103710000CF446C011965C934E9313963C932E93F3
:1037200012971596BC92AE921497452B01F5F5E0D1
:103730002F163104E1F410927A05F801828D938DF1
:10374000A48DB58DAE014F5F5F4F64E070E08F3F99
:103750009F4FAF4FBF4F09F07AC080E290E00E94C8
:10376000502B69817A818B819C81A201A6DA2E96E9
:103770000FB6F894DEBF0FBECDBFDF91CF911F9182
:103780000F91FF90EF90DF90CF90BF90AF909F9000
:103790008F907F906F905F904F903F902F90089503
:1037A000EB85FC8560817181FB01E80DF91DFE87C9
:1037B000ED8760817181672B89F5E084F1846281F6
:1037C00073817E836D83668177816A01E3E0CC0C2F
:1037D000DD1CEA95E1F72C0D3D1D440F551F4A0DE8
:1037E0005B1DFA0191838083F301408151814F5F1A
:1037F0005F4F51834083F901F382E282ED85FE85BC
:1038000073876287E616F70670F46E197F09F9016F
:103810007183608315821482178216820196FEE0FE
:103820008F0E911C68CFED85FE85C480D5804D81BB
:103830005E814C0D5D1D4E195F09F9015183408376
:103840006C197D0975836483D782C682E7CF8FE1C7
:1038500090E00E94502BF80113A612A681E090E0A0
:10386000938B828B84CF1586148611961C921E92A0
:1038700013961C921E9212977ACFEF92FF920F939B
:103880001F93CF93DF937C018B01EA010E942C2CC4
:1038900081111EC080912B0390912C03049711F588
:1038A000DF91CF911F910F91FF90EF90089528ED38
:1038B00038EB45E050E060E070E0CB010E94E42E80
:1038C000AE01B801C7010E94F22EC8010E94BD2EB0
:1038D00080917B0590917C05892BE1F68881882376
:1038E00031F3D8CF83E090E090932C0380932B03A7
:1038F000D7CFCF93DF9320912B0330912C0324302B
:10390000310541F0EB010E94F22ECE01DF91CF9103
:103910000C94BD2EDF91CF9108950C94F0320C944D
:10392000E5320C94D3320C94CD2E0C94773208955A
:1039300070E060E090E080E00C94072C0895AF9276
:10394000BF92CF92DF92EF92FF920F931F93CF938C
:10395000DF931F921F92CDB7DEB75C018B01690127
:103960007A0190E080E0C114D104E104F10469F42B
:103970000F900F90DF91CF911F910F91FF90EF90DB
:10398000DF90CF90BF90AF9008959C2D8D2DC114E6
:10399000D10421E0E206F10410F09FEF8FEF9E01C9
:1039A0002F5F3F4F492F582FB801C5010E9479332F
:1039B0008F3F9807E9F229813A81C21AD30AE108B8
:1039C000F108020F131FCFCF90E080E0089580919F
:1039D000330690913406891B990B08959091340613
:1039E000809133062FEF3FEF981748F4E92FF0E06E
:1039F000EB5CF94F208130E09F5F90933406C90162
:103A00000895E091340680913306E81730F4F0E031
:103A1000EB5CF94F808190E008958FEF9FEF089560
:103A2000089591E090930F0680933206109211064C
:103A30001092100608951092020681E0809300060D
:103A40001092FF0561E084E10E94233861E085E186
:103A50000E942338E9EBF0E080818E7F80838081B3
:103A60008D7F808388E48093B80085E48093BC00D8
:103A70000895109234061092330610921106109297
:103A80001006D9CF413208F041C090910206911141
:103A9000FCCF91E090930206209300062FEF209335
:103AA00095051092DA05240F2093D905909301060D
:103AB00090910106880F892B809301068091FF0564
:103AC000813011F51092FF05809101068093BB00B3
:103AD0008091BC0083FDF8CF85EC8093BC00809181
:103AE00002068130E1F38091DA05841710F44091E9
:103AF000DA05ABEDB5E0962FFB018E2F891B8417FD
:103B000030F48D918193F9CF85EEE7CF40E0842F9B
:103B100008950F93413208F04BC090910206911125
:103B2000FCCF92E090930206009300069FEF9093E3
:103B300095051092DA054093D905362FABEDB5E027
:103B4000FB019E2F931B941718F491919D93F9CF2D
:103B50001092010690910106880F892B809301062F
:103B60008091FF05813011F51092FF0580910106CB
:103B70008093BB008091BC0083FDF8CF85EC8093DF
:103B8000BC00222321F0809102068230D1F3809183
:103B900095058F3F79F080919505803269F080918D
:103BA0009505803359F084E00F91089585EEE7CFB5
:103BB00081E0FACF80E0F8CF82E0F6CF83E0F4CF67
:103BC0000F93062F21E04091100662E176E080918C
:103BD00032069FDF109211061092100610920F0607
:103BE0000F9108954F925F926F927F92AF92BF9222
:103BF000CF92EF92FF920F931F93CF93DF935C01CD
:103C0000F62ED42F28013901EE2011F1862F09DF7D
:103C1000CE2DC43008F0C3E0C150B8F028E0C29FF8
:103C2000C0011124A301920104C056954795379510
:103C300027958A95D2F7B901D501ED91FC910190B4
:103C4000F081E02DC5011995E7CF60E0C501B8DF2F
:103C50004D2FD13208F040E22C2D65E376E08F2D18
:103C600011DF1092340680933306DF91CF911F91BC
:103C70000F91FF90EF90CF90BF90AF907F906F909B
:103C80005F904F900895CF92EF920F931F93C22EA3
:103C9000E12C00E010E09801A5DF1F910F91EF905B
:103CA000CF90089521E0EFCF61E08ACF2091B70552
:103CB000260F3327331F21323105E4F42091020609
:103CC0002430D1F4FC0190E080E0861760F4A091EC
:103CD000B7052191AC0147545A4FA40FB52FB11D20
:103CE0002C930196F2CF8091B705680F6093B705CA
:103CF00080E0089581E0089582E00895CF93DF93F6
:103D00001F92CDB7DEB7698320910F062223F9F009
:103D100020911006203258F021E030E0FC0133837E
:103D2000228390E080E00F90DF91CF910895809101
:103D30001106E82FF0E0EE5EF94F998190838F5FD6
:103D4000809311068093100681E090E0ECCF61E053
:103D5000CE010196ABDFF8CFCF92DF92EF92FF92C8
:103D60000F931F93CF93DF937C01CB018A012091A6
:103D70000F06222389F0EB016B01C40ED51ECC1572
:103D8000DD0561F06991D701ED91FC910190F08121
:103D9000E02DC7011995F3CF642F88DFC801DF91AB
:103DA000CF911F910F91FF90EF90DF90CF900895EA
:103DB00085ED8093BC008091BC0084FDFCCF109207
:103DC0000206089585EC8093BC00109202060895C7
:103DD0001F920F920FB60F9211240BB60F922F93D2
:103DE0003F934F935F936F937F938F939F93AF9383
:103DF000BF93EF93FF938091B900887F803609F4D9
:103E00004CC008F03FC0883209F4A8C028F58031C2
:103E100009F49CC0C8F4882309F4F8C0883009F478
:103E200095C0FF91EF91BF91AF919F918F917F913D
:103E30006F915F914F913F912F910F900BBE0F901B
:103E40000FBE0F901F901895883109F487C08032FB
:103E500041F78093950514C0803409F49CC040F468
:103E60008033B9F38833E9F680939505ABDFD9CF7A
:103E7000803509F484C0883509F495C0883489F602
:103E800097DFCFCF883909F48CC038F5883729F00F
:103E900050F4883611F0803721F683E080930206D3
:103EA0001092960557C0883809F47BC0803919F004
:103EB000803809F0B6CF80919605803208F071C045
:103EC000E091960581E08E0F809396058091BB006E
:103ED000F0E0E956FA4F80833DC0803B39F0E0F4D2
:103EE000803A09F479C0883A09F09BCF84E0809346
:103EF00002061092B8051092B705E091FD05F09109
:103F0000FE0519958091B70581110FC081E080935E
:103F1000B7051092B90509C0803C09F475C0883C0A
:103F200009F472C0883B09F07CCFE091B80581E0CC
:103F30008E0F8093B805F0E0E754FA4F80818093AC
:103F4000BB009091B8058091B70529C0809101060A
:103F50008093BB0085EC8093BC0063CF9091DA0521
:103F60008091D905981758F5E091DA0581E08E0F18
:103F70008093DA05F0E0E552FA4F8081E9CFE091D5
:103F8000DA0581E08E0F8093DA058091BB00F0E0C6
:103F9000E552FA4F80839091DA058091D905981700
:103FA000C8F285E8D8CFE091DA0581E08E0F8093E2
:103FB000DA058091BB00F0E0E552FA4F80838091F2
:103FC000000681115DCF81E08093FF0584EA809334
:103FD000BC001092020625CFF5DE80919605803256
:103FE00030F4E0919605F0E0E956FA4F10826091C6
:103FF000960570E0E091FB05F091FC0587E995E0FE
:104000001995109296050DCF85ECE1CF109295058C
:1040100037CF0F931F93CF93DF93EC01062F142F0D
:104020008981FFDC602F83E096E068DE612F83E00A
:1040300096E064DE83E096E037DE8883DF91CF91FF
:104040001F910F9108951F93CF93DF93EC01162FCB
:10405000462F4F776AE8DDDF1983DF91CF911F91FB
:104060000895FF920F931F93CF93DF93EC01F62EE9
:10407000142F052F8981D5DC6F2D83E096E03EDE7D
:10408000602F83E096E03ADE612F83E096E036DE33
:1040900083E096E009DE8883DF91CF911F910F9135
:1040A000FF900895CF92DF92EF92FF921F93CF93EC
:1040B000DF93EC01162F69017A018981B2DC612F4F
:1040C00083E096E01BDE6F2D77278827992783E012
:1040D00096E014DEB7018827992783E096E00EDE8C
:1040E00099278F2D7E2D6D2D83E096E007DE6C2DB8
:1040F00083E096E003DE83E096E0D6DD8883DF91FF
:10410000CF911F91FF90EF90DF90CF9008951F9374
:10411000CF93DF93EC01162F898183DC612F83E03D
:1041200096E0ECDD83E096E0BFDD888341E06981C5
:1041300083E096E0B7DD83E096E050DCDF91CF913D
:104140001F9108951F93CF93DF93EC01162F898160
:1041500068DC612F83E096E0D1DD83E096E0A4DDAA
:10416000888342E0698183E096E09CDD83E096E00D
:1041700035DCD82F80E0C82F83E096E02FDC8C2B35
:104180009D2BDF91CF911F910895DF92EF92FF92C7
:104190000F931F93CF93DF937C01C62FD42E052F4F
:1041A000122FFC0181813DDC6C2F83E096E0A6DDBF
:1041B000CD2DD02F115028F0699183E096E09EDD3F
:1041C000F9CF83E096E070DDF7018083DF91CF9136
:1041D0001F910F91FF90EF90DF900895EF92FF9263
:1041E0000F931F93CF93DF93EC01E62EF42E052F50
:1041F000122F898116DC6E2D83E096E07FDD83E04F
:1042000096E052DD8883412F698183E096E04ADDA4
:10421000CF2DD02F115028F083E096E0DFDB89937B
:10422000F9CFDF91CF911F910F91FF90EF900895FB
:104230006115710529F460E56ADF8F5F880F0895C5
:104240006130710511F460E7F7CF8FEF0895CF92D9
:10425000DF92EF92FF92CF93DF93EC016A017B0133
:1042600041E060E8D6DE41E06FEFCE01D2DE40E013
:1042700060E0CE01CEDE4F8161E9CE01CADE41E0D1
:1042800060E0CE01C6DE40E06FEFCE01C2DE40E06E
:1042900060E8CE01BEDE42E0C114D104E104F104C5
:1042A00091F068EFCE014EDF009739F0DC01A701F5
:1042B00096010E94933E6B017C01A701960164E088
:1042C000CE01F0DE44E060E0CE01DF91CF91FF90BF
:1042D000EF90DF90CF909DCE0F931F93CF93DF93FE
:1042E000EC010E94B8367E836D8363E1CE010FDF5F
:1042F0008770C9F48A819B81892BB9F30E94B836F3
:104300002D813E81621B730B8A819B8186179707E3
:1043100060F781E08C830FEF1FEFC801DF91CF9131
:104320001F910F9108956EE1CE010CDF8C0141E0E9
:104330006BE0CE016EDEF1CFEF92FF920F931F93F1
:10434000CF93DF93EC017B018A0141E060E861DEFD
:1043500041E06FEFCE015DDE40E060E0CE0159DE6E
:1043600046E06FEFCE0155DE63E8CE01D0DE482F88
:10437000446063E8CE014DDE47E06FEFCE0149DED9
:1043800041E061E8CE0145DE41E060E8CE0141DE7A
:104390004BE664E9CE013DDE40E063E8CE0139DE64
:1043A0000E94B8367E836D8363E8CE01B0DE811152
:1043B00011C08A819B81892BB9F30E94B8362D8167
:1043C0003E81621B730B8A819B818617970760F77A
:1043D00080E031C041E063E8CE011BDE62E9CE013E
:1043E00096DE982F9F77F7019083881F8827881F74
:1043F000F801808340E061E8CE010BDE46E06FEF1C
:10440000CE0107DE63E8CE0182DE482F4B7F63E8F2
:10441000CE01FFDD41E06FEFCE01FBDD41E060E06A
:10442000CE01F7DD40E06FEFCE01F3DD40E060E864
:10443000CE01EFDD81E0DF91CF911F910F91FF90D1
:10444000EF900895CF93DF93EB0161E060DE84FB92
:10445000992790F9988383FB992790F99A8382FB97
:10446000992790F9998386FB992790F99B83881F58
:104470008827881F8C83DF91CF9108959C01332773
:10448000A90102C0440F551F9A95E2F7CA0101968F
:1044900008950F931F930097B9F00197B0E0A0E043
:1044A00050E040E08C019D010027012B022B032BE3
:1044B00039F0B695A795979587954F5F5F4FF2CFE7
:1044C000342F2227822B932B1F910F9108954F9207
:1044D0005F926F927F928F929F92AF92BF92CF9294
:1044E000DF92EF92FF925C01A62FB0E020E03FE266
:1044F0004AE350E00E94933E6B017C0124EFC20E20
:1045000021E0D21EE11CF11C88EE482E83E0582EDB
:10451000612C712CC701B601A30192010E94693E72
:10452000D5010E94933E4B015C01C701B60120ED0D
:1045300037E040E050E00E94693EC501B401620FDF
:10454000731F841F951FA30192010E94693ECA0137
:10455000B901FF90EF90DF90CF90BF90AF909F9008
:104560008F907F906F905F904F900895EF92FF92A1
:104570000F931F93CF93DF938C017B01EA0170E0CF
:1045800060E056DE90E09983888366E4C801BFDD71
:1045900090E001969D838C83688199DF6A877B8791
:1045A0008C879D8761E5C801CDDD68DF9F838E83A1
:1045B00068818DDF6E877F87888B998B60E7C80164
:1045C000A6DD8F5F880F90E09B838A8361E7C80137
:1045D000B9DD54DF99878887F7012381222331F0E1
:1045E0002E813F81821B930B998788876A818885FA
:1045F00099856DDF6A8B7B8B8C8B9D8BDF91CF9147
:104600001F910F91FF90EF900895CF92DF92EF925C
:10461000FF920F931F93CF93DF93CDB7DEB76B97C6
:104620000FB6F894DEBF0FBECDBF8C01BE01695E30
:104630007F4F08DFAE014F5F5F4FBE01695E7F4F66
:10464000C80194DF8F89882309F454C06B857C8569
:104650008D859E856C57724F8F4F9F4F298D2223DA
:1046600009F44DC0CB84DC84ED84FE8422EBC20EC1
:1046700022E0D21EE11CF11CCC0CDD1CEE1CFF1C48
:104680006C0D7D1D8E1D9F1D2A8D222371F0CF8400
:10469000D888E988FA88F4E9CF0EF2E0DF1EE11C41
:1046A000F11C6C0D7D1D8E1D9F1D2B8D222371F025
:1046B000CB88DC88ED88FE8826E2C20E22E0D21E7E
:1046C000E11CF11C6C0D7D1D8E1D9F1DF801608786
:1046D0007187828793876B960FB6F894DEBF0FBE03
:1046E000CDBFDF91CF911F910F91FF90EF90DF90A1
:1046F000CF90089566E37BE080E090E0AFCF288D17
:10470000222311F2CB84DC84ED84FE84E4E9CE0E16
:10471000E2E0DE1EE11CF11CB3CF8F929F92AF92BC
:10472000BF92CF92DF92EF92FF924B015C01A42FD8
:10473000B0E020E03FE24AE350E00E94933E6B018C
:104740007C0124EFC20E21E0D21EE11CF11CA8EE78
:10475000B3E0A50194010E94933E4B015C01C701A7
:10476000B60120ED37E040E050E00E94693E820E45
:10477000931EA41EB51EC701B60128EE33E040E02B
:1047800050E00E94693EC501B4010E94693ECA0121
:10479000B901FF90EF90DF90CF90BF90AF909F90C6
:1047A0008F9008958F929F92AF92BF92CF92DF9297
:1047B000EF92FF920F931F93CF93DF93CDB7DEB7A6
:1047C0006B970FB6F894DEBF0FBECDBF40322EE41C
:1047D00052076105710508F48DC04A015B017C0137
:1047E000BE01695E7F4F2EDEAE014F5F5F4FBE019F
:1047F000695E7F4FC701BADE8F8908EE18E020E0BE
:1048000030E0882341F00B851C852D853E850A5CB0
:10481000144F2F4F3F4F898D882309F45BC08B8540
:104820009C85AD85BE858E549D4FAF4FBF4F880F81
:10483000991FAA1FBB1F080F191F2A1F3B1FCA8CD5
:10484000CC2061F08F859889A989BA898C569D4FB3
:10485000AF4FBF4F080F191F2A1F3B1FDB8CDD20F6
:1048600009F445C00A5D1D4F2F4F3F4F801691063A
:10487000A206B30608F43EC0C501B401601B710B6B
:10488000820B930B4B8149DF9B01CC2021F02F81C0
:104890003885260F371FC901FCDDAC0161E7C70170
:1048A000E0DBF70180869186A286B3868D2D6B961C
:1048B0000FB6F894DEBF0FBECDBFDF91CF911F9131
:1048C0000F91FF90EF90DF90CF90BF90AF909F90AF
:1048D0008F900895888D882309F4B1CF8B859C85AE
:1048E000AD85BE858C569D4FAF4FBF4FA4CFDD2405
:1048F000D394DCCFD12CDACFCF93DF93EC01462FCA
:10490000416060E086DB0E94B8367E836D8363E1A0
:10491000CE01FDDB877089F48A819B81892BB9F3F5
:104920000E94B8362D813E81621B730B8A819B8168
:104930008617970760F780E009C041E06BE0CE0181
:1049400068DB40E060E0CE0164DB81E0DF91CF9185
:104950000895EF92FF920F931F93CF93DF9300D0B0
:1049600000D01F921F92CDB7DEB78C01662339F0BD
:1049700069E8CDDB482F416069E8C8014ADB40E0C7
:1049800068E8C80146DB41E060E8C80142DB41E07D
:104990006FEFC8013EDB40E060E0C8013ADB61E94F
:1049A000C801B5DBF801878341E060E0C80131DB75
:1049B00040E06FEFC8012DDB40E060E8C80129DB73
:1049C00060E6C801A4DB482F426160E6C80121DB34
:1049D00040E250E064E4C80144DB4FEF61E0C8010D
:1049E00018DBAE01495F5F4FBE01685F7F4FC801B2
:1049F000A3DC81110FC0F12C8F2D28960FB6F894EF
:104A0000DEBF0FBECDBFDF91CF911F910F91FF9001
:104A1000EF90089526E0AE014F5F5F4F60EBC80155
:104A2000DDDB41E06FEFC801F4DA40E06FE4C8017C
:104A3000F0DA4CE26EE4C801ECDA40E06FEFC80156
:104A4000E8DA44EB66EBC801E4DA8F81ACE081116F
:104A500001C0A0E0B88580E090E0EE24E394F12C62
:104A6000482F46954695469550E021E030E02C0FC2
:104A70003D1F240F351FF9012081682F67708A17A9
:104A800010F0B91397C1E1E0F0E0EC0FFD1F4E0FFD
:104A90005F1FF70102C0EE0FFF1F6A95E2F7BF012B
:104AA00060952623FA0120838F5F8033C9F626E0C4
:104AB000AE014F5F5F4F60EBC80167DB41E06FEF16
:104AC000C801A7DA40E060E0C801A3DA40E06FEF78
:104AD000C8019FDA40E069E0C8019BDA40E060E18C
:104AE000C80197DA40E061E1C80193DA41E064E28D
:104AF000C8018FDA4FEF65E2C8018BDA40E065E765
:104B0000C80187DA41E06FEFC80183DA4CE26EE456
:104B1000C8017FDA40E068E4C8017BDA40E260E384
:104B2000C80177DA40E06FEFC80173DA49E060E36B
:104B3000C8016FDA40E064E5C8016BDA44E061E384
:104B4000C80167DA43E062E3C80163DA43E860E47E
:104B5000C8015FDA45E266E4C8015BDA40E060E67E
:104B6000C80157DA40E067E2C80153DA46E060E581
:104B7000C8014FDA40E061E5C8014BDA46E962E579
:104B8000C80147DA48E066E5C80143DA40E367E573
:104B9000C8013FDA40E061E6C8013BDA40E062E686
:104BA000C80137DA40E064E6C80133DA40E065E680
:104BB000C8012FDA40EA66E6C8012BDA41E06FEF60
:104BC000C80127DA42E362E2C80123DA44E167E47C
:104BD000C8011FDA4FEF69E4C8011BDA40E06AE45C
:104BE000C80117DA40E06FEFC80113DA4AE06AE75C
:104BF000C8010FDA40E06BE7C8010BDA41E268E771
:104C0000C80107DA41E06FEFC80103DA44E363E269
:104C1000C801FFD940E062E4C801FBD94FEF64E46A
:104C2000C801F7D946E265E4C801F3D945E066E476
:104C3000C801EFD940E460E4C801EBD946E06EE07A
:104C4000C801E7D94AE160E2C801E3D940E463E47E
:104C5000C801DFD940E06FEFC801DBD943E064E36E
:104C6000C801D7D944E465E3C801D3D941E06FEF67
:104C7000C801CFD944E061E3C801CBD949E06BE476
:104C8000C801C7D945E06CE4C801C3D944E06DE46C
:104C9000C801BFD940E06FEFC801BBD940E064E470
:104CA000C801B7D940E265E4C801B3D948E067E478
:104CB000C801AFD948E268E4C801ABD940E067E673
:104CC000C801A7D944E060E7C801A3D941E061E782
:104CD000C8019FD94EEF62E7C8019BD940E066E763
:104CE000C80197D940E067E7C80193D941E06FEF69
:104CF000C8018FD941E06DE0C8018BD940E06FEF6A
:104D0000C80187D941E060E8C80183D948EF61E074
:104D1000C8017FD941E06FEFC8017BD941E06EE85F
:104D2000C80177D941E060E0C80173D940E06FEF76
:104D3000C8016FD940E060E8C8016BD944E06AE07F
:104D4000C80167D964E8C801E2D9482F4F7E64E8FA
:104D5000C8015FD941E06BE0C8015BD9C80155DCEF
:104D6000F801608771878287938748EE61E0C80108
:104D700050D9F8014085518562857385C80112DDDF
:104D800041E061E0C80145D960E4C801B5DD882390
:104D900009F431CE42E061E0C8013BD960E0C801CE
:104DA000ABDDF82E882309F426CE48EE61E0C80179
:104DB00030D922CE30E002C0359527956A95E2F7CA
:104DC00020FF72CE9F5F70CE0F931F93CF93DF9320
:104DD0008C01EB01FA0120E030E040E85FE3608104
:104DE0007181828193810E94CD34811113C089E841
:104DF00095E072DAB0E0A0E0F80180839183A283AD
:104E0000B3838DE795E068DAB0E0A0E0888399830A
:104E1000AA83BB83DF91CF911F910F910895CF9308
:104E2000DF93EA0120E030E040E85FE368817981C8
:104E30008A819B810E94CD34882309F43CC061E0C3
:104E400085E00E94E73783E096E00E94391D6AE220
:104E50008DE795E0F8D860E085E00E94E7376AE0EA
:104E600070E080E090E00E94E93661E089E895E03A
:104E700070DD61E08DE795E06CDD88E893E190936B
:104E80008C0580938B059093800580937F0540E08F
:104E900050E0BA0189E895E0DAD940E050E0BA0183
:104EA0008DE795E0D4D980E090E0A0E8BFE3888367
:104EB0009983AA83BB83DF91CF910895E3E0F6E065
:104EC0001382128288EE93E0A0E0B0E084839583A1
:104ED000A683B78385E194E091838083E9E8F5E0D8
:104EE00089E28183138212821482EDE7F5E08183E7
:104EF000138212821482089540E855E260E070E067
:104F000090E080E000C08130910579F01CF4892B9D
:104F100039F008958230910561F0039771F008959A
:104F200026E082E996E00C941A3926E08FE297E0B9
:104F3000FACF26E08CEC97E0F6CF26E089E698E001
:104F4000F2CF0895CF92DF92EF92FF920F931F93CB
:104F50000E94C43660935506709356068093570698
:104F6000909358060091590610915A0620915B06BD
:104F700030915C066B017C01C01AD10AE20AF30A87
:104F800097018601003117422105310518F1609320
:104F9000590670935A0680935B0690935C060E94B4
:104FA000B3330E94C4360091590610915A062091DD
:104FB0005B0630915C06601B710B820B930B6031BA
:104FC00077428105910570F081E090E0909388062A
:104FD0008093870681E01F910F91FF90EF90DF9003
:104FE000CF9008951092880610928706F3CF8F9283
:104FF0009F92AF92BF92CF92DF92EF92FF920F9368
:105000001F93CF93DF935C017B018A01C1E0D0E065
:10501000CE15DF05CCF081E0F5018083B801C70132
:105020000E941A33F5019283818390E080E0DF9142
:10503000CF911F910F91FF90EF90DF90CF90BF9095
:10504000AF909F908F9008956E018FEFC81AD80A85
:10505000FE01EE0FFF1FE00FF11F80809180811491
:10506000910469F063E274E0C4010E947140892BED
:1050700041F4CC0FDD1FC00FD11F19821882E60149
:10508000C7CF66E274E0C4010E947140892BB9F772
:10509000EC14FD04A1F36E01E2E0CE0ED11CCC0FA6
:1050A000DD1FC00FD11F198218821B821A82E7CF21
:1050B0008DE596E0089580E008950F931F93CF93B8
:1050C000DF938B01BA01E901198218829801012E40
:1050D000000C440B550BFC01818192810E949F1CA6
:1050E000019641F01983088380E0DF91CF911F91F1
:1050F0000F91089581E0F9CF0F931F93CF93DF9322
:105100001F921F92CDB7DEB7FB018A01B9019E0144
:105110002F5F3F4FAF01FC01818192810E942E33AE
:10512000019669F089819A81F8019183808380E0FA
:105130000F900F90DF91CF911F910F91089581E013
:10514000F7CFFC01808108950895089581E0FB0167
:10515000808380E008950895109285060895FC01EB
:10516000818192810C941233CF93DF9300D000D0D1
:1051700000D01F92CDB7DEB7B0E0A0E089839A835C
:10518000AB83BC83CB01770FAA0BBB0B8D839E83B4
:10519000AF83B8879E01275F3F4FAE014F5F5F4FE0
:1051A00068E070E0809174069091750686DF811149
:1051B00010C081E029853A852830310509F480E066
:1051C0002A960FB6F894DEBF0FBECDBFDF91CF9108
:1051D000089581E0F5CF0F931F93CF93DF931F9234
:1051E0001F92CDB7DEB78B019E012F5F3F4FAC0101
:1051F000809174069091750660DF81110EC081E088
:1052000029813A812017310709F480E00F900F902F
:10521000DF91CF911F910F91089581E0F7CFCF9348
:10522000DF93EC01109278061092770610928406B4
:1052300010928306AC0160E070E0CB010E945D1625
:10524000AE0161E070E080E090E00E945D16809128
:10525000740690917506DF91CF917DCF4F925F924A
:105260006F927F928F929F92AF92BF92CF92DF9276
:10527000EF92FF920F931F93CF93DF931F921F9292
:10528000CDB7DEB78C017C0197FF03C087E0E80E45
:10529000F11C23E0F594E7942A95E1F7C80168E052
:1052A00070E00E94563E6C010E5F1F4F80917206A7
:1052B0009091730680179107D4F4809170069091B5
:1052C0007106009731F00E94D83F10927306109239
:1052D0007206C8010E943C3F90937106809370064D
:1052E000892B09F482C0109373060093720610E0B4
:1052F00000E047C1412C512C3201B12CA12C950169
:105300002758394FAE014F5F5F4F61E070E08091E9
:10531000740690917506F0DE811149C0EFEF4E1AC8
:105320005E0A6E0A7E0AF0E94F16FFE55F06F1E0BD
:105330006F06710444F060918306709184068DEECF
:1053400090E012DFD7CF89819A81A80EB91E8AE03A
:10535000A816B10409F043C049E050E070E060E0F5
:1053600089E796E00E94A5336091830670918406D8
:10537000882391F18091810690E08617970781F448
:10538000BC018EEE90E0F0DE809183069091840661
:105390000196992790938406809383060F5F1F4F91
:1053A0000E151F050CF4A6CFCD2809F07CC090E0A7
:1053B00080E00F900F90DF91CF911F910F91FF90A0
:1053C000EF90DF90CF90BF90AF909F908F907F90A5
:1053D0006F905F904F9008958FEE90E0B2CFEAE02B
:1053E000AE16B1040CF48BCFDBCF10E000E0D8CFC9
:1053F0000A30110531F549E050E070E060E089E7DE
:1054000096E00E94A53360918306709184068823FC
:10541000A9F08091810690E08617970741F6BC01BC
:105420008EEE90E0A1DE8091830690918406019635
:1054300099279093840680938306B9CF8FEE90E0EE
:105440002BC00A3011050CF0B2CF98012758394F04
:10545000AE014F5F5F4F61E070E080917406909104
:1054600075064ADE8111A3CF89819A81080F191F21
:10547000FFEFCF1ADF0AEF0AFF0A80E9C8168FE5AF
:10548000D80681E0E806F1040CF4B2CF60918306FF
:10549000709184068DEE90E067DE10E000E0C12C94
:1054A000D12C7601D2CFC12CD12C760110E000E0B6
:1054B000CCCF412C512C3201B12CA12C480193E0CE
:1054C000880C991C9A95E1F720917006309171062D
:1054D000C501880D991D280F391FAE014F5F5F4F21
:1054E00061E070E0809174069091750605DE81118F
:1054F0005ECFEFEF4E1A5E0A6E0A7E0A6091830657
:10550000709184068DEE90E0F0E94F16FFE55F069E
:10551000F1E06F0671040CF043C089819A81A80EF6
:10552000B91E8AE0A816B10409F041C049E050E074
:10553000B40180917006909171060E94A53360912C
:10554000830670918406882349F1809170069091BA
:105550007106880E991EF401808590E086179707E2
:1055600081F4BC018EEE90E0FFDD80918306909186
:1055700084060196992790938406809383060F5F93
:105580001F4F0E151F050CF494CFC114D10409F060
:1055900081C080917006909171060BCF8FEE90E0E4
:1055A000E3DD412C512C3201B12CA12C8DCFFAE03E
:1055B000AF16B1040CF488CFE4CF8FEE90E0D4DDC9
:1055C000F12CE12C812C912C540197012758394F53
:1055D000AE014F5F5F4F61E070E080917406909183
:1055E00075068ADD8111E3CE8FEF881A980AA80A22
:1055F000B80A60918306709184068DEE90E0E0E930
:105600008E16EFE59E06E1E0AE06B104C4F6898190
:105610009A81E80EF91EFAE0EF16F104A9F549E0C7
:1056200050E070E060E089E796E00E94A533609169
:10563000830670918406882309F4BFCF8091810688
:1056400090E08617970709F0A4CFBC018EEE90E09A
:105650008BDD83E0000F111F8A95E1F780917006C2
:1056600090917106A60169E776E0800F911F0E9474
:1056700061408091830690918406019699279093CA
:1056800084068093830685CF8AE0E816F1040CF443
:105690009CCF7FCF812C912C5401F12CE12C95CF04
:1056A000CF92DF92EF92FF920F931F93CF93DF93EE
:1056B0001F92CDB7DEB76C017B018A01452B39F013
:1056C000AB0170E060E0C8010E94A1338983B7019B
:1056D000C6014ADD81110DC00115110551F0B70158
:1056E000C80179DD811105C061E070E0CE0101964D
:1056F00072DD0F90DF91CF911F910F91FF90EF908E
:10570000DF90CF900895CF92DF92EF92FF92CF93E8
:10571000DF9300D000D01F921F92CDB7DEB76B0190
:10572000F12CE12CC982DA82EB82FC822D833E834C
:105730004F835887AE014F5F5F4F68E070E0B0DF86
:1057400028960FB6F894DEBF0FBECDBFDF91CF9184
:10575000FF90EF90DF90CF9008958F929F92AF923D
:10576000BF92CF92DF92EF92FF920F931F93CF934E
:10577000DF937C01EB01CA01690170DD0097B1F490
:105780002FEF3FEFA90161E070E0C701BCDFC1E08E
:105790008C2FDF91CF911F910F91FF90EF90DF90B1
:1057A000CF90BF90AF909F908F900895FC01819013
:1057B0009190A190B190BF01FCE1EF16F10479F452
:1057C000A5019401CE010E94C314C82FA501940124
:1057D000882369F061E070E0C70195DFD9CF9501BA
:1057E0008401AB01B601CE010E94C612EECF70E07B
:1057F00060E0C701DF91CF911F910F91FF90EF9073
:10580000DF90CF90BF90AF909F908F907CCF0F9301
:105810001F93CF93DF93EC018B014ADC90937506C5
:10582000809374060097A9F0A801BE01E0DBEC01AB
:10583000892B49F0809174069091750685DC109251
:10584000750610927406CE01DF91CF911F910F91D2
:105850000895C2E3D4E0EECF80917406909175066E
:1058600070CC2F923F924F925F926F927F928F9265
:105870009F92AF92BF92CF92DF92EF92FF920F93DF
:105880001F93CF93DF93CDB7DEB769970FB6F89428
:10589000DEBF0FBECDBF209178062223F9F05B8BCF
:1058A0004A8B6E877F87888B998B9A01AB01BC01ED
:1058B000CE0101967C010E942D1B10E048E0242EB1
:1058C000312CE88EF98E89819A81181619060CF40C
:1058D00051C2112319F08A899B89A1DC69960FB600
:1058E000F894DEBF0FBECDBFDF91CF911F910F9116
:1058F000FF90EF90DF90CF90BF90AF909F908F90F0
:105900007F906F905F904F903F902F900895EB8124
:10591000FC818C859D8533E0880F991F3A95E1F7CE
:10592000E80FF91F8081918190936F0680936E0636
:10593000248135814281538150936D0640936C06DA
:105940004681578150936B0640936A06820F931FDE
:105950009C01990F440B550B2C8B3D8B4E8B5F8B11
:10596000812C912C54018C899D89AE89BF89881620
:105970009906AA06BB0640F18C859D85880F991F64
:10598000ED81FE81E80FF91F4E855F856889798971
:10599000808191810E948F16AC85BD851196BD874F
:1059A000AC8789819A81EC85FD85E817F9070CF4AD
:1059B000AECF2A893B894E855F8568897989888D34
:1059C000998D0E942D1B7FCF1F8260916E06709172
:1059D0006F06CB01072E000CAA0BBB0B84017501CF
:1059E000640134E0C30ED11CE11CF11CC816D906B9
:1059F000EA06FB0608F0B3C020916C0630916D06F4
:105A0000A4014C5F5F4F240F351FF901C080D12CDA
:105A1000F12CE12C24013501F5E04F0E511C611CE5
:105A2000711C481659066A067B0608F0A3C020912F
:105A30006C0630916D06F8013596E20FF31F208158
:105A4000D22A2401350126E0420E511C611C711C32
:105A5000481659066A067B0608F097C020916C0626
:105A600030916D06F8013696E20FF31F2081E22A8D
:105A70002401350137E0430E511C611C711C48168E
:105A800059066A067B0608F08BC020916C0630919F
:105A90006D06F8013796E20FF31F208126013701CA
:105AA000722A7501640148E0C40ED11CE11CF11C8E
:105AB0008C159D05AE05BF0508F41DC18816990615
:105AC000AA06BB0608F077C080916C0690916D061F
:105AD000800F911F68E070E07EDBE0916E06F09130
