:10000000F5C0000024C1000022C1000020C1000092
:100010001EC100001CC100001AC1000018C1000070
:1000200016C1000014C1000012C1000010C1000080
:100030000EC100000CC100000AC1000008C1000090
:1000400006C1000004C1000002C1000000C10000A0
:10005000FEC00000FCC00000FAC000000C94752730
:10006000F6C000000C94B2290C94E829F0C00000FE
:10007000EEC00000ECC00000EAC00000E8C00000D4
:10008000E6C00000E4C00000E2C00000E0C00000E4
:100090000C943E2A0C94742ADAC00000D8C00000E8
:1000A000D6C00000D4C00000D2C00000D0C0000004
:1000B000CEC00000CCC00000CAC00000C8C0000014
:1000C000C6C00000C4C00000C2C000000C94CA2A10
:1000D0000C94002BBCC000000C94562B0C948C2B61
:1000E000B6C00000001D3A2774694E53E8F5D2CF20
:1000F0009C81A6BBCDD0F7EAB9A4839E25381F0208
:10010000514C6B76879ABDA0F3EEC9D46F725548F7
:100110001B06213C4A57706D3E230419A2BF9885E7
:10012000D6CBECF1130E2934677A5D40FBE6C1DCD7
:100130008F92B5A8DEC3E4F9AAB7908D362B0C11C7
:10014000425F78659489AEB3E0FDDAC77C61465BB7
:100150000815322F5944637E2D30170AB1AC8B96A7
:10016000C5D8FFE2263B1C01524F6875CED3F4E997
:10017000BAA7809DEBF6D1CC9F82A5B8031E392487
:10018000776A4D50A1BC9B86D5C8EFF24954736E77
:100190003D20071A6C71564B1805223F8499BEA367
:1001A000F0EDCAD735280F12415C7B66DDC0E7FA57
:1001B000A9B4938EF8E5C2DF8C91B6AB100D2A3747
:1001C00064795E43B2AF8895C6DBFCE15A47607D37
:1001D0002E3314097F6245580B16312C978AADB027
:1001E000E3FED9C4112A9D2A292BB52B11241FBE49
:1001F000CFEFD1E2DEBFCDBF00E00CBF13E0A0E047
:10020000B2E0ECE0F1E600E00BBF02C007900D9217
:10021000A23DB107D9F728E0A2EDB3E001C01D92DD
:10022000A330B207E1F710E0C6EFD0E000E006C06F
:1002300021970109802FFE010E94B22EC23FD107F3
:1002400080E00807A9F70E9486240C948430D8CE59
:10025000AB01BC018EEF94E00C94402EAB01BC01CD
:100260008BE995E00C94402EAB01BC0188E396E04D
:100270000C94402EAB01BC0185ED96E00C94402E11
:100280008F929F92AF92BF92CF92DF92EF92FF92A6
:100290000F931F93CF93DF93CDB7DEB77B014A0156
:1002A0005901CDB6DEB69B01220F331F4DB75EB7A5
:1002B000421B530B0FB6F8945EBF0FBE4DBF0DB778
:1002C0001EB70F5F1F4FE82FF0E0EE0FFF1FE25F3A
:1002D000FD4F0190F081E02DC8011995F801D4017E
:1002E000E00EF11EEE15FF0519F081918D93FACF06
:1002F00081E0F50180830FB6F894DEBE0FBECDBE5F
:10030000DF91CF911F910F91FF90EF90DF90CF90F1
:10031000BF90AF909F908F9008959F92AF92BF92A1
:10032000CF92DF92EF92FF920F931F93CF93DF93C1
:10033000CDB7DEB7C054D1090FB6F894DEBF0FBEFB
:10034000CDBFB82E8B01942EA52E6901E82EF12C7D
:10035000EE0CFF1CF701EA5FFD4F0190F081E02DEC
:10036000199580179107C9F49601492D5A2DBC01A2
:100370008B2D86DFC05CDF4F0FB6F894DEBF0FBE5B
:10038000CDBFDF91CF911F910F91FF90EF90DF9044
:10039000CF90BF90AF909F9008958017910748F439
:1003A000E92DFA2D0E0F1F1FE017F10719F1119219
:1003B000FBCF9801220F331F2817390728F0960129
:1003C000492D5A2DB801D4CFB8010E94692ECB0116
:1003D0000197809FB001819F700D909F700D112437
:1003E000F701E25FFD4F0190F081E02DCE01019613
:1003F0001995E5CFF6011082BDCF8EEF94E00C94F5
:1004000088288BE995E00C94882888E396E00C9482
:10041000882885ED96E00C9488288823E1F08230C6
:1004200061F0833089F08130B1F440E052EC61E05A
:1004300070E081E090E00C94401840E052EC61E004
:1004400070E082E090E0F7CF40E052EC61E070E0D5
:1004500083E090E0F0CF08954F925F926F927F9289
:100460008F929F92AF92BF92CF92EF92FF920F9393
:100470001F93CF93DF93CDB7DEB72B013A01F02E58
:10048000B40130E02830310511F424E030E00AE016
:1004900010E0CC2061F091E000E110E0C91639F0E5
:1004A000E2E008E010E0CE1611F002E010E081304A
:1004B00009F4E8C0B0F0823009F4C5C1833009F412
:1004C000A3C2DF91CF911F910F91FF90EF90CF903A
:1004D000BF90AF909F908F907F906F905F904F9064
:1004E0000895F1101BC0269DA001279D500D369D3B
:1004F000500D1124B2018EEF94E0DF91CF911F9146
:100500000F91FF90EF90CF90BF90AF909F908F9002
:100510007F906F905F904F900C94E22B8EEF94E061
:100520000E941E2CE11014C0640C751C6414750428
:1005300041F2F20161912F01F1E0A8018EEF94E008
:10054000FF1203C00E94F02CF1CF0E94F62CEECFD8
:1005500081E0E81215C091E0691A710808F4B1CF82
:10056000F201619171912F01F1E0A8018EEF94E009
:10057000FF1203C00E94062DEECF0E940B2DEBCF81
:1005800082E0E81217C091E0691A710808F499CF67
:10059000F20141915191619171912F01F1E0980126
:1005A0008EEF94E0FF1203C00E94E42CECCF0E9477
:1005B0001B2DE9CF83E0E81218C0640C751C64148D
:1005C000750409F47ECFF20161912F01062E000C13
:1005D000770BF1E0A8018EEF94E0FF1203C00E94B8
:1005E000BE2CEDCF0E94C42CEACF84E0E81215C0E7
:1005F00091E0691A710808F464CFF2016191719178
:100600002F01F1E0A8018EEF94E0FF1203C00E94D9
:10061000BE2CEECF0E94C42CEBCF85E0E81217C0B1
:1006200091E0691A710808F44CCFF201419151919F
:10063000619171912F01F1E098018EEF94E0FF122A
:1006400003C00E94792CECCF0E94D42CE9CF86E025
:10065000E81237CFB12C91E0691A710808F431CF54
:10066000F20141915191619171912F01F1E0950158
:100670008EEF94E0FF1203C00E94032EECCF0E9485
:10068000042EE9CFF1100BC0269DA001279D500D2F
:10069000369D500D1124B2018BE995E02ECF8BE9E8
:1006A00095E00E941E2CE11015C0640C751C4614C8
:1006B000570409F406CFF20161912F01F1E0A8017E
:1006C0008BE995E0FF1203C00E94F02CF0CF0E944E
:1006D000F62CEDCF81E0E81215C091E0691A71089F
:1006E00008F4EFCEF201619171912F01F1E0A801C0
:1006F0008BE995E0FF1203C00E94062DEECF0E9409
:100700000B2DEBCF82E0E81217C091E0691A710857
:1007100008F4D7CEF20141915191619171912F016D
:10072000F1E098018BE995E0FF1203C00E94E42CF0
:10073000ECCF0E941B2DE9CF83E0E81218C0640CB7
:10074000751C6414750409F4BCCEF20161912F018B
:10075000062E000C770BF1E0A8018BE995E0FF1263
:1007600003C00E94BE2CEDCF0E94C42CEACF84E0CF
:10077000E81215C091E0691A710808F4A2CEF201DE
:10078000619171912F01F1E0A8018BE995E0FF12D1
:1007900003C00E94BE2CEECF0E94C42CEBCF85E09C
:1007A000E81217C091E0691A710808F48ACEF201C4
:1007B00041915191619171912F01F1E098018BE983
:1007C00095E0FF1203C00E94792CECCF0E94D42C3C
:1007D000E9CF86E0E81275CEB12C91E0691A710874
:1007E00008F46FCEF20141915191619171912F0105
:1007F000F1E0FF1214C0C11006C095018BE995E02D
:100800000E94032EEACFCB01BA010E948A25AB01D8
:10081000BC0198018BE995E00E94792CDECFC110D4
:1008200006C095018BE995E00E94042ED6CFCB013E
:10083000BA010E948A25AB01BC0198018BE995E0C1
:100840000E94D42CCACFF1100BC0269DA001279D79
:10085000500D369D500D1124B20188E396E04DCE27
:1008600088E396E00E941E2CE11015C0640C751CF4
:100870004614570409F425CEF20161912F01F1E0ED
:10088000A80188E396E0FF1203C00E94F02CF0CF8D
:100890000E94F62CEDCF81E0E81215C091E0691AB4
:1008A000710808F40ECEF201619171912F01F1E00F
:1008B000A80188E396E0FF1203C00E94062DEECF48
:1008C0000E940B2DEBCF82E0E81217C091E0691A6D
:1008D000710808F4F6CDF201419151916191719145
:1008E0002F01F1E0980188E396E0FF1203C00E9417
:1008F000E42CECCF0E941B2DE9CF83E0E81218C056
:10090000640C751C6414750409F4DBCDF20161916B
:100910002F01062E000C770BF1E0A80188E396E08A
:10092000FF1203C00E94BE2CEDCF0E94C42CEACF60
:1009300084E0E81215C091E0691A710808F4C1CD8D
:10094000F201619171912F01F1E0A80188E396E035
:10095000FF1203C00E94BE2CEECF0E94C42CEBCF2E
:1009600085E0E81217C091E0691A710808F4A9CD72
:10097000F20141915191619171912F01F1E0980142
:1009800088E396E0FF1203C00E94792CECCF0E940E
:10099000D42CE9CF86E0E81294CDB12C91E0691A0D
:1009A000710808F48ECDF2014191519161917191DC
:1009B0002F01F1E0FF1214C0C11006C0950188E3B9
:1009C00096E00E94032EEACFCB01BA010E948A254D
:1009D000AB01BC01980188E396E00E94792CDECF40
:1009E000C11006C0950188E396E00E94042ED6CF80
:1009F000CB01BA010E948A25AB01BC01980188E3B2
:100A000096E00E94D42CCACFF1100BC0269DA00105
:100A1000279D500D369D500D1124B20185ED96E0B5
:100A20006CCD85ED96E00E941E2CE11015C0640C83
:100A3000751C6414750409F444CDF20161912F0111
:100A4000F1E0A80185ED96E0FF1203C00E94F02CB2
:100A5000F0CF0E94F62CEDCF81E0E81215C091E0B6
:100A6000691A710808F42DCDF201619171912F017D
:100A7000F1E0A80185ED96E0FF1203C00E94062D6B
:100A8000EECF0E940B2DEBCF82E0E81217C091E071
:100A9000691A710808F415CDF201419151916191E3
:100AA00071912F01F1E0980185ED96E0FF1203C0EE
:100AB0000E94E42CECCF0E941B2DE9CF83E0E812CA
:100AC00018C0640C751C6414750409F4FACCF201A6
:100AD00061912F01062E000C770BF1E0A80185ED46
:100AE00096E0FF1203C00E94BE2CEDCF0E94C42CE2
:100AF000EACF84E0E81215C091E0691A710808F4A1
:100B0000E0CCF201619171912F01F1E0A80185ED36
:100B100096E0FF1203C00E94BE2CEECF0E94C42CB0
:100B2000EBCF85E0E81217C091E0691A710808F46C
:100B3000C8CCF20141915191619171912F01F1E085
:100B4000980185ED96E0FF1203C00E94792CECCF4E
:100B50000E94D42CE9CF86E0E812B3CCB12C91E00E
:100B6000691A710808F4ADCCF2014191519161917B
:100B700071912F01F1E0FF1214C0C11006C0950160
:100B800085ED96E00E94032EEACFCB01BA010E94C8
:100B90008A25AB01BC01980185ED96E00E94792C75
:100BA000DECFC11006C0950185ED96E00E94042EAF
:100BB000D6CFCB01BA010E948A25AB01BC019801B6
:100BC00085ED96E00E94D42CCACFCF92DF92EF92AF
:100BD000FF926B017C019F7720E030E040E859E50F
:100BE0000E94862587FF2BC020E030E040E05FE3D5
:100BF000C701B6010E940E2787FD0EC020E030E03D
:100C000040E05FE3C701B6010E940F25FF90EF901F
:100C1000DF90CF900C94F82520E030E040E05FEBCF
:100C2000C701B6010E940E27181684F420E030E0B8
:100C3000A901C701B6010E9412276B017C01C701FF
:100C4000B601FF90EF90DF90CF90089520E030E064
:100C500040E05FE3C701B6010E940E25FF90EF90D0
:100C6000DF90CF900C9473254F925F926F927F929A
:100C70008F929F92AF92BF92CF92DF92EF92FF92AC
:100C80000F931F93CF93DF93CDB7DEB76A970FB65D
:100C9000F894DEBF0FBECDBF80912F0481117BC0C1
:100CA0001092D2071092D4071092D3071092D50752
:100CB0002AEAA22E22E0B22E8E010A5E1F4F4E01BA
:100CC0008BE1880E911CD5016D917D918D919D9147
:100CD0005D012091BE023091BF024091C00250914F
:100CE000C1020E9412270E94F8256B017C019FD44B
:100CF000811198C2C701B60155D4811193C220E079
:100D000030E040E853E4C701B6010E9412266B01AF
:100D10007C0120E030E0A9010E94862587FF85C282
:100D2000C701B60190580E948F256195F801619323
:100D30008F01E815F90539F6809130048111B4C0AE
:100D40008091C3028093C4078093C5078091C40239
:100D50008093C6078091D4078093C7078091C5020E
:100D60008093C8078091D5078093C9078091C602F8
:100D70008093CA07888D8093CB078091C7028093A8
:100D8000CC07898D8093CD078091C8028093CE07D0
:100D90008A8D8093CF0780913004811185C0E4EC67
:100DA000F7E006ED17E0D80181918D9387E0E03DF3
:100DB000F807D1F7C090A602D090A702E090A80251
:100DC000F090A902A7019601609198077091990788
:100DD00080919A0790919B070E948625882341F075
:100DE000C0929807D0929907E0929A07F0929B07D9
:100DF000FE0131964E01ADE08A0E911CDE2EFF2ED3
:100E0000D8018D918D0181938E169F06C9F783E7D6
:100E10008D8795E69E872EE62F87888B2FE6298B78
:100E200022E72A8B9B8B8C8B1D8A6091AC0770917B
:100E3000AD078091AE079091AF070E948F25C62E17
:100E40006091A4077091A5078091A6079091A707CC
:100E50000E948F25E62E6091A8077091A9078091C6
:100E6000AA079091AB070E948F25062F6091A007DB
:100E70007091A1078091A2079091A3070E948F25EE
:100E8000162F60919C0770919D0780919E0790910D
:100E90009F070E948F25862F92E0A92E212F4CE0DC
:100EA00050E06D2D7F2DD8DA80912F04811128C05C
:100EB000C090A202D090A302E090A402F090A502FC
:100EC000A70196016091B8077091B9078091BA07A0
:100ED0009091BB070E948625882341F0C092B807F5
:100EE000D092B907E092BA07F092BB076091BC07B5
:100EF0007091BD0724EE37E042EE57E083E00DDA53
:100F000083E090E00E94E81740910E0450910F0496
:100F1000609110047091110490E080E00E94E41749
:100F200080912F0481112EC06091220470912304BE
:100F300080912404909125040E94BB2520E030E09C
:100F400040E85FE40E9412276B017C0160911E045F
:100F500070911F0480912004909121040E94BB2570
:100F60009B01AC01C701B6010E940F252DEC3CECA2
:100F70004CEC5DE30E941227AB01BC0181E090E0E4
:100F80000E94E41780913004811128C060912A04E6
:100F900070912B0480912C0490912D040E94BB250C
:100FA00020E030E040E85FE40E9412276B017C0102
:100FB000609126047091270480912804909129045F
:100FC0000E94BB259B01AC01C701B6010E940F2501
:100FD000AB01BC0182E090E00E94E41780903104F4
:100FE00090903204A0903304B090340420E030E0BC
:100FF00040E85FEBC501B4010E948625882331F1EA
:10100000C0900E04D0900F04E0901004F0901104F2
:10101000A7019601C501B4010E940E254B015C0198
:1010200020E030E040E054E3C701B6010E941227FF
:101030009B01AC01C501B4010E940E27181634F0C3
:101040008DEC92E09093F9038093F803809135043E
:10105000882331F08DEC92E09093F9038093F803AC
:10106000C0901204D0901304E0901404F090150482
:10107000BFEFCB1ADB0AEB0AFB0AC0921204D09234
:101080001304E0921404F0921504C114D104E10495
:10109000F10499F48091160490911704A09118041A
:1010A000B09119040196A11DB11D8093160490936F
:1010B0001704A0931804B093190480901A04909018
:1010C0001B04A0901C04B0901D0460911604709144
:1010D000170480911804909119040E94BB25A50162
:1010E00094010E94122720E030E040E85FE40E9473
:1010F00012272B013C01C701B6010E94BB25A501A7
:1011000094010E9412279B01AC01C301B2010E940D
:101110000F2560930E0470930F0480931004909336
:10112000110490912F0491112CC040911E045091F4
:101130001F0460912004709121044F5F5F4F6F4F37
:101140007F4F40931E0450931F04609320047093BC
:101150002104452B462B472BA1F4409122045091AA
:10116000230460912404709125044F5F5F4F6F4FFB
:101170007F4F409322045093230460932404709380
:1011800025048091300481112CC040912604509197
:10119000270460912804709129044F5F5F4F6F4FBF
:1011A0007F4F409326045093270460932804709344
:1011B0002904452B462B472BA1F440912A0450913A
:1011C0002B0460912C0470912D044F5F5F4F6F4F83
:1011D0007F4F40932A0450932B0460932C04709308
:1011E0002D049F5F9A3030F590932F048F5F8436E3
:1011F00020F5809330046A960FB6F894DEBF0FBED8
:10120000CDBFDF91CF911F910F91FF90EF90DF90B5
:10121000CF90BF90AF909F908F907F906F905F9096
:101220004F900895C12CD12C7601C701B6010E94C0
:101230008F257CCD10922F04D9CF10923004DBCFB4
:10124000CF92DF92EF92FF92CF9384E090E073D140
:10125000E8EFF3E08EE3DF011D928A95E9F780E085
:1012600090E0A0E8BFEB8093310490933204A09308
:101270003304B09334048AE097EDA3E2BCE3809397
:101280001A0490931B04A0931C04B0931D048AE4D9
:1012900090EFA5E0B0E68093FC039093FD03A0934C
:1012A000FE03B093FF0383EF94E9A6E3B9E18093D3
:1012B000000490930104A0930204B093030482EB12
:1012C00099EAAEE6B3E88093040490930504A093F2
:1012D0000604B093070485E391E0A6E6B9E48093A1
:1012E000080490930904A0930A04B0930B048CEEB5
:1012F00093E09093FB038093FA0386EE93E0909340
:10130000ED038093EC0381EE92E09093E7038093EA
:10131000E6039093E9038093E8039093EB038093B3
:10132000EA038CE094E09093F1038093F0038CEF58
:1013300093E09093EF038093EE038EE094E090931C
:10134000F3038093F203E2EDF7E083E1DF011D9206
:101350008A95E9F7E2E7F7E080E6DF011D928A95DA
:10136000E9F7ECEDF3E08AE0DF011D928A95E9F7F9
:1013700082ED93E090930D0480930C0481E190E062
:101380009093D3038093D20380E892E09093D503A7
:101390008093D4038EE592E09093D7038093D60395
:1013A0008AE292E09093D9038093D80386E192E099
:1013B0009093DB038093DA0381E08093D0078091E0
:1013C000A6029091A702A091A802B091A9028093D1
:1013D000980790939907A0939A07B0939B0781E091
:1013E00090E0A0E0B0E08093730790937407A0931F
:1013F0007507B093760780E090E0A0E4B0E48093B6
:101400009C0790939D07A0939E07B0939F0780E051
:1014100090E0A0E8BFE38093A0079093A107A0937A
:10142000A207B093A30760E070E080E490E4CDDB16
:101430006B017C0120E030E040E853E40E94862507
:1014400087FF48C020E030E0A901C701B6010E9433
:101450000E2787FD41C0C701B6010E948F25862F48
:101460000E940D02C1E0C09377071092B207C093AB
:10147000D1078091A2029091A302A091A402B09101
:10148000A5028093B8079093B907A093BA07B093C9
:10149000BB0781E090E0A0E0B0E08093B3079093B9
:1014A000B407A093B507B093B6079093BF07809396
:1014B000BE0782E090E09093BD078093BC0783E075
:1014C0000E940D02C093B707CF91FF90EF90DF907D
:1014D000CF9008958FEFC4CF80E0C2CF8091720784
:1014E000811103C081E0809372078091B20781115E
:1014F00003C081E08093B207089560E070E080E867
:101500009FE7089560E070E080E89FE7089560E05D
:1015100070E080E89FEF089560E070E080E89FEF62
:10152000089560E070E080EC9FEF089560E070E067
:1015300080EC9FEF0895F5DF6093F1077093F20759
:101540008093F3079093F407F1DF6093E5077093BE
:10155000E6078093E7079093E807CFDF6093ED07F6
:101560007093EE078093EF079093F007CBDF6093C3
:10157000E9077093EA078093EB079093EC07C7DFC6
:101580006093F5077093F6078093F7079093F80739
:10159000C3DF6093F9077093FA078093FB0790937A
:1015A000FC070895CF92DF92EF92FF92CF936B01E9
:1015B0007C01AC019B016091ED077091EE07809179
:1015C000EF079091F0070E948625C1E0882371F013
:1015D000A70196016091F5077091F6078091F707D2
:1015E0009091F8070E9486258111C0E08C2FCF9141
:1015F000FF90EF90DF90CF9008950F931F938B0192
:101600009C010027112720783F77011511052048FC
:101610003F4749F4AB01BC016F77772781E0452B49
:10162000462B472B09F480E01F910F910895E5CFD9
:10163000EF92FF920F931F93CF93DF93EA01F9018B
:10164000DC011496ED90FC90159712964D915C91EB
:1016500013974E0D5F1D2881398118960D911C91AD
:1016600019970217130730F00D911C911197012B58
:1016700009F441C08A01021B130BDC0118968D91FD
:101680009C918E199F09800F911F86179707DCF197
:10169000C901860F971F8417950778F471836083BB
:1016A000338322831582148217821682888199815E
:1016B000680F791F7983688316C011830083338391
:1016C0002283601B710B7583648390E080E01616A3
:1016D000170614F49E2D8F2D96838783D701A60FAE
:1016E000B71FB983A88380E0DF91CF911F910F913D
:1016F000FF90EF90089518968D919C91821B930B0B
:10170000861797075CF681E0EFCFCF92DF92EF92DA
:10171000FF92CF93DF936B0184E4869FE001879F64
:10172000D00D1124CA5CDB4F8AA99BA9009721F038
:101730000E94E22F1BAA1AAA84E48C9DF0018D9DC1
:10174000F00D1124EA5CFB4F86A997A9009711F0D0
:101750000E94E22F84E48C9DF0018D9DF00D1124F8
:10176000EA5CFB4F138A128A168A178A108E118E32
:10177000128E138E148E158E168E178E10A211A235
:1017800081E090E093A382A315A214A216A217A24F
:1017900010A611A613A612A615A614A616A617A67D
:1017A00010AA11AA13AA12AA15AA14AA17AA16AA4D
:1017B00011AE10AE12AE13AE14AE15AEDF01DE9652
:1017C0001D921D921D921C921397EE5BFF4F11828A
:1017D0001082DF91CF91FF90EF90DF90CF9008952E
:1017E000CF93DF93FB01DC016D917C91DB011696B9
:1017F000CD91DC918081918123E0880F991F2A95FA
:10180000E1F7AA81BB81A80FB91F8D919C91119717
:1018100024853585220F331FEB016A817B81EB0123
:10182000C20FD31F0990D881C02D14962D913C91E1
:1018300061E070E0232B11F062E070E0C69F900140
:10184000C79F300DD69F300D1124A085B1852A9FEA
:10185000B0012B9F700D3A9F700D1124A481B581AA
:101860002A9FF0012B9FF00D3A9FF00D11248E0F4F
:101870009F1FFA019183808373836283DF91CF91ED
:1018800008952F923F924F925F926F927F928F9224
:101890009F92AF92BF92CF92DF92EF92FF920F93FF
:1018A0001F93CF93DF9300D000D0CDB7DEB7DC011C
:1018B0001496ED91FC910190F081E02D8085918549
:1018C0009A838983A281B381BC83AB83FB0181901E
:1018D0009190A190B190C12CD12C7601C814D9045B
:1018E000EA04FB04CCF026960FB6F894DEBF0FBED8
:1018F000CDBFDF91CF911F910F91FF90EF90DF90BF
:10190000CF90BF90AF909F908F907F906F905F909F
:101910004F903F902F900895448055806680778047
:101920004085518562857385CF0140969E838D8366
:10193000A081B1819D0183E0220F331F8A95E1F7D9
:10194000A981BA8112968D919C91D901A80FB91FD6
:101950002D903C9011970484F585E02DEE0FFF1F2C
:101960008B819C81E80FF91F0190F081E02D149686
:101970008D919C91892B41F581E090E0E89F900149
:10198000E99F300DF89F300D1124249F8001259F81
:10199000100D349F100D1124249DC001259D900D24
:1019A000349D900D1124A8016D817E81820D931DBF
:1019B0000E946B30ED81FE81E00FF11F9FEFC91A8D
:1019C000D90AE90AF90A8ACF82E090E0D7CFCF930B
:1019D000DF93DB01A753BD4F2C91222369F024E450
:1019E000269FF001279FF00D1124EA5CFB4FEF01C9
:1019F00019922A95E9F71C9224E4269FF001279F6B
:101A0000F00D1124EA5CFB4F1482158216821782B6
:101A10001186108613861286118A108A17861686FA
:101A2000DF91CF9172CE2F923F924F925F926F9241
:101A30007F928F929F92AF92BF92CF92DF92EF925E
:101A4000FF920F931F93CF93DF9300D000D01F928C
:101A50001F92CDB7DEB724E4269FF001279FF00D3B
:101A60001124EA5CFB4F0481158126813781012B0B
:101A7000022B032B09F4B7C02A016B017C0110E093
:101A800000E0812C912C54013F019F01285F3F4FC2
:101A90003C832B83CF0104969E838D83AB81BC81D5
:101AA0008D919C91ED81FE81408151816281738194
:101AB00084169506A606B706E4F10E94E22FD3012C
:101AC0001A968D919C91892B09F07EC084E48C9D9F
:101AD000D0018D9DB00D1124AA5CBB4FBC83AB839C
:101AE00050968D919C910E94E22FEB81FC8186851E
:101AF00097850E94E22FC701B60107DEC701B60134
:101B000028960FB6F894DEBF0FBECDBFDF91CF9100
:101B10001F910F91FF90EF90DF90CF90BF90AF900B
:101B20009F908F907F906F905F904F903F902F90FD
:101B30004ECFFC01E00FF11F92819983A381AA830C
:101B40009F83A887312C212C2414350464F08981CB
:101B50009A810E94E22FEFEF8E1A9E0AAE0ABE0A09
:101B60000C5F1F4F9BCFAF81B885ED91FD91B8877A
:101B7000AF83309759F0848195810E94E22FEF81E5
:101B8000F8853297808191810E94E22FBFEF2B1A56
:101B90003B0ADACF800F911FFC01848195810E945E
:101BA000E22F2B813C812F5F3F4F3C832B83025FD1
:101BB0001F4FF501808191812B813C8124153505D2
:101BC0004CF30E94E22F82CF10E000E01C821B82C7
:101BD00024E42C9DC0012D9D900D1124DC01A05CFE
:101BE000BB4F5D01E6CF28960FB6F894DEBF0FBE5F
:101BF000CDBFDF91CF911F910F91FF90EF90DF90BC
:101C0000CF90BF90AF909F908F907F906F905F909C
:101C10004F903F902F90089524E4269FF001279F36
:101C2000F00D1124EA5CFB4F828993890497029797
:101C300058F485E090E0938B828B8FEF9FEFDC016F
:101C4000828F938FA48FB58F08952F923F924F92DA
:101C50005F926F927F928F929F92AF92BF92CF923C
:101C6000DF92EF92FF920F931F93CF93DF93CDB745
:101C7000DEB7AA970FB6F894DEBF0FBECDBF9AA30A
:101C800089A37E8B6D8B1A01098B1A8B2B8B3C8B56
:101C900084E429893A89829F6001839FD00C1124B2
:101CA00086010A5C1B4F89899A89AB89BC89F80136
:101CB00080839183A283B383AB01BC01CD01B3DEEA
:101CC000D601A65CBB4F84E0F10101900D928A958C
:101CD000E1F7F4E02F0E311C64E070E0D8011496B7
:101CE0008D919C910E942C2FF80191878087892BE0
:101CF00009F0F5C04D895E8969897A898B899C894B
:101D000092DE81E0AA960FB6F894DEBF0FBECDBF7B
:101D1000DF91CF911F910F91FF90EF90DF90CF90C7
:101D2000BF90AF909F908F907F906F905F904F90FB
:101D30003F902F900895A9A5BAA58D919C91E98D0A
:101D4000FA8DE80FF91FF88FEF8BD1018D919C91DF
:101D5000880F991FA9A1BAA1ED91FC91E80FF91F75
:101D600080819181EF89F88D91838083D1011496D0
:101D70002D913D914D915C9117972BA33CA34DA3C1
:101D80005EA362E070E08D899E890E942C2FEF890E
:101D9000F88D93838283892B09F4ACCFF8E02F0E62
:101DA000311C412C512C32012BA13CA14DA15EA133
:101DB00042165306640675069CF02B8D3C8D4D8DA6
:101DC0005E8D2F5F3F4F4F4F5F4F2B8F3C8F4D8F5F
:101DD0005E8F498D5A8D4C5F5F4F5A8F498F90C0EF
:101DE000610124E0C20ED11CD101ED90FC90EE0CFB
:101DF000FF1CEF89F88D82819381E80EF91E68E05F
:101E000070E081E090E00E942C2F8C01D7018D932F
:101E10009C93892B09F46ECF84E0F601D8010190E0
:101E20000D928A95E1F7B8E02B0E311CF801808104
:101E30009181A281B381181619061A061B06DCF4DB
:101E400064E070E00E942C2FD80115969C938E932D
:101E50001497892B09F44ECFD12CC12C812C912CB5
:101E60005401F80180819181A281B381881699067D
:101E7000AA06BB0634F0FFEF4F1A5F0A6F0A7F0A0B
:101E800093CFF801E480F580EC0CFD1C80E1F101BA
:101E9000DE01119601900D928A95E1F7F0E12F0E87
:101EA000311CA701BE016F5F7F4FA9A1BAA1149693
:101EB0008D919C9195DCF80186819781D7011296CE
:101EC0002D913C91820F931F97838683BFEF8B1ACE
:101ED0009B0AAB0ABB0AE4E0CE0ED11CC2CF1A8E1D
:101EE000198E1B8E1C8E1D8E1E8E18A30F8FA8019F
:101EF0004C5F5F4F58A74FA3C80108969AA789A7C0
:101F0000EFA1F8A580819181A281B3812B8D3C8DB9
:101F10004D8D5E8D281739074A075B070CF40BCFF0
:101F20006EE070E08D899E890E942C2FAF8DB8A144
:101F30001B969C938E931A97B12CA12CD12CC12C5B
:101F4000F12CE12C24E4E989FA892E9FC0012F9F0E
:101F5000900D11249C01205C3B4F388F2F8B8824DF
:101F60008394912C4D895E89C416D50654F184E47E
:101F7000A989BA898A9F80018B9F100D11240A5C60
:101F80001B4FF80115861486C70133E0880F991F8F
:101F90003A95E1F70E94462FD80151969C938E9373
:101FA0005097892B09F4A6CEC701880F991F0E946C
:101FB000462FF80197878687892B09F49BCE80E00E
:101FC000A1CED1014D905D906D907D901D0177FC6B
:101FD00091CEEF89F88D008111810A0D1B1DD8016A
:101FE00011969C928E92411451046104710429F15E
:101FF000C2010E94462FF80195838483892B09F43E
:1020000079CEF801538242828481958197838683B9
:10201000918780871386128681E090E045284628C4
:10202000472811F490E080E0E80EF91EFFEFCF1A88
:10203000DF0A2EE0A20EB11C95CF15961C921E92BF
:102040001497DFCF2F923F924F925F926F927F92C1
:102050008F929F92AF92BF92CF92DF92EF92FF92B8
:102060000F931F93CF93DF93CDB7DEB76A970FB669
:10207000F894DEBF0FBECDBF9E8B8D8B49015A01F8
:1020800084E4829F7001839FF00C112497012A5CE5
:102090003B4F6901FB0180819181F901958B848B14
:1020A000D701A45BBB4FFB01349684E001900D92F5
:1020B0008A95E1F7D701A05BBB4FFB01389684E01E
:1020C00001900D928A95E1F7D701AC5ABB4FFB0105
:1020D0003C9684E001900D928A95E1F7D701AC59C6
:1020E000BB4FFB01709684E001900D928A95E1F759
:1020F0008B010C5E1F4FF90186A597A5A0A9B1A978
:1021000018161906DCF5880F991F880F991F0E9471
:10211000462FF60193AB82AB892B09F4D3C0312C47
:10212000212C412C512C32019601225D3F4F388FDA
:102130002F8BC601C2969A8F898FF496FC8BEB8BFE
:10214000B301A2012FEF421A520A620A720AEF8902
:10215000F88D80819181A281B381481759076A0760
:102160007B070CF47BC0F60184A995A90E94462F39
:10217000F60197AB86AB892B09F4A4C0F8018081E6
:102180009181A281B38124E4289DF001299DF00D65
:102190001124EA5CFB4FAC01BD014D7F21E030E032
:1021A000452B462B472B11F030E020E033A322A330
:1021B00024E4289DF001299DF00D1124EA5CFB4FD9
:1021C0000197A109B10921E030E00297A105B1050D
:1021D00010F030E020E035A324A3D701A45ABB4F70
:1021E000F801349684E001900D928A95E1F784E439
:1021F000889DF001899DF00D1124EA5CFB4F868DCE
:10220000978DA0A1B1A1B7FF58C0B095A0959095AA
:1022100081959F4FAF4FBF4F82AF93AFA4AFB5AF84
:10222000168E178E10A211A280E06A960FB6F8944F
:10223000DEBF0FBECDBFDF91CF911F910F91FF90F9
:10224000EF90DF90CF90BF90AF909F908F907F9056
:102250006F905F904F903F902F900895E98DFA8D89
:10226000808191819C01220D331D3A8B298B80E165
:10227000F801DE01119601900D928A95E1F7005F59
:102280001F4F49895A89BE016F5F7F4FED89FE89D3
:1022900084819581A5DAEB89FC8980819181E98926
:1022A000FA8922813381820F931FEB89FC89918304
:1022B0008083F4E02F0E311C43CF12AE13AE14AE68
:1022C00015AEB2CFC501B40120DA81E0AECFCF9216
:1022D000DF92EF92FF92CF93DF931092BE0424E43B
:1022E000269FF001279FF00D1124EA5CFB4F15A6F5
:1022F00014A630E020E0D12CC12CDF011A96C1E0F9
:10230000D0E0C416D506F4F024E4269FF001279F00
:10231000F00D1124EA5CFB4F13A612A611AE10AE0D
:10232000DF01DE961D921D921D921C92139782E092
:1023300090E0938B828BDF91CF91FF90EF90DF90B5
:10234000CF900895ED91FC911197E20FF31FE28079
:10235000F3801E141F0454F4E480F580F782E682B3
:10236000F186E08613861286D183C083EFEFCE1A02
:10237000DE0A225F3F4FC5CF24E4269FF001279F4E
:10238000F00D1124EA5CFB4F138A128A4CCB24E433
:10239000269FF001279FF00D1124EA5CFB4F8289F4
:1023A000938981309105C8F08530910518F0059723
:1023B00069F008958FEF9FEFDC01828F938FA48FD8
:1023C000B58F85E090E0938B828B08958FEF9FEF20
:1023D000DC01828F938FA48FB58F089524E4249F0E
:1023E000D001259FB00D1124AA5CBB4F2EE0AC019B
:1023F000249FC001259F900D11241A96ED91FC9108
:10240000E80FF91F81E08093BE0482859385918750
:102410008087408551852681378181E090E0421791
:10242000530711F090E080E09183808308952F920C
:102430003F924F925F926F927F928F929F92AF9254
:10244000BF92CF92DF92EF92FF920F931F93CF93A1
:10245000DF93CDB7DEB7C055D1090FB6F894DEBF14
:102460000FBECDBF9EAF8DAF4BA75CA76DA77EA75C
:102470006801790184E4809FF001819FF00D1124AF
:10248000EA5CFB4F2285338523963FAF2EAF23971F
:1024900082899389029761F486A597A5A0A9B1A91D
:1024A000892B8A2B8B2BC9F584E090E0938B828B50
:1024B00084E48C9DF0018D9DF00D1124EA5CFB4FAE
:1024C000828993898230910509F037C282AD93AD3C
:1024D000A4ADB5AD22242394312C181619061A0682
:1024E0001B060CF42FC2C05BDF4F0FB6F894DEBFA3
:1024F0000FBECDBFDF91CF911F910F91FF90EF9055
:10250000DF90CF90BF90AF909F908F907F906F9013
:102510005F904F903F902F900895848995894DAD9D
:102520005EAD8417950721F606A917A918AE1FAA54
:102530001BAA1CAA1DAA1EAA1F01CF018E962796B0
:102540009FAF8EAF2797DF01D2962996BFAFAEAF70
:102550002997F8962B96FFAFEEAF2B9791012A5D46
:102560003F4F2D963FAF2EAF2D97A1014E5D5F4F90
:102570002F965FAF4EAF2F970A9761969FAF8EAFA2
:1025800061972796EEADFFAD279780819181A2815B
:10259000B3812BA93CA94DA95EA9281739074A0781
:1025A0005B0744F081E090E0D101D9969C938E9333
:1025B000D8977ECF2996AEADBFAD2997ED91FC910E
:1025C0002FA938ADE20FF31F428153815AAF49AFB3
:1025D00050815FAF818121968FAF21972B96AEAD51
:1025E000BFAD2B978D919C91892B21F12D96EEAD4E
:1025F000FFAD2D9780809180A280B3801AAB09AB8C
:102600005FA72196FFAD2197F8AB29AD3AAD36957E
:1026100027953695279525963FAF2EAF25971CAE6B
:102620001BAE2596AEADBFAD2597EBADFCADEA1761
:10263000FB070CF149AD5AAD6FAD21967FAD2197E7
:10264000C8010E946B3089AD9AAD8C7F080F191FAD
:102650002BA93CA94DA95EA92F5F3F4F4F4F5F4F5C
:102660002BAB3CAB4DAB5EAB4FA958AD4C5F5F4F56
:1026700058AF4FAB86CF2F96AEADBFAD2F978D9194
:102680009C91892B71F1EFA5F8A94080518062805F
:102690007380A3019201C501B4010E94862518161A
:1026A00064F0A9A9BAA92D913D914D915C91C50104
:1026B000B4010E940E271816BCF1A3019201C501B6
:1026C000B4010E94862587FF0CC0E9A9FAA92081E0
:1026D000318142815381C501B4010E94862588233E
:1026E00019F16196AEADBFAD61978D919C91892B2B
:1026F00009F445C0EFA5F8A940805180628073803D
:10270000A3019201C501B4010E940E2718161CF501
:10271000A9A9BAA92D913D914D915C91C501B40132
:102720000E94862518165CF184E48C9DF0018D9D35
:10273000F00D1124EA5CFB4F868D978DA0A1B1A10D
:10274000892B8A2B8B2B69F183E090E0938B828B12
:1027500081E090E02CC0A3019201C501B4010E9468
:10276000862581110CC0E9A9FAA920813181428115
:102770005381C501B4010E94862587FDD5CF2BADBD
:102780003CAD2F5F3F4F3CAF2BAF49A95AA94C5FDF
:102790005F4F5AAB49AB8FA598A9049698AB8FA70A
:1027A00040CF84E090E0938B828B86AD97AD93A76A
:1027B00082A77ECEEBADFCAD80819181F401EE0F5E
:1027C000FF1FEE0FFF1FE80FF91FA081B1818C9151
:1027D00081110AC0FFEF8F1A9F0AAF0ABF0A8DA2AC
:1027E0009EA2AFA2B8A68FC18330A1F30280F3816D
:1027F000E02D2FA938ADE20FF31F808191819AABB4
:1028000089AB892B39F34F5F5F4F6F4F7F4F4987FC
:102810005A876B877C879E01235E3F4FAE01475DE1
:102820005F4F64E070E0C8010E94180B8111D0C1B5
:102830008D819E81AF81B8850496A11DB11D8D83C8
:102840009E83AF83B8874D8D5E8DBE016B5D7F4FDC
:102850008F8D98A10E946B308BA19CA1009761F095
:102860006D8D7E8DA5E2B0E0AC0FBD1F6A0F7B1FA2
:1028700049A15AA10E946B301CAA1BAA412C512CC1
:102880003201E9A9FAA980819181A281B381481618
:1028900059066A067B060CF09DCFE9A9FAA9848146
:1028A00095812BA93CA9280F391F38AB2FA7D90137
:1028B00012966D917C919E01235E3F4FAE01475D64
:1028C0005F4FC8010E94180B811182C1EFA5F8A9C2
:1028D00082819381092E000CAA0BBB0B4D815E8176
:1028E0006F817885840F951FA61FB71F8D839E83E8
:1028F000AF83B887608171814D8D5E8D8F8D98A17A
:102900000E946B308BA19CA1009761F0AFA5B8A984
:102910006D917C912D8D3E8D620F731F49A15AA13F
:102920000E946B30BFEF4B1A5B0A6B0A7B0AEBA964
:10293000FCA93496FCABEBABA4CF312C212C049733
:1029400009F0D1CD8EE0EDADFEAD8E9F80018F9F61
:10295000100D112423962EAD3FAD2397020F131FA8
:10296000D80112964D915C9113974115510509F4C8
:10297000BACD16968D919C919AA789A780E1FE0108
:102980003196DF011D928A95E9F7C98ADA8AEB8AC6
:10299000FC8A2114310409F458C084E48C9DF001B0
:1029A0008D9DF00D1124EA5CFB4FDF01DE968D90CA
:1029B0009D90AD90BC9082AD93ADA4ADB5AD8816A1
:1029C0009906AA06BB0609F040C0F80184819581EA
:1029D0000084F185E02D349624E0DE0155960190C7
:1029E0000D922A95E1F72D893E89285F3F4F3E8B56
:1029F0002D8BD80118966D917C911997260F371F52
:102A000019963C932E93189718962D913C911997EF
:102A1000480F591F241B350B37FD06C0820F931F2B
:102A200019969C938E93189784E48C9DF0018D9D4C
:102A3000F00D1124EC58FB4FB1E08B1A9108A1085E
:102A4000B10880829182A282B3829E012B5E3F4FA9
:102A5000AE01475D5F4F64E170E0C8010E94180B52
:102A60008111B6C08CE090E0A0E0B0E08D839E8341
:102A7000AF83B8879E01235E3F4FAE01475D5F4F36
:102A800064E070E0C8010E94180B8111A1C080E1D0
:102A900090E0A0E0B0E08D839E83AF83B8874D8D3A
:102AA0005E8DBE01655D7F4F8F8D98A10E946B305A
:102AB0008BA19CA1009761F06D8D7E8DEBE2F0E023
:102AC000EC0FFD1F6E0F7F1F49A15AA10E946B30B2
:102AD0001DA21EA21FA218A62DAD3EAD220F331FB0
:102AE00038AF2FAB24E42C9DC0012D9D900D1124F7
:102AF0008A5C9B4FAC014C5F5F4F5AAF49AFDC0122
:102B00001896BCAFABAF8DA09EA0AFA0B8A449856E
:102B10005A856B857C85E9ADFAAD80819181A28172
:102B2000B38188169906AA06BB060CF443CE452B42
:102B3000462B472B09F4D7CC8AE190E0A0E0B0E027
:102B400089839A83AB83BC832DAD3EADC901330F1E
:102B5000AA0BBB0B8D879E87AF87B88B4D895E898B
:102B6000BE016F5F7F4F8F89988D0E946B308B8D78
:102B70009C8D009761F06D897E8941E050E04C0F9B
:102B80005D1F640F751F498D5A8D0E946B3089A59A
:102B90009AA5D80117969C938E93169711961C921E
:102BA0001E92232809F49FCC84E48C9DF0018D9D16
:102BB000F00D1124EC58FB4F80819181A281B381EB
:102BC0000196A11DB11D80839183A283B3838BCC19
:102BD000232809F088CC84E48C9DF0018D9DF00DB4
:102BE0001124EA5CFB4F81E090E095A784A785E083
:102BF00090E0938B828B77CCCF92DF92EF92FF9213
:102C00000F931F9324E4269FF001279FF00D1124BA
:102C1000EA5CFB4F228933892115310509F452C042
:102C20006B017C0121303105B1F482A593A59C0193
:102C30002F5F3F4F33A722A7092E000CAA0BBB0B17
:102C4000028D138D248D358D80179107A207B30750
:102C5000C9F5C7013CDB84E48C9DF0018D9DF00D2E
:102C60001124EA5CFB4F82899389039759F582A569
:102C700093A59C012F5F3F4F33A722A7092E000C7D
:102C8000AA0BBB0B468D578D60A171A184179507C8
:102C9000A607B707BCF086AD97AD93A782A784E0DF
:102CA00090E0938B828B82AD93ADA4ADB5AD181639
:102CB00019061A061B0634F4EE5BFF4F81E090E024
:102CC000918380831F910F91FF90EF90DF90CF90C1
:102CD000089524E4269FF001279FF00D1124EA5C5B
:102CE000FB4F828993890497B1F482A593A501963D
:102CF00093A782A7092E000CAA0BBB0B4689578904
:102D0000608D718D84179507A607B70721F485E0BC
:102D100090E0938B828B08952F923F924F925F9217
:102D20006F927F928F929F92AF92BF92CF92DF92DB
:102D3000EF92FF920F931F93CF93DF93CDB7DEB740
:102D40002E970FB6F894DEBF0FBECDBFDC014983CE
:102D50005A836B837C83290184E4849FF001859FDF
:102D6000F00D1124EA5CFB4F22883388C1010497DF
:102D7000029708F0D5C011961C921E9213961C92D1
:102D80001E92129715861486912C812C90E080E07B
:102D90008F019F01205F3F4F38872F833F013CE029
:102DA000630E711CBF01625F7F4F7A8769873A9615
:102DB000FC87EB87EF81F88520813181F301408129
:102DC0005181E985FA85A080B180841595050CF4C0
:102DD00045C011965C934E9313963C932E93129795
:102DE0001596BC92AE921497452BF9F4F5E02F1688
:102DF0003104D9F41092BE04F801828D938DA48D14
:102E0000B58DAE014F5F5F4F64E070E08F3F9F4F25
:102E1000AF4FBF4F09F079C080E290E0FDD46981E7
:102E20007A818B819C81A201A7DA2E960FB6F89445
:102E3000DEBF0FBECDBFDF91CF911F910F91FF90ED
:102E4000EF90DF90CF90BF90AF909F908F907F904A
:102E50006F905F904F903F902F900895EB85FC8589
:102E600060817181FB01E80DF91DFE87ED876081AE
:102E70007181672B89F5E084F184628173817E839F
:102E80006D83668177816A01E3E0CC0CDD1CEA95F5
:102E9000E1F72C0D3D1D440F551F4A0D5B1DFA0136
:102EA00091838083F301408151814F5F5F4F518354
:102EB0004083F901F382E282ED85FE8573876287A4
:102EC000E616F70670F46E197F09F90171836083C5
:102ED00015821482178216820196FEE08F0E911CD5
:102EE00069CFED85FE85C480D5804D815E814C0D16
:102EF0005D1D4E195F09F901518340836C197D09ED
:102F000075836483D782C682E7CF8FE190E084D453
:102F1000F80113A612A681E090E0938B828B85CFF7
:102F20001586148611961C921E9213961C921E9260
:102F300012977BCFEF92FF920F931F93CF93DF9364
:102F40007C018B01EA0144D581111BC08091CB0229
:102F50009091CC020497F9F4DF91CF911F910F91DA
:102F6000FF90EF90089528ED38EB45E050E060E0E9
:102F700070E0CB01E3D7AE01B801C701EDD7C801BE
:102F8000B6D78091BF049091C004892BF9F688814F
:102F9000882349F3DBCF83E090E09093CC028093C9
:102FA000CB02DACFCF93DF932091CB023091CC02CA
:102FB0002430310531F0EB01CFD7CE01DF91CF9135
:102FC00096C7DF91CF9108950C94AA230C949F2368
:102FD0000C948D239CC70C943123089570E060E01D
:102FE00090E080E0D0C40895AF92BF92CF92DF927C
:102FF000EF92FF920F931F93CF93DF931F921F9235
:10300000CDB7DEB75C018B0169017A0190E080E009
:10301000C114D104E104F10469F40F900F90DF9121
:10302000CF911F910F91FF90EF90DF90CF90BF90C5
:10303000AF9008959C2D8D2DC114D10421E0E2069E
:10304000F10410F09FEF8FEF9E012F5F3F4F492F4C
:10305000582FB801C5010E9433248F3F9807E9F229
:1030600029813A81C21AD30AE108F108020F131F1D
:10307000CFCF40E855E260E070E090E080E000C033
:103080008130910579F01CF4892B39F00895823054
:10309000910561F0039771F0089526E08EEF94E0BA
:1030A0000C94522926E08BE995E0FACF26E088E3DC
:1030B00096E0F6CF26E085ED96E0F2CF0895CF9228
:1030C000DF92EF92FF920F931F930E94CB276093A2
:1030D000C1047093C2048093C3049093C40400910C
:1030E000C5041091C6042091C7043091C8046B0137
:1030F0007C01C01AD10AE20AF30A97018601003165
:1031000017422105310518F16093C5047093C60478
:103110008093C7049093C8040E946C240E94CB271C
:103120000091C5041091C6042091C7043091C804D1
:10313000601B710B820B930B603177428105910507
:1031400070F081E090E09093F4048093F30481E0C8
:103150001F910F91FF90EF90DF90CF900895109204
:10316000F4041092F304F3CF8F929F92AF92BF9228
:10317000CF92DF92EF92FF920F931F93CF93DF9343
:103180005C017B018A01C1E0D0E0CE15DF05CCF007
:1031900081E0F5018083B801C7010E94D423F501C5
:1031A0009283818390E080E0DF91CF911F910F9116
:1031B000FF90EF90DF90CF90BF90AF909F908F9057
:1031C00008956E018FEFC81AD80AFE01EE0FFF1F97
:1031D000E00FF11F808091808114910469F066E610
:1031E00073E0C4010E947B30892B41F4CC0FDD1FBA
:1031F000C00FD11F19821882E601C7CF69E673E0BC
:10320000C4010E947B30892BB9F7EC14FD04A1F3B3
:103210006E01E2E0CE0ED11CCC0FDD1FC00FD11F1E
:10322000198218821B821A82E7CF89EC94E00895F4
:1032300080E008950F931F93CF93DF938B01BA0122
:10324000E901198218829801012E000C440B550BDC
:10325000FC0181819281C8DE019641F019830883C7
:1032600080E0DF91CF911F910F91089581E0F9CF18
:103270000F931F93CF93DF931F921F92CDB7DEB7AB
:10328000FB018A01B9019E012F5F3F4FAF01FC0195
:10329000818192810E94E823019669F089819A8157
:1032A000F8019183808380E00F900F90DF91CF91A0
:1032B0001F910F91089581E0F7CFFC01808108955F
:1032C0000895089581E0FB01808380E008950895CA
:1032D0001092F1040895FC01818192810C94CC2319
:1032E000CF93DF9300D000D000D01F92CDB7DEB7D0
:1032F000B0E0A0E089839A83AB83BC83CB01770FD6
:10330000AA0BBB0B8D839E83AF83B8879E01275F7B
:103310003F4FAE014F5F5F4F68E070E08091E00487
:103320009091E10487DF811110C081E029853A8501
:103330002830310509F480E02A960FB6F894DEBFF4
:103340000FBECDBFDF91CF91089581E0F5CF0F93F0
:103350001F93CF93DF931F921F92CDB7DEB78B01E0
:103360009E012F5F3F4FAC018091E0049091E104FA
:1033700061DF81110EC081E029813A812017310778
:1033800009F480E00F900F90DF91CF911F910F9182
:10339000089581E0F7CFCF93DF93EC011092E4041E
:1033A0001092E3041092F0041092EF04AC0160E07C
:1033B00070E0CB010E94BC11AE0161E070E080E0E2
:1033C00090E00E94BC118091E0049091E104DF91B3
:1033D000CF917DCF4F925F926F927F928F929F920B
:1033E000AF92BF92CF92DF92EF92FF920F931F9313
:1033F000CF93DF931F921F92CDB7DEB78C017C0174
:1034000097FF03C087E0E80EF11C23E0F594E794F2
:103410002A95E1F7C80168E070E00E947D2E6C01FA
:103420000E5F1F4F8091DE049091DF04801791079B
:10343000D4F48091DC049091DD04009731F00E9477
:10344000E22F1092DF041092DE04C8010E94462F82
:103450009093DD048093DC04892B09F482C01093DF
:10346000DF040093DE0410E000E047C1412C512C42
:103470003201B12CA12C95012B513B4FAE014F5F76
:103480005F4F61E070E08091E0049091E104F0DE34
:10349000811149C0EFEF4E1A5E0A6E0A7E0AF0E90A
:1034A0004F16FFE55F06F1E06F06710444F060918E
:1034B000EF047091F0048DEE90E012DFD7CF898198
:1034C0009A81A80EB91E8AE0A816B10409F043C07B
:1034D00049E050E070E060E085EE94E00E945E24F8
:1034E0006091EF047091F004882391F18091ED04D4
:1034F00090E08617970781F4BC018EEE90E0F0DE35
:103500008091EF049091F004019699279093F00434
:103510008093EF040F5F1F4F0E151F050CF4A6CF0D
:10352000CD2809F07CC090E080E00F900F90DF91F3
:10353000CF911F910F91FF90EF90DF90CF90BF90B0
:10354000AF909F908F907F906F905F904F90089575
:103550008FEE90E0B2CFEAE0AE16B1040CF48BCF60
:10356000DBCF10E000E0D8CF0A30110531F549E09B
:1035700050E070E060E085EE94E00E945E2460918F
:10358000EF047091F0048823A9F08091ED0490E09D
:103590008617970741F6BC018EEE90E0A1DE809180
:1035A000EF049091F004019699279093F004809392
:1035B000EF04B9CF8FEE90E02BC00A3011050CF06C
:1035C000B2CF98012B513B4FAE014F5F5F4F61E08F
:1035D00070E08091E0049091E1044ADE8111A3CF74
:1035E00089819A81080F191FFFEFCF1ADF0AEF0AAE
:1035F000FF0A80E9C8168FE5D80681E0E806F104E5
:103600000CF4B2CF6091EF047091F0048DEE90E075
:1036100067DE10E000E0C12CD12C7601D2CFC12CA6
:10362000D12C760110E000E0CCCF412C512C32019E
:10363000B12CA12C480193E0880C991C9A95E1F7D4
:103640002091DC043091DD04C501880D991D280FFF
:10365000391FAE014F5F5F4F61E070E08091E00481
:103660009091E10405DE81115ECFEFEF4E1A5E0A04
:103670006E0A7E0A6091EF047091F0048DEE90E086
:10368000F0E94F16FFE55F06F1E06F0671040CF0FC
:1036900043C089819A81A80EB91E8AE0A816B10498
:1036A00009F041C049E050E0B4018091DC04909100
:1036B000DD040E945E246091EF047091F004882381
:1036C00049F18091DC049091DD04880E991EF4018B
:1036D000808590E08617970781F4BC018EEE90E01C
:1036E000FFDD8091EF049091F0040196992790936B
:1036F000F0048093EF040F5F1F4F0E151F050CF4AD
:1037000094CFC114D10409F081C08091DC04909160
:10371000DD040BCF8FEE90E0E3DD412C512C320124
:10372000B12CA12C8DCFFAE0AF16B1040CF488CFE8
:10373000E4CF8FEE90E0D4DDF12CE12C812C912CA4
:10374000540197012B513B4FAE014F5F5F4F61E03A
:1037500070E08091E0049091E1048ADD8111E3CE74
:103760008FEF881A980AA80AB80A6091EF0470913E
:10377000F0048DEE90E0E0E98E16EFE59E06E1E0C4
:10378000AE06B104C4F689819A81E80EF91EFAE00A
:10379000EF16F104A9F549E050E070E060E085EE35
:1037A00094E00E945E246091EF047091F0048823FD
:1037B00009F4BFCF8091ED0490E08617970709F0D8
:1037C000A4CFBC018EEE90E08BDD83E0000F111FD3
:1037D0008A95E1F78091DC049091DD04A60165EE05
:1037E00074E0800F911F0E946B308091EF049091E4
:1037F000F004019699279093F0048093EF0485CF0D
:103800008AE0E816F1040CF49CCF7FCF812C912C38
:103810005401F12CE12C95CFCF92DF92EF92FF92E1
:103820000F931F93CF93DF931F92CDB7DEB76C0139
:103830007B018A01452B39F0AB0170E060E0C801E3
:103840000E945A248983B701C6014ADD81110DC047
:103850000115110551F0B701C80179DD811105C0CD
:1038600061E070E0CE01019672DD0F90DF91CF91A3
:103870001F910F91FF90EF90DF90CF900895CF921E
:10388000DF92EF92FF92CF93DF9300D000D01F9290
:103890001F92CDB7DEB76B01F12CE12CC982DA8221
:1038A000EB82FC822D833E834F835887AE014F5FAE
:1038B0005F4F68E070E0B0DF28960FB6F894DEBF87
:1038C0000FBECDBFDF91CF91FF90EF90DF90CF90F3
:1038D00008958F929F92AF92BF92CF92DF92EF9214
:1038E000FF920F931F93CF93DF937C01EB01CA01EB
:1038F000690170DD0097B1F42FEF3FEFA90161E09E
:1039000070E0C701BCDFC1E08C2FDF91CF911F9128
:103910000F91FF90EF90DF90CF90BF90AF909F906E
:103920008F900895FC0181909190A190B190BF017A
:10393000FCE1EF16F10479F4A5019401CE010E9497
:103940002210C82FA5019401882369F061E070E07E
:10395000C70195DFD9CF95018401AB01B601CE0136
:103960000E94250EEECF70E060E0C701DF91CF919D
:103970001F910F91FF90EF90DF90CF90BF90AF908D
:103980009F908F907CCF0F931F93CF93DF93EC0189
:103990008B014BDC9093E1048093E0040097A9F045
:1039A000A801BE01E1DBEC01892B49F08091E00424
:1039B0009091E10485DC1092E1041092E004CE01C4
:1039C000DF91CF911F910F910895C5E7D3E0EECF1E
:1039D0008091E0049091E10470CC2F923F924F923D
:1039E0005F926F927F928F929F92AF92BF92CF928F
:1039F000DF92EF92FF920F931F93CF93DF93CDB798
:103A0000DEB769970FB6F894DEBF0FBECDBF209129
:103A1000E4042223F1F05B8B4A8B6E877F87888BCF
:103A2000998B9A01AB01BC01CE0101967C0174D93E
:103A300010E048E0242E312CE88EF98E89819A819D
:103A4000181619060CF450C2112319F08A899B89A3
:103A5000A2DC69960FB6F894DEBF0FBECDBFDF9132
:103A6000CF911F910F91FF90EF90DF90CF90BF907B
:103A7000AF909F908F907F906F905F904F903F900E
:103A80002F900895EB81FC818C859D8533E0880F14
:103A9000991F3A95E1F7E80FF91F80819181909382
:103AA000DB048093DA042481358142815381509371
:103AB000D9044093D804468157815093D70440934A
:103AC000D604820F931F9C01990F440B550B2C8B2E
:103AD0003D8B4E8B5F8B812C912C54018C899D8961
:103AE000AE89BF8988169906AA06BB0638F18C856F
:103AF0009D85880F991FED81FE81E80FF91F4E8586
:103B00005F8568897989808191810E94EE11AC85F9
:103B1000BD851196BD87AC8789819A81EC85FD852D
:103B2000E817F9070CF4AECF2A893B894E855F85EB
:103B300068897989888D998DEFD880CF1F826091AF
:103B4000DA047091DB04CB01072E000CAA0BBB0B2F
:103B500084017501640134E0C30ED11CE11CF11C29
:103B6000C816D906EA06FB0608F0B3C02091D804AF
:103B70003091D904A4014C5F5F4F240F351FF90128
:103B8000C080D12CF12CE12C24013501F5E04F0E41
:103B9000511C611C711C481659066A067B0608F008
:103BA000A3C02091D8043091D904F8013596E20FD2
:103BB000F31F2081D22A2401350126E0420E511C38
:103BC000611C711C481659066A067B0608F097C0EE
:103BD0002091D8043091D904F8013696E20FF31FF2
:103BE0002081E22A2401350137E0430E511C611C7B
:103BF000711C481659066A067B0608F08BC0209196
:103C0000D8043091D904F8013796E20FF31F2081D0
:103C100026013701722A7501640148E0C40ED11CE7
:103C2000E11CF11C8C159D05AE05BF0508F41DC1F6
:103C300088169906AA06BB0608F077C08091D804BA
:103C40009091D904800F911F68E070E080DBE091D3
:103C5000DA04F091DB049F010F2E000C440B550B8E
:103C6000D301C2018C0D9D1DAE1DBF1D2817390744
:103C70004A075B0708F478C0C216D306E406F506C7
:103C800008F05DC08091D8049091D9049801285F14
:103C90003F4F820F931FB2015ADB8091DA0490915B
:103CA000DB04AC01092E000C660B770BC416D5069D
:103CB000E606F70608F04DC0085F1F4F8091D80454
:103CC0009091D904800F911FA20170E060E0F2D5BD
:103CD000A7C044E050E0461B570B480D591D2091EA
:103CE000D6043091D70449CFE5E0F0E0E61BF70BAE
:103CF000E00FF11F2091D6043091D70458CFE6E0B1
:103D0000F0E0E61BF70BE00FF11F2091D604309195
:103D1000D70464CFE7E0F0E0E61BF70BE00FF11FFC
:103D20002091D6043091D70470CF9801261B370B11
:103D30008091D6049091D704820F931F85CF910173
:103D40002E1B3F0B200F311F8091D6049091D7047A
:103D5000A0CFD101A81BB90BCD01080F191F80916D
:103D6000D6049091D704AECFBF0168507109601B93
:103D7000710BC216D306E406F50608F062C0809106
:103D8000D8049091D9049801285F3F4F820F931F68
:103D9000DEDA8091DA049091DB04B101681B790BC3
:103DA000600F711F640D751D8091D6049091D7042A
:103DB000CEDA8091DA049091DB04AC0148505109CD
:103DC000FA01E01BF10BAC01092E000C660B770B1E
:103DD000C416D506E606F70608F03DC08091D80463
:103DE0009091D9049801285F3F4F820F931FAF0134
:103DF00070E060E05FD58F832091DA043091DB04BE
:103E0000F101E21BF30B9F01200F311F240D351D23
:103E100050E040E0682F8091D6049091D70436D5C9
:103E20008F8361E070E0CE01079691DA182F38E0B9
:103E3000430E511C611C711C840C951CA61CB71CE4
:103E40004DCE91012E1B3F0B200F311F8091D604C8
:103E50009091D7049BCF9101281B390B200F311F64
:103E60008091D6049091D704C0CF88169906AA06EF
:103E7000BB0668F5601B710B8091D8049091D90442
:103E8000800F911F64DA8091DA049091DB04B10114
:103E9000681B790B600F711F640D751D8091D6042E
:103EA0009091D70454DA8091DA049091DB04AC014C
:103EB000092E000C660B770BC416D506E606F7062E
:103EC00008F4FACE9101281B390BC90146CFC8016D
:103ED000861B970B2091D6043091D704B201685FFE
:103EE0007F4F820F931FDECF1D861C8615CECF938A
:103EF000DF93EC01AC0160E070E0CB016EDDAE0160
:103F000061E070E080E090E0DF91CF9166CDCF93EB
:103F10008091E0049091E1048BD9C82F81110BC0EE
:103F200060E070E0CB010E94E70C61E070E080E0AF
:103F300090E00E94E70C8C2FCF9108950F931F9370
:103F400089019A01AB01BC018091E0049091E104E8
:103F5000B8D91F910F9108954F925F926F927F92FF
:103F60008F929F92AF92BF92CF92DF92EF92FF9289
:103F70000F931F93CF93DF93CDB7DEB763970FB641
:103F8000F894DEBF0FBECDBF6C018B015A0180914A
:103F9000E404882309F43DC08091E404882309F4F3
:103FA00042C08091E3041A821982882309F4C0C0B8
:103FB000F0E94F2EFFE55F2E66246394712CF12CFF
:103FC000E12C970124533B4FAE014F5F5F4F61E0FF
:103FD00070E08091E0049091E1044AD9982E81111B
:103FE00069C089819A81E80EF91EE114F10409F48F
:103FF00061C081E0481A51086108710859F5609163
:10400000EF047091F0048DEE90E06AD91A82198263
:1040100051C064EE74E08091E0049091E10452D9C3
:10402000882309F4B9CF63960FB6F894DEBF0FBEAC
:10403000CDBFDF91CF911F910F91FF90EF90DF9057
:10404000CF90BF90AF909F908F907F906F905F9038
:104050004F900895AAE0EA16F10409F063C049E020
:1040600050E070E060E08CEC94E028D46091EF04C4
:104070007091F004882309F452C08091D40490E038
:104080008617970719F6BC018EEE90E029D988E0D3
:10409000ECECF4E0DE01199601900D928A95E1F7BF
:1040A0008091EF049091F004019699279093F00489
:1040B0008093EF0481E029813A81121613060CF0F7
:1040C00080E09110CAC2882309F4ADCF8091E30447
:1040D000811104C019861A861B861C8689859A85DB
:1040E000AB85BC8580319105A105B10508F09BCF5A
:1040F000FC018827E158FF4D8F4F0C94B22EFF2012
:10410000BE222D23132003223622EF20F720D320B6
:10411000122301230E23132013201320BE208FEE21
:1041200090E073CFBAE0EB16F1040CF44ACFC2CFA3
:10413000F12CE12CE8E06E2E712C29E030E02C0F00
:104140003D1F2E0D3F1DAE014F5F5F4FB3016E1936
:104150007F098091E0049091E1048AD8982E29810A
:104160003A81811109C0E20EF31EE114F10421F03D
:10417000E8E0EE16F1040CF381E09FCFD60116962D
:10418000ED91FC9180819181A281B38189839A8391
:10419000AB83BC83AE014F5F5F4F64E070E085E1AD
:1041A00090E03ADB40CF8D859E8514D92FEF3FEF0D
:1041B000A90161E070E0009771F0FC01C080D1803E
:1041C000E280F380A801C701B6010E946711A70130
:1041D000960170E060E08DE190E051DB24CF4D85E9
:1041E0005E859801B6018BE190E073DB1CCF4D85B5
:1041F0005E852FEF3FEFB6018CE190E0F6CFD60160
:104200001496ED91FC9100811181F80182809380D8
:10421000A080B18070E1472E512C612C712C498215
:104220005A826B827C8288E090E0A0E0B0E08D83CF
:104230009E83AF83B8879E012F5E3F4FAE014F5FD5
:104240005F4F68E070E08091E0049091E1040E948B
:104250001A198823D9F010E000E0C80163960FB660
:10426000F894DEBF0FBECDBFDF91CF911F910F91AC
:10427000FF90EF90DF90CF90BF90AF909F908F9086
:104280007F906F905F904F900C94E22F89899A896C
:10429000089709F7D801ED90FC90B8E0EB0EF11CFF
:1042A000EE0CFF1CEE0CFF1CC7010E94462F8C0178
:1042B000892B89F249825A826B827C82C7010F2C3A
:1042C000000CAA0BBB0B8D839E83AF83B8879E0126
:1042D0002F5E3F4FAE014F5F5F4F68E070E080910F
:1042E000E0049091E1040E941A198111B6CF8989E6
:1042F0009A89089709F0B1CFD6011296ED91FC91F9
:104300004081518162817381D8014D935D936D939A
:104310007C931397448155816681778114964D93E0
:104320005D936D937C931797408551856285738566
:1043300018964D935D936D937C931B97848595851B
:10434000A685B785F80184879587A687B787108AE1
:10435000118A128A138A84E090E0A0E0B0E0848B96
:10436000958BA68BB78B8091CB029091CC02B0E05D
:10437000A0E0808F918FA28FB38FC5010B2C000C12
:10438000AA0BBB0B848F958FA68FB78FF401D80132
:10439000909690E080E08A159B055CF19E012F5E6F
:1043A0003F4FA801B7018091E0049091E1040E9481
:1043B0001A19811152CF89899A89E816F90609F0EC
:1043C0004CCFA70170E060E0C80174D28B8B9E01D6
:1043D0002F5E3F4FAE014D5E5F4F61E070E0809118
:1043E000E0049091E1040E941A1981E08093E304B3
:1043F00034CF4191519170E060E04D935D936D93A6
:104400007D930196C8CF8D859E85AF85B88900972D
:10441000A105B10521F481E08093E20404CE0E945D
:10442000EA19009781F481E090E0A0E0B0E0898390
:104430009A83AB83BC83AE014F5F5F4F64E070E053
:1044400082E190E0AECEBC01C6010E94410C19820F
:104450001A821B821C82AE014F5F5F4F64E070E0E6
:1044600082E190E0D9D98823B1F2DDCDD60114964E
:10447000ED91FC910190F081E02DE084F1848FEFCB
:104480008983E114F10409F472C0D7016D907C9026
:10449000C280D38070E060E090E080E086159705F0
:1044A00094F083E190E00E94701910E000E0811127
:1044B000BACD061517055CF161E070E0CE010196FA
:1044C0000E94A719B0CD9C0143E0220F331F4A95EB
:1044D000E1F7F701A281B381A20FB31F1296ED910C
:1044E000FC911397EE0FFF1FEC0DFD1D0190F08165
:1044F000E02D16964D915C91E49F9001E59F300D63
:10450000F49F300D1124620F731F0196C7CFD7019E
:104510001296ED91FC91C80123E0880F991F2A950E
:10452000E1F7E80FF91FA080B180A281B381AA0F43
:10453000BB1FAC0DBD1D2D913C9186819781289F9D
:104540004001299F900C389F900C1124B401C501A3
:104550000E94A719582E940150E040E06981C501DE
:1045600095D1898351105FCD0F5F1F4FA2CF70E0AF
:1045700060E083E190E00E94701955CD50E040E08A
:1045800070E060E081E190E047D981114CCD60E0BE
:1045900070E0CB010E940C0E8091BE04882329F0AC
:1045A000A80160E070E0CB0118DAA80160E070E0DB
:1045B000CB010E94130D61E070E080E090E00E946A
:1045C0000C0E8091BE04882331F0A80161E070E0F8
:1045D00080E090E002DAA80161E070E080E090E025
:1045E0000E94130D1092E4041092E3041092F00460
:1045F0001092EF048091E0049091E1040E94681908
:1046000012CD81E090E09093C0048093BF0450E00D
:1046100040E070E060E086E190E0C3CD81E0F5012C
:10462000808301CD8D859E850E94EA192FEF3FEF93
:10463000A90161E070E0009769F0DC01CD90DD90A8
:10464000ED90FC90C701B6010E94C711A701960129
:1046500070E060E08EE190E0C0CDC8010E94CB190F
:10466000E2CCCF92DF92EF92FF92CF93DF93EC01F7
:10467000C12CD12C7601C701B6010E940C0EAE01EF
:10468000C701B601AAD9AE01C701B6010E94130D38
:104690008091DC049091DD04009731F00E94E22FBC
:1046A0001092DD041092DC04CA94CD28CE28CF28C5
:1046B00079F58091E304F12C882351F050E040E03B
:1046C00070E060E084E190E0A7D8F82E1092E30457
:1046D0008091E404882341F01092E40481E090E0AA
:1046E0009093CC028093CB028091E0049091E104FE
:1046F0000E946B198091E0049091E1040E9460197E
:104700008F2DDF91CF91FF90EF90DF90CF900895A4
:10471000C12CD12C7601C394AECFCF93DF93EC01A3
:10472000AC0160E070E0CB010E94FC15AE0161E0DD
:1047300070E080E090E0DF91CF910C94FC1560E098
:1047400070E0CB010E94691661E070E080E090E0CB
:104750000C946916CF92DF92EF92FF920F931F9302
:10476000CF93DF93EC016A017B0100E010E0980138
:104770000E94171201E010E020E030E0B701A6012E
:10478000CE010E941712DF91CF911F910F91FF90E0
:10479000EF90DF90CF90089568EE73E080E090E0B6
:1047A0001FD490E080E0089526E040E050E16EE004
:1047B00070E08EEF94E076D58EEF94E0A9D4892B4B
:1047C00021F08EEF94E0BED4F7CF90E080E0089522
:1047D000CF92DF92EF92FF920F931F93CF93DF93CD
:1047E0006B017A01E901198218828EEF94E090D46E
:1047F000892B71F18601CC24C39485E6D82E809153
:10480000F104811111C08EEF94E09CD4853691059E
:10481000B1F7C092F104F801D1928F01888199819A
:10482000019699838883EBCF888199818E159F05A6
:1048300078F48EEF94E086D48F3F9807A9F3F801BF
:1048400081938F0188819981019699838883ECCF28
:1048500090E080E0DF91CF911F910F91FF90EF905A
:10486000DF90CF9008950F931F93CF93DF93EA01CA
:1048700089018EEF94E0A6D7F801D183C08390E040
:1048800080E0DF91CF911F910F910895DC01A40F7B
:10489000B51F420F531F9D01281B390B24173507E5
:1048A00010F0862F0895ED91E627F0E0EC51FF4FD0
:1048B0006491F1CF9A01AB016FEFE8CFCF93FC0188
:1048C000E60FF71FE40FF51FC081F4DF91E0C81376
:1048D00090E0892FCF9108958091F20491E0980F94
:1048E0009093F204882349F021E030E03093F404FF
:1048F0002093F3048093F20408950E94340680917B
:10490000F20481508093F2040C94E617FF920F9307
:104910001F93CF93DF931F92CDB7DEB71092FE07A0
:104920001092FD0793D30E9439180091E202109172
:10493000E302F8011182108270E060E090E080E014
:104940000E94EE170E942009F8947894C801C99635
:104950000E94ED1783E090E00E94EA171982AE01F1
:104960004F5F5F4F63E070E0F801828193810E94A6
:104970009A178981882319F081E0F80185AF0E9498
:10498000F317F8940E945E18F80180819181892BB9
:1049900019F481E095AD911180E08093FD07789442
:1049A000FF24F3948091FD07811110C00E946E0ACC
:1049B00083E090E00E94EB17F89490E080E00F9085
:1049C000DF91CF911F910F91FF9008951982AE0151
:1049D0004F5F5F4F63E070E0F801828193810E9436
:1049E000D2178981882311F0F801F5AEF801808192
:1049F0009181892B89F481E095AD911101C080E00E
:104A00008093FE079091FE0781E0911180E08093F2
:104A1000FD070E945F18C6CF81E0F2CF5058BB2738
:104A2000AA270ED0AAC19BD130F0A0D120F031F43A
:104A30009F3F11F41EF490C10EF4E095E7FB5DC1B9
:104A4000E92FACD180F3BA17620773078407950783
:104A500018F071F49EF5DBC10EF4E0950B2EBA2F21
:104A6000A02D0B01B90190010C01CA01A001112474
:104A7000FF27591B99F0593F50F4503E68F11A1620
:104A8000F040A22F232F342F4427585FF3CF4695B1
:104A900037952795A795F0405395C9F77EF41F16D3
:104AA000BA0B620B730B840BBAF09150A1F0FF0F9D
:104AB000BB1F661F771F881FC2F70EC0BA0F621F89
:104AC000731F841F48F4879577956795B795F79579
:104AD0009E3F08F0B3CF9395880F08F09927EE0F0B
:104AE0009795879508957CD180F09F3740F4911178
:104AF0000EF48EC160E070E080E89FE3089526F038
:104B00001B16611D711D811DFEC018C1D2D008F495
:104B100081E0089504D06894B1117AC1089546D116
:104B200088F09F5790F0B92F9927B751A0F0D1F096
:104B3000660F771F881F991F1AF0BA95C9F712C020
:104B4000B13081F064D1B1E0089561C1672F782F51
:104B50008827B85F39F0B93FCCF38695779567958C
:104B6000B395D9F73EF490958095709561957F4FF8
:104B70008F4F9F4F0895E89409C097FB3EF490959E
:104B80008095709561957F4F8F4F9F4F9923A9F026
:104B9000F92F96E9BB279395F695879577956795B5
:104BA000B795F111F8CFFAF4BB0F11F460FF1BC0F9
:104BB0006F5F7F4F8F4F9F4F16C0882311F096E98C
:104BC00011C0772321F09EE8872F762F05C066233A
:104BD00071F096E8862F70E060E02AF09A95660FF3
:104BE000771F881FDAF7880F9695879597F90895AC
:104BF000F7D080F09F3740F491110EF009C160E0CA
:104C000070E080E89FEB089526F41B16611D711D6E
:104C1000811D79C093C0A3D018F011F0A7D038F44B
:104C20009BC0F6C0E92FBAD0B0F35523C9F3E7FB18
:104C30006217730784079507A8F199F3E92FFF27F7
:104C400088232AF03197660F771F881FDAF7952F90
:104C50005527442332F091505040220F331F441FF8
:104C6000D2F7BB27E91BF50B621B730B840BB10951
:104C7000C1F222F4620F731F841FB11D31972AF015
:104C8000660F771F881FBB1FEFCF915050405AF01F
:104C900041F0882332F0660F771F881F91505040F3
:104CA000C1F793954BC08695779567959F5FD9F728
:104CB000F8CF990F0008550FAA0BE0E8FEEF161683
:104CC0001706E807F907C0F012161306E407F50700
:104CD00098F0621B730B840B950B39F40A2661F074
:104CE000232B242B252B21F408950A2609F4A14017
:104CF000A6958FEF811D811D089597F99F6780E824
:104D000070E060E00895882371F4772321F09850D3
:104D1000872B762F07C0662311F499270DC0905179
:104D2000862B70E060E02AF09A95660F771F881F47
:104D3000DAF7880F9695879597F908959F3F31F098
:104D4000915020F4879577956795B795880F911DB9
:104D50009695879597F908959FEF80EC0895002424
:104D60000A941616170618060906089500240A94D0
:104D700012161306140605060895092E0394000C56
:104D800011F4882352F0BB0F40F4BF2B11F460FFE5
:104D900004C06F5F7F4F8F4F9F4F089557FD90580E
:104DA000440F551F59F05F3F71F04795880F97FBEF
:104DB000991F61F09F3F79F08795089512161306A9
:104DC0001406551FF2CF4695F1DF08C016161706D8
:104DD0001806991FF1CF869571056105089408950D
:104DE000E5DFA0F0BEE7B91788F4BB279F3860F471
:104DF0001616B11D672F782F8827985FF7CF8695F5
:104E000077956795B11D93959639C8F30895E89401
:104E1000BB2766277727CB0197F908954ADF08F467
:104E20008FEF08950BD0A9CF9ADF28F09FDF18F0FD
:104E3000952309F062CF90CF1124EACFAFDFA0F322
:104E4000959FD1F3950F50E0551F629FF001729F1F
:104E5000BB27F00DB11D639FAA27F00DB11DAA1F3E
:104E6000649F6627B00DA11D661F829F2227B00D8B
:104E7000A11D621F739FB00DA11D621F839FA00D16
:104E8000611D221F749F3327A00D611D231F849F66
:104E9000600D211D822F762F6A2F11249F575040BD
:104EA0008AF0E1F088234AF0EE0FFF1FBB1F661F58
:104EB000771F881F91505040A9F79E3F510570F011
:104EC0001CCFA6CF5F3FECF3983EDCF38695779539
:104ED0006795B795F795E7959F5FC1F7FE2B880F0C
:104EE000911D9695879597F908951F920F920FB689
:104EF0000F9211242F933F938F939F93AF93BF9360
:104F00008091F6049091F704A091F804B091F9040F
:104F10003091F50423E0230F2D3758F50196A11D9C
:104F2000B11D2093F5048093F6049093F704A093A9
:104F3000F804B093F9048091FA049091FB04A091D5
:104F4000FC04B091FD040196A11DB11D8093FA04EB
:104F50009093FB04A093FC04B093FD04BF91AF9128
:104F60009F918F913F912F910F900FBE0F901F90A7
:104F7000189526E8230F0296A11DB11DD2CF2FB799
:104F8000F8946091F6047091F7048091F804909180
:104F9000F9042FBF08953FB7F8948091FA049091D7
:104FA000FB04A091FC04B091FD0426B5A89B05C0AC
:104FB0002F3F19F00196A11DB11D3FBFBA2FA92F98
:104FC000982F8827BC01CD01620F711D811D911D95
:104FD00042E0660F771F881F991F4A95D1F7089501
:104FE0008F929F92AF92BF92CF92DF92EF92FF92F9
:104FF0006B017C01D0DF4B015C01C114D104E104E1
:10500000F104D9F065D6C7DF681979098A099B09C7
:10501000683E73408105910580F321E0C21AD108F2
:10502000E108F10888EE880E83E0981EA11CB11CEF
:10503000C114D104E104F10431F7FF90EF90DF9047
:10504000CF90BF90AF909F908F900895789484B543
:10505000826084BD84B5816084BD85B5826085BD74
:1050600085B5816085BDEEE6F0E08081816080835A
:10507000E1E8F0E01082808182608083808181603D
:105080008083E0E8F0E0808181608083E1EBF0E004
:10509000808184608083E0EBF0E0808181608083A8
:1050A000E1E9F0E08081826080838081816080839B
:1050B000E0E9F0E0808181608083E1EAF0E08081D6
:1050C00082608083808181608083E0EAF0E080817B
:1050D00081608083E1E2F1E0808182608083808171
:1050E00081608083E0E2F1E0808181608083EAE793
:1050F000F0E0808184608083808182608083808111
:10510000816080838081806880831092C1000895CF
:10511000FC01918D228D892F90E0805C9F4F821B36
:1051200091098F7399270895FC01918D828D9817AD
:1051300031F0828DE80FF11D858D90E008958FEF9D
:105140009FEF0895FC01918D828D981761F0A28DDB
:10515000AE0FBF2FB11D5D968C91928D9F5F9F7397
:10516000928F90E008958FEF9FEF0895FC01538D8B
:10517000448D252F30E0842F90E0821B930B541731
:1051800010F0CF96089501970895FC01A48DA80F03
:10519000B92FB11DA35ABF4F2C91848D90E0019679
:1051A0008F739927848FA689B7892C93A089B18999
:1051B0008C91837080648C93938D848D981306C03A
:1051C0000288F389E02D80818F7D80830895CF93BD
:1051D000DF93EC01888D8823B1F0AA89BB89E88927
:1051E000F9898C9185FD03C0808186FD0CC00FB6C6
:1051F00007FCF7CF8C9185FFF2CF808185FFEDCF43
:10520000CE01C3DFEACFDF91CF910895EF92FF92F5
:105210000F931F93CF93DF93EC0181E0888F9B8DD9
:105220008C8D98131AC0E889F989808185FF15C093
:105230009FB7F894EE89FF896083E889F9898081B6
:105240008370806480839FBF81E090E0DF91CF9185
:105250001F910F91FF90EF900895F62E0B8D10E0A7
:105260000F5F1F4F0F731127E02E8C8D8E110BC017
:105270000FB607FCFACFE889F989808185FFF5CF61
:10528000CE0183DFF2CFEB8DEC0FFD2FF11DE35A42
:10529000FF4FF0829FB7F8940B8FEA89FB898081DA
:1052A0008062D0CFCF92DF92EF92FF921F93CF9385
:1052B000DF93EC016A017B01122FE889F98982E012
:1052C0008083C11481EED806E104F10499F060E016
:1052D00079E08DE390E0A701960122D521503109B4
:1052E000410951095695479537952795211580E134
:1052F000380790F0E889F989108260E874E88EE157
:1053000090E0A70196010CD52150310941095109BE
:105310005695479537952795EC85FD853083EE8525
:10532000FF852083188EEC89FD891083EA89FB892B
:10533000808180618083EA89FB89808188608083A5
:10534000EA89FB89808180688083EA89FB89808182
:105350008F7D8083DF91CF911F91FF90EF90DF9041
:10536000CF9008951F920F920FB60F9211240BB693
:105370000F922F938F939F93EF93FF93E0910E05DE
:10538000F0910F058081E0911405F091150582FDE3
:105390001DC09081809117058F5F8F732091180534
:1053A000821741F0E0911705F0E0E250FB4F958F36
:1053B00080931705FF91EF919F918F912F910F90FF
:1053C0000BBE0F900FBE0F901F9018958081F2CFEB
:1053D0001F920F920FB60F9211240BB60F922F93BC
:1053E0003F934F935F936F937F938F939F93AF936D
:1053F000BF93EF93FF938EEF94E0C7DEFF91EF91A1
:10540000BF91AF919F918F917F916F915F914F91DC
:105410003F912F910F900BBE0F900FBE0F901F90DA
:105420001895EEEFF4E01382128288EE93E0A0E08C
:10543000B0E084839583A683B78384EB93E0918364
:10544000808385EC90E09587848784EC90E0978753
:10545000868780EC90E0918B808B81EC90E0938B41
:10546000828B82EC90E0958B848B86EC90E0978B1E
:10547000868B118E128E138E148E08951F920F92AA
:105480000FB60F9211240BB60F922F938F939F9309
:10549000EF93FF93E091AB05F091AC058081E09133
:1054A000B105F091B20582FD1DC090818091B405D7
:1054B0008F5F8F732091B505821741F0E091B4059D
:1054C000F0E0E556FA4F958F8093B405FF91EF9188
:1054D0009F918F912F910F900BBE0F900FBE0F9049
:1054E0001F9018958081F2CF1F920F920FB60F92E6
:1054F00011240BB60F922F933F934F935F936F93AB
:105500007F938F939F93AF93BF93EF93FF938BE919
:1055100095E03BDEFF91EF91BF91AF919F918F910D
:105520007F916F915F914F913F912F910F900BBEA3
:105530000F900FBE0F901F901895EBE9F5E01382C6
:10554000128288EE93E0A0E0B0E084839583A68386
:10555000B78384EB93E0918380838DEC90E0958713
:1055600084878CEC90E09787868788EC90E0918B1D
:10557000808B89EC90E0938B828B8AEC90E0958B0A
:10558000848B8EEC90E0978B868B118E128E138E0F
:10559000148E08951F920F920FB60F9211240BB61E
:1055A0000F922F938F939F93EF93FF93E091480671
:1055B000F09149068081E0914E06F0914F0682FD00
:1055C0001DC09081809151068F5F8F73209152068C
:1055D000821741F0E0915106F0E0E85CF94F958FB9
:1055E00080935106FF91EF919F918F912F910F9092
:1055F0000BBE0F900FBE0F901F9018958081F2CFB9
:105600001F920F920FB60F9211240BB60F922F9389
:105610003F934F935F936F937F938F939F93AF933A
:10562000BF93EF93FF9388E396E0AFDDFF91EF9197
:10563000BF91AF919F918F917F916F915F914F91AA
:105640003F912F910F900BBE0F900FBE0F901F90A8
:105650001895E8E3F6E01382128288EE93E0A0E06A
:10566000B0E084839583A683B78384EB93E0918332
:10567000808385ED90E09587848784ED90E097871F
:10568000868780ED90E0918B808B81ED90E0938B0D
:10569000828B82ED90E0958B848B86ED90E0978BEA
:1056A000868B118E128E138E148E08951F920F9278
:1056B0000FB60F9211240BB60F922F938F939F93D7
:1056C000EF93FF93E091E506F091E6068081E0918B
:1056D000EB06F091EC0682FD1DC090818091EE06F4
:1056E0008F5F8F732091EF06821741F0E091EE06F5
:1056F000F0E0EB52F94F958F8093EE06FF91EF911A
:105700009F918F912F910F900BBE0F900FBE0F9016
:105710001F9018958081F2CF1F920F920FB60F92B3
:1057200011240BB60F922F933F934F935F936F9378
:105730007F938F939F93AF93BF93EF93FF9385EDE9
:1057400096E023DDFF91EF91BF91AF919F918F91F3
:105750007F916F915F914F913F912F910F900BBE71
:105760000F900FBE0F901F901895E5EDF6E0138295
:10577000128288EE93E0A0E0B0E084839583A68354
:10578000B78384EB93E09183808385E391E09587F1
:10579000848784E391E09787868780E391E0918B0B
:1057A000808B81E391E0938B828B82E391E0958BF8
:1057B000848B86E391E0978B868B118E128E138EED
:1057C000148E0895AF92BF92CF92DF92EF92FF9224
:1057D0000F931F93CF93DF936C017B018B01040F19
:1057E000151FEB015E01AE18BF08C017D10759F0B5
:1057F0006991D601ED91FC910190F081E02DC601F7
:105800001995892B79F7C501DF91CF911F910F91E0
:10581000FF90EF90DF90CF90BF90AF900895FB0185
:1058200001900020E9F73197AF01461B570BDC01CF
:10583000ED91FC910280F381E02D199461157105C1
:1058400009F0EDCF90E080E00895DC01ED91FC914E
:105850000190F081E02D199462EC73E0E0CF8F921B
:105860009F92AF92BF92EF92FF920F931F93CF93AD
:10587000DF93CDB7DEB7A1970FB6F894DEBF0FBEAA
:10588000CDBF7C01FA01CB0119A2223008F42AE035
:105890008E010F5D1F4F822E912CB12CA12CBF01C8
:1058A000A50194013DD2F901CA016A3004F5605D99
:1058B000D8016E938D01232B242B252B81F790E0AB
:1058C00080E0109719F0BD01C701A9DFA1960FB6BE
:1058D000F894DEBF0FBECDBFDF91CF911F910F9126
:1058E000FF90EF90BF90AF909F908F900895695C6C
:1058F000DFCFCF92DF92EF92FF920F931F93CF9360
:10590000DF932115310581F4DC01ED91FC910190CB
:10591000F081E02D642FDF91CF911F910F91FF90C7
:10592000EF90DF90CF9019942A303105F1F42AE0FE
:1059300077FF1BC06A017B01EC016DE286DF8C0101
:1059400044275527BA014C195D096E097F092AE0E1
:10595000CE0185DF800F911FDF91CF911F910F91B5
:10596000FF90EF90DF90CF900895DF91CF911F913E
:105970000F91FF90EF90DF90CF9071CF9A01AB0124
:10598000770F660B770BB5CF0F931F93CF93DF93F2
:10599000EC01F4DF8C01CE015FDF800F911FDF91FE
:1059A000CF911F910F9108950F931F93CF93DF9382
:1059B000EC019FDF8C01CE014FDF800F911FDF9143
:1059C000CF911F910F9108952115310541F4DC010C
:1059D000ED91FC910190F081E02D642F19943FCF5F
:1059E0009A01462F50E070E060E0EECF0F931F93D6
:1059F000CF93DF93EC01F4DF8C01CE012DDF800F1C
:105A0000911FDF91CF911F910F9108959A01AB01E2
:105A100070E060E0D9CF0F931F93CF93DF93EC0139
:105A2000F5DF8C01CE0118DF800F911FDF91CF9140
:105A30001F910F9108950F931F93CF93DF93EC0164
:105A4000C3DF8C01CE0108DF800F911FDF91CF9162
:105A50001F910F9108952F923F924F925F926F92F4
:105A60007F928F929F92AF92BF92CF92DF92EF92EE
:105A7000FF921F93CF93DF93EC016A017B01722E9B
:105A8000AB019601CB01B601E2D165EC73E0811167
:105A900023C046015701E894B7F82FEF3FEF4FE7D7
:105AA0005FE7C501B401D3D181110BC02FEF3FEFE8
:105AB0004FE75FE7C501B40129D869EC73E0181618
:105AC0005CF02FEF3FEF4FE75FE4C701B601A6D9C7
:105AD0001816ACF46DEC73E0CE01DF91CF911F91FD
