:1000000079C10000A8C10000A6C10000A4C1000081
:10001000A2C10000A0C100009EC100009CC1000060
:100020009AC1000098C1000096C1000094C1000070
:1000300092C1000090C100008EC100008CC1000080
:100040008AC1000088C1000086C1000084C1000090
:1000500082C1000080C100007EC100000C943234D7
:100060007AC100000C943E370C94743774C10000C0
:1000700072C1000070C100006EC100006CC10000C0
:100080006AC1000068C1000066C1000064C10000D0
:100090000C94CA370C9400385EC100000C945E1CAE
:1000A0005AC1000058C1000056C1000054C10000F0
:1000B00052C1000050C100004EC100004CC1000000
:1000C0004AC1000048C1000046C100000C945638E7
:1000D0000C948C3840C100000C94E2380C94183910
:1000E0003AC10000001D3A2774694E53E8F5D2CF9B
:1000F0009C81A6BBCDD0F7EAB9A4839E25381F0208
:10010000514C6B76879ABDA0F3EEC9D46F725548F7
:100110001B06213C4A57706D3E230419A2BF9885E7
:10012000D6CBECF1130E2934677A5D40FBE6C1DCD7
:100130008F92B5A8DEC3E4F9AAB7908D362B0C11C7
:10014000425F78659489AEB3E0FDDAC77C61465BB7
:100150000815322F5944637E2D30170AB1AC8B96A7
:10016000C5D8FFE2263B1C01524F6875CED3F4E997
:10017000BAA7809DEBF6D1CC9F82A5B8031E392487
:10018000776A4D50A1BC9B86D5C8EFF24954736E77
:100190003D20071A6C71564B1805223F8499BEA367
:1001A000F0EDCAD735280F12415C7B66DDC0E7FA57
:1001B000A9B4938EF8E5C2DF8C91B6AB100D2A3747
:1001C00064795E43B2AF8895C6DBFCE15A47607D37
:1001D0002E3314097F6245580B16312C978AADB027
:1001E000E3FED9C400000A0B02090C0D0E08070338
:1001F00004010000000000000000000000000000FA
:1002000000000000000000000000000000000000EE
:1002100012111000000000000000000000000000AB
:100220000000000000000000000001021020200873
:100230000810204010204080020102010804020141
:1002400001020408102040808040201008040201B0
:100250008004020180402010080402010804020109
:100260000102040810204080010204081020408090
:1002700005050505070508080808020202020A0A22
:100280000808040404040101010101010101030340
:10029000030303030303040707070C0C0C0C0C0CEB
:1002A0000C0C0202020206060606060606060B0BE8
:1002B0000B0B0B0B0B0B00002200250028002B0062
:1002C0002E003100340002010000050108010B017D
:1002D00000002100240027002A002D0030003300F8
:1002E00001010000040107010A01D4249D372938C7
:1002F000B538413911241FBECFEFD1E2DEBFCDBFEB
:1003000000E00CBF13E0A0E0B2E0E0E8FCE700E0B2
:100310000BBF02C007900D92AE3FB107D9F729E09D
:10032000AEEFB3E001C01D92A931B207E1F711E0D1
:10033000CAE7D1E000E006C021970109802FFE0145
:100340000E944F3CC537D10780E00807A9F70E94FB
:1003500043310C943E3E54CEAB01BC0182E096E0AA
:100360000C94CE3BAB01BC018FE996E00C94CE3BE4
:10037000AB01BC018CE397E00C94CE3BAB01BC011C
:1003800089ED97E00C94CE3B8F929F92AF92BF92F3
:10039000CF92DF92EF92FF920F931F93CF93DF9351
:1003A000CDB7DEB77B014A015901CDB6DEB69B0160
:1003B000220F331F4DB75EB7421B530B0FB6F89495
:1003C0005EBF0FBE4DBF0DB71EB70F5F1F4FE82FAB
:1003D000F0E0EE0FFF1FE25FFD4F0190F081E02D96
:1003E000C8011995F801D401E00EF11EEE15FF05C4
:1003F00019F081918D93FACF81E0F50180830FB6DA
:10040000F894DEBE0FBECDBEDF91CF911F910F914C
:10041000FF90EF90DF90CF90BF90AF909F908F9024
:1004200008959F92AF92BF92CF92DF92EF92FF9288
:100430000F931F93CF93DF93CDB7DEB7C054D1098D
:100440000FB6F894DEBF0FBECDBFB82E8B01942E31
:10045000A52E6901E82EF12CEE0CFF1CF701EA5FD6
:10046000FD4F0190F081E02D199580179107C9F497
:100470009601492D5A2DBC018B2D86DFC05CDF4FC4
:100480000FB6F894DEBF0FBECDBFDF91CF911F91A5
:100490000F91FF90EF90DF90CF90BF90AF909F9023
:1004A00008958017910748F4E92DFA2D0E0F1F1FAC
:1004B000E017F10719F11192FBCF9801220F331FBA
:1004C0002817390728F09601492D5A2DB801D4CFA5
:1004D000B8010E94063CCB010197809FB001819F2B
:1004E000700D909F700D1124F701E25FFD4F019098
:1004F000F081E02DCE0101961995E5CFF60110822D
:10050000BDCF82E096E00C9414368FE996E00C940F
:1005100014368CE397E00C94143689ED97E00C9434
:1005200014368823E1F0823061F0833089F0813025
:10053000B1F440E052EC61E070E081E090E00C94B6
:10054000F92440E052EC61E070E082E090E0F7CF07
:1005500040E052EC61E070E083E090E0F0CF08957D
:100560004F925F926F927F928F929F92AF92BF92C3
:10057000CF92EF92FF920F931F93CF93DF93CDB75C
:10058000DEB72B013A01F02EB40130E028303105FE
:1005900011F424E030E00AE010E0CC2061F091E0BA
:1005A00000E110E0C91639F0E2E008E010E0CE16F4
:1005B00011F002E010E0813009F4E8C0B0F08230C0
:1005C00009F4C5C1833009F4A3C2DF91CF911F9113
:1005D0000F91FF90EF90CF90BF90AF909F908F9032
:1005E0007F906F905F904F900895F1101BC0269DF3
:1005F000A001279D500D369D500D1124B20182E0BF
:1006000096E0DF91CF911F910F91FF90EF90CF90E7
:10061000BF90AF909F908F907F906F905F904F9022
:100620000C946E3982E096E00E94AA39E11014C061
:10063000640C751C6414750441F2F20161912F0180
:10064000F1E0A80182E096E0FF1203C00E947C3A2C
:10065000F1CF0E94823AEECF81E0E81215C091E01E
:10066000691A710808F4B1CFF201619171912F01FB
:10067000F1E0A80182E096E0FF1203C00E94923AE6
:10068000EECF0E94973AEBCF82E0E81217C091E0DC
:10069000691A710808F499CFF20141915191619161
:1006A00071912F01F1E0980182E096E0FF1203C002
:1006B0000E94703AECCF0E94A73AE9CF83E0E8129B
:1006C00018C0640C751C6414750409F47ECFF20123
:1006D00061912F01062E000C770BF1E0A80182E05A
:1006E00096E0FF1203C00E944A3AEDCF0E94503AB2
:1006F000EACF84E0E81215C091E0691A710808F4A5
:1007000064CFF201619171912F01F1E0A80182E0C3
:1007100096E0FF1203C00E944A3AEECF0E94503A80
:10072000EBCF85E0E81217C091E0691A710808F470
:100730004CCFF20141915191619171912F01F1E002
:10074000980182E096E0FF1203C00E94053AECCFC8
:100750000E94603AE9CF86E0E81237CFB12C91E0F1
:10076000691A710808F431CFF201419151916191F8
:1007700071912F01F1E0950182E096E0FF1203C034
:100780000E94913BECCF0E94923BE9CFF1100BC04D
:10079000269DA001279D500D369D500D1124B201BC
:1007A0008FE996E02ECF8FE996E00E94AA39E110FA
:1007B00015C0640C751C4614570409F406CFF201E9
:1007C00061912F01F1E0A8018FE996E0FF1203C0CB
:1007D0000E947C3AF0CF0E94823AEDCF81E0E8128D
:1007E00015C091E0691A710808F4EFCEF201619129
:1007F00071912F01F1E0A8018FE996E0FF1203C08B
:100800000E94923AEECF0E94973AEBCF82E0E81234
:1008100017C091E0691A710808F4D7CEF20141912E
:100820005191619171912F01F1E098018FE996E06A
:10083000FF1203C00E94703AECCF0E94A73AE9CFA2
:1008400083E0E81218C0640C751C6414750409F484
:10085000BCCEF20161912F01062E000C770BF1E066
:10086000A8018FE996E0FF1203C00E944A3AEDCF3B
:100870000E94503AEACF84E0E81215C091E0691A6C
:10088000710808F4A2CEF201619171912F01F1E09B
:10089000A8018FE996E0FF1203C00E944A3AEECF0A
:1008A0000E94503AEBCF85E0E81217C091E0691A38
:1008B000710808F48ACEF2014191519161917191D0
:1008C0002F01F1E098018FE996E0FF1203C00E942A
:1008D000053AECCF0E94603AE9CF86E0E81275CE87
:1008E000B12C91E0691A710808F46FCEF2014191C0
:1008F0005191619171912F01F1E0FF1214C0C1106B
:1009000006C095018FE996E00E94913BEACFCB01AA
:10091000BA010E944732AB01BC0198018FE996E011
:100920000E94053ADECFC11006C095018FE996E01E
:100930000E94923BD6CFCB01BA010E944732AB0155
:10094000BC0198018FE996E00E94603ACACFF1108D
:100950000BC0269DA001279D500D369D500D1124E2
:10096000B2018CE397E04DCE8CE397E00E94AA3968
:10097000E11015C0640C751C4614570409F425CE0B
:10098000F20161912F01F1E0A8018CE397E0FF12E1
:1009900003C00E947C3AF0CF0E94823AEDCF81E002
:1009A000E81215C091E0691A710808F40ECEF20140
:1009B000619171912F01F1E0A8018CE397E0FF12A2
:1009C00003C00E94923AEECF0E94973AEBCF82E0AA
:1009D000E81217C091E0691A710808F4F6CDF20127
:1009E00041915191619171912F01F1E098018CE356
:1009F00097E0FF1203C00E94703AECCF0E94A73A22
:100A0000E9CF83E0E81218C0640C751C6414750407
:100A100009F4DBCDF20161912F01062E000C770B5A
:100A2000F1E0A8018CE397E0FF1203C00E944A3A6C
:100A3000EDCF0E94503AEACF84E0E81215C091E071
:100A4000691A710808F4C1CDF201619171912F0109
:100A5000F1E0A8018CE397E0FF1203C00E944A3A3C
:100A6000EECF0E94503AEBCF85E0E81217C091E03C
:100A7000691A710808F4A9CDF2014191519161916F
:100A800071912F01F1E098018CE397E0FF1203C010
:100A90000E94053AECCF0E94603AE9CF86E0E81266
:100AA00094CDB12C91E0691A710808F48ECDF20151
:100AB00041915191619171912F01F1E0FF1214C0A8
:100AC000C11006C095018CE397E00E94913BEACFEC
:100AD000CB01BA010E944732AB01BC0198018CE303
:100AE00097E00E94053ADECFC11006C095018CE365
:100AF00097E00E94923BD6CFCB01BA010E944732C9
:100B0000AB01BC0198018CE397E00E94603ACACF28
:100B1000F1100BC0269DA001279D500D369D500D54
:100B20001124B20189ED97E06CCD89ED97E00E9428
:100B3000AA39E11015C0640C751C6414750409F41D
:100B400044CDF20161912F01F1E0A80189ED97E018
:100B5000FF1203C00E947C3AF0CF0E94823AEDCF90
:100B600081E0E81215C091E0691A710808F42DCDF2
:100B7000F201619171912F01F1E0A80189ED97E0F7
:100B8000FF1203C00E94923AEECF0E94973AEBCF39
:100B900082E0E81217C091E0691A710808F415CDD7
:100BA000F20141915191619171912F01F1E0980110
:100BB00089ED97E0FF1203C00E94703AECCF0E94CB
:100BC000A73AE9CF83E0E81218C0640C751C6414DE
:100BD000750409F4FACCF20161912F01062E000C84
:100BE000770BF1E0A80189ED97E0FF1203C00E94A6
:100BF0004A3AEDCF0E94503AEACF84E0E81215C09D
:100C000091E0691A710808F4E0CCF20161917191E8
:100C10002F01F1E0A80189ED97E0FF1203C00E94C7
:100C20004A3AEECF0E94503AEBCF85E0E81217C067
:100C300091E0691A710808F4C8CCF2014191519110
:100C4000619171912F01F1E0980189ED97E0FF1218
:100C500003C00E94053AECCF0E94603AE9CF86E0DB
:100C6000E812B3CCB12C91E0691A710808F4ADCC4C
:100C7000F20141915191619171912F01F1E0FF12C7
:100C800014C0C11006C0950189ED97E00E94913B08
:100C9000EACFCB01BA010E944732AB01BC019801F7
:100CA00089ED97E00E94053ADECFC11006C095019C
:100CB00089ED97E00E94923BD6CFCB01BA010E940A
:100CC0004732AB01BC01980189ED97E00E94603A80
:100CD000CACF4F925F926F927F928F929F92AF9204
:100CE000BF92CF92DF92EF92FF920F931F93CF9319
:100CF000DF93CDB7DEB76A970FB6F894DEBF0FBEAD
:100D0000CDBF6D837E838F83988729013A01FA8E48
:100D1000E98E4B015C01B7FE08C0B094A09490949A
:100D20008094811C911CA11CB11C7301620177FE8F
:100D300007C0CC24DD247601C418D508E608F708DE
:100D400095014427552729873A874B875C87AA2432
:100D5000BB24C701AA27BB278D879E87AF87B88B87
:100D6000EE24FF24C701B6010E94F73B698B7A8B02
:100D70008B8B9C8BA50194016D857E858F859889D1
:100D80000E94F73B6D8B7E8B8F8B988FC701B601CE
:100D90000E94F73BAB01BC01CD88DE88EF88F88C60
:100DA000D60199278827840F951FA61FB71FF1E04A
:100DB000E0E030E020E084179507A607B70708F0C9
:100DC000F0E0F983EA833B832C8329893A894B89B4
:100DD0005C897901DD24CC24C80ED91EEA1EFB1ED5
:100DE000C816D906EA06FB0658F489819A81AB81B8
:100DF000BC810196A11DB11D89839A83AB83BC83FD
:100E00002D893E894F89588DCA01AA27BB27298978
:100E10003A894B895C894A01AA24BB24880E991E11
:100E2000AA1EBB1E29853A854B855C856D857E850E
:100E30008F8598890E94F73B860E971EA81EB91EC3
:100E400089819A81AB81BC81880E991EAA1EBB1E26
:100E50002D813E814F815885211531054105510570
:100E600031F1411451046104710409F191E0121649
:100E70001306140615060CF090E081E01414150416
:100E8000160417040CF080E0981789F0F094E094B1
:100E9000D094C094C11CD11CE11CF11CC114D1041C
:100EA000E104F10439F180949094A094B094D801B5
:100EB0008D929D92AD92BC921397E98DFA8DC0826E
:100EC000D182E282F3826A960FB6F894DEBF0FBE3B
:100ED000CDBFDF91CF911F910F91FF90EF90DF90E9
:100EE000CF90BF90AF909F908F907F906F905F90CA
:100EF0004F900895B094A09490948094811C911C7C
:100F0000A11CB11CD4CFDF92EF92FF920F931F93DD
:100F1000CF93DF9300D000D01F921F92CDB7DEB7E2
:100F2000DE2CFE0131967F018E010B5F1F4FD1DE5B
:100F30006D817E818F81988504C095958795779581
:100F40006795DA94D2F728960FB6F894DEBF0FBEF5
:100F5000CDBFDF91CF911F910F91FF90EF90DF9068
:100F60000895CF92DF92EF92FF926B017C019F7701
:100F700020E030E040E859E50E94433287FF2BC073
:100F800020E030E040E05FE3C701B6010E94CB33D0
:100F900087FD0EC020E030E040E05FE3C701B6010E
:100FA0000E94CC31FF90EF90DF90CF900C94B5323F
:100FB00020E030E040E05FEBC701B6010E94CB3398
:100FC000181684F420E030E0A901C701B6010E94A0
:100FD000CF336B017C01C701B601FF90EF90DF902A
:100FE000CF90089520E030E040E05FE3C701B60114
:100FF0000E94CB31FF90EF90DF90CF900C94303275
:101000004F925F926F927F928F929F92AF92BF9218
:10101000CF92DF92EF92FF920F931F93CF93DF93C4
:10102000CDB7DEB76A970FB6F894DEBF0FBECDBF5F
:1010300046EC58E06EED78E08AED98E00E945A2484
:101040002091DA083091DB084091DC085091DD08EE
:101050002093E2083093E3084093E4085093E508B6
:101060008091DE089091DF08A091E008B091E1083E
:101070008093E6089093E708A093E808B093E90806
:101080006091DA027091DB028091DC029091DD02C6
:1010900016E0E12EF12C00E010E035DF6093EA0865
:1010A0002091E6083091E7084091E8085091E9085E
:1010B0006091DA027091DB028091DC029091DD0296
:1010C00022DF6093EB08F2ECAF2EF2E0BF2E8E0130
:1010D0000A5E1F4F4E018BE1880E911CD5016D9168
:1010E0007D918D919D915D012091D6023091D70225
:1010F0004091D8025091D9020E94CF330E94B5325C
:101100006B017C01ABD481119CC2C701B60161D4D3
:10111000811197C220E030E040E853E4C701B601F6
:101120000E94CF326B017C0120E030E0A9010E94D7
:10113000433287FF89C2C701B60190580E944C32E2
:101140006195F80161938F01E815F90539F68091F1
:101150005C048111B0C08091DE028093CC08809342
:10116000CD088091DF028093CE088091EA088093B9
:10117000CF088091E0028093D0088091EB088093A3
:10118000D1088091E1028093D208888D8093D308A2
:101190008091E2028093D408898D8093D508809154
:1011A000E3028093D6088A8D8093D708ECECF8E0B0
:1011B0000CEE18E0D80181918D9388E0E83DF807A6
:1011C000D1F7C090BE02D090BF02E090C002F09074
:1011D000C102A701960160919C0870919D088091C1
:1011E0009E0890919F080E944332882341F0C0924C
:1011F0009C08D0929D08E0929E08F0929F08FE0104
:1012000031964E01ADE08A0E911CDE2EFF2ED801E4
:101210008D918D0181938E169F06C9F783E78D8787
:1012200095E69E872EE62F87888B2FE6298B22E76F
:101230002A8B9B8B8C8B1D8A6091B0087091B108B2
:101240008091B2089091B3080E944C32C62E6091F2
:10125000A8087091A9088091AA089091AB080E94F3
:101260004C32E62E6091AC087091AD088091AE08CA
:101270009091AF080E944C32062F6091A4087091A3
:10128000A5088091A6089091A7080E944C32162FBD
:101290006091A0087091A1088091A2089091A30884
:1012A0000E944C32862F92E0A92E212F4CE050E074
:1012B0006D2D7F2D55D980915B04811128C0C09080
:1012C000BA02D090BB02E090BC02F090BD02A70130
:1012D00096016091BC087091BD088091BE08909104
:1012E000BF080E944332882341F0C092BC08D092CC
:1012F000BD08E092BE08F092BF086091C0087091EE
:10130000C1082AEF38E048EF58E083E08AD846EC7D
:1013100058E06EED78E08AED98E00E94852483E045
:1013200090E00E94071A40913A0450913B0460916A
:101330003C0470913D0490E080E00E94031A80918B
:101340005B0481112EC060914E0470914F04809116
:101350005004909151040E94783220E030E040E83F
:101360005FE40E94CF336B017C0160914A0470916D
:101370004B0480914C0490914D040E9478329B0163
:10138000AC01C701B6010E94CC312DEC3CEC4CEC19
:101390005DE30E94CF33AB01BC0181E090E00E948D
:1013A000031A80915C04811128C0609156047091E9
:1013B000570480915804909159040E94783220E09B
:1013C00030E040E85FE40E94CF336B017C01609124
:1013D00052047091530480915404909155040E94DA
:1013E00078329B01AC01C701B6010E94CC31AB0140
:1013F000BC0182E090E00E94031A80905D0490900E
:101400005E04A0905F04B090600420E030E040E80B
:101410005FEBC501B4010E944332882331F1C090D3
:101420003A04D0903B04E0903C04F0903D04A701C6
:101430009601C501B4010E94CB314B015C0120E053
:1014400030E040E054E3C701B6010E94CF339B0176
:10145000AC01C501B4010E94CB33181634F088EEFC
:1014600092E0909325048093240480916104882362
:1014700031F088EE92E09093250480932404C0908C
:101480003E04D0903F04E0904004F0904104BFEF50
:10149000CB1ADB0AEB0AFB0AC0923E04D0923F044F
:1014A000E0924004F0924104C114D104E104F1043B
:1014B00099F48091420490914304A0914404B09126
:1014C00045040196A11DB11D8093420490934304ED
:1014D000A0934404B0934504809046049090470440
:1014E000A0904804B0904904609142047091430474
:1014F00080914404909145040E947832A5019401A2
:101500000E94CF3320E030E040E85FE40E94CF3318
:101510002B013C01C701B6010E947832A50194015C
:101520000E94CF339B01AC01C301B2010E94CC31B8
:1015300060933A0470933B0480933C0490933D0481
:1015400090915B0491112CC040914A0450914B043E
:1015500060914C0470914D044F5F5F4F6F4F7F4F10
:1015600040934A0450934B0460934C0470934D0491
:10157000452B462B472BA1F440914E0450914F042C
:1015800060915004709151044F5F5F4F6F4F7F4FD8
:1015900040934E0450934F04609350047093510451
:1015A00080915C0481112CC04091520450915304ED
:1015B00060915404709155044F5F5F4F6F4F7F4FA0
:1015C0004093520450935304609354047093550411
:1015D000452B462B472BA1F44091560450915704BC
:1015E00060915804709159044F5F5F4F6F4F7F4F68
:1015F00040935604509357046093580470935904D1
:101600009F5F9A3030F590935B048F5F843620F5AE
:1016100080935C046A960FB6F894DEBF0FBECDBF10
:10162000DF91CF911F910F91FF90EF90DF90CF90BE
:10163000BF90AF909F908F907F906F905F904F90F2
:101640000895C12CD12C7601C701B6010E944C32FD
:1016500078CD10925B04D9CF10925C04DBCFCF928F
:10166000DF92EF92FF92CF9384E090E07BD1E4E2AF
:10167000F4E08EE3DF011D928A95E9F780E090E0C7
:10168000A0E8BFEB80935D0490935E04A0935F0499
:10169000B09360048AE097EDA3E2BCE38093460434
:1016A00090934704A0934804B093490480EB9EEFC5
:1016B000A1EAB5E98093280490932904A0932A0411
:1016C000B0932B048FE292EBABE8B5E780932C0448
:1016D00090932D04A0932E04B0932F048AEC97EBE3
:1016E000A5EDB5E78093300490933104A0933204C4
:1016F000B09333048AEA94E8A3EAB0ED809334040B
:1017000090933504A0933604B093370488E194E0B5
:10171000909327048093260482E194E09093190427
:10172000809318048CEF92E090931304809312043A
:1017300090931504809314049093170480931604D7
:1017400088E394E090931D0480931C0488E294E065
:1017500090931B0480931A048AE394E090931F04EF
:1017600080931E04EAEDF8E081E2DF011D928A9584
:10177000E9F7E6E7F8E084E6DF011D928A95E9F7EC
:10178000E8E0F4E08AE0DF011D928A95E9F78EEF48
:1017900093E0909339048093380481E190E0909332
:1017A000FF038093FE0388E992E090930104809305
:1017B000000486E792E0909303048093020482E39E
:1017C00092E0909305048093040486E192E0909364
:1017D00007048093060481E08093D8088091BE02BC
:1017E0009091BF02A091C002B091C10280939C0869
:1017F00090939D08A0939E08B0939F0881E090E08D
:10180000A0E0B0E08093770890937808A0937908DF
:10181000B0937A0880E090E0A0E4B0E48093A00860
:101820009093A108A093A208B093A30880E090E051
:10183000A0E8BFE38093A4089093A508A093A6080E
:10184000B093A70860E070E080E490E48ADB6B016D
:101850007C0120E030E040E853E40E94433287FFFF
:1018600050C020E030E0A901C701B6010E94CB338F
:1018700087FD49C0C701B6010E944C32862F0E94E5
:101880009102C1E0C0937B081092B608C093D908BA
:101890008091BA029091BB02A091BC02B091BD02AE
:1018A0008093BC089093BD08A093BE08B093BF0876
:1018B00081E090E0A0E0B0E08093B7089093B80892
:1018C000A093B908B093BA089093C3088093C20854
:1018D00082E090E09093C1088093C00883E00E946A
:1018E0009102C093BB081092C6081092C7081092CC
:1018F000C8081092C908CF91FF90EF90DF90CF9069
:1019000008958FEFBCCF80E0BACF80917608811127
:1019100003C081E0809376088091B608811103C0EE
:1019200081E08093B608089560E070E080E89FE76A
:10193000089560E070E080E89FE7089560E070E05F
:1019400080E89FEF089560E070E080E89FEF0895E1
:1019500060E070E080EC9FEF089560E070E080EC64
:101960009FEF0895F5DF609307097093080980934E
:10197000090990930A09F1DF6093FB087093FC0852
:101980008093FD089093FE08CFDF60930309709366
:1019900004098093050990930609CBDF6093FF0843
:1019A000709300098093010990930209C7DF609347
:1019B0000B0970930C0980930D0990930E09C3DFF6
:1019C00060930F0970931009809311099093120985
:1019D0000895CF92DF92EF92FF92CF936B017C013B
:1019E000AC019B0160910309709104098091050984
:1019F000909106090E944332C1E0882371F0A7014B
:101A0000960160910B0970910C0980910D099091DC
:101A10000E090E9443328111C0E08C2FCF91FF90BC
:101A2000EF90DF90CF9008950F931F938B019C014F
:101A30000027112720783F770115110520483F47DF
:101A400049F4AB01BC016F77772781E0452B462B2A
:101A5000472B09F480E01F910F910895E5CFEF9295
:101A6000FF920F931F93CF93DF93EA01F901DC01FB
:101A70001496ED90FC90159712964D915C911397EA
:101A80004E0D5F1D2881398118960D911C91199773
:101A90000217130730F00D911C911197012B09F4D7
:101AA00041C08A01021B130BDC0118968D919C9199
:101AB0008E199F09800F911F86179707DCF1C901C6
:101AC000860F971F8417950778F47183608333839B
:101AD0002283158214821782168288819981680F69
:101AE000791F7983688316C011830083338322832F
:101AF000601B710B7583648390E080E016161706F7
:101B000014F49E2D8F2D96838783D701A60FB71FC0
:101B1000B983A88380E0DF91CF911F910F91FF904F
:101B2000EF90089518968D919C91821B930B8617C8
:101B300097075CF681E0EFCFCF92DF92EF92FF92B2
:101B4000CF93DF936B0184E4869FE001879FD00DE4
:101B50001124CE59DB4F8AA99BA9009721F00E943E
:101B60009C3D1BAA1AAA84E48C9DF0018D9DF00D6A
:101B70001124EE59FB4F86A997A9009711F00E94F6
:101B80009C3D84E48C9DF0018D9DF00D1124EE5957
:101B9000FB4F138A128A168A178A108E118E128EA4
:101BA000138E148E158E168E178E10A211A281E040
:101BB00090E093A382A315A214A216A217A210A6C6
:101BC00011A613A612A615A614A616A617A610AA45
:101BD00011AA13AA12AA15AA14AA17AA16AA11AE14
:101BE00010AE12AE13AE14AE15AEDF01DE961D922E
:101BF0001D921D921C921397EE5BFF4F1182108273
:101C0000DF91CF91FF90EF90DF90CF900895CF9329
:101C1000DF93FB01DC016D917C91DB011696CD9188
:101C2000DC918081918123E0880F991F2A95E1F74B
:101C3000AA81BB81A80FB91F8D919C911197248512
:101C40003585220F331FEB016A817B81EB01C20FC7
:101C5000D31F0990D881C02D14962D913C9161E03D
:101C600070E0232B11F062E070E0C69F9001C79FE7
:101C7000300DD69F300D1124A085B1852A9FB0016B
:101C80002B9F700D3A9F700D1124A481B5812A9F5E
:101C9000F0012B9FF00D3A9FF00D11248E0F9F1F26
:101CA000FA019183808373836283DF91CF910895DA
:101CB0002F923F924F925F926F927F928F929F925C
:101CC000AF92BF92CF92DF92EF92FF920F931F934A
:101CD000CF93DF9300D000D0CDB7DEB7DC011496F0
:101CE000ED91FC910190F081E02D808591859A83A2
:101CF0008983A281B381BC83AB83FB0181909190E6
:101D0000A190B190C12CD12C7601C814D904EA0459
:101D1000FB04CCF026960FB6F894DEBF0FBECDBF05
:101D2000DF91CF911F910F91FF90EF90DF90CF90B7
:101D3000BF90AF909F908F907F906F905F904F90EB
:101D40003F902F900895448055806680778040852D
:101D5000518562857385CF0140969E838D83A081D6
:101D6000B1819D0183E0220F331F8A95E1F7A9819C
:101D7000BA8112968D919C91D901A80FB91F2D900F
:101D80003C9011970484F585E02DEE0FFF1F8B81A9
:101D90009C81E80FF91F0190F081E02D14968D9140
:101DA0009C91892B41F581E090E0E89F9001E99FAB
:101DB000300DF89F300D1124249F8001259F100DB8
:101DC000349F100D1124249DC001259D900D349D3C
:101DD000900D1124A8016D817E81820D931D0E94BA
:101DE000253EED81FE81E00FF11F9FEFC91AD90A50
:101DF000E90AF90A8ACF82E090E0D7CFCF93DF9348
:101E0000DB01AC51BD4F2C91222369F024E4269FC5
:101E1000F001279FF00D1124EE59FB4FEF011992AD
:101E20002A95E9F71C9224E4269FF001279FF00DE4
:101E30001124EE59FB4F14821582168217821186E7
:101E4000108613861286118A108A17861686DF91ED
:101E5000CF9172CE2F923F924F925F926F927F926C
:101E60008F929F92AF92BF92CF92DF92EF92FF92AA
:101E70000F931F93CF93DF9300D000D01F921F9238
:101E8000CDB7DEB724E4269FF001279FF00D112483
:101E9000EE59FB4F0481158126813781012B022BDE
:101EA000032B09F4B7C02A016B017C0110E000E0AC
:101EB000812C912C54013F019F01285F3F4F3C83AF
:101EC0002B83CF0104969E838D83AB81BC818D9142
:101ED0009C91ED81FE8140815181628173818416E4
:101EE0009506A606B706E4F10E949C3DD3011A961A
:101EF0008D919C91892B09F07EC084E48C9DD0014A
:101F00008D9DB00D1124AE59BB4FBC83AB83509651
:101F10008D919C910E949C3DEB81FC8186859785EB
:101F20000E949C3DC701B60107DEC701B601289695
:101F30000FB6F894DEBF0FBECDBFDF91CF911F91DA
:101F40000F91FF90EF90DF90CF90BF90AF909F9058
:101F50008F907F906F905F904F903F902F904ECFDB
:101F6000FC01E00FF11F92819983A381AA839F83D3
:101F7000A887312C212C2414350464F089819A819E
:101F80000E949C3DEFEF8E1A9E0AAE0ABE0A0C5FBD
:101F90001F4F9BCFAF81B885ED91FD91B887AF837F
:101FA000309759F0848195810E949C3DEF81F8859E
:101FB0003297808191810E949C3DBFEF2B1A3B0A92
:101FC000DACF800F911FFC01848195810E949C3D96
:101FD0002B813C812F5F3F4F3C832B83025F1F4F40
:101FE000F501808191812B813C81241535054CF3CD
:101FF0000E949C3D82CF10E000E01C821B8224E402
:102000002C9DC0012D9D900D1124DC01A459BB4FC6
:102010005D01E6CF28960FB6F894DEBF0FBECDBFA8
:10202000DF91CF911F910F91FF90EF90DF90CF90B4
:10203000BF90AF909F908F907F906F905F904F90E8
:102040003F902F90089524E4269FF001279FF00DE4
:102050001124EE59FB4F828993890497029758F413
:1020600085E090E0938B828B8FEF9FEFDC01828F76
:10207000938FA48FB58F08952F923F924F925F92C6
:102080006F927F928F929F92AF92BF92CF92DF9288
:10209000EF92FF920F931F93CF93DF93CDB7DEB7ED
:1020A000AA970FB6F894DEBF0FBECDBF9AA389A33F
:1020B0007E8B6D8B1A01098B1A8B2B8B3C8B84E4E6
:1020C00029893A89829F6001839FD00C112486015F
:1020D0000E591B4F89899A89AB89BC89F801808385
:1020E0009183A283B383AB01BC01CD01B3DED601E2
:1020F000AA59BB4F84E0F10101900D928A95E1F756
:10210000F4E02F0E311C64E070E0D80114968D913C
:102110009C910E94E63CF80191878087892B09F009
:10212000F5C04D895E8969897A898B899C8992DE9F
:1021300081E0AA960FB6F894DEBF0FBECDBFDF9147
:10214000CF911F910F91FF90EF90DF90CF90BF90B4
:10215000AF909F908F907F906F905F904F903F9047
:102160002F900895A9A5BAA58D919C91E98DFA8D1E
:10217000E80FF91FF88FEF8BD1018D919C91880F9B
:10218000991FA9A1BAA1ED91FC91E80FF91F8081D7
:102190009181EF89F88D91838083D10114962D91DF
:1021A0003D914D915C9117972BA33CA34DA35EA34A
:1021B00062E070E08D899E890E94E63CEF89F88D8F
:1021C00093838283892B09F4ACCFF8E02F0E311C66
:1021D000412C512C32012BA13CA14DA15EA14216F4
:1021E0005306640675069CF02B8D3C8D4D8D5E8DDF
:1021F0002F5F3F4F4F4F5F4F2B8F3C8F4D8F5E8F29
:10220000498D5A8D4C5F5F4F5A8F498F90C0610145
:1022100024E0C20ED11CD101ED90FC90EE0CFF1C0D
:10222000EF89F88D82819381E80EF91E68E070E0F5
:1022300081E090E00E94E63C8C01D7018D939C9355
:10224000892B09F46ECF84E0F601D80101900D923C
:102250008A95E1F7B8E02B0E311CF801808191815D
:10226000A281B381181619061A061B06DCF464E075
:1022700070E00E94E63CD80115969C938E931497CB
:10228000892B09F44ECFD12CC12C812C912C5401D7
:10229000F80180819181A281B38188169906AA06EE
:1022A000BB0634F0FFEF4F1A5F0A6F0A7F0A93CF25
:1022B000F801E480F580EC0CFD1C80E1F101DE0109
:1022C000119601900D928A95E1F7F0E12F0E311CE5
:1022D000A701BE016F5F7F4FA9A1BAA114968D918E
:1022E0009C9195DCF80186819781D70112962D91FA
:1022F0003C91820F931F97838683BFEF8B1A9B0AB3
:10230000AB0ABB0AE4E0CE0ED11CC2CF1A8E198EE6
:102310001B8E1C8E1D8E1E8E18A30F8FA8014C5F66
:102320005F4F58A74FA3C80108969AA789A7EFA1A6
:10233000F8A580819181A281B3812B8D3C8D4D8D3B
:102340005E8D281739074A075B070CF40BCF6EE048
:1023500070E08D899E890E94E63CAF8DB8A11B96E6
:102360009C938E931A97B12CA12CD12CC12CF12CBB
:10237000E12C24E4E989FA892E9FC0012F9F900D5A
:1023800011249C0124593B4F388F2F8B8824839430
:10239000912C4D895E89C416D50654F184E4A9892F
:1023A000BA898A9F80018B9F100D11240E591B4FF3
:1023B000F80115861486C70133E0880F991F3A95F6
:1023C000E1F70E94003DD80151969C938E9350975F
:1023D000892B09F4A6CEC701880F991F0E94003DE2
:1023E000F80197878687892B09F49BCE80E0A1CEE0
:1023F000D1014D905D906D907D901D0177FC91CE47
:10240000EF89F88D008111810A0D1B1DD8011196ED
:102410009C928E92411451046104710429F1C2010D
:102420000E94003DF80195838483892B09F479CEBD
:10243000F8015382428284819581978386839187B4
:1024400080871386128681E090E045284628472839
:1024500011F490E080E0E80EF91EFFEFCF1ADF0ADA
:102460002EE0A20EB11C95CF15961C921E921497C9
:10247000DFCF2F923F924F925F926F927F928F9217
:102480009F92AF92BF92CF92DF92EF92FF920F9303
:102490001F93CF93DF93CDB7DEB76A970FB6F8944B
:1024A000DEBF0FBECDBF9E8B8D8B49015A0184E4E8
:1024B000829F7001839FF00C112497012E593B4F8E
:1024C0006901FB0180819181F901958B848BD70192
:1024D000A858BB4FFB01349684E001900D928A9579
:1024E000E1F7D701A458BB4FFB01389684E0019077
:1024F0000D928A95E1F7D701A058BB4FFB013C969E
:1025000084E001900D928A95E1F7D701A057BB4F67
:10251000FB01709684E001900D928A95E1F78B01A2
:102520000C5E1F4FF90186A597A5A0A9B1A91816A1
:102530001906DCF5880F991F880F991F0E94003D2E
:10254000F60193AB82AB892B09F4D3C0312C212C3B
:10255000412C512C32019601225D3F4F388F2F8B39
:10256000C601C2969A8F898FF496FC8BEB8BB301D0
:10257000A2012FEF421A520A620A720AEF89F88DFD
:1025800080819181A281B381481759076A077B072F
:102590000CF47BC0F60184A995A90E94003DF601C8
:1025A00097AB86AB892B09F4A4C0F8018081918197
:1025B000A281B38124E4289DF001299DF00D11240E
:1025C000EE59FB4FAC01BD014D7F21E030E0452BC2
:1025D000462B472B11F030E020E033A322A324E464
:1025E000289DF001299DF00D1124EE59FB4F019714
:1025F000A109B10921E030E00297A105B10510F071
:1026000030E020E035A324A3D701A857BB4FF80141
:10261000349684E001900D928A95E1F784E4889DD8
:10262000F001899DF00D1124EE59FB4F868D978D99
:10263000A0A1B1A1B7FF58C0B095A0959095819584
:102640009F4FAF4FBF4F82AF93AFA4AFB5AF168EC2
:10265000178E10A211A280E06A960FB6F894DEBF22
:102660000FBECDBFDF91CF911F910F91FF90EF90E3
:10267000DF90CF90BF90AF909F908F907F906F90A2
:102680005F904F903F902F900895E98DFA8D808153
:1026900091819C01220D331D3A8B298B80E1F80139
:1026A000DE01119601900D928A95E1F7005F1F4FB0
:1026B00049895A89BE016F5F7F4FED89FE89848108
:1026C0009581A5DAEB89FC8980819181E989FA8974
:1026D00022813381820F931FEB89FC899183808350
:1026E000F4E02F0E311C43CF12AE13AE14AE15AE74
:1026F000B2CFC501B40120DA81E0AECFCF92DF9234
:10270000EF92FF92CF93DF931092EA0424E4269F86
:10271000F001279FF00D1124EE59FB4F15A614A6CA
:1027200030E020E0D12CC12CDF011A96C1E0D0E0CE
:10273000C416D506F4F024E4269FF001279FF00D7F
:102740001124EE59FB4F13A612A611AE10AEDF01F5
:10275000DE961D921D921D921C92139782E090E0CE
:10276000938B828BDF91CF91FF90EF90DF90CF9092
:102770000895ED91FC911197E20FF31FE280F38031
:102780001E141F0454F4E480F580F782E682F1867B
:10279000E08613861286D183C083EFEFCE1ADE0A5D
:1027A000225F3F4FC5CF24E4269FF001279FF00D05
:1027B0001124EE59FB4F138A128A4CCB24E4269F36
:1027C000F001279FF00D1124EE59FB4F8289938968
:1027D00081309105C8F08530910518F0059769F0B2
:1027E00008958FEF9FEFDC01828F938FA48FB58FB9
:1027F00085E090E0938B828B08958FEF9FEFDC0153
:10280000828F938FA48FB58F089524E4249FD001E5
:10281000259FB00D1124AE59BB4F2EE0AC01249F73
:10282000C001259F900D11241A96ED91FC91E80F9F
:10283000F91F81E08093EA048285938591878087E0
:10284000408551852681378181E090E0421753070A
:1028500011F090E080E09183808308952F923F9261
:102860004F925F926F927F928F929F92AF92BF92A0
:10287000CF92DF92EF92FF920F931F93CF93DF934C
:10288000CDB7DEB7C055D1090FB6F894DEBF0FBE85
:10289000CDBF9EAF8DAF4BA75CA76DA77EA768018C
:1028A000790184E4809FF001819FF00D1124EE599D
:1028B000FB4F2285338523963FAF2EAF2397828926
:1028C0009389029761F486A597A5A0A9B1A9892B40
:1028D0008A2B8B2BC9F584E090E0938B828B84E468
:1028E0008C9DF0018D9DF00D1124EE59FB4F8289D6
:1028F00093898230910509F037C282AD93ADA4ADC2
:10290000B5AD22242394312C181619061A061B067D
:102910000CF42FC2C05BDF4F0FB6F894DEBF0FBEC2
:10292000CDBFDF91CF911F910F91FF90EF90DF907E
:10293000CF90BF90AF909F908F907F906F905F905F
:102940004F903F902F900895848995894DAD5EAD4D
:102950008417950721F606A917A918AE1FAA1BAA66
:102960001CAA1DAA1EAA1F01CF018E9627969FAFF3
:102970008EAF2797DF01D2962996BFAFAEAF2997CA
:10298000F8962B96FFAFEEAF2B9791012A5D3F4F44
:102990002D963FAF2EAF2D97A1014E5D5F4F2F9625
:1029A0005FAF4EAF2F970A9761969FAF8EAF61973B
:1029B0002796EEADFFAD279780819181A281B381EB
:1029C0002BA93CA94DA95EA9281739074A075B071F
:1029D00044F081E090E0D101D9969C938E93D897F2
:1029E0007ECF2996AEADBFAD2997ED91FC912FA971
:1029F00038ADE20FF31F428153815AAF49AF508186
:102A00005FAF818121968FAF21972B96AEADBFAD81
:102A10002B978D919C91892B21F12D96EEADFFADD9
:102A20002D9780809180A280B3801AAB09AB5FA7FD
:102A30002196FFAD2197F8AB29AD3AAD3695279594
:102A40003695279525963FAF2EAF25971CAE1BAE2A
:102A50002596AEADBFAD2597EBADFCADEA17FB07F4
:102A60000CF149AD5AAD6FAD21967FAD2197C801EC
:102A70000E94253E89AD9AAD8C7F080F191F2BA9A6
:102A80003CA94DA95EA92F5F3F4F4F4F5F4F2BAB26
:102A90003CAB4DAB5EAB4FA958AD4C5F5F4F58AFF1
:102AA0004FAB86CF2F96AEADBFAD2F978D919C913A
:102AB000892B71F1EFA5F8A9408051806280738065
:102AC000A3019201C501B4010E944332181664F0BB
:102AD000A9A9BAA92D913D914D915C91C501B4016F
:102AE0000E94CB331816BCF1A3019201C501B401B9
:102AF0000E94433287FF0CC0E9A9FAA920813181E5
:102B000042815381C501B4010E944332882319F1E7
:102B10006196AEADBFAD61978D919C91892B09F403
:102B200045C0EFA5F8A94080518062807380A30161
:102B30009201C501B4010E94CB3318161CF5A9A956
:102B4000BAA92D913D914D915C91C501B4010E94AE
:102B5000433218165CF184E48C9DF0018D9DF00DDC
:102B60001124EE59FB4F868D978DA0A1B1A1892B21
:102B70008A2B8B2B69F183E090E0938B828B81E031
:102B800090E02CC0A3019201C501B4010E94433220
:102B900081110CC0E9A9FAA92081318142815381B8
:102BA000C501B4010E94433287FDD5CF2BAD3CADAA
:102BB0002F5F3F4F3CAF2BAF49A95AA94C5F5F4FE6
:102BC0005AAB49AB8FA598A9049698AB8FA740CF75
:102BD00084E090E0938B828B86AD97AD93A782A71C
:102BE0007ECEEBADFCAD80819181F401EE0FFF1F35
:102BF000EE0FFF1FE80FF91FA081B1818C918111A9
:102C00000AC0FFEF8F1A9F0AAF0ABF0A8DA29EA2C9
:102C1000AFA2B8A68FC18330A1F30280F381E02D6B
:102C20002FA938ADE20FF31F808191819AAB89AB58
:102C3000892B39F34F5F5F4F6F4F7F4F49875A871B
:102C40006B877C879E01235E3F4FAE01475D5F4FE0
:102C500064E070E0C8010E942F0D8111D0C18D8108
:102C60009E81AF81B8850496A11DB11D8D839E8381
:102C7000AF83B8874D8D5E8DBE016B5D7F4F8F8DAD
:102C800098A10E94253E8BA19CA1009761F06D8DBB
:102C90007E8DA5E2B0E0AC0FBD1F6A0F7B1F49A17E
:102CA0005AA10E94253E1CAA1BAA412C512C32017C
:102CB000E9A9FAA980819181A281B38148165906B8
:102CC0006A067B060CF09DCFE9A9FAA9848195815B
:102CD0002BA93CA9280F391F38AB2FA7D901129671
:102CE0006D917C919E01235E3F4FAE01475D5F4F2A
:102CF000C8010E942F0D811182C1EFA5F8A9828120
:102D00009381092E000CAA0BBB0B4D815E816F8154
:102D10007885840F951FA61FB71F8D839E83AF8371
:102D2000B887608171814D8D5E8D8F8D98A10E94D5
:102D3000253E8BA19CA1009761F0AFA5B8A96D912C
:102D40007C912D8D3E8D620F731F49A15AA10E9467
:102D5000253EBFEF4B1A5B0A6B0A7B0AEBA9FCA965
:102D60003496FCABEBABA4CF312C212C049709F0AB
:102D7000D1CD8EE0EDADFEAD8E9F80018F9F100D09
:102D8000112423962EAD3FAD2397020F131FD801B8
:102D900012964D915C9113974115510509F4BACDE6
:102DA00016968D919C919AA789A780E1FE01319694
:102DB000DF011D928A95E9F7C98ADA8AEB8AFC8AD3
:102DC0002114310409F458C084E48C9DF0018D9DD8
:102DD000F00D1124EE59FB4FDF01DE968D909D9092
:102DE000AD90BC9082AD93ADA4ADB5AD88169906FB
:102DF000AA06BB0609F040C0F801848195810084D1
:102E0000F185E02D349624E0DE01559601900D9277
:102E10002A95E1F72D893E89285F3F4F3E8B2D8B08
:102E2000D80118966D917C911997260F371F199626
:102E30003C932E93189718962D913C911997480F13
:102E4000591F241B350B37FD06C0820F931F19969F
:102E50009C938E93189784E48C9DF0018D9DF00DCA
:102E60001124E056FB4FB1E08B1A9108A108B1087C
:102E700080829182A282B3829E012B5E3F4FAE017F
:102E8000475D5F4F64E170E0C8010E942F0D811122
:102E9000B6C08CE090E0A0E0B0E08D839E83AF836D
:102EA000B8879E01235E3F4FAE01475D5F4F64E0F0
:102EB00070E0C8010E942F0D8111A1C080E190E057
:102EC000A0E0B0E08D839E83AF83B8874D8D5E8D8B
:102ED000BE01655D7F4F8F8D98A10E94253E8BA11D
:102EE0009CA1009761F06D8D7E8DEBE2F0E0EC0F20
:102EF000FD1F6E0F7F1F49A15AA10E94253E1DA2F2
:102F00001EA21FA218A62DAD3EAD220F331F38AF53
:102F10002FAB24E42C9DC0012D9D900D11248E59C2
:102F20009B4FAC014C5F5F4F5AAF49AFDC01189625
:102F3000BCAFABAF8DA09EA0AFA0B8A449855A8509
:102F40006B857C85E9ADFAAD80819181A281B381E9
:102F500088169906AA06BB060CF443CE452B462BD1
:102F6000472B09F4D7CC8AE190E0A0E0B0E0898358
:102F70009A83AB83BC832DAD3EADC901330FAA0B41
:102F8000BB0B8D879E87AF87B88B4D895E89BE014D
:102F90006F5F7F4F8F89988D0E94253E8B8D9C8D12
:102FA000009761F06D897E8941E050E04C0F5D1F14
:102FB000640F751F498D5A8D0E94253E89A59AA5DB
:102FC000D80117969C938E93169711961C921E9279
:102FD000232809F49FCC84E48C9DF0018D9DF00D95
:102FE0001124E056FB4F80819181A281B38101962B
:102FF000A11DB11D80839183A283B3838BCC232831
:1030000009F088CC84E48C9DF0018D9DF00D112495
:10301000EE59FB4F81E090E095A784A785E090E012
:10302000938B828B77CCCF92DF92EF92FF920F93AC
:103030001F9324E4269FF001279FF00D1124EE59E1
:10304000FB4F228933892115310509F452C06B01E8
:103050007C0121303105B1F482A593A59C012F5F3D
:103060003F4F33A722A7092E000CAA0BBB0B028DE2
:10307000138D248D358D80179107A207B307C9F5ED
:10308000C7013CDB84E48C9DF0018D9DF00D112483
:10309000EE59FB4F82899389039759F582A593A531
:1030A0009C012F5F3F4F33A722A7092E000CAA0BCC
:1030B000BB0B468D578D60A171A184179507A6079C
:1030C000B707BCF086AD97AD93A782A784E090E0E8
:1030D000938B828B82AD93ADA4ADB5AD1816190656
:1030E0001A061B0634F4EE5BFF4F81E090E09183FB
:1030F00080831F910F91FF90EF90DF90CF90089504
:1031000024E4269FF001279FF00D1124EE59FB4F78
:10311000828993890497B1F482A593A5019693A718
:1031200082A7092E000CAA0BBB0B46895789608D1C
:10313000718D84179507A607B70721F485E090E005
:10314000938B828B08952F923F924F925F926F9252
:103150007F928F929F92AF92BF92CF92DF92EF9227
:10316000FF920F931F93CF93DF93CDB7DEB72E97C8
:103170000FB6F894DEBF0FBECDBFDC0149835A8382
:103180006B837C83290184E4849FF001859FF00D8B
:103190001124EE59FB4F22883388C101049702970E
:1031A00008F0D7C011961C921E9213961C921E9284
:1031B000129715861486912C812C90E080E08F0167
:1031C0009F01205F3F4F38872F833F013CE0630E14
:1031D000711CBF01625F7F4F7A8769873A96FC87CF
:1031E000EB87EF81F88520813181F30140815181A6
:1031F000E985FA85A080B180841595050CF446C058
:1032000011965C934E9313963C932E9312971596BA
:10321000BC92AE921497452B01F5F5E02F163104C0
:10322000E1F41092EA04F801828D938DA48DB58D9E
:10323000AE014F5F5F4F64E070E08F3F9F4FAF4F35
:10324000BF4F09F07AC080E290E00E94C6286981F1
:103250007A818B819C81A201A6DA2E960FB6F89412
:10326000DEBF0FBECDBFDF91CF911F910F91FF90B9
:10327000EF90DF90CF90BF90AF909F908F907F9016
:103280006F905F904F903F902F900895EB85FC8555
:1032900060817181FB01E80DF91DFE87ED8760817A
:1032A0007181672B89F5E084F184628173817E836B
:1032B0006D83668177816A01E3E0CC0CDD1CEA95C1
:1032C000E1F72C0D3D1D440F551F4A0D5B1DFA0102
:1032D00091838083F301408151814F5F5F4F518320
:1032E0004083F901F382E282ED85FE857387628770
:1032F000E616F70670F46E197F09F9017183608391
:1033000015821482178216820196FEE08F0E911CA0
:1033100068CFED85FE85C480D5804D815E814C0DE2
:103320005D1D4E195F09F901518340836C197D09B8
:1033300075836483D782C682E7CF8FE190E00E94D5
:10334000C628F80113A612A681E090E0938B828B29
:1033500084CF1586148611961C921E9213961C9289
:103360001E9212977ACFEF92FF920F931F93CF93F3
:10337000DF937C018B01EA010E94A22981111EC00A
:103380008091E6029091E702049711F5DF91CF91C9
:103390001F910F91FF90EF90089528ED38EB45E0D5
:1033A00050E060E070E0CB010E945A2CAE01B80101
:1033B000C7010E94682CC8010E94332C8091EB0445
:1033C0009091EC04892BE1F68881882331F3D8CFE2
:1033D00083E090E09093E7028093E602D7CFCF930B
:1033E000DF932091E6023091E7022430310541F06D
:1033F000EB010E94682CCE01DF91CF910C94332C0D
:10340000DF91CF9108950C9466300C945B300C944E
:1034100049300C94432C0C94ED2F089570E060E03B
:1034200090E080E00C947D290895AF92BF92CF92F6
:10343000DF92EF92FF920F931F93CF93DF931F9230
:103440001F92CDB7DEB75C018B0169017A0190E074
:1034500080E0C114D104E104F10469F40F900F90ED
:10346000DF91CF911F910F91FF90EF90DF90CF9060
:10347000BF90AF9008959C2D8D2DC114D10421E0F3
:10348000E206F10410F09FEF8FEF9E012F5F3F4F98
:10349000492F582FB801C5010E94EF308F3F980780
:1034A000E9F229813A81C21AD30AE108F108020F30
:1034B000131FCFCF90E080E008958091A3059091F5
:1034C000A405891B990B08959091A4058091A305EB
:1034D0002FEF3FEF981748F4E92FF0E0EB55FA4F44
:1034E000208130E09F5F9093A405C9010895E09189
:1034F000A4058091A305E81730F4F0E0EB55FA4FEE
:10350000808190E008958FEF9FEF0895089591E0F6
:1035100090937F058093A2051092810510928005FB
:1035200008951092720581E08093700510926F05E6
:1035300061E084E10E94E73561E085E10E94E735C2
:10354000E9EBF0E080818E7F808380818D7F8083B6
:1035500088E48093B80085E48093BC0008951092BD
:10356000A4051092A3051092810510928005D9CF71
:10357000413208F041C0909172059111FCCF91E069
:1035800090937205209370052FEF209305051092FC
:103590004A05240F20934905909371059091710578
:1035A000880F892B8093710580916F05813011F50B
:1035B00010926F05809171058093BB008091BC00D3
:1035C00083FDF8CF85EC8093BC008091720581303B
:1035D000E1F380914A05841710F440914A05ABE469
:1035E000B5E0962FFB018E2F891B841730F48D9147
:1035F0008193F9CF85EEE7CF40E0842F08950F93B4
:10360000413208F04BC0909172059111FCCF92E0CD
:1036100090937205009370059FEF909305051092AB
:103620004A0540934905362FABE4B5E0FB019E2FD8
:10363000931B941718F491919D93F9CF10927105F3
:1036400090917105880F892B8093710580916F058A
:10365000813011F510926F05809171058093BB0048
:103660008091BC0083FDF8CF85EC8093BC002223C1
:1036700021F0809172058230D1F3809105058F3F52
:1036800079F080910505803269F0809105058033DD
:1036900059F084E00F91089585EEE7CF81E0FACFED
:1036A00080E0F8CF82E0F6CF83E0F4CF0F93062FCF
:1036B00021E04091800562E875E08091A2059FDFDE
:1036C000109281051092800510927F050F91089548
:1036D0004F925F926F927F92AF92BF92CF92EF9292
:1036E000FF920F931F93CF93DF935C01F62ED42F9D
:1036F00028013901EE2011F1862F09DFCE2DC430CB
:1037000008F0C3E0C150B8F028E0C29FC001112406
:10371000A301920104C056954795379527958A9540
:10372000D2F7B901D501ED91FC910190F081E02D26
:10373000C5011995E7CF60E0C501B8DF4D2FD13243
:1037400008F040E22C2D65EA75E08F2D11DF109214
:10375000A4058093A305DF91CF911F910F91FF9056
:10376000EF90CF90BF90AF907F906F905F904F9011
:103770000895CF92EF920F931F93C22EE12C00E099
:1037800010E09801A5DF1F910F91EF90CF90089561
:1037900021E0EFCF61E08ACF20912705260F332764
:1037A000331F21323105E4F4209172052430D1F425
:1037B000FC0190E080E0861760F4A091270521913C
:1037C000AC01475D5A4FA40FB52FB11D2C93019644
:1037D000F2CF80912705680F6093270580E0089558
:1037E00081E0089582E00895CF93DF931F92CDB7D3
:1037F000DEB7698320917F052223F9F020918005AF
:10380000203258F021E030E0FC013383228390E045
:1038100080E00F90DF91CF91089580918105E82F8E
:10382000F0E0EE57FA4F998190838F5F8093810586
:103830008093800581E090E0ECCF61E0CE010196BD
:10384000ABDFF8CFCF92DF92EF92FF920F931F93EF
:10385000CF93DF937C01CB018A0120917F05222346
:1038600089F0EB016B01C40ED51ECC15DD0561F0AE
:103870006991D701ED91FC910190F081E02DC70194
:103880001995F3CF642F88DFC801DF91CF911F9185
:103890000F91FF90EF90DF90CF90089585ED80938A
:1038A000BC008091BC0084FDFCCF1092720508958D
:1038B00085EC8093BC001092720508951F920F92C0
:1038C0000FB60F9211240BB60F922F933F934F9385
:1038D0005F936F937F938F939F93AF93BF93EF9378
:1038E000FF938091B900887F803609F44CC008F0BE
:1038F0003FC0883209F4A8C028F5803109F49CC083
:10390000C8F4882309F4F8C0883009F495C0FF9101
:10391000EF91BF91AF919F918F917F916F915F9147
:103920004F913F912F910F900BBE0F900FBE0F90B4
:103930001F901895883109F487C0803241F7809331
:10394000050514C0803409F49CC040F48033B9F3F9
:103950008833E9F680930505ABDFD9CF803509F4CC
:1039600084C0883509F495C0883489F697DFCFCFB5
:10397000883909F48CC038F5883729F050F4883636
:1039800011F0803721F683E08093720510920605CE
:1039900057C0883809F47BC0803919F0803809F0A5
:1039A000B6CF80910605803208F071C0E09106051F
:1039B00081E08E0F809306058091BB00F0E0E95F07
:1039C000FA4F80833DC0803B39F0E0F4803A09F43F
:1039D00079C0883A09F09BCF84E0809372051092F9
:1039E000280510922705E0916D05F0916E05199557
:1039F0008091270581110FC081E0809327051092E7
:103A0000290509C0803C09F475C0883C09F472C0DE
:103A1000883B09F07CCFE091280581E08E0F8093F0
:103A20002805F0E0E75DFA4F80818093BB0090911C
:103A300028058091270529C0809171058093BB00DE
:103A400085EC8093BC0063CF90914A058091490535
:103A5000981758F5E0914A0581E08E0F80934A054A
:103A6000F0E0E55BFA4F8081E9CFE0914A0581E023
:103A70008E0F80934A058091BB00F0E0E55BFA4F22
:103A8000808390914A05809149059817C8F285E88E
:103A9000D8CFE0914A0581E08E0F80934A0580914E
:103AA000BB00F0E0E55BFA4F8083809170058111E7
:103AB0005DCF81E080936F0584EA8093BC00109213
:103AC000720525CFF5DE80910605803230F4E09155
:103AD0000605F0E0E95FFA4F10826091060570E09C
:103AE000E0916B05F0916C0587E095E019951092D7
:103AF00006050DCF85ECE1CF1092050537CF0F936A
:103B00001F93CF93DF93EC01062F142F8981FFDCE5
:103B1000602F83E795E068DE612F83E795E064DE40
:103B200083E795E037DE8883DF91CF911F910F9176
:103B300008951F93CF93DF93EC01162F462F4F77F5
:103B40006AE8DDDF1983DF91CF911F910895FF921D
:103B50000F931F93CF93DF93EC01F62E142F052FB5
:103B60008981D5DC6F2D83E795E03EDE602F83E70A
:103B700095E03ADE612F83E795E036DE83E795E056
:103B800009DE8883DF91CF911F910F91FF900895F7
:103B9000CF92DF92EF92FF921F93CF93DF93EC01CE
:103BA000162F69017A018981B2DC612F83E795E0E4
:103BB0001BDE6F2D77278827992783E795E014DE92
:103BC000B7018827992783E795E00EDE99278F2D87
:103BD0007E2D6D2D83E795E007DE6C2D83E795E064
:103BE00003DE83E795E0D6DD8883DF91CF911F91D7
:103BF000FF90EF90DF90CF9008951F93CF93DF93C6
:103C0000EC01162F898183DC612F83E795E0ECDDE1
:103C100083E795E0BFDD888341E0698183E795E034
:103C2000B7DD83E795E050DCDF91CF911F910895D8
:103C30001F93CF93DF93EC01162F898168DC612FEE
:103C400083E795E0D1DD83E795E0A4DD888342E05A
:103C5000698183E795E09CDD83E795E035DCD82F2B
:103C600080E0C82F83E795E02FDC8C2B9D2BDF9124
:103C7000CF911F910895DF92EF92FF920F931F93C0
:103C8000CF93DF937C01C62FD42E052F122FFC017A
:103C900081813DDC6C2F83E795E0A6DDCD2DD02F13
:103CA000115028F0699183E795E09EDDF9CF83E715
:103CB00095E070DDF7018083DF91CF911F910F9127
:103CC000FF90EF90DF900895EF92FF920F931F9374
:103CD000CF93DF93EC01E62EF42E052F122F89816E
:103CE00016DC6E2D83E795E07FDD83E795E052DDFE
:103CF0008883412F698183E795E04ADDCF2DD02F5E
:103D0000115028F083E795E0DFDB8993F9CFDF914D
:103D1000CF911F910F91FF90EF900895611571055C
:103D200029F460E56ADF8F5F880F089561307105BF
:103D300011F460E7F7CF8FEF0895CF92DF92EF9203
:103D4000FF92CF93DF93EC016A017B0141E060E8D1
:103D5000D6DE41E06FEFCE01D2DE40E060E0CE0182
:103D6000CEDE4F8161E9CE01CADE41E060E0CE01E6
:103D7000C6DE40E06FEFCE01C2DE40E060E8CE017B
:103D8000BEDE42E0C114D104E104F10491F068EF19
:103D9000CE014EDF009739F0DC01A70196010E94A9
:103DA000573C6B017C01A701960164E0CE01F0DE77
:103DB00044E060E0CE01DF91CF91FF90EF90DF9083
:103DC000CF909DCE0F931F93CF93DF93EC010E9472
:103DD0007C347E836D8363E1CE010FDF8770C9F48D
:103DE0008A819B81892BB9F30E947C342D813E818D
:103DF000621B730B8A819B818617970760F781E0AE
:103E00008C830FEF1FEFC801DF91CF911F910F91AE
:103E100008956EE1CE010CDF8C0141E06BE0CE0134
:103E20006EDEF1CFEF92FF920F931F93CF93DF934C
:103E3000EC017B018A0141E060E861DE41E06FEF67
:103E4000CE015DDE40E060E0CE0159DE46E06FEF7E
:103E5000CE0155DE63E8CE01D0DE482F446063E832
:103E6000CE014DDE47E06FEFCE0149DE41E061E873
:103E7000CE0145DE41E060E8CE0141DE4BE664E97B
:103E8000CE013DDE40E063E8CE0139DE0E947C34A5
:103E90007E836D8363E8CE01B0DE811111C08A811B
:103EA0009B81892BB9F30E947C342D813E81621B5A
:103EB000730B8A819B818617970760F780E031C07A
:103EC00041E063E8CE011BDE62E9CE0196DE982F69
:103ED0009F77F7019083881F8827881FF8018083C8
:103EE00040E061E8CE010BDE46E06FEFCE0107DE79
:103EF00063E8CE0182DE482F4B7F63E8CE01FFDD11
:103F000041E06FEFCE01FBDD41E060E0CE01F7DD87
:103F100040E06FEFCE01F3DD40E060E8CE01EFDD81
:103F200081E0DF91CF911F910F91FF90EF90089565
:103F3000CF93DF93EB0161E060DE84FB992790F97A
:103F4000988383FB992790F99A8382FB992790F9AC
:103F5000998386FB992790F99B83881F8827881F60
:103F60008C83DF91CF9108959C013327A90102C072
:103F7000440F551F9A95E2F7CA01019608950F93D1
:103F80001F930097B9F00197B0E0A0E050E040E047
:103F90008C019D010027012B022B032B39F0B695D4
:103FA000A795979587954F5F5F4FF2CF342F2227C4
:103FB000822B932B1F910F9108954F925F926F92D6
:103FC0007F928F929F92AF92BF92CF92DF92EF92A9
:103FD000FF925C01A62FB0E020E03FE24AE350E010
:103FE0000E94573C6B017C0124EFC20E21E0D21EDF
:103FF000E11CF11C88EE482E83E0582E612C712CB8
:10400000C701B601A30192010E942D3CD5010E9477
:10401000573C4B015C01C701B60120ED37E040E0A1
:1040200050E00E942D3CC501B401620F731F841F34
:10403000951FA30192010E942D3CCA01B901FF9076
:10404000EF90DF90CF90BF90AF909F908F907F9038
:104050006F905F904F900895EF92FF920F931F9390
:10406000CF93DF938C017B01EA0170E060E056DEC4
:1040700090E09983888366E4C801BFDD90E00196F3
:104080009D838C83688199DF6A877B878C879D8776
:1040900061E5C801CDDD68DF9F838E8368818DDF98
:1040A0006E877F87888B998B60E7C801A6DD8F5F5D
:1040B000880F90E09B838A8361E7C801B9DD54DFF4
:1040C00099878887F7012381222331F02E813F8150
:1040D000821B930B998788876A81888599856DDF14
:1040E0006A8B7B8B8C8B9D8BDF91CF911F910F9176
:1040F000FF90EF900895CF92DF92EF92FF920F938F
:104100001F93CF93DF93CDB7DEB76B970FB6F894BD
:10411000DEBF0FBECDBF8C01BE01695E7F4F08DFE1
:10412000AE014F5F5F4FBE01695E7F4FC80194DFF4
:104130008F89882309F454C06B857C858D859E8585
:104140006C57724F8F4F9F4F298D222309F44DC01A
:10415000CB84DC84ED84FE8422EBC20E22E0D21EEE
:10416000E11CF11CCC0CDD1CEE1CFF1C6C0D7D1D3C
:104170008E1D9F1D2A8D222371F0CF84D888E98857
:10418000FA88F4E9CF0EF2E0DF1EE11CF11C6C0DA1
:104190007D1D8E1D9F1D2B8D222371F0CB88DC8809
:1041A000ED88FE8826E2C20E22E0D21EE11CF11C40
:1041B0006C0D7D1D8E1D9F1DF801608771878287A4
:1041C00093876B960FB6F894DEBF0FBECDBFDF911D
:1041D000CF911F910F91FF90EF90DF90CF900895B6
:1041E00066E37BE080E090E0AFCF288D222311F2E0
:1041F000CB84DC84ED84FE84E4E9CE0EE2E0DE1EB6
:10420000E11CF11CB3CF8F929F92AF92BF92CF92DD
:10421000DF92EF92FF924B015C01A42FB0E020E00F
:104220003FE24AE350E00E94573C6B017C0124EFDF
:10423000C20E21E0D21EE11CF11CA8EEB3E0A501E4
:1042400094010E94573C4B015C01C701B60120ED6F
:1042500037E040E050E00E942D3C820E931EA41EE9
:10426000B51EC701B60128EE33E040E050E00E94E1
:104270002D3CC501B4010E942D3CCA01B901FF903B
:10428000EF90DF90CF90BF90AF909F908F90089568
:104290008F929F92AF92BF92CF92DF92EF92FF9256
:1042A0000F931F93CF93DF93CDB7DEB76B970FB606
:1042B000F894DEBF0FBECDBF40322EE45207610539
:1042C000710508F48DC04A015B017C01BE01695E85
:1042D0007F4F2EDEAE014F5F5F4FBE01695E7F4FA5
:1042E000C701BADE8F8908EE18E020E030E08823AD
:1042F00041F00B851C852D853E850A5C144F2F4FA0
:104300003F4F898D882309F45BC08B859C85AD85E3
:10431000BE858E549D4FAF4FBF4F880F991FAA1F68
:10432000BB1F080F191F2A1F3B1FCA8CCC2061F02E
:104330008F859889A989BA898C569D4FAF4FBF4FF9
:10434000080F191F2A1F3B1FDB8CDD2009F445C015
:104350000A5D1D4F2F4F3F4F80169106A206B306F0
:1043600008F43EC0C501B401601B710B820B930BB6
:104370004B8149DF9B01CC2021F02F813885260F0E
:10438000371FC901FCDDAC0161E7C701E0DBF701C4
:1043900080869186A286B3868D2D6B960FB6F89493
:1043A000DEBF0FBECDBFDF91CF911F910F91FF9068
:1043B000EF90DF90CF90BF90AF909F908F90089537
:1043C000888D882309F4B1CF8B859C85AD85BE850A
:1043D0008C569D4FAF4FBF4FA4CFDD24D394DCCF7D
:1043E000D12CDACFCF93DF93EC01462F416060E010
:1043F00086DB0E947C347E836D8363E1CE01FDDB2E
:10440000877089F48A819B81892BB9F30E947C345F
:104410002D813E81621B730B8A819B8186179707D2
:1044200060F780E009C041E06BE0CE0168DB40E06E
:1044300060E0CE0164DB81E0DF91CF910895EF92DF
:10444000FF920F931F93CF93DF9300D000D01F9262
:104450001F92CDB7DEB78C01662339F069E8CDDB5A
:10446000482F416069E8C8014ADB40E068E8C801BC
:1044700046DB41E060E8C80142DB41E06FEFC80184
:104480003EDB40E060E0C8013ADB61E9C801B5DB32
:10449000F801878341E060E0C80131DB40E06FEF65
:1044A000C8012DDB40E060E8C80129DB60E6C801F7
:1044B000A4DB482F426160E6C80121DB40E250E006
:1044C00064E4C80144DB4FEF61E0C80118DBAE01D2
:1044D000495F5F4FBE01685F7F4FC801A3DC811158
:1044E0000FC0F12C8F2D28960FB6F894DEBF0FBEAB
:1044F000CDBFDF91CF911F910F91FF90EF90089565
:1045000026E0AE014F5F5F4F60EBC801DDDB41E0AD
:104510006FEFC801F4DA40E06FE4C801F0DA4CE272
:104520006EE4C801ECDA40E06FEFC801E8DA44EB72
:1045300066EBC801E4DA8F81ACE0811101C0A0E034
:10454000B88580E090E0EE24E394F12C482F469566
:104550004695469550E021E030E02C0F3D1F240F9A
:10456000351FF9012081682F67708A1710F0B91381
:1045700097C1E1E0F0E0EC0FFD1F4E0F5F1FF70168
:1045800002C0EE0FFF1F6A95E2F7BF016095262378
:10459000FA0120838F5F8033C9F626E0AE014F5FBA
:1045A0005F4F60EBC80167DB41E06FEFC801A7DA3E
:1045B00040E060E0C801A3DA40E06FEFC8019FDA95
:1045C00040E069E0C8019BDA40E060E1C80197DAA9
:1045D00040E061E1C80193DA41E064E2C8018FDAAA
:1045E0004FEF65E2C8018BDA40E065E7C80187DA82
:1045F00041E06FEFC80183DA4CE26EE4C8017FDA74
:1046000040E068E4C8017BDA40E260E3C80177DAA1
:1046100040E06FEFC80173DA49E060E3C8016FDA88
:1046200040E064E5C8016BDA44E061E3C80167DAA1
:1046300043E062E3C80163DA43E860E4C8015FDA9B
:1046400045E266E4C8015BDA40E060E6C80157DA9B
:1046500040E067E2C80153DA46E060E5C8014FDA9E
:1046600040E061E5C8014BDA46E962E5C80147DA96
:1046700048E066E5C80143DA40E367E5C8013FDA90
:1046800040E061E6C8013BDA40E062E6C80137DAA3
:1046900040E064E6C80133DA40E065E6C8012FDA9D
:1046A00040EA66E6C8012BDA41E06FEFC80127DA7D
:1046B00042E362E2C80123DA44E167E4C8011FDA99
:1046C0004FEF69E4C8011BDA40E06AE4C80117DA79
:1046D00040E06FEFC80113DA4AE06AE7C8010FDA79
:1046E00040E06BE7C8010BDA41E268E7C80107DA8E
:1046F00041E06FEFC80103DA44E363E2C801FFD988
:1047000040E062E4C801FBD94FEF64E4C801F7D987
:1047100046E265E4C801F3D945E066E4C801EFD993
:1047200040E460E4C801EBD946E06EE0C801E7D997
:104730004AE160E2C801E3D940E463E4C801DFD99B
:1047400040E06FEFC801DBD943E064E3C801D7D98B
:1047500044E465E3C801D3D941E06FEFC801CFD984
:1047600044E061E3C801CBD949E06BE4C801C7D993
:1047700045E06CE4C801C3D944E06DE4C801BFD989
:1047800040E06FEFC801BBD940E064E4C801B7D98D
:1047900040E265E4C801B3D948E067E4C801AFD995
:1047A00048E268E4C801ABD940E067E6C801A7D990
:1047B00044E060E7C801A3D941E061E7C8019FD99F
:1047C0004EEF62E7C8019BD940E066E7C80197D980
:1047D00040E067E7C80193D941E06FEFC8018FD986
:1047E00041E06DE0C8018BD940E06FEFC80187D987
:1047F00041E060E8C80183D948EF61E0C8017FD992
:1048000041E06FEFC8017BD941E06EE8C80177D97C
:1048100041E060E0C80173D940E06FEFC8016FD993
:1048200040E060E8C8016BD944E06AE0C80167D99C
:1048300064E8C801E2D9482F4F7E64E8C8015FD917
:1048400041E06BE0C8015BD9C80155DCF801608725
:1048500071878287938748EE61E0C80150D9F801DB
:104860004085518562857385C80112DD41E061E0B4
:10487000C80145D960E4C801B5DD882309F431CE0B
:1048800042E061E0C8013BD960E0C801ABDDF82E31
:10489000882309F426CE48EE61E0C80130D922CE43
:1048A00030E002C0359527956A95E2F720FF72CE79
:1048B0009F5F70CE0F931F93CF93DF938C01EB011B
:1048C000FA0120E030E040E85FE36081718182819D
:1048D00093810E944332811113C089EF94E072DA10
:1048E000B0E0A0E0F80180839183A283B3838DEED2
:1048F00094E068DAB0E0A0E088839983AA83BB8360
:10490000DF91CF911F910F910895CF93DF93EA012B
:1049100020E030E040E85FE3688179818A819B8113
:104920000E944332882309F43CC061E085E00E9484
:10493000AB3583E795E00E94AF1A6AE28DEE94E012
:10494000F8D860E085E00E94AB356AE070E080E076
:1049500090E00E94AD3461E089EF94E070DD61E0A9
:104960008DEE94E06CDD88E893E19093FC048093F5
:10497000FB049093F0048093EF0440E050E0BA0110
:1049800089EF94E0DAD940E050E0BA018DEE94E08E
:10499000D4D980E090E0A0E8BFE388839983AA831C
:1049A000BB83DF91CF910895E3E7F5E01382128294
:1049B00088EE93E0A0E0B0E084839583A683B7837C
:1049C00085E893E091838083E9EFF4E089E28183D5
:1049D000138212821482EDEEF4E08183138212823C
:1049E0001482089540E855E260E070E090E080E0D5
:1049F00000C08130910579F01CF4892B39F00895BD
:104A00008230910561F0039771F0089526E082E00D
:104A100096E00C94DE3626E08FE996E0FACF26E0A9
:104A20008CE397E0F6CF26E089ED97E0F2CF08958A
:104A3000CF92DF92EF92FF920F931F930E948834E0
:104A40006093C5057093C6058093C7059093C8050C
:104A50000091C9051091CA052091CB053091CC0574
:104A60006B017C01C01AD10AE20AF30A97018601A0
:104A7000003117422105310518F16093C905709383
:104A8000CA058093CB059093CC050E9429310E94E2
:104A900088340091C9051091CA052091CB05309149
:104AA000CC05601B710B820B930B60317742810543
:104AB000910570F081E090E09093F8058093F70500
:104AC00081E01F910F91FF90EF90DF90CF900895BC
:104AD0001092F8051092F705F3CF8F929F92AF9244
:104AE000BF92CF92DF92EF92FF920F931F93CF93DB
:104AF000DF935C017B018A01C1E0D0E0CE15DF05C8
:104B0000CCF081E0F5018083B801C7010E949030AC
:104B1000F5019283818390E080E0DF91CF911F9136
:104B20000F91FF90EF90DF90CF90BF90AF909F904C
:104B30008F9008956E018FEFC81AD80AFE01EE0F0C
:104B4000FF1FE00FF11F808091808114910469F0B4
:104B500063E973E0C4010E94353E892B41F4CC0F18
:104B6000DD1FC00FD11F19821882E601C7CF66E989
:104B700073E0C4010E94353E892BB9F7EC14FD04A3
:104B8000A1F36E01E2E0CE0ED11CCC0FDD1FC00FF1
:104B9000D11F198218821B821A82E7CF8DEC95E013
:104BA000089580E008950F931F93CF93DF938B01B7
:104BB000BA01E901198218829801012E000C440BF8
:104BC000550BFC01818192810E94151A019641F0DA
:104BD0001983088380E0DF91CF911F910F91089591
:104BE00081E0F9CF0F931F93CF93DF931F921F9212
:104BF000CDB7DEB7FB018A01B9019E012F5F3F4FA0
:104C0000AF01FC01818192810E94A430019669F07C
:104C100089819A81F8019183808380E00F900F90C1
:104C2000DF91CF911F910F91089581E0F7CFFC01A3
:104C3000808108950895089581E0FB01808380E0DC
:104C4000089508951092F5050895FC0181819281DF
:104C50000C948830CF93DF9300D000D000D01F9207
:104C6000CDB7DEB7B0E0A0E089839A83AB83BC8385
:104C7000CB01770FAA0BBB0B8D839E83AF83B887C5
:104C80009E01275F3F4FAE014F5F5F4F68E070E0CE
:104C90008091E4059091E50586DF811110C081E0E7
:104CA00029853A852830310509F480E02A960FB627
:104CB000F894DEBF0FBECDBFDF91CF91089581E0A4
:104CC000F5CF0F931F93CF93DF931F921F92CDB712
:104CD000DEB78B019E012F5F3F4FAC018091E40551
:104CE0009091E50560DF81110EC081E029813A8154
:104CF0002017310709F480E00F900F90DF91CF91DA
:104D00001F910F91089581E0F7CFCF93DF93EC01CE
:104D10001092E8051092E7051092F4051092F30541
:104D2000AC0160E070E0CB010E94D313AE0161E002
:104D300070E080E090E00E94D3138091E4059091B0
:104D4000E505DF91CF917DCF4F925F926F927F9279
:104D50008F929F92AF92BF92CF92DF92EF92FF928B
:104D60000F931F93CF93DF931F921F92CDB7DEB7A0
:104D70008C017C0197FF03C087E0E80EF11C23E063
:104D8000F594E7942A95E1F7C80168E070E00E9485
:104D90001A3C6C010E5F1F4F8091E2059091E30574
:104DA00080179107D4F48091E0059091E105009778
:104DB00031F00E949C3D1092E3051092E205C8017B
:104DC0000E94003D9093E1058093E005892B09F452
:104DD00082C01093E3050093E20510E000E047C1B4
:104DE000412C512C3201B12CA12C950127513A4F65
:104DF000AE014F5F5F4F61E070E08091E4059091FC
:104E0000E505F0DE811149C0EFEF4E1A5E0A6E0A29
:104E10007E0AF0E94F16FFE55F06F1E06F067104C8
:104E200044F06091F3057091F4058DEE90E012DF8F
:104E3000D7CF89819A81A80EB91E8AE0A816B1043D
:104E400009F043C049E050E070E060E089EE95E091
:104E50000E941B316091F3057091F405882391F154
:104E60008091F10590E08617970781F4BC018EEEE2
:104E700090E0F0DE8091F3059091F405019699277A
:104E80009093F4058093F3050F5F1F4F0E151F05D8
:104E90000CF4A6CFCD2809F07CC090E080E00F9004
:104EA0000F90DF91CF911F910F91FF90EF90DF90C6
:104EB000CF90BF90AF909F908F907F906F905F90BA
:104EC0004F9008958FEE90E0B2CFEAE0AE16B104B5
:104ED0000CF48BCFDBCF10E000E0D8CF0A30110507
:104EE00031F549E050E070E060E089EE95E00E9425
:104EF0001B316091F3057091F4058823A9F080912E
:104F0000F10590E08617970741F6BC018EEE90E020
:104F1000A1DE8091F3059091F40501969927909375
:104F2000F4058093F305B9CF8FEE90E02BC00A30E3
:104F300011050CF0B2CF980127513A4FAE014F5FE7
:104F40005F4F61E070E08091E4059091E5054ADEF5
:104F50008111A3CF89819A81080F191FFFEFCF1A02
:104F6000DF0AEF0AFF0A80E9C8168FE5D80681E05C
:104F7000E806F1040CF4B2CF6091F3057091F405EA
:104F80008DEE90E067DE10E000E0C12CD12C7601C0
:104F9000D2CFC12CD12C760110E000E0CCCF412C37
:104FA000512C3201B12CA12C480193E0880C991CA2
:104FB0009A95E1F72091E0053091E105C501880D52
:104FC000991D280F391FAE014F5F5F4F61E070E000
:104FD0008091E4059091E50505DE81115ECFEFEF4C
:104FE0004E1A5E0A6E0A7E0A6091F3057091F4050E
:104FF0008DEE90E0F0E94F16FFE55F06F1E06F06F9
:1050000071040CF043C089819A81A80EB91E8AE010
:10501000A816B10409F041C049E050E0B401809104
:10502000E0059091E1050E941B316091F3057091BC
:10503000F405882349F18091E0059091E105880EFF
:10504000991EF401808590E08617970781F4BC01D2
:105050008EEE90E0FFDD8091F3059091F4050196CE
:1050600099279093F4058093F3050F5F1F4F0E155A
:105070001F050CF494CFC114D10409F081C08091B4
:10508000E0059091E1050BCF8FEE90E0E3DD412C40
:10509000512C3201B12CA12C8DCFFAE0AF16B10406
:1050A0000CF488CFE4CF8FEE90E0D4DDF12CE12C2E
:1050B000812C912C5401970127513A4FAE014F5F3B
:1050C0005F4F61E070E08091E4059091E5058ADD35
:1050D0008111E3CE8FEF881A980AA80AB80A609166
:1050E000F3057091F4058DEE90E0E0E98E16EFE5A2
:1050F0009E06E1E0AE06B104C4F689819A81E80E0D
:10510000F91EFAE0EF16F104A9F549E050E070E06D
:1051100060E089EE95E00E941B316091F30570918B
:10512000F405882309F4BFCF8091F10590E086173C
:10513000970709F0A4CFBC018EEE90E08BDD83E0F1
:10514000000F111F8A95E1F78091E0059091E1052C
:10515000A60169EE75E0800F911F0E94253E8091A7
:10516000F3059091F405019699279093F4058093A7
:10517000F30585CF8AE0E816F1040CF49CCF7FCFCD
:10518000812C912C5401F12CE12C95CFCF92DF9200
:10519000EF92FF920F931F93CF93DF931F92CDB7A0
:1051A000DEB76C017B018A01452B39F0AB0170E061
:1051B00060E0C8010E9417318983B701C6014ADD4A
:1051C00081110DC00115110551F0B701C80179DD3C
:1051D000811105C061E070E0CE01019672DD0F9093
:1051E000DF91CF911F910F91FF90EF90DF90CF90C3
:1051F0000895CF92DF92EF92FF92CF93DF9300D08A
:1052000000D01F921F92CDB7DEB76B01F12CE12CBD
:10521000C982DA82EB82FC822D833E834F835887DA
:10522000AE014F5F5F4F68E070E0B0DF28960FB6C9
:10523000F894DEBF0FBECDBFDF91CF91FF90EF900E
:10524000DF90CF9008958F929F92AF92BF92CF92AE
:10525000DF92EF92FF920F931F93CF93DF937C0126
:10526000EB01CA01690170DD0097B1F42FEF3FEF48
:10527000A90161E070E0C701BCDFC1E08C2FDF91C4
:10528000CF911F910F91FF90EF90DF90CF90BF9043
:10529000AF909F908F900895FC0181909190A19084
:1052A000B190BF01FCE1EF16F10479F4A50194017E
:1052B000CE010E943912C82FA5019401882369F0FC
:1052C00061E070E0C70195DFD9CF95018401AB01A2
:1052D000B601CE010E943C10EECF70E060E0C70145
:1052E000DF91CF911F910F91FF90EF90DF90CF90C2
:1052F000BF90AF909F908F907CCF0F931F93CF93D1
:10530000DF93EC018B014ADC9093E5058093E40583
:105310000097A9F0A801BE01E0DBEC01892B49F060
:105320008091E4059091E50585DC1092E5051092E9
:10533000E405CE01DF91CF911F910F910895C2EA4C
:10534000D3E0EECF8091E4059091E50570CC2F92EB
:105350003F924F925F926F927F928F929F92AF9205
:10536000BF92CF92DF92EF92FF920F931F93CF9352
:10537000DF93CDB7DEB769970FB6F894DEBF0FBEE7
:10538000CDBF2091E8052223F9F05B8B4A8B6E8715
:105390007F87888B998B9A01AB01BC01CE01019666
:1053A0007C010E94A31810E048E0242E312CE88EE6
:1053B000F98E89819A81181619060CF451C21123AD
:1053C00019F08A899B89A1DC69960FB6F894DEBF33
:1053D0000FBECDBFDF91CF911F910F91FF90EF9046
:1053E000DF90CF90BF90AF909F908F907F906F9005
:1053F0005F904F903F902F900895EB81FC818C85BA
:105400009D8533E0880F991F3A95E1F7E80FF91F62
:10541000808191819093DF058093DE052481358121
:10542000428153815093DD054093DC0546815781CD
:105430005093DB054093DA05820F931F9C01990F6F
:10544000440B550B2C8B3D8B4E8B5F8B812C912C01
:1054500054018C899D89AE89BF8988169906AA0650
:10546000BB0640F18C859D85880F991FED81FE81DB
:10547000E80FF91F4E855F85688979898081918160
:105480000E940514AC85BD851196BD87AC878981C6
:105490009A81EC85FD85E817F9070CF4AECF2A89CF
:1054A0003B894E855F8568897989888D998D0E94B1
:1054B000A3187FCF1F826091DE057091DF05CB01BD
:1054C000072E000CAA0BBB0B84017501640134E0AC
:1054D000C30ED11CE11CF11CC816D906EA06FB0656
:1054E00008F0B3C02091DC053091DD05A4014C5FCC
:1054F0005F4F240F351FF901C080D12CF12CE12C16
:1055000024013501F5E04F0E511C611C711C481639
:1055100059066A067B0608F0A3C02091DC0530918D
:10552000DD05F8013596E20FF31F2081D22A240110
:10553000350126E0420E511C611C711C48165906AB
:105540006A067B0608F097C02091DC053091DD05E6
:10555000F8013696E20FF31F2081E22A240135017B
:1055600037E0430E511C611C711C481659066A062F
:105570007B0608F08BC02091DC053091DD05F80139
:105580003796E20FF31F208126013701722A750139
:10559000640148E0C40ED11CE11CF11C8C159D0572
:1055A000AE05BF0508F41DC188169906AA06BB06FC
:1055B00008F077C08091DC059091DD05800F911F88
:1055C00068E070E07EDBE091DE05F091DF059F0191
:1055D0000F2E000C440B550BD301C2018C0D9D1DE9
:1055E000AE1DBF1D281739074A075B0708F478C0AE
:1055F000C216D306E406F50608F05DC08091DC050E
:105600009091DD059801285F3F4F820F931FB201F3
:1056100058DB8091DE059091DF05AC01092E000C6E
:10562000660B770BC416D506E606F70608F04DC0E4
:10563000085F1F4F8091DC059091DD05800F911F61
:10564000A20170E060E0F3D5A7C044E050E0461B43
:10565000570B480D591D2091DA053091DB0549CFD4
:10566000E5E0F0E0E61BF70BE00FF11F2091DA0513
:105670003091DB0558CFE6E0F0E0E61BF70BE00FDA
:10568000F11F2091DA053091DB0564CFE7E0F0E00F
:10569000E61BF70BE00FF11F2091DA053091DB05D7
:1056A00070CF9801261B370B8091DA059091DB05AE
:1056B000820F931F85CF91012E1B3F0B200F311FAF
:1056C0008091DA059091DB05A0CFD101A81BB90B21
:1056D000CD01080F191F8091DA059091DB05AECF3F
:1056E000BF0168507109601B710BC216D306E40636
:1056F000F50608F062C08091DC059091DD05980107
:10570000285F3F4F820F931FDCDA8091DE05909176
:10571000DF05B101681B790B600F711F640D751DEA
:105720008091DA059091DB05CCDA8091DE059091CD
:10573000DF05AC0148505109FA01E01BF10BAC0147
:10574000092E000C660B770BC416D506E606F70685
:1057500008F03DC08091DC059091DD059801285F3F
:105760003F4F820F931FAF0170E060E060D58F83E1
:105770002091DE053091DF05F101E21BF30B9F0163
:10578000200F311F240D351D50E040E0682F80911F
:10579000DA059091DB0537D58F8361E070E0CE01AB
:1057A00007968FDA182F38E0430E511C611C711CCC
:1057B000840C951CA61CB71C4CCE91012E1B3F0BD4
:1057C000200F311F8091DA059091DB059BCF91016D
:1057D000281B390B200F311F8091DA059091DB05D2
:1057E000C0CF88169906AA06BB0668F5601B710B28
:1057F0008091DC059091DD05800F911F62DA809128
:10580000DE059091DF05B101681B790B600F711FF8
:10581000640D751D8091DA059091DB0552DA809157
:10582000DE059091DF05AC01092E000C660B770BAD
:10583000C416D506E606F70608F4FACE9101281B31
:10584000390BC90146CFC801861B970B2091DA0599
:105850003091DB05B201685F7F4F820F931FDECF6F
:105860001D861C8614CECF93DF93EC01AC0160E063
:1058700070E0CB016CDDAE0161E070E080E090E0B3
:10588000DF91CF9164CDCF938091E4059091E505B0
:1058900088D9C82F81110BC060E070E0CB010E9455
:1058A000FE0E61E070E080E090E00E94FE0E8C2F22
:1058B000CF9108950F931F9389019A01AB01BC0109
:1058C0008091E4059091E505B6D91F910F91089557
:1058D0004F925F926F927F928F929F92AF92BF9200
:1058E000CF92DF92EF92FF920F931F93CF93DF93AC
:1058F000CDB7DEB763970FB6F894DEBF0FBECDBF4E
:105900006C018B015A018091E805882309F43DC0A0
:105910008091E805882309F442C08091E7051A8246
:105920001982882309F4C0C0F0E94F2EFFE55F2EED
:1059300066246394712CF12CE12C970120533A4F8B
:10594000AE014F5F5F4F61E070E08091E4059091A0
:10595000E50548D9982E811169C089819A81E80EA0
:10596000F91EE114F10409F461C081E0481A5108FC
:105970006108710859F56091F3057091F4058DEE99
:1059800090E068D91A82198251C068EE75E0809162
:10599000E4059091E50550D9882309F4B9CF6396C1
:1059A0000FB6F894DEBF0FBECDBFDF91CF911F9130
:1059B0000F91FF90EF90DF90CF90BF90AF909F90AE
:1059C0008F907F906F905F904F900895AAE0EA16B5
:1059D000F10409F063C049E050E070E060E080ED60
:1059E00095E029D46091F3057091F405882309F4BA
:1059F00052C08091D80590E08617970719F6BC0130
:105A00008EEE90E027D988E0E0EDF5E0DE01199612
:105A100001900D928A95E1F78091F3059091F4053C
:105A2000019699279093F4058093F30581E02981ED
:105A30003A81121613060CF080E09110CAC2882336
:105A400009F4ADCF8091E705811104C019861A864B
:105A50001B861C8689859A85AB85BC85803191051E
:105A6000A105B10508F09BCFFC018827E55CF24D4C
:105A70008F4F0C944F3CBB2D7A2FE92FCF2CBF2E8C
:105A8000F22EAB2DB32D8F2DCE2FBD2FCA2FCF2CA5
:105A9000CF2CCF2C7A2D8FEE90E073CFBAE0EB169F
:105AA000F1040CF44ACFC2CFF12CE12CE8E06E2EC9
:105AB000712C29E030E02C0F3D1F2E0D3F1DAE0153
:105AC0004F5F5F4FB3016E197F098091E40590919C
:105AD000E50588D8982E29813A81811109C0E20E06
